{
  "contractName": "BNDESToken",
  "abi": [
    {
      "inputs": [
        {
          "internalType": "contract BNDESRegistry",
          "name": "_registry",
          "type": "address"
        },
        {
          "internalType": "uint8",
          "name": "_decimals",
          "type": "uint8"
        }
      ],
      "payable": false,
      "stateMutability": "nonpayable",
      "type": "constructor"
    },
    {
      "anonymous": false,
      "inputs": [
        {
          "indexed": false,
          "internalType": "address",
          "name": "client",
          "type": "address"
        },
        {
          "indexed": false,
          "internalType": "uint256",
          "name": "amount",
          "type": "uint256"
        }
      ],
      "name": "Disbursement",
      "type": "event"
    },
    {
      "anonymous": false,
      "inputs": [
        {
          "indexed": false,
          "internalType": "address",
          "name": "donor",
          "type": "address"
        },
        {
          "indexed": false,
          "internalType": "uint256",
          "name": "amount",
          "type": "uint256"
        }
      ],
      "name": "DonationBooked",
      "type": "event"
    },
    {
      "anonymous": false,
      "inputs": [
        {
          "indexed": false,
          "internalType": "address",
          "name": "donor",
          "type": "address"
        },
        {
          "indexed": false,
          "internalType": "uint256",
          "name": "amount",
          "type": "uint256"
        }
      ],
      "name": "DonationConfirmed",
      "type": "event"
    },
    {
      "anonymous": false,
      "inputs": [
        {
          "indexed": false,
          "internalType": "address",
          "name": "client",
          "type": "address"
        },
        {
          "indexed": false,
          "internalType": "uint256",
          "name": "amount",
          "type": "uint256"
        }
      ],
      "name": "RedemptionRequested",
      "type": "event"
    },
    {
      "anonymous": false,
      "inputs": [
        {
          "indexed": false,
          "internalType": "address",
          "name": "client",
          "type": "address"
        },
        {
          "indexed": false,
          "internalType": "uint256",
          "name": "amount",
          "type": "uint256"
        }
      ],
      "name": "RedemptionSettlement",
      "type": "event"
    },
    {
      "anonymous": false,
      "inputs": [
        {
          "indexed": false,
          "internalType": "address",
          "name": "from",
          "type": "address"
        },
        {
          "indexed": false,
          "internalType": "address",
          "name": "to",
          "type": "address"
        },
        {
          "indexed": false,
          "internalType": "uint256",
          "name": "amount",
          "type": "uint256"
        }
      ],
      "name": "Transfer",
      "type": "event"
    },
    {
      "constant": true,
      "inputs": [
        {
          "internalType": "address",
          "name": "",
          "type": "address"
        }
      ],
      "name": "bookedBalances",
      "outputs": [
        {
          "internalType": "uint256",
          "name": "",
          "type": "uint256"
        }
      ],
      "payable": false,
      "stateMutability": "view",
      "type": "function"
    },
    {
      "constant": true,
      "inputs": [],
      "name": "bookedTotalSupply",
      "outputs": [
        {
          "internalType": "uint256",
          "name": "",
          "type": "uint256"
        }
      ],
      "payable": false,
      "stateMutability": "view",
      "type": "function"
    },
    {
      "constant": true,
      "inputs": [
        {
          "internalType": "address",
          "name": "",
          "type": "address"
        }
      ],
      "name": "confirmedBalances",
      "outputs": [
        {
          "internalType": "uint256",
          "name": "",
          "type": "uint256"
        }
      ],
      "payable": false,
      "stateMutability": "view",
      "type": "function"
    },
    {
      "constant": true,
      "inputs": [],
      "name": "confirmedTotalSupply",
      "outputs": [
        {
          "internalType": "uint256",
          "name": "",
          "type": "uint256"
        }
      ],
      "payable": false,
      "stateMutability": "view",
      "type": "function"
    },
    {
      "constant": true,
      "inputs": [],
      "name": "decimals",
      "outputs": [
        {
          "internalType": "uint8",
          "name": "",
          "type": "uint8"
        }
      ],
      "payable": false,
      "stateMutability": "view",
      "type": "function"
    },
    {
      "constant": false,
      "inputs": [
        {
          "internalType": "uint256",
          "name": "amount",
          "type": "uint256"
        }
      ],
      "name": "bookDonation",
      "outputs": [],
      "payable": false,
      "stateMutability": "nonpayable",
      "type": "function"
    },
    {
      "constant": false,
      "inputs": [
        {
          "internalType": "address",
          "name": "account",
          "type": "address"
        },
        {
          "internalType": "uint256",
          "name": "amount",
          "type": "uint256"
        }
      ],
      "name": "confirmDonation",
      "outputs": [],
      "payable": false,
      "stateMutability": "nonpayable",
      "type": "function"
    },
    {
      "constant": false,
      "inputs": [
        {
          "internalType": "address",
          "name": "client",
          "type": "address"
        },
        {
          "internalType": "uint256",
          "name": "amount",
          "type": "uint256"
        }
      ],
      "name": "makeDisbursement",
      "outputs": [],
      "payable": false,
      "stateMutability": "nonpayable",
      "type": "function"
    },
    {
      "constant": false,
      "inputs": [
        {
          "internalType": "uint256",
          "name": "amount",
          "type": "uint256"
        }
      ],
      "name": "requestRedemption",
      "outputs": [],
      "payable": false,
      "stateMutability": "nonpayable",
      "type": "function"
    },
    {
      "constant": false,
      "inputs": [
        {
          "internalType": "address",
          "name": "to",
          "type": "address"
        },
        {
          "internalType": "uint256",
          "name": "amount",
          "type": "uint256"
        }
      ],
      "name": "redemptionSettlement",
      "outputs": [
        {
          "internalType": "bool",
          "name": "",
          "type": "bool"
        }
      ],
      "payable": false,
      "stateMutability": "nonpayable",
      "type": "function"
    },
    {
      "constant": false,
      "inputs": [
        {
          "internalType": "uint64",
          "name": "cnpj",
          "type": "uint64"
        },
        {
          "internalType": "uint64",
          "name": "idFinancialSupportAgreement",
          "type": "uint64"
        },
        {
          "internalType": "string",
          "name": "idProofHash",
          "type": "string"
        }
      ],
      "name": "registryLegalEntity",
      "outputs": [],
      "payable": false,
      "stateMutability": "nonpayable",
      "type": "function"
    },
    {
      "constant": false,
      "inputs": [
        {
          "internalType": "uint64",
          "name": "cnpj",
          "type": "uint64"
        },
        {
          "internalType": "uint64",
          "name": "idFinancialSupportAgreement",
          "type": "uint64"
        },
        {
          "internalType": "string",
          "name": "idProofHash",
          "type": "string"
        }
      ],
      "name": "changeAccountLegalEntity",
      "outputs": [],
      "payable": false,
      "stateMutability": "nonpayable",
      "type": "function"
    },
    {
      "constant": true,
      "inputs": [
        {
          "internalType": "address",
          "name": "client",
          "type": "address"
        }
      ],
      "name": "confirmedBalanceOf",
      "outputs": [
        {
          "internalType": "uint256",
          "name": "",
          "type": "uint256"
        }
      ],
      "payable": false,
      "stateMutability": "view",
      "type": "function"
    },
    {
      "constant": true,
      "inputs": [
        {
          "internalType": "address",
          "name": "donor",
          "type": "address"
        }
      ],
      "name": "bookedBalanceOf",
      "outputs": [
        {
          "internalType": "uint256",
          "name": "",
          "type": "uint256"
        }
      ],
      "payable": false,
      "stateMutability": "view",
      "type": "function"
    },
    {
      "constant": true,
      "inputs": [],
      "name": "getBookedTotalSupply",
      "outputs": [
        {
          "internalType": "uint256",
          "name": "",
          "type": "uint256"
        }
      ],
      "payable": false,
      "stateMutability": "view",
      "type": "function"
    },
    {
      "constant": true,
      "inputs": [],
      "name": "getConfirmedTotalSupply",
      "outputs": [
        {
          "internalType": "uint256",
          "name": "",
          "type": "uint256"
        }
      ],
      "payable": false,
      "stateMutability": "view",
      "type": "function"
    },
    {
      "constant": true,
      "inputs": [],
      "name": "getDecimals",
      "outputs": [
        {
          "internalType": "uint8",
          "name": "",
          "type": "uint8"
        }
      ],
      "payable": false,
      "stateMutability": "view",
      "type": "function"
    }
  ],
  "bytecode": "0x608060405234801561001057600080fd5b50604051611fd3380380611fd38339818101604052604081101561003357600080fd5b81019080805190602001909291908051906020019092919050505081600460016101000a81548173ffffffffffffffffffffffffffffffffffffffff021916908373ffffffffffffffffffffffffffffffffffffffff16021790555080600460006101000a81548160ff021916908360ff1602179055505050611f18806100bb6000396000f3fe608060405234801561001057600080fd5b506004361061010b5760003560e01c8063890fc54a116100a2578063c7354f8f11610071578063c7354f8f1461046b578063cb09e94c146104d1578063eeb3c910146105b4578063f0141d84146105e2578063f259fe1e146106065761010b565b8063890fc54a146102ee578063a4b1484b146103d1578063a79a8b2d1461041f578063c5dee09b1461044d5761010b565b8063613c33be116100de578063613c33be146101c857806365572c8a146101e657806369742aa81461023e5780637b850cc6146102965761010b565b806313d95b54146101105780631879fb9d1461012e578063313ce5671461014c578063575e5c0214610170575b600080fd5b610118610654565b6040518082815260200191505060405180910390f35b61013661065a565b6040518082815260200191505060405180910390f35b610154610660565b604051808260ff1660ff16815260200191505060405180910390f35b6101b26004803603602081101561018657600080fd5b81019080803573ffffffffffffffffffffffffffffffffffffffff169060200190929190505050610673565b6040518082815260200191505060405180910390f35b6101d061068b565b6040518082815260200191505060405180910390f35b610228600480360360208110156101fc57600080fd5b81019080803573ffffffffffffffffffffffffffffffffffffffff169060200190929190505050610695565b6040518082815260200191505060405180910390f35b6102806004803603602081101561025457600080fd5b81019080803573ffffffffffffffffffffffffffffffffffffffff1690602001909291905050506106de565b6040518082815260200191505060405180910390f35b6102d8600480360360208110156102ac57600080fd5b81019080803573ffffffffffffffffffffffffffffffffffffffff1690602001909291905050506106f6565b6040518082815260200191505060405180910390f35b6103cf6004803603606081101561030457600080fd5b81019080803567ffffffffffffffff169060200190929190803567ffffffffffffffff1690602001909291908035906020019064010000000081111561034957600080fd5b82018360208201111561035b57600080fd5b8035906020019184600183028401116401000000008311171561037d57600080fd5b91908080601f016020809104026020016040519081016040528093929190818152602001838380828437600081840152601f19601f82011690508083019250505050505050919291929050505061073e565b005b61041d600480360360408110156103e757600080fd5b81019080803573ffffffffffffffffffffffffffffffffffffffff16906020019092919080359060200190929190505050610a1d565b005b61044b6004803603602081101561043557600080fd5b8101908080359060200190929190505050610c1c565b005b610455610e21565b6040518082815260200191505060405180910390f35b6104b76004803603604081101561048157600080fd5b81019080803573ffffffffffffffffffffffffffffffffffffffff16906020019092919080359060200190929190505050610e2b565b604051808215151515815260200191505060405180910390f35b6105b2600480360360608110156104e757600080fd5b81019080803567ffffffffffffffff169060200190929190803567ffffffffffffffff1690602001909291908035906020019064010000000081111561052c57600080fd5b82018360208201111561053e57600080fd5b8035906020019184600183028401116401000000008311171561056057600080fd5b91908080601f016020809104026020016040519081016040528093929190818152602001838380828437600081840152601f19601f8201169050808301925050505050505091929192905050506111b7565b005b6105e0600480360360208110156105ca57600080fd5b810190808035906020019092919050505061131a565b005b6105ea611518565b604051808260ff1660ff16815260200191505060405180910390f35b6106526004803603604081101561061c57600080fd5b81019080803573ffffffffffffffffffffffffffffffffffffffff1690602001909291908035906020019092919050505061152f565b005b60025481565b60035481565b600460009054906101000a900460ff1681565b60006020528060005260406000206000915090505481565b6000600254905090565b6000600160008373ffffffffffffffffffffffffffffffffffffffff1673ffffffffffffffffffffffffffffffffffffffff168152602001908152602001600020549050919050565b60016020528060005260406000206000915090505481565b60008060008373ffffffffffffffffffffffffffffffffffffffff1673ffffffffffffffffffffffffffffffffffffffff168152602001908152602001600020549050919050565b6000600460019054906101000a900473ffffffffffffffffffffffffffffffffffffffff1673ffffffffffffffffffffffffffffffffffffffff16633933384985856040518363ffffffff1660e01b8152600401808367ffffffffffffffff1667ffffffffffffffff1681526020018267ffffffffffffffff1667ffffffffffffffff1681526020019250505060206040518083038186803b1580156107e357600080fd5b505afa1580156107f7573d6000803e3d6000fd5b505050506040513d602081101561080d57600080fd5b810190808051906020019092919050505090506000339050600460019054906101000a900473ffffffffffffffffffffffffffffffffffffffff1673ffffffffffffffffffffffffffffffffffffffff16633d6e154e868633876040518563ffffffff1660e01b8152600401808567ffffffffffffffff1667ffffffffffffffff1681526020018467ffffffffffffffff1667ffffffffffffffff1681526020018373ffffffffffffffffffffffffffffffffffffffff1673ffffffffffffffffffffffffffffffffffffffff16815260200180602001828103825283818151815260200191508051906020019080838360005b8381101561091c578082015181840152602081019050610901565b50505050905090810190601f1680156109495780820380516001836020036101000a031916815260200191505b5095505050505050600060405180830381600087803b15801561096b57600080fd5b505af115801561097f573d6000803e3d6000fd5b505050506000600160008473ffffffffffffffffffffffffffffffffffffffff1673ffffffffffffffffffffffffffffffffffffffff168152602001908152602001600020541115610a1657610a158282600160008673ffffffffffffffffffffffffffffffffffffffff1673ffffffffffffffffffffffffffffffffffffffff16815260200190815260200160002054611923565b5b5050505050565b600460019054906101000a900473ffffffffffffffffffffffffffffffffffffffff1673ffffffffffffffffffffffffffffffffffffffff16634add3110336040518263ffffffff1660e01b8152600401808273ffffffffffffffffffffffffffffffffffffffff1673ffffffffffffffffffffffffffffffffffffffff16815260200191505060206040518083038186803b158015610abc57600080fd5b505afa158015610ad0573d6000803e3d6000fd5b505050506040513d6020811015610ae657600080fd5b8101908080519060200190929190505050610b0057600080fd5b610bad600460019054906101000a900473ffffffffffffffffffffffffffffffffffffffff1673ffffffffffffffffffffffffffffffffffffffff166357cdcb3e6040518163ffffffff1660e01b815260040160206040518083038186803b158015610b6b57600080fd5b505afa158015610b7f573d6000803e3d6000fd5b505050506040513d6020811015610b9557600080fd5b81019080805190602001909291905050508383611923565b7f2d9872944dd7b4c730a8217ddf85e6d5f1263f81afaec4b7f7f641b69cb613888282604051808373ffffffffffffffffffffffffffffffffffffffff1673ffffffffffffffffffffffffffffffffffffffff1681526020018281526020019250505060405180910390a15050565b600460019054906101000a900473ffffffffffffffffffffffffffffffffffffffff1673ffffffffffffffffffffffffffffffffffffffff1663f50cd96b336040518263ffffffff1660e01b8152600401808273ffffffffffffffffffffffffffffffffffffffff1673ffffffffffffffffffffffffffffffffffffffff16815260200191505060206040518083038186803b158015610cbb57600080fd5b505afa158015610ccf573d6000803e3d6000fd5b505050506040513d6020811015610ce557600080fd5b8101908080519060200190929190505050610cff57600080fd5b6000339050610d1982600254611d5190919063ffffffff16565b600281905550610d70826000808473ffffffffffffffffffffffffffffffffffffffff1673ffffffffffffffffffffffffffffffffffffffff16815260200190815260200160002054611d5190919063ffffffff16565b6000808373ffffffffffffffffffffffffffffffffffffffff1673ffffffffffffffffffffffffffffffffffffffff168152602001908152602001600020819055507fd816ab47b57b7088ac7568167677a08c1bf82e2793f3843f2d59c703abbe699d8183604051808373ffffffffffffffffffffffffffffffffffffffff1673ffffffffffffffffffffffffffffffffffffffff1681526020018281526020019250505060405180910390a15050565b6000600354905090565b6000600460019054906101000a900473ffffffffffffffffffffffffffffffffffffffff1673ffffffffffffffffffffffffffffffffffffffff166385fecf9b336040518263ffffffff1660e01b8152600401808273ffffffffffffffffffffffffffffffffffffffff1673ffffffffffffffffffffffffffffffffffffffff16815260200191505060206040518083038186803b158015610ecc57600080fd5b505afa158015610ee0573d6000803e3d6000fd5b505050506040513d6020811015610ef657600080fd5b8101908080519060200190929190505050610f1057600080fd5b6000600460019054906101000a900473ffffffffffffffffffffffffffffffffffffffff1673ffffffffffffffffffffffffffffffffffffffff1663f4ec73676040518163ffffffff1660e01b815260040160206040518083038186803b158015610f7a57600080fd5b505afa158015610f8e573d6000803e3d6000fd5b505050506040513d6020811015610fa457600080fd5b81019080805190602001909291905050509050600073ffffffffffffffffffffffffffffffffffffffff168173ffffffffffffffffffffffffffffffffffffffff16141561105a576040517f08c379a000000000000000000000000000000000000000000000000000000000815260040180806020018281038252601a8152602001807f6275726e2066726f6d20746865207a65726f206164647265737300000000000081525060200191505060405180910390fd5b6110e3836040518060400160405280601b81526020017f6275726e20616d6f756e7420657863656564732062616c616e63650000000000815250600160008573ffffffffffffffffffffffffffffffffffffffff1673ffffffffffffffffffffffffffffffffffffffff16815260200190815260200160002054611dd99092919063ffffffff16565b600160008373ffffffffffffffffffffffffffffffffffffffff1673ffffffffffffffffffffffffffffffffffffffff1681526020019081526020016000208190555061113b83600354611e9990919063ffffffff16565b6003819055507f9bacfa53742aa9c2d6c9daaf38c0e82a1124c75bc4c52b271ac21eaa407a4fbc8484604051808373ffffffffffffffffffffffffffffffffffffffff1673ffffffffffffffffffffffffffffffffffffffff1681526020018281526020019250505060405180910390a1600191505092915050565b600460019054906101000a900473ffffffffffffffffffffffffffffffffffffffff1673ffffffffffffffffffffffffffffffffffffffff166356eb8510848433856040518563ffffffff1660e01b8152600401808567ffffffffffffffff1667ffffffffffffffff1681526020018467ffffffffffffffff1667ffffffffffffffff1681526020018373ffffffffffffffffffffffffffffffffffffffff1673ffffffffffffffffffffffffffffffffffffffff16815260200180602001828103825283818151815260200191508051906020019080838360005b838110156112ae578082015181840152602081019050611293565b50505050905090810190601f1680156112db5780820380516001836020036101000a031916815260200191505b5095505050505050600060405180830381600087803b1580156112fd57600080fd5b505af1158015611311573d6000803e3d6000fd5b50505050505050565b600460019054906101000a900473ffffffffffffffffffffffffffffffffffffffff1673ffffffffffffffffffffffffffffffffffffffff1663c01ed210336040518263ffffffff1660e01b8152600401808273ffffffffffffffffffffffffffffffffffffffff1673ffffffffffffffffffffffffffffffffffffffff16815260200191505060206040518083038186803b1580156113b957600080fd5b505afa1580156113cd573d6000803e3d6000fd5b505050506040513d60208110156113e357600080fd5b81019080805190602001909291905050506113fd57600080fd5b6114aa33600460019054906101000a900473ffffffffffffffffffffffffffffffffffffffff1673ffffffffffffffffffffffffffffffffffffffff1663f4ec73676040518163ffffffff1660e01b815260040160206040518083038186803b15801561146957600080fd5b505afa15801561147d573d6000803e3d6000fd5b505050506040513d602081101561149357600080fd5b810190808051906020019092919050505083611923565b7f3779310b71beb93dce3cb4f282d1ee00e2a6c89891587b17c1842ba12f7d52a43382604051808373ffffffffffffffffffffffffffffffffffffffff1673ffffffffffffffffffffffffffffffffffffffff1681526020018281526020019250505060405180910390a150565b6000600460009054906101000a900460ff16905090565b600460019054906101000a900473ffffffffffffffffffffffffffffffffffffffff1673ffffffffffffffffffffffffffffffffffffffff16635b072a50336040518263ffffffff1660e01b8152600401808273ffffffffffffffffffffffffffffffffffffffff1673ffffffffffffffffffffffffffffffffffffffff16815260200191505060206040518083038186803b1580156115ce57600080fd5b505afa1580156115e2573d6000803e3d6000fd5b505050506040513d60208110156115f857600080fd5b810190808051906020019092919050505061161257600080fd5b61162781600254611e9990919063ffffffff16565b60028190555061164281600354611d5190919063ffffffff16565b600381905550611699816000808573ffffffffffffffffffffffffffffffffffffffff1673ffffffffffffffffffffffffffffffffffffffff16815260200190815260200160002054611e9990919063ffffffff16565b6000808473ffffffffffffffffffffffffffffffffffffffff1673ffffffffffffffffffffffffffffffffffffffff168152602001908152602001600020819055506117cf8160016000600460019054906101000a900473ffffffffffffffffffffffffffffffffffffffff1673ffffffffffffffffffffffffffffffffffffffff166357cdcb3e6040518163ffffffff1660e01b815260040160206040518083038186803b15801561174b57600080fd5b505afa15801561175f573d6000803e3d6000fd5b505050506040513d602081101561177557600080fd5b810190808051906020019092919050505073ffffffffffffffffffffffffffffffffffffffff1673ffffffffffffffffffffffffffffffffffffffff16815260200190815260200160002054611d5190919063ffffffff16565b60016000600460019054906101000a900473ffffffffffffffffffffffffffffffffffffffff1673ffffffffffffffffffffffffffffffffffffffff166357cdcb3e6040518163ffffffff1660e01b815260040160206040518083038186803b15801561183b57600080fd5b505afa15801561184f573d6000803e3d6000fd5b505050506040513d602081101561186557600080fd5b810190808051906020019092919050505073ffffffffffffffffffffffffffffffffffffffff1673ffffffffffffffffffffffffffffffffffffffff168152602001908152602001600020819055507f5f892826e853f98486e1c28e98dbed781fa2ddccbac8d8430a400efca37de2158282604051808373ffffffffffffffffffffffffffffffffffffffff1673ffffffffffffffffffffffffffffffffffffffff1681526020018281526020019250505060405180910390a15050565b600460019054906101000a900473ffffffffffffffffffffffffffffffffffffffff1673ffffffffffffffffffffffffffffffffffffffff16632f54bf6e336040518263ffffffff1660e01b8152600401808273ffffffffffffffffffffffffffffffffffffffff1673ffffffffffffffffffffffffffffffffffffffff16815260200191505060206040518083038186803b1580156119c257600080fd5b505afa1580156119d6573d6000803e3d6000fd5b505050506040513d60208110156119ec57600080fd5b8101908080519060200190929190505050611a0657600080fd5b600073ffffffffffffffffffffffffffffffffffffffff168373ffffffffffffffffffffffffffffffffffffffff161415611aa9576040517f08c379a000000000000000000000000000000000000000000000000000000000815260040180806020018281038252601e8152602001807f7472616e736665722066726f6d20746865207a65726f2061646472657373000081525060200191505060405180910390fd5b600073ffffffffffffffffffffffffffffffffffffffff168273ffffffffffffffffffffffffffffffffffffffff161415611b4c576040517f08c379a000000000000000000000000000000000000000000000000000000000815260040180806020018281038252601c8152602001807f7472616e7366657220746f20746865207a65726f20616464726573730000000081525060200191505060405180910390fd5b611bd5816040518060400160405280601f81526020017f7472616e7366657220616d6f756e7420657863656564732062616c616e636500815250600160008773ffffffffffffffffffffffffffffffffffffffff1673ffffffffffffffffffffffffffffffffffffffff16815260200190815260200160002054611dd99092919063ffffffff16565b600160008573ffffffffffffffffffffffffffffffffffffffff1673ffffffffffffffffffffffffffffffffffffffff16815260200190815260200160002081905550611c6a81600160008573ffffffffffffffffffffffffffffffffffffffff1673ffffffffffffffffffffffffffffffffffffffff16815260200190815260200160002054611d5190919063ffffffff16565b600160008473ffffffffffffffffffffffffffffffffffffffff1673ffffffffffffffffffffffffffffffffffffffff168152602001908152602001600020819055507fddf252ad1be2c89b69c2b068fc378daa952ba7f163c4a11628f55a4df523b3ef838383604051808473ffffffffffffffffffffffffffffffffffffffff1673ffffffffffffffffffffffffffffffffffffffff1681526020018373ffffffffffffffffffffffffffffffffffffffff1673ffffffffffffffffffffffffffffffffffffffff168152602001828152602001935050505060405180910390a1505050565b600080828401905083811015611dcf576040517f08c379a000000000000000000000000000000000000000000000000000000000815260040180806020018281038252601b8152602001807f536166654d6174683a206164646974696f6e206f766572666c6f77000000000081525060200191505060405180910390fd5b8091505092915050565b6000838311158290611e86576040517f08c379a00000000000000000000000000000000000000000000000000000000081526004018080602001828103825283818151815260200191508051906020019080838360005b83811015611e4b578082015181840152602081019050611e30565b50505050905090810190601f168015611e785780820380516001836020036101000a031916815260200191505b509250505060405180910390fd5b5060008385039050809150509392505050565b6000611edb83836040518060400160405280601e81526020017f536166654d6174683a207375627472616374696f6e206f766572666c6f770000815250611dd9565b90509291505056fea265627a7a72315820aa7f83f19de1d6c7b156a513c8343c19ba0d1efe3028eb317654dafcfe00442364736f6c63430005100032",
  "source": "pragma solidity ^0.5.0;\r\n\r\n//import './SafeMath.sol';\r\nimport './BNDESRegistry.sol';\r\n\r\ncontract BNDESToken {\r\n    using SafeMath for uint256;\r\n    \r\n    /* This table stores the intentions of donations */\r\n    mapping (address => uint256) public bookedBalances;\r\n    /* This table stores the real BNDESTokens for BNDES and its Clients */\r\n    mapping (address => uint256) public confirmedBalances;\r\n    /* The current amount composed by intentions of donations */\r\n    uint256 public bookedTotalSupply;\r\n    /* The current amount of BNDESTokens minted  */\r\n    uint256 public confirmedTotalSupply;\r\n    /* Number of decimals stored in balance's mappings */\r\n    uint8 public decimals;\r\n    \r\n    /* Higher level events */\r\n    event DonationBooked(address donor, uint256 amount);\r\n    event DonationConfirmed(address donor, uint256 amount);\r\n    event Disbursement(address client, uint256 amount);\r\n    event RedemptionRequested(address client, uint256 amount);\r\n    event RedemptionSettlement(address client, uint256 amount);\r\n    \r\n    /* Lower level event (close to the ERC20) */\r\n    event Transfer(address from, address to, uint256 amount);    \r\n    \r\n    BNDESRegistry registry;\r\n    \r\n    constructor (BNDESRegistry _registry, uint8 _decimals) public {\r\n        registry = BNDESRegistry(_registry);\r\n        decimals = _decimals;\r\n    }\r\n    \r\n    /* Donor books a donation */\r\n    function bookDonation(uint256 amount) public whenNotPaused onlyValidatedDonor {\r\n        address account = msg.sender;\r\n        bookedTotalSupply = bookedTotalSupply.add(amount);\r\n        bookedBalances[account] = bookedBalances[account].add(amount);\r\n        emit DonationBooked(account, amount);\r\n    }\r\n    \r\n    /* BNDES confirms the donor's donation */\r\n    function confirmDonation(address account, uint256 amount) public whenNotPaused onlyResponsibleForDonationConfirmation {\r\n        bookedTotalSupply = bookedTotalSupply.sub(amount);\r\n        confirmedTotalSupply = confirmedTotalSupply.add(amount);\r\n        \r\n        bookedBalances[account] = bookedBalances[account].sub(amount);\r\n        confirmedBalances[registry.getResponsibleForDisbursement()] = confirmedBalances[registry.getResponsibleForDisbursement()].add(amount);\r\n        \r\n        emit DonationConfirmed(account, amount);\r\n    }\r\n    \r\n    /* BNDES disbursement - transfer donations to a client */\r\n    function makeDisbursement(address client, uint256 amount) public whenNotPaused onlyResponsibleForDisbursement {\r\n        _transfer(registry.getResponsibleForDisbursement(), client, amount);\r\n        emit Disbursement(client, amount);\r\n    }\r\n    \r\n    /* Client request a redemption */\r\n    function requestRedemption(uint256 amount) public whenNotPaused onlyValidatedClient {\r\n        _transfer(msg.sender, registry.getResponsibleForSettlement(), amount);\r\n        emit RedemptionRequested(msg.sender, amount);\r\n    }\r\n    \r\n    /* BNDES settles the client's redemption */\r\n    function redemptionSettlement (address to, uint256 amount) public whenNotPaused onlyResponsibleForSettlement returns (bool) {\r\n        address account = registry.getResponsibleForSettlement();\r\n        require(account != address(0), \"burn from the zero address\");\r\n        confirmedBalances[account] = confirmedBalances[account].sub(amount, \"burn amount exceeds balance\");\r\n        confirmedTotalSupply = confirmedTotalSupply.sub(amount);\r\n        emit RedemptionSettlement(to, amount);\r\n        return true;\r\n    }\r\n    \r\n    /* BNDES transfers confirmedBalances from a sender to a receiver */\r\n    function _transfer(address sender, address recipient, uint256 amount) internal onlyOwner {\r\n        require(sender != address(0), \"transfer from the zero address\");\r\n        require(recipient != address(0), \"transfer to the zero address\");\r\n\r\n        confirmedBalances[sender] = confirmedBalances[sender].sub(amount, \"transfer amount exceeds balance\");\r\n        confirmedBalances[recipient] = confirmedBalances[recipient].add(amount);\r\n        emit Transfer(sender, recipient, amount);\r\n    }\r\n    \r\n    function registryLegalEntity(uint64 cnpj, uint64 idFinancialSupportAgreement, string memory idProofHash) \r\n        public whenNotPaused { \r\n        registry.registryLegalEntity(cnpj,  idFinancialSupportAgreement, msg.sender, idProofHash);\r\n    }\r\n\r\n   /**\r\n    * Changes the original link between CNPJ and Ethereum account. \r\n    * The new link still needs to be validated by BNDES.\r\n    * IMPORTANT: The BNDESTOKENs are transfered from the original to the new Ethereum address \r\n    * @param cnpj Brazilian identifier to legal entities\r\n    * @param idFinancialSupportAgreement contract number of financial contract with BNDES. It assumes 0 if it is a supplier.\r\n    * @param idProofHash The legal entities have to send BNDES a PDF where it assumes as responsible for an Ethereum account. \r\n    *                   This PDF is signed with eCNPJ and send to BNDES. \r\n    */\r\n    function changeAccountLegalEntity(uint64 cnpj, uint64 idFinancialSupportAgreement, string memory idProofHash) \r\n        public whenNotPaused {\r\n        \r\n        address oldAddr = registry.getBlockchainAccount(cnpj, idFinancialSupportAgreement);\r\n        address newAddr = msg.sender;\r\n        \r\n        registry.changeAccountLegalEntity(cnpj, idFinancialSupportAgreement, msg.sender, idProofHash);\r\n\r\n        // Se h saldo no enderecoAntigo, precisa transferir\r\n        if (confirmedBalances[oldAddr] > 0) {\r\n            _transfer(oldAddr, newAddr, confirmedBalances[oldAddr]);\r\n        }\r\n    }\r\n\r\n    function confirmedBalanceOf(address client) public view returns (uint256) {\r\n        return confirmedBalances[client];\r\n    }    \r\n\r\n    function bookedBalanceOf(address donor) public view returns (uint256) {\r\n        return bookedBalances[donor];\r\n    }        \r\n\r\n    function getBookedTotalSupply() public view returns (uint256) {\r\n        return bookedTotalSupply;\r\n    }        \r\n\r\n    function getConfirmedTotalSupply() public view returns (uint256) {\r\n        return confirmedTotalSupply;\r\n    } \r\n    \r\n    function getDecimals() public view returns (uint8) {\r\n        return decimals;\r\n    }    \r\n    \r\n    modifier whenNotPaused() {\r\n        // FIXME: remove it when the import Pausable is available \r\n        _;\r\n    }    \r\n    modifier onlyResponsibleForDonationConfirmation() {\r\n        require(registry.isResponsibleForDonationConfirmation(msg.sender));        \r\n        _;\r\n    }\r\n    modifier onlyResponsibleForDisbursement() {\r\n        require(registry.isResponsibleForDisbursement(msg.sender));\r\n        _;\r\n    }\r\n    modifier onlyResponsibleForSettlement() {\r\n        require(registry.isResponsibleForSettlement(msg.sender));\r\n        _;\r\n    }\r\n    modifier onlyValidatedClient() {\r\n        require(registry.isValidatedClient(msg.sender));\r\n        _;\r\n    }\r\n    modifier onlyValidatedDonor() {\r\n        require(registry.isValidatedDonor(msg.sender));\r\n        _;\r\n    }\r\n    modifier onlyOwner() {\r\n        require(registry.isOwner(msg.sender));\r\n        _;\r\n    }    \r\n}\r\n\r\n\r\n\r\nlibrary SafeMath {\r\n    /**\r\n     * @dev Returns the addition of two unsigned integers, reverting on\r\n     * overflow.\r\n     *\r\n     * Counterpart to Solidity's `+` operator.\r\n     *\r\n     * Requirements:\r\n     * - Addition cannot overflow.\r\n     */\r\n    function add(uint256 a, uint256 b) internal pure returns (uint256) {\r\n        uint256 c = a + b;\r\n        require(c >= a, \"SafeMath: addition overflow\");\r\n\r\n        return c;\r\n    }\r\n\r\n    /**\r\n     * @dev Returns the subtraction of two unsigned integers, reverting on\r\n     * overflow (when the result is negative).\r\n     *\r\n     * Counterpart to Solidity's `-` operator.\r\n     *\r\n     * Requirements:\r\n     * - Subtraction cannot overflow.\r\n     */\r\n    function sub(uint256 a, uint256 b) internal pure returns (uint256) {\r\n        return sub(a, b, \"SafeMath: subtraction overflow\");\r\n    }\r\n\r\n    /**\r\n     * @dev Returns the subtraction of two unsigned integers, reverting with custom message on\r\n     * overflow (when the result is negative).\r\n     *\r\n     * Counterpart to Solidity's `-` operator.\r\n     *\r\n     * Requirements:\r\n     * - Subtraction cannot overflow.\r\n     *\r\n     * _Available since v2.4.0._\r\n     */\r\n    function sub(uint256 a, uint256 b, string memory errorMessage) internal pure returns (uint256) {\r\n        require(b <= a, errorMessage);\r\n        uint256 c = a - b;\r\n\r\n        return c;\r\n    }\r\n\r\n    /**\r\n     * @dev Returns the multiplication of two unsigned integers, reverting on\r\n     * overflow.\r\n     *\r\n     * Counterpart to Solidity's `*` operator.\r\n     *\r\n     * Requirements:\r\n     * - Multiplication cannot overflow.\r\n     */\r\n    function mul(uint256 a, uint256 b) internal pure returns (uint256) {\r\n        // Gas optimization: this is cheaper than requiring 'a' not being zero, but the\r\n        // benefit is lost if 'b' is also tested.\r\n        // See: https://github.com/OpenZeppelin/openzeppelin-contracts/pull/522\r\n        if (a == 0) {\r\n            return 0;\r\n        }\r\n\r\n        uint256 c = a * b;\r\n        require(c / a == b, \"SafeMath: multiplication overflow\");\r\n\r\n        return c;\r\n    }\r\n\r\n    /**\r\n     * @dev Returns the integer division of two unsigned integers. Reverts on\r\n     * division by zero. The result is rounded towards zero.\r\n     *\r\n     * Counterpart to Solidity's `/` operator. Note: this function uses a\r\n     * `revert` opcode (which leaves remaining gas untouched) while Solidity\r\n     * uses an invalid opcode to revert (consuming all remaining gas).\r\n     *\r\n     * Requirements:\r\n     * - The divisor cannot be zero.\r\n     */\r\n    function div(uint256 a, uint256 b) internal pure returns (uint256) {\r\n        return div(a, b, \"SafeMath: division by zero\");\r\n    }\r\n\r\n    /**\r\n     * @dev Returns the integer division of two unsigned integers. Reverts with custom message on\r\n     * division by zero. The result is rounded towards zero.\r\n     *\r\n     * Counterpart to Solidity's `/` operator. Note: this function uses a\r\n     * `revert` opcode (which leaves remaining gas untouched) while Solidity\r\n     * uses an invalid opcode to revert (consuming all remaining gas).\r\n     *\r\n     * Requirements:\r\n     * - The divisor cannot be zero.\r\n     *\r\n     * _Available since v2.4.0._\r\n     */\r\n    function div(uint256 a, uint256 b, string memory errorMessage) internal pure returns (uint256) {\r\n        // Solidity only automatically asserts when dividing by 0\r\n        require(b > 0, errorMessage);\r\n        uint256 c = a / b;\r\n        // assert(a == b * c + a % b); // There is no case in which this doesn't hold\r\n\r\n        return c;\r\n    }\r\n\r\n    /**\r\n     * @dev Returns the remainder of dividing two unsigned integers. (unsigned integer modulo),\r\n     * Reverts when dividing by zero.\r\n     *\r\n     * Counterpart to Solidity's `%` operator. This function uses a `revert`\r\n     * opcode (which leaves remaining gas untouched) while Solidity uses an\r\n     * invalid opcode to revert (consuming all remaining gas).\r\n     *\r\n     * Requirements:\r\n     * - The divisor cannot be zero.\r\n     */\r\n    function mod(uint256 a, uint256 b) internal pure returns (uint256) {\r\n        return mod(a, b, \"SafeMath: modulo by zero\");\r\n    }\r\n\r\n    /**\r\n     * @dev Returns the remainder of dividing two unsigned integers. (unsigned integer modulo),\r\n     * Reverts with custom message when dividing by zero.\r\n     *\r\n     * Counterpart to Solidity's `%` operator. This function uses a `revert`\r\n     * opcode (which leaves remaining gas untouched) while Solidity uses an\r\n     * invalid opcode to revert (consuming all remaining gas).\r\n     *\r\n     * Requirements:\r\n     * - The divisor cannot be zero.\r\n     *\r\n     * _Available since v2.4.0._\r\n     */\r\n    function mod(uint256 a, uint256 b, string memory errorMessage) internal pure returns (uint256) {\r\n        require(b != 0, errorMessage);\r\n        return a % b;\r\n    }\r\n}",
  "sourcePath": "D:\\git.repo\\bndestoken-captacao\\Back-Blockchain\\contracts\\BNDESToken.sol",
  "compiler": {
    "name": "solc",
    "version": "0.5.16+commit.9c3226ce.Emscripten.clang"
  },
  "schemaVersion": "3.0.23",
  "updatedAt": "2020-02-10T20:45:07.580Z",
  "networkType": "ethereum",
  "devdoc": {
    "methods": {
      "changeAccountLegalEntity(uint64,uint64,string)": {
        "params": {
          "cnpj": "Brazilian identifier to legal entities",
          "idFinancialSupportAgreement": "contract number of financial contract with BNDES. It assumes 0 if it is a supplier.",
          "idProofHash": "The legal entities have to send BNDES a PDF where it assumes as responsible for an Ethereum account.                   This PDF is signed with eCNPJ and send to BNDES. "
        }
      }
    }
  },
  "userdoc": {
    "methods": {
      "changeAccountLegalEntity(uint64,uint64,string)": {
        "notice": "Changes the original link between CNPJ and Ethereum account.  The new link still needs to be validated by BNDES. IMPORTANT: The BNDESTOKENs are transfered from the original to the new Ethereum address "
      }
    }
  }
}