{
  "contractName": "BNDESRegistry",
  "abi": [
    {
      "inputs": [],
      "payable": false,
      "stateMutability": "nonpayable",
      "type": "constructor"
    },
    {
      "anonymous": false,
      "inputs": [
        {
          "indexed": false,
          "internalType": "address",
          "name": "oldAddr",
          "type": "address"
        },
        {
          "indexed": false,
          "internalType": "address",
          "name": "newAddr",
          "type": "address"
        },
        {
          "indexed": false,
          "internalType": "uint64",
          "name": "cnpj",
          "type": "uint64"
        },
        {
          "indexed": false,
          "internalType": "uint64",
          "name": "idFinancialSupportAgreement",
          "type": "uint64"
        },
        {
          "indexed": false,
          "internalType": "string",
          "name": "idProofHash",
          "type": "string"
        }
      ],
      "name": "AccountChange",
      "type": "event"
    },
    {
      "anonymous": false,
      "inputs": [
        {
          "indexed": false,
          "internalType": "address",
          "name": "addr",
          "type": "address"
        },
        {
          "indexed": false,
          "internalType": "uint64",
          "name": "cnpj",
          "type": "uint64"
        },
        {
          "indexed": false,
          "internalType": "uint64",
          "name": "idFinancialSupportAgreement",
          "type": "uint64"
        }
      ],
      "name": "AccountInvalidation",
      "type": "event"
    },
    {
      "anonymous": false,
      "inputs": [
        {
          "indexed": false,
          "internalType": "address",
          "name": "addr",
          "type": "address"
        },
        {
          "indexed": false,
          "internalType": "uint64",
          "name": "cnpj",
          "type": "uint64"
        },
        {
          "indexed": false,
          "internalType": "uint64",
          "name": "idFinancialSupportAgreement",
          "type": "uint64"
        },
        {
          "indexed": false,
          "internalType": "string",
          "name": "idProofHash",
          "type": "string"
        }
      ],
      "name": "AccountRegistration",
      "type": "event"
    },
    {
      "anonymous": false,
      "inputs": [
        {
          "indexed": false,
          "internalType": "address",
          "name": "addr",
          "type": "address"
        },
        {
          "indexed": false,
          "internalType": "uint64",
          "name": "cnpj",
          "type": "uint64"
        },
        {
          "indexed": false,
          "internalType": "uint64",
          "name": "idFinancialSupportAgreement",
          "type": "uint64"
        }
      ],
      "name": "AccountValidation",
      "type": "event"
    },
    {
      "anonymous": false,
      "inputs": [
        {
          "indexed": true,
          "internalType": "address",
          "name": "previousOwner",
          "type": "address"
        },
        {
          "indexed": true,
          "internalType": "address",
          "name": "newOwner",
          "type": "address"
        }
      ],
      "name": "OwnershipTransferred",
      "type": "event"
    },
    {
      "constant": true,
      "inputs": [
        {
          "internalType": "uint64",
          "name": "",
          "type": "uint64"
        },
        {
          "internalType": "uint64",
          "name": "",
          "type": "uint64"
        }
      ],
      "name": "cnpjFSAddr",
      "outputs": [
        {
          "internalType": "address",
          "name": "",
          "type": "address"
        }
      ],
      "payable": false,
      "stateMutability": "view",
      "type": "function"
    },
    {
      "constant": true,
      "inputs": [],
      "name": "disbursementAddress",
      "outputs": [
        {
          "internalType": "address",
          "name": "",
          "type": "address"
        }
      ],
      "payable": false,
      "stateMutability": "view",
      "type": "function"
    },
    {
      "constant": true,
      "inputs": [],
      "name": "isOwner",
      "outputs": [
        {
          "internalType": "bool",
          "name": "",
          "type": "bool"
        }
      ],
      "payable": false,
      "stateMutability": "view",
      "type": "function"
    },
    {
      "constant": true,
      "inputs": [
        {
          "internalType": "address",
          "name": "",
          "type": "address"
        }
      ],
      "name": "legalEntitiesChangeAccount",
      "outputs": [
        {
          "internalType": "bool",
          "name": "",
          "type": "bool"
        }
      ],
      "payable": false,
      "stateMutability": "view",
      "type": "function"
    },
    {
      "constant": true,
      "inputs": [
        {
          "internalType": "address",
          "name": "",
          "type": "address"
        }
      ],
      "name": "legalEntitiesInfo",
      "outputs": [
        {
          "internalType": "uint64",
          "name": "cnpj",
          "type": "uint64"
        },
        {
          "internalType": "uint64",
          "name": "idFinancialSupportAgreement",
          "type": "uint64"
        },
        {
          "internalType": "string",
          "name": "idProofHash",
          "type": "string"
        },
        {
          "internalType": "enum BNDESRegistry.BlockchainAccountState",
          "name": "state",
          "type": "uint8"
        }
      ],
      "payable": false,
      "stateMutability": "view",
      "type": "function"
    },
    {
      "constant": true,
      "inputs": [],
      "name": "owner",
      "outputs": [
        {
          "internalType": "address",
          "name": "",
          "type": "address"
        }
      ],
      "payable": false,
      "stateMutability": "view",
      "type": "function"
    },
    {
      "constant": false,
      "inputs": [],
      "name": "renounceOwnership",
      "outputs": [],
      "payable": false,
      "stateMutability": "nonpayable",
      "type": "function"
    },
    {
      "constant": true,
      "inputs": [],
      "name": "responsibleForDisbursement",
      "outputs": [
        {
          "internalType": "address",
          "name": "",
          "type": "address"
        }
      ],
      "payable": false,
      "stateMutability": "view",
      "type": "function"
    },
    {
      "constant": true,
      "inputs": [],
      "name": "responsibleForDonationConfirmation",
      "outputs": [
        {
          "internalType": "address",
          "name": "",
          "type": "address"
        }
      ],
      "payable": false,
      "stateMutability": "view",
      "type": "function"
    },
    {
      "constant": true,
      "inputs": [],
      "name": "responsibleForRegistryValidation",
      "outputs": [
        {
          "internalType": "address",
          "name": "",
          "type": "address"
        }
      ],
      "payable": false,
      "stateMutability": "view",
      "type": "function"
    },
    {
      "constant": true,
      "inputs": [],
      "name": "responsibleForSettlement",
      "outputs": [
        {
          "internalType": "address",
          "name": "",
          "type": "address"
        }
      ],
      "payable": false,
      "stateMutability": "view",
      "type": "function"
    },
    {
      "constant": true,
      "inputs": [],
      "name": "tokenAddress",
      "outputs": [
        {
          "internalType": "address",
          "name": "",
          "type": "address"
        }
      ],
      "payable": false,
      "stateMutability": "view",
      "type": "function"
    },
    {
      "constant": false,
      "inputs": [
        {
          "internalType": "address",
          "name": "newOwner",
          "type": "address"
        }
      ],
      "name": "transferOwnership",
      "outputs": [],
      "payable": false,
      "stateMutability": "nonpayable",
      "type": "function"
    },
    {
      "constant": false,
      "inputs": [
        {
          "internalType": "uint64",
          "name": "cnpj",
          "type": "uint64"
        },
        {
          "internalType": "uint64",
          "name": "idFinancialSupportAgreement",
          "type": "uint64"
        },
        {
          "internalType": "address",
          "name": "addr",
          "type": "address"
        },
        {
          "internalType": "string",
          "name": "idProofHash",
          "type": "string"
        }
      ],
      "name": "registryLegalEntity",
      "outputs": [],
      "payable": false,
      "stateMutability": "nonpayable",
      "type": "function"
    },
    {
      "constant": false,
      "inputs": [
        {
          "internalType": "uint64",
          "name": "cnpj",
          "type": "uint64"
        },
        {
          "internalType": "uint64",
          "name": "idFinancialSupportAgreement",
          "type": "uint64"
        },
        {
          "internalType": "address",
          "name": "newAddr",
          "type": "address"
        },
        {
          "internalType": "string",
          "name": "idProofHash",
          "type": "string"
        }
      ],
      "name": "changeAccountLegalEntity",
      "outputs": [],
      "payable": false,
      "stateMutability": "nonpayable",
      "type": "function"
    },
    {
      "constant": false,
      "inputs": [
        {
          "internalType": "address",
          "name": "addr",
          "type": "address"
        },
        {
          "internalType": "string",
          "name": "idProofHash",
          "type": "string"
        }
      ],
      "name": "validateRegistryLegalEntity",
      "outputs": [],
      "payable": false,
      "stateMutability": "nonpayable",
      "type": "function"
    },
    {
      "constant": false,
      "inputs": [
        {
          "internalType": "address",
          "name": "addr",
          "type": "address"
        }
      ],
      "name": "invalidateRegistryLegalEntity",
      "outputs": [],
      "payable": false,
      "stateMutability": "nonpayable",
      "type": "function"
    },
    {
      "constant": false,
      "inputs": [
        {
          "internalType": "address",
          "name": "rs",
          "type": "address"
        }
      ],
      "name": "setResponsibleForSettlement",
      "outputs": [],
      "payable": false,
      "stateMutability": "nonpayable",
      "type": "function"
    },
    {
      "constant": false,
      "inputs": [
        {
          "internalType": "address",
          "name": "rs",
          "type": "address"
        }
      ],
      "name": "setResponsibleForDonationConfirmation",
      "outputs": [],
      "payable": false,
      "stateMutability": "nonpayable",
      "type": "function"
    },
    {
      "constant": false,
      "inputs": [
        {
          "internalType": "address",
          "name": "rs",
          "type": "address"
        }
      ],
      "name": "setResponsibleForRegistryValidation",
      "outputs": [],
      "payable": false,
      "stateMutability": "nonpayable",
      "type": "function"
    },
    {
      "constant": false,
      "inputs": [
        {
          "internalType": "address",
          "name": "rs",
          "type": "address"
        }
      ],
      "name": "setResponsibleForDisbursement",
      "outputs": [],
      "payable": false,
      "stateMutability": "nonpayable",
      "type": "function"
    },
    {
      "constant": false,
      "inputs": [
        {
          "internalType": "address",
          "name": "rs",
          "type": "address"
        }
      ],
      "name": "setDisbursementAddress",
      "outputs": [],
      "payable": false,
      "stateMutability": "nonpayable",
      "type": "function"
    },
    {
      "constant": false,
      "inputs": [
        {
          "internalType": "address",
          "name": "rs",
          "type": "address"
        }
      ],
      "name": "setTokenAddress",
      "outputs": [],
      "payable": false,
      "stateMutability": "nonpayable",
      "type": "function"
    },
    {
      "constant": false,
      "inputs": [
        {
          "internalType": "address",
          "name": "rs",
          "type": "address"
        }
      ],
      "name": "enableChangeAccount",
      "outputs": [],
      "payable": false,
      "stateMutability": "nonpayable",
      "type": "function"
    },
    {
      "constant": true,
      "inputs": [
        {
          "internalType": "address",
          "name": "rs",
          "type": "address"
        }
      ],
      "name": "isChangeAccountEnabled",
      "outputs": [
        {
          "internalType": "bool",
          "name": "",
          "type": "bool"
        }
      ],
      "payable": false,
      "stateMutability": "view",
      "type": "function"
    },
    {
      "constant": true,
      "inputs": [],
      "name": "isTokenAddress",
      "outputs": [
        {
          "internalType": "bool",
          "name": "",
          "type": "bool"
        }
      ],
      "payable": false,
      "stateMutability": "view",
      "type": "function"
    },
    {
      "constant": true,
      "inputs": [
        {
          "internalType": "address",
          "name": "addr",
          "type": "address"
        }
      ],
      "name": "isResponsibleForSettlement",
      "outputs": [
        {
          "internalType": "bool",
          "name": "",
          "type": "bool"
        }
      ],
      "payable": false,
      "stateMutability": "view",
      "type": "function"
    },
    {
      "constant": true,
      "inputs": [
        {
          "internalType": "address",
          "name": "addr",
          "type": "address"
        }
      ],
      "name": "isResponsibleForRegistryValidation",
      "outputs": [
        {
          "internalType": "bool",
          "name": "",
          "type": "bool"
        }
      ],
      "payable": false,
      "stateMutability": "view",
      "type": "function"
    },
    {
      "constant": true,
      "inputs": [
        {
          "internalType": "address",
          "name": "addr",
          "type": "address"
        }
      ],
      "name": "isResponsibleForDonationConfirmation",
      "outputs": [
        {
          "internalType": "bool",
          "name": "",
          "type": "bool"
        }
      ],
      "payable": false,
      "stateMutability": "view",
      "type": "function"
    },
    {
      "constant": true,
      "inputs": [
        {
          "internalType": "address",
          "name": "addr",
          "type": "address"
        }
      ],
      "name": "isResponsibleForDisbursement",
      "outputs": [
        {
          "internalType": "bool",
          "name": "",
          "type": "bool"
        }
      ],
      "payable": false,
      "stateMutability": "view",
      "type": "function"
    },
    {
      "constant": true,
      "inputs": [
        {
          "internalType": "address",
          "name": "addr",
          "type": "address"
        }
      ],
      "name": "isDisbursementAddress",
      "outputs": [
        {
          "internalType": "bool",
          "name": "",
          "type": "bool"
        }
      ],
      "payable": false,
      "stateMutability": "view",
      "type": "function"
    },
    {
      "constant": true,
      "inputs": [
        {
          "internalType": "address",
          "name": "addr",
          "type": "address"
        }
      ],
      "name": "isReservedAccount",
      "outputs": [
        {
          "internalType": "bool",
          "name": "",
          "type": "bool"
        }
      ],
      "payable": false,
      "stateMutability": "view",
      "type": "function"
    },
    {
      "constant": true,
      "inputs": [
        {
          "internalType": "address",
          "name": "addr",
          "type": "address"
        }
      ],
      "name": "isDonor",
      "outputs": [
        {
          "internalType": "bool",
          "name": "",
          "type": "bool"
        }
      ],
      "payable": false,
      "stateMutability": "view",
      "type": "function"
    },
    {
      "constant": true,
      "inputs": [
        {
          "internalType": "address",
          "name": "addr",
          "type": "address"
        }
      ],
      "name": "isValidatedDonor",
      "outputs": [
        {
          "internalType": "bool",
          "name": "",
          "type": "bool"
        }
      ],
      "payable": false,
      "stateMutability": "view",
      "type": "function"
    },
    {
      "constant": true,
      "inputs": [
        {
          "internalType": "address",
          "name": "addr",
          "type": "address"
        }
      ],
      "name": "isClient",
      "outputs": [
        {
          "internalType": "bool",
          "name": "",
          "type": "bool"
        }
      ],
      "payable": false,
      "stateMutability": "view",
      "type": "function"
    },
    {
      "constant": true,
      "inputs": [
        {
          "internalType": "address",
          "name": "addr",
          "type": "address"
        }
      ],
      "name": "isValidatedClient",
      "outputs": [
        {
          "internalType": "bool",
          "name": "",
          "type": "bool"
        }
      ],
      "payable": false,
      "stateMutability": "view",
      "type": "function"
    },
    {
      "constant": true,
      "inputs": [
        {
          "internalType": "address",
          "name": "addr",
          "type": "address"
        }
      ],
      "name": "isAvailableAccount",
      "outputs": [
        {
          "internalType": "bool",
          "name": "",
          "type": "bool"
        }
      ],
      "payable": false,
      "stateMutability": "view",
      "type": "function"
    },
    {
      "constant": true,
      "inputs": [
        {
          "internalType": "address",
          "name": "addr",
          "type": "address"
        }
      ],
      "name": "isWaitingValidationAccount",
      "outputs": [
        {
          "internalType": "bool",
          "name": "",
          "type": "bool"
        }
      ],
      "payable": false,
      "stateMutability": "view",
      "type": "function"
    },
    {
      "constant": true,
      "inputs": [
        {
          "internalType": "address",
          "name": "addr",
          "type": "address"
        }
      ],
      "name": "isValidatedAccount",
      "outputs": [
        {
          "internalType": "bool",
          "name": "",
          "type": "bool"
        }
      ],
      "payable": false,
      "stateMutability": "view",
      "type": "function"
    },
    {
      "constant": true,
      "inputs": [
        {
          "internalType": "address",
          "name": "addr",
          "type": "address"
        }
      ],
      "name": "isInvalidatedByValidatorAccount",
      "outputs": [
        {
          "internalType": "bool",
          "name": "",
          "type": "bool"
        }
      ],
      "payable": false,
      "stateMutability": "view",
      "type": "function"
    },
    {
      "constant": true,
      "inputs": [
        {
          "internalType": "address",
          "name": "addr",
          "type": "address"
        }
      ],
      "name": "isInvalidatedByChangeAccount",
      "outputs": [
        {
          "internalType": "bool",
          "name": "",
          "type": "bool"
        }
      ],
      "payable": false,
      "stateMutability": "view",
      "type": "function"
    },
    {
      "constant": true,
      "inputs": [],
      "name": "getResponsibleForSettlement",
      "outputs": [
        {
          "internalType": "address",
          "name": "",
          "type": "address"
        }
      ],
      "payable": false,
      "stateMutability": "view",
      "type": "function"
    },
    {
      "constant": true,
      "inputs": [],
      "name": "getResponsibleForRegistryValidation",
      "outputs": [
        {
          "internalType": "address",
          "name": "",
          "type": "address"
        }
      ],
      "payable": false,
      "stateMutability": "view",
      "type": "function"
    },
    {
      "constant": true,
      "inputs": [],
      "name": "getResponsibleForDisbursement",
      "outputs": [
        {
          "internalType": "address",
          "name": "",
          "type": "address"
        }
      ],
      "payable": false,
      "stateMutability": "view",
      "type": "function"
    },
    {
      "constant": true,
      "inputs": [],
      "name": "getResponsibleForDonationConfirmation",
      "outputs": [
        {
          "internalType": "address",
          "name": "",
          "type": "address"
        }
      ],
      "payable": false,
      "stateMutability": "view",
      "type": "function"
    },
    {
      "constant": true,
      "inputs": [],
      "name": "getDisbursementAddress",
      "outputs": [
        {
          "internalType": "address",
          "name": "",
          "type": "address"
        }
      ],
      "payable": false,
      "stateMutability": "view",
      "type": "function"
    },
    {
      "constant": true,
      "inputs": [
        {
          "internalType": "address",
          "name": "addr",
          "type": "address"
        }
      ],
      "name": "getCNPJ",
      "outputs": [
        {
          "internalType": "uint64",
          "name": "",
          "type": "uint64"
        }
      ],
      "payable": false,
      "stateMutability": "view",
      "type": "function"
    },
    {
      "constant": true,
      "inputs": [
        {
          "internalType": "address",
          "name": "addr",
          "type": "address"
        }
      ],
      "name": "getIdLegalFinancialAgreement",
      "outputs": [
        {
          "internalType": "uint64",
          "name": "",
          "type": "uint64"
        }
      ],
      "payable": false,
      "stateMutability": "view",
      "type": "function"
    },
    {
      "constant": true,
      "inputs": [
        {
          "internalType": "address",
          "name": "addr",
          "type": "address"
        }
      ],
      "name": "getLegalEntityInfo",
      "outputs": [
        {
          "internalType": "uint64",
          "name": "",
          "type": "uint64"
        },
        {
          "internalType": "uint64",
          "name": "",
          "type": "uint64"
        },
        {
          "internalType": "string",
          "name": "",
          "type": "string"
        },
        {
          "internalType": "uint256",
          "name": "",
          "type": "uint256"
        },
        {
          "internalType": "address",
          "name": "",
          "type": "address"
        }
      ],
      "payable": false,
      "stateMutability": "view",
      "type": "function"
    },
    {
      "constant": true,
      "inputs": [
        {
          "internalType": "uint64",
          "name": "cnpj",
          "type": "uint64"
        },
        {
          "internalType": "uint64",
          "name": "idFinancialSupportAgreement",
          "type": "uint64"
        }
      ],
      "name": "getBlockchainAccount",
      "outputs": [
        {
          "internalType": "address",
          "name": "",
          "type": "address"
        }
      ],
      "payable": false,
      "stateMutability": "view",
      "type": "function"
    },
    {
      "constant": true,
      "inputs": [
        {
          "internalType": "uint64",
          "name": "cnpj",
          "type": "uint64"
        }
      ],
      "name": "getBlockchainAccountOfDonor",
      "outputs": [
        {
          "internalType": "address",
          "name": "",
          "type": "address"
        }
      ],
      "payable": false,
      "stateMutability": "view",
      "type": "function"
    },
    {
      "constant": true,
      "inputs": [
        {
          "internalType": "uint64",
          "name": "cnpj",
          "type": "uint64"
        },
        {
          "internalType": "uint64",
          "name": "idFinancialSupportAgreement",
          "type": "uint64"
        }
      ],
      "name": "getLegalEntityInfoByCNPJ",
      "outputs": [
        {
          "internalType": "uint64",
          "name": "",
          "type": "uint64"
        },
        {
          "internalType": "uint64",
          "name": "",
          "type": "uint64"
        },
        {
          "internalType": "string",
          "name": "",
          "type": "string"
        },
        {
          "internalType": "uint256",
          "name": "",
          "type": "uint256"
        },
        {
          "internalType": "address",
          "name": "",
          "type": "address"
        }
      ],
      "payable": false,
      "stateMutability": "view",
      "type": "function"
    },
    {
      "constant": true,
      "inputs": [
        {
          "internalType": "address",
          "name": "addr",
          "type": "address"
        }
      ],
      "name": "getAccountState",
      "outputs": [
        {
          "internalType": "int256",
          "name": "",
          "type": "int256"
        }
      ],
      "payable": false,
      "stateMutability": "view",
      "type": "function"
    },
    {
      "constant": true,
      "inputs": [
        {
          "internalType": "string",
          "name": "str",
          "type": "string"
        }
      ],
      "name": "isValidHash",
      "outputs": [
        {
          "internalType": "bool",
          "name": "",
          "type": "bool"
        }
      ],
      "payable": false,
      "stateMutability": "pure",
      "type": "function"
    }
  ],
  "bytecode": "0x60806040523480156200001157600080fd5b506000620000246200020d60201b60201c565b9050806000806101000a81548173ffffffffffffffffffffffffffffffffffffffff021916908373ffffffffffffffffffffffffffffffffffffffff1602179055508073ffffffffffffffffffffffffffffffffffffffff16600073ffffffffffffffffffffffffffffffffffffffff167f8be0079c531659141344cd1fd0a4f28419497f9722a3daafe3b4186f6b6457e060405160405180910390a35033600160006101000a81548173ffffffffffffffffffffffffffffffffffffffff021916908373ffffffffffffffffffffffffffffffffffffffff16021790555033600260006101000a81548173ffffffffffffffffffffffffffffffffffffffff021916908373ffffffffffffffffffffffffffffffffffffffff16021790555033600460006101000a81548173ffffffffffffffffffffffffffffffffffffffff021916908373ffffffffffffffffffffffffffffffffffffffff16021790555033600560006101000a81548173ffffffffffffffffffffffffffffffffffffffff021916908373ffffffffffffffffffffffffffffffffffffffff16021790555033600360006101000a81548173ffffffffffffffffffffffffffffffffffffffff021916908373ffffffffffffffffffffffffffffffffffffffff16021790555062000215565b600033905090565b614a4680620002256000396000f3fe608060405234801561001057600080fd5b50600436106103425760003560e01c806385fecf9b116101b8578063a530634c11610104578063c01ed210116100a2578063d8a0e0571161007c578063d8a0e05714611825578063f2fde38b14611881578063f4ec7367146118c5578063f50cd96b1461190f57610342565b8063c01ed2101461173b578063cc6be4a614611797578063d864a36b146117e157610342565b8063b7404ff5116100de578063b7404ff51461160d578063b8e7c21d14611651578063be49b78d146116ad578063bed25c0e1461171957610342565b8063a530634c1461144a578063b41842b91461157f578063b7196f37146115c357610342565b80638f32d59b116101715780639d76ea581161014b5780639d76ea581461121f5780639ee2735b146112695780639f5e1ddd146112c1578063a3d88453146113ee57610342565b80638f32d59b1461116f578063907963591461119157806390e42c7e146111db57610342565b806385fecf9b14610f8b578063876c6e9b14610fe757806388a447ca146110535780638cabf128146110975780638cbd258f146110e15780638da5cb5b1461112557610342565b8063456ca961116102925780636426a11611610230578063715018a61161020a578063715018a614610dee578063803b8a4214610df8578063845283de14610ed357806384b7964f14610f2f57610342565b80636426a11614610c3357806367d19ec514610c8f5780636edcb12f14610d1b57610342565b8063572bf3a91161026c578063572bf3a914610ae7578063576590cb14610b3157806357cdcb3e14610b8d5780635b072a5014610bd757610342565b8063456ca9611461093e5780634add31101461098857806356eb8510146109e457610342565b806326ff4794116102ff5780633abba2ef116102d95780633abba2ef1461073f5780633d44e5c61461079b5780633d6e154e146107df578063434baaf2146108e257610342565b806326ff47941461054f5780632bc3d7aa1461065757806339333849146106b357610342565b8063056e18e6146103475780630a445609146103bf5780630c4471bd14610409578063184c89311461046557806321453800146104c157806326a4e8d21461050b575b600080fd5b61037d6004803603602081101561035d57600080fd5b81019080803567ffffffffffffffff16906020019092919050505061196b565b604051808273ffffffffffffffffffffffffffffffffffffffff1673ffffffffffffffffffffffffffffffffffffffff16815260200191505060405180910390f35b6103c76119d7565b604051808273ffffffffffffffffffffffffffffffffffffffff1673ffffffffffffffffffffffffffffffffffffffff16815260200191505060405180910390f35b61044b6004803603602081101561041f57600080fd5b81019080803573ffffffffffffffffffffffffffffffffffffffff1690602001909291905050506119fd565b604051808215151515815260200191505060405180910390f35b6104a76004803603602081101561047b57600080fd5b81019080803573ffffffffffffffffffffffffffffffffffffffff169060200190929190505050611a6f565b604051808215151515815260200191505060405180910390f35b6104c9611b0f565b604051808273ffffffffffffffffffffffffffffffffffffffff1673ffffffffffffffffffffffffffffffffffffffff16815260200191505060405180910390f35b61054d6004803603602081101561052157600080fd5b81019080803573ffffffffffffffffffffffffffffffffffffffff169060200190929190505050611b35565b005b6105916004803603602081101561056557600080fd5b81019080803573ffffffffffffffffffffffffffffffffffffffff169060200190929190505050611bf3565b604051808567ffffffffffffffff1667ffffffffffffffff1681526020018467ffffffffffffffff1667ffffffffffffffff168152602001806020018360048111156105d957fe5b60ff168152602001828103825284818151815260200191508051906020019080838360005b838110156106195780820151818401526020810190506105fe565b50505050905090810190601f1680156106465780820380516001836020036101000a031916815260200191505b509550505050505060405180910390f35b6106996004803603602081101561066d57600080fd5b81019080803573ffffffffffffffffffffffffffffffffffffffff169060200190929190505050611cf0565b604051808215151515815260200191505060405180910390f35b6106fd600480360360408110156106c957600080fd5b81019080803567ffffffffffffffff169060200190929190803567ffffffffffffffff169060200190929190505050611d8c565b604051808273ffffffffffffffffffffffffffffffffffffffff1673ffffffffffffffffffffffffffffffffffffffff16815260200191505060405180910390f35b6107816004803603602081101561075557600080fd5b81019080803573ffffffffffffffffffffffffffffffffffffffff169060200190929190505050611e03565b604051808215151515815260200191505060405180910390f35b6107dd600480360360208110156107b157600080fd5b81019080803573ffffffffffffffffffffffffffffffffffffffff169060200190929190505050611e5d565b005b6108e0600480360360808110156107f557600080fd5b81019080803567ffffffffffffffff169060200190929190803567ffffffffffffffff169060200190929190803573ffffffffffffffffffffffffffffffffffffffff1690602001909291908035906020019064010000000081111561085a57600080fd5b82018360208201111561086c57600080fd5b8035906020019184600183028401116401000000008311171561088e57600080fd5b91908080601f016020809104026020016040519081016040528093929190818152602001838380828437600081840152601f19601f820116905080830192505050505050509192919290505050611fbf565b005b610924600480360360208110156108f857600080fd5b81019080803573ffffffffffffffffffffffffffffffffffffffff169060200190929190505050612646565b604051808215151515815260200191505060405180910390f35b6109466126a3565b604051808273ffffffffffffffffffffffffffffffffffffffff1673ffffffffffffffffffffffffffffffffffffffff16815260200191505060405180910390f35b6109ca6004803603602081101561099e57600080fd5b81019080803573ffffffffffffffffffffffffffffffffffffffff1690602001909291905050506126c9565b604051808215151515815260200191505060405180910390f35b610ae5600480360360808110156109fa57600080fd5b81019080803567ffffffffffffffff169060200190929190803567ffffffffffffffff169060200190929190803573ffffffffffffffffffffffffffffffffffffffff16906020019092919080359060200190640100000000811115610a5f57600080fd5b820183602082011115610a7157600080fd5b80359060200191846001830284011164010000000083111715610a9357600080fd5b91908080601f016020809104026020016040519081016040528093929190818152602001838380828437600081840152601f19601f820116905080830192505050505050509192919290505050612723565b005b610aef612c02565b604051808273ffffffffffffffffffffffffffffffffffffffff1673ffffffffffffffffffffffffffffffffffffffff16815260200191505060405180910390f35b610b7360048036036020811015610b4757600080fd5b81019080803573ffffffffffffffffffffffffffffffffffffffff169060200190929190505050612c28565b604051808215151515815260200191505060405180910390f35b610b95612c48565b604051808273ffffffffffffffffffffffffffffffffffffffff1673ffffffffffffffffffffffffffffffffffffffff16815260200191505060405180910390f35b610c1960048036036020811015610bed57600080fd5b81019080803573ffffffffffffffffffffffffffffffffffffffff169060200190929190505050612c72565b604051808215151515815260200191505060405180910390f35b610c7560048036036020811015610c4957600080fd5b81019080803573ffffffffffffffffffffffffffffffffffffffff169060200190929190505050612ccc565b604051808215151515815260200191505060405180910390f35b610cd960048036036040811015610ca557600080fd5b81019080803567ffffffffffffffff169060200190929190803567ffffffffffffffff169060200190929190505050612d3e565b604051808273ffffffffffffffffffffffffffffffffffffffff1673ffffffffffffffffffffffffffffffffffffffff16815260200191505060405180910390f35b610dd460048036036020811015610d3157600080fd5b8101908080359060200190640100000000811115610d4e57600080fd5b820183602082011115610d6057600080fd5b80359060200191846001830284011164010000000083111715610d8257600080fd5b91908080601f016020809104026020016040519081016040528093929190818152602001838380828437600081840152601f19601f820116905080830192505050505050509192919290505050612d80565b604051808215151515815260200191505060405180910390f35b610df6612f66565b005b610ed160048036036040811015610e0e57600080fd5b81019080803573ffffffffffffffffffffffffffffffffffffffff16906020019092919080359060200190640100000000811115610e4b57600080fd5b820183602082011115610e5d57600080fd5b80359060200191846001830284011164010000000083111715610e7f57600080fd5b91908080601f016020809104026020016040519081016040528093929190818152602001838380828437600081840152601f19601f82011690508083019250505050505050919291929050505061309f565b005b610f1560048036036020811015610ee957600080fd5b81019080803573ffffffffffffffffffffffffffffffffffffffff1690602001909291905050506134ed565b604051808215151515815260200191505060405180910390f35b610f7160048036036020811015610f4557600080fd5b81019080803573ffffffffffffffffffffffffffffffffffffffff16906020019092919050505061355f565b604051808215151515815260200191505060405180910390f35b610fcd60048036036020811015610fa157600080fd5b81019080803573ffffffffffffffffffffffffffffffffffffffff1690602001909291905050506135e5565b604051808215151515815260200191505060405180910390f35b61102960048036036020811015610ffd57600080fd5b81019080803573ffffffffffffffffffffffffffffffffffffffff16906020019092919050505061363f565b604051808267ffffffffffffffff1667ffffffffffffffff16815260200191505060405180910390f35b6110956004803603602081101561106957600080fd5b81019080803573ffffffffffffffffffffffffffffffffffffffff16906020019092919050505061369f565b005b61109f61375d565b604051808273ffffffffffffffffffffffffffffffffffffffff1673ffffffffffffffffffffffffffffffffffffffff16815260200191505060405180910390f35b611123600480360360208110156110f757600080fd5b81019080803573ffffffffffffffffffffffffffffffffffffffff169060200190929190505050613783565b005b61112d613841565b604051808273ffffffffffffffffffffffffffffffffffffffff1673ffffffffffffffffffffffffffffffffffffffff16815260200191505060405180910390f35b61117761386a565b604051808215151515815260200191505060405180910390f35b6111996138c8565b604051808273ffffffffffffffffffffffffffffffffffffffff1673ffffffffffffffffffffffffffffffffffffffff16815260200191505060405180910390f35b61121d600480360360208110156111f157600080fd5b81019080803573ffffffffffffffffffffffffffffffffffffffff1690602001909291905050506138f2565b005b6112276139b0565b604051808273ffffffffffffffffffffffffffffffffffffffff1673ffffffffffffffffffffffffffffffffffffffff16815260200191505060405180910390f35b6112ab6004803603602081101561127f57600080fd5b81019080803573ffffffffffffffffffffffffffffffffffffffff1690602001909291905050506139d6565b6040518082815260200191505060405180910390f35b611303600480360360208110156112d757600080fd5b81019080803573ffffffffffffffffffffffffffffffffffffffff169060200190929190505050613a52565b604051808667ffffffffffffffff1667ffffffffffffffff1681526020018567ffffffffffffffff1667ffffffffffffffff168152602001806020018481526020018373ffffffffffffffffffffffffffffffffffffffff1673ffffffffffffffffffffffffffffffffffffffff168152602001828103825285818151815260200191508051906020019080838360005b838110156113af578082015181840152602081019050611394565b50505050905090810190601f1680156113dc5780820380516001836020036101000a031916815260200191505b50965050505050505060405180910390f35b6114306004803603602081101561140457600080fd5b81019080803573ffffffffffffffffffffffffffffffffffffffff169060200190929190505050613c55565b604051808215151515815260200191505060405180910390f35b6114946004803603604081101561146057600080fd5b81019080803567ffffffffffffffff169060200190929190803567ffffffffffffffff169060200190929190505050613cdf565b604051808667ffffffffffffffff1667ffffffffffffffff1681526020018567ffffffffffffffff1667ffffffffffffffff168152602001806020018481526020018373ffffffffffffffffffffffffffffffffffffffff1673ffffffffffffffffffffffffffffffffffffffff168152602001828103825285818151815260200191508051906020019080838360005b83811015611540578082015181840152602081019050611525565b50505050905090810190601f16801561156d5780820380516001836020036101000a031916815260200191505b50965050505050505060405180910390f35b6115c16004803603602081101561159557600080fd5b81019080803573ffffffffffffffffffffffffffffffffffffffff169060200190929190505050613d13565b005b6115cb613f7e565b604051808273ffffffffffffffffffffffffffffffffffffffff1673ffffffffffffffffffffffffffffffffffffffff16815260200191505060405180910390f35b61164f6004803603602081101561162357600080fd5b81019080803573ffffffffffffffffffffffffffffffffffffffff169060200190929190505050613fa8565b005b6116936004803603602081101561166757600080fd5b81019080803573ffffffffffffffffffffffffffffffffffffffff169060200190929190505050614066565b604051808215151515815260200191505060405180910390f35b6116ef600480360360208110156116c357600080fd5b81019080803573ffffffffffffffffffffffffffffffffffffffff1690602001909291905050506140d7565b604051808267ffffffffffffffff1667ffffffffffffffff16815260200191505060405180910390f35b611721614137565b604051808215151515815260200191505060405180910390f35b61177d6004803603602081101561175157600080fd5b81019080803573ffffffffffffffffffffffffffffffffffffffff16906020019092919050505061418f565b604051808215151515815260200191505060405180910390f35b61179f614212565b604051808273ffffffffffffffffffffffffffffffffffffffff1673ffffffffffffffffffffffffffffffffffffffff16815260200191505060405180910390f35b611823600480360360208110156117f757600080fd5b81019080803573ffffffffffffffffffffffffffffffffffffffff16906020019092919050505061423c565b005b6118676004803603602081101561183b57600080fd5b81019080803573ffffffffffffffffffffffffffffffffffffffff1690602001909291905050506142fa565b604051808215151515815260200191505060405180910390f35b6118c36004803603602081101561189757600080fd5b81019080803573ffffffffffffffffffffffffffffffffffffffff169060200190929190505050614354565b005b6118cd6143da565b604051808273ffffffffffffffffffffffffffffffffffffffff1673ffffffffffffffffffffffffffffffffffffffff16815260200191505060405180910390f35b6119516004803603602081101561192557600080fd5b81019080803573ffffffffffffffffffffffffffffffffffffffff169060200190929190505050614404565b604051808215151515815260200191505060405180910390f35b6000600860008367ffffffffffffffff1667ffffffffffffffff16815260200190815260200160002060008067ffffffffffffffff16815260200190815260200160002060009054906101000a900473ffffffffffffffffffffffffffffffffffffffff169050919050565b600360009054906101000a900473ffffffffffffffffffffffffffffffffffffffff1681565b600060016004811115611a0c57fe5b600760008473ffffffffffffffffffffffffffffffffffffffff1673ffffffffffffffffffffffffffffffffffffffff16815260200190815260200160002060020160009054906101000a900460ff166004811115611a6757fe5b149050919050565b60008173ffffffffffffffffffffffffffffffffffffffff16611a90613841565b73ffffffffffffffffffffffffffffffffffffffff161480611ab75750611ab6826135e5565b5b80611ac75750611ac682611e03565b5b80611ad75750611ad6826126c9565b5b80611ae75750611ae682612c72565b5b80611af75750611af6826142fa565b5b15611b055760019050611b0a565b600090505b919050565b600160009054906101000a900473ffffffffffffffffffffffffffffffffffffffff1681565b611b3d61386a565b611baf576040517f08c379a00000000000000000000000000000000000000000000000000000000081526004018080602001828103825260208152602001807f4f776e61626c653a2063616c6c6572206973206e6f7420746865206f776e657281525060200191505060405180910390fd5b80600660006101000a81548173ffffffffffffffffffffffffffffffffffffffff021916908373ffffffffffffffffffffffffffffffffffffffff16021790555050565b60076020528060005260406000206000915090508060000160009054906101000a900467ffffffffffffffff16908060000160089054906101000a900467ffffffffffffffff1690806001018054600181600116156101000203166002900480601f016020809104026020016040519081016040528092919081815260200182805460018160011615610100020316600290048015611cd35780601f10611ca857610100808354040283529160200191611cd3565b820191906000526020600020905b815481529060010190602001808311611cb657829003601f168201915b5050505050908060020160009054906101000a900460ff16905084565b6000611cfb82611a6f565b15611d095760009050611d87565b611d1282613c55565b15611d205760009050611d87565b6000600760008473ffffffffffffffffffffffffffffffffffffffff1673ffffffffffffffffffffffffffffffffffffffff16815260200190815260200160002060000160089054906101000a900467ffffffffffffffff1667ffffffffffffffff161490505b919050565b6000600860008467ffffffffffffffff1667ffffffffffffffff16815260200190815260200160002060008367ffffffffffffffff1667ffffffffffffffff16815260200190815260200160002060009054906101000a900473ffffffffffffffffffffffffffffffffffffffff16905092915050565b6000600260009054906101000a900473ffffffffffffffffffffffffffffffffffffffff1673ffffffffffffffffffffffffffffffffffffffff168273ffffffffffffffffffffffffffffffffffffffff16149050919050565b611e6633611e03565b611ebb576040517f08c379a00000000000000000000000000000000000000000000000000000000081526004018080602001828103825260478152602001806147586047913960600191505060405180910390fd5b60001515600960008373ffffffffffffffffffffffffffffffffffffffff1673ffffffffffffffffffffffffffffffffffffffff16815260200190815260200160002060009054906101000a900460ff16151514611f64576040517f08c379a000000000000000000000000000000000000000000000000000000000815260040180806020018281038252602d815260200180614884602d913960400191505060405180910390fd5b6001600960008373ffffffffffffffffffffffffffffffffffffffff1673ffffffffffffffffffffffffffffffffffffffff16815260200190815260200160002060006101000a81548160ff02191690831515021790555050565b611fc7614137565b611fd057600080fd5b6000611fdc8585611d8c565b9050611fe781611a6f565b1561203d576040517f08c379a000000000000000000000000000000000000000000000000000000000815260040180806020018281038252602d815260200180614903602d913960400191505060405180910390fd5b61204681613c55565b1561209c576040517f08c379a000000000000000000000000000000000000000000000000000000000815260040180806020018281038252603c815260200180614679603c913960400191505060405180910390fd5b6120a583613c55565b6120fa576040517f08c379a00000000000000000000000000000000000000000000000000000000081526004018080602001828103825260258152602001806148b16025913960400191505060405180910390fd5b61210383612646565b612158576040517f08c379a000000000000000000000000000000000000000000000000000000000815260040180806020018281038252602d8152602001806148d6602d913960400191505060405180910390fd5b61216182612d80565b6121b6576040517f08c379a00000000000000000000000000000000000000000000000000000000081526004018080602001828103825260238152602001806147ca6023913960400191505060405180910390fd5b8467ffffffffffffffff16600760008373ffffffffffffffffffffffffffffffffffffffff1673ffffffffffffffffffffffffffffffffffffffff16815260200190815260200160002060000160009054906101000a900467ffffffffffffffff1667ffffffffffffffff1614801561229857508367ffffffffffffffff16600760008373ffffffffffffffffffffffffffffffffffffffff1673ffffffffffffffffffffffffffffffffffffffff16815260200190815260200160002060000160089054906101000a900467ffffffffffffffff1667ffffffffffffffff16145b6122ed576040517f08c379a000000000000000000000000000000000000000000000000000000000815260040180806020018281038252602b81526020018061479f602b913960400191505060405180910390fd5b60405180608001604052808667ffffffffffffffff1681526020018567ffffffffffffffff1681526020018381526020016001600481111561232b57fe5b815250600760008573ffffffffffffffffffffffffffffffffffffffff1673ffffffffffffffffffffffffffffffffffffffff16815260200190815260200160002060008201518160000160006101000a81548167ffffffffffffffff021916908367ffffffffffffffff16021790555060208201518160000160086101000a81548167ffffffffffffffff021916908367ffffffffffffffff16021790555060408201518160010190805190602001906123e79291906145d3565b5060608201518160020160006101000a81548160ff0219169083600481111561240c57fe5b02179055509050506004600760008373ffffffffffffffffffffffffffffffffffffffff1673ffffffffffffffffffffffffffffffffffffffff16815260200190815260200160002060020160006101000a81548160ff0219169083600481111561247357fe5b021790555082600860008767ffffffffffffffff1667ffffffffffffffff16815260200190815260200160002060008667ffffffffffffffff1667ffffffffffffffff16815260200190815260200160002060006101000a81548173ffffffffffffffffffffffffffffffffffffffff021916908373ffffffffffffffffffffffffffffffffffffffff1602179055507f465093e962b22b45e384ad91519059a45ec18fa5493c279ddb53aeefd860ecc08184878786604051808673ffffffffffffffffffffffffffffffffffffffff1673ffffffffffffffffffffffffffffffffffffffff1681526020018573ffffffffffffffffffffffffffffffffffffffff1673ffffffffffffffffffffffffffffffffffffffff1681526020018467ffffffffffffffff1667ffffffffffffffff1681526020018367ffffffffffffffff1667ffffffffffffffff16815260200180602001828103825283818151815260200191508051906020019080838360005b838110156126015780820151818401526020810190506125e6565b50505050905090810190601f16801561262e5780820380516001836020036101000a031916815260200191505b50965050505050505060405180910390a15050505050565b600060011515600960008473ffffffffffffffffffffffffffffffffffffffff1673ffffffffffffffffffffffffffffffffffffffff16815260200190815260200160002060009054906101000a900460ff161515149050919050565b600260009054906101000a900473ffffffffffffffffffffffffffffffffffffffff1681565b6000600460009054906101000a900473ffffffffffffffffffffffffffffffffffffffff1673ffffffffffffffffffffffffffffffffffffffff168273ffffffffffffffffffffffffffffffffffffffff16149050919050565b61272b614137565b61273457600080fd5b61273d82613c55565b612792576040517f08c379a00000000000000000000000000000000000000000000000000000000081526004018080602001828103825260358152602001806149306035913960400191505060405180910390fd5b61279b81612d80565b6127f0576040517f08c379a00000000000000000000000000000000000000000000000000000000081526004018080602001828103825260238152602001806147ca6023913960400191505060405180910390fd5b6127f982612646565b61284e576040517f08c379a00000000000000000000000000000000000000000000000000000000081526004018080602001828103825260358152602001806149dd6035913960400191505060405180910390fd5b60405180608001604052808567ffffffffffffffff1681526020018467ffffffffffffffff1681526020018281526020016001600481111561288c57fe5b815250600760008473ffffffffffffffffffffffffffffffffffffffff1673ffffffffffffffffffffffffffffffffffffffff16815260200190815260200160002060008201518160000160006101000a81548167ffffffffffffffff021916908367ffffffffffffffff16021790555060208201518160000160086101000a81548167ffffffffffffffff021916908367ffffffffffffffff16021790555060408201518160010190805190602001906129489291906145d3565b5060608201518160020160006101000a81548160ff0219169083600481111561296d57fe5b021790555090505060008367ffffffffffffffff1611156129fa5760006129948585611d8c565b905061299f81613c55565b6129f4576040517f08c379a00000000000000000000000000000000000000000000000000000000081526004018080602001828103825260448152602001806147ed6044913960600191505060405180910390fd5b50612a69565b6000612a07856000611d8c565b9050612a1281613c55565b612a67576040517f08c379a00000000000000000000000000000000000000000000000000000000081526004018080602001828103825260478152602001806147116047913960600191505060405180910390fd5b505b81600860008667ffffffffffffffff1667ffffffffffffffff16815260200190815260200160002060008567ffffffffffffffff1667ffffffffffffffff16815260200190815260200160002060006101000a81548173ffffffffffffffffffffffffffffffffffffffff021916908373ffffffffffffffffffffffffffffffffffffffff1602179055507f84d6fe5d2c1119b50f81f2805abe14f7cc724f9a334df79e712c6be73335212f82858584604051808573ffffffffffffffffffffffffffffffffffffffff1673ffffffffffffffffffffffffffffffffffffffff1681526020018467ffffffffffffffff1667ffffffffffffffff1681526020018367ffffffffffffffff1667ffffffffffffffff16815260200180602001828103825283818151815260200191508051906020019080838360005b83811015612bbf578082015181840152602081019050612ba4565b50505050905090810190601f168015612bec5780820380516001836020036101000a031916815260200191505b509550505050505060405180910390a150505050565b600560009054906101000a900473ffffffffffffffffffffffffffffffffffffffff1681565b60096020528060005260406000206000915054906101000a900460ff1681565b6000600460009054906101000a900473ffffffffffffffffffffffffffffffffffffffff16905090565b6000600360009054906101000a900473ffffffffffffffffffffffffffffffffffffffff1673ffffffffffffffffffffffffffffffffffffffff168273ffffffffffffffffffffffffffffffffffffffff16149050919050565b600060026004811115612cdb57fe5b600760008473ffffffffffffffffffffffffffffffffffffffff1673ffffffffffffffffffffffffffffffffffffffff16815260200190815260200160002060020160009054906101000a900460ff166004811115612d3657fe5b149050919050565b60086020528160005260406000206020528060005260406000206000915091509054906101000a900473ffffffffffffffffffffffffffffffffffffffff1681565b600060608290506040815114612d9a576000915050612f61565b60008090505b6040811015612f5a577f3000000000000000000000000000000000000000000000000000000000000000828281518110612dd657fe5b602001015160f81c60f81b7effffffffffffffffffffffffffffffffffffffffffffffffffffffffffffff19161015612e1457600092505050612f61565b7f3900000000000000000000000000000000000000000000000000000000000000828281518110612e4157fe5b602001015160f81c60f81b7effffffffffffffffffffffffffffffffffffffffffffffffffffffffffffff1916118015612ed257507f6100000000000000000000000000000000000000000000000000000000000000828281518110612ea357fe5b602001015160f81c60f81b7effffffffffffffffffffffffffffffffffffffffffffffffffffffffffffff1916105b15612ee257600092505050612f61565b7f6600000000000000000000000000000000000000000000000000000000000000828281518110612f0f57fe5b602001015160f81c60f81b7effffffffffffffffffffffffffffffffffffffffffffffffffffffffffffff19161115612f4d57600092505050612f61565b8080600101915050612da0565b5060019150505b919050565b612f6e61386a565b612fe0576040517f08c379a00000000000000000000000000000000000000000000000000000000081526004018080602001828103825260208152602001807f4f776e61626c653a2063616c6c6572206973206e6f7420746865206f776e657281525060200191505060405180910390fd5b600073ffffffffffffffffffffffffffffffffffffffff166000809054906101000a900473ffffffffffffffffffffffffffffffffffffffff1673ffffffffffffffffffffffffffffffffffffffff167f8be0079c531659141344cd1fd0a4f28419497f9722a3daafe3b4186f6b6457e060405160405180910390a360008060006101000a81548173ffffffffffffffffffffffffffffffffffffffff021916908373ffffffffffffffffffffffffffffffffffffffff160217905550565b6130a833611e03565b6130fd576040517f08c379a000000000000000000000000000000000000000000000000000000000815260040180806020018281038252603b8152602001806149a2603b913960400191505060405180910390fd5b6001600481111561310a57fe5b600760008473ffffffffffffffffffffffffffffffffffffffff1673ffffffffffffffffffffffffffffffffffffffff16815260200190815260200160002060020160009054906101000a900460ff16600481111561316557fe5b146131bb576040517f08c379a00000000000000000000000000000000000000000000000000000000081526004018080602001828103825260368152602001806146b56036913960400191505060405180910390fd5b806040516020018082805190602001908083835b602083106131f257805182526020820191506020810190506020830392506131cf565b6001836020036101000a03801982511681845116808217855250505050505090500191505060405160208183030381529060405280519060200120600760008473ffffffffffffffffffffffffffffffffffffffff1673ffffffffffffffffffffffffffffffffffffffff16815260200190815260200160002060010160405160200180828054600181600116156101000203166002900480156132cd5780601f106132ab5761010080835404028352918201916132cd565b820191906000526020600020905b8154815290600101906020018083116132b9575b5050915050604051602081830303815290604052805190602001201461333e576040517f08c379a00000000000000000000000000000000000000000000000000000000081526004018080602001828103825260288152602001806148316028913960400191505060405180910390fd5b6002600760008473ffffffffffffffffffffffffffffffffffffffff1673ffffffffffffffffffffffffffffffffffffffff16815260200190815260200160002060020160006101000a81548160ff0219169083600481111561339d57fe5b02179055507f77822d52821f29ba4fcd5e522739ac47749e00c64b172a6255654431579a72cc82600760008573ffffffffffffffffffffffffffffffffffffffff1673ffffffffffffffffffffffffffffffffffffffff16815260200190815260200160002060000160009054906101000a900467ffffffffffffffff16600760008673ffffffffffffffffffffffffffffffffffffffff1673ffffffffffffffffffffffffffffffffffffffff16815260200190815260200160002060000160089054906101000a900467ffffffffffffffff16604051808473ffffffffffffffffffffffffffffffffffffffff1673ffffffffffffffffffffffffffffffffffffffff1681526020018367ffffffffffffffff1667ffffffffffffffff1681526020018267ffffffffffffffff1667ffffffffffffffff168152602001935050505060405180910390a15050565b6000600360048111156134fc57fe5b600760008473ffffffffffffffffffffffffffffffffffffffff1673ffffffffffffffffffffffffffffffffffffffff16815260200190815260200160002060020160009054906101000a900460ff16600481111561355757fe5b149050919050565b600061356a82611a6f565b1561357857600090506135e0565b6000600760008473ffffffffffffffffffffffffffffffffffffffff1673ffffffffffffffffffffffffffffffffffffffff16815260200190815260200160002060000160089054906101000a900467ffffffffffffffff1667ffffffffffffffff16141590505b919050565b6000600160009054906101000a900473ffffffffffffffffffffffffffffffffffffffff1673ffffffffffffffffffffffffffffffffffffffff168273ffffffffffffffffffffffffffffffffffffffff16149050919050565b6000600760008373ffffffffffffffffffffffffffffffffffffffff1673ffffffffffffffffffffffffffffffffffffffff16815260200190815260200160002060000160089054906101000a900467ffffffffffffffff169050919050565b6136a761386a565b613719576040517f08c379a00000000000000000000000000000000000000000000000000000000081526004018080602001828103825260208152602001807f4f776e61626c653a2063616c6c6572206973206e6f7420746865206f776e657281525060200191505060405180910390fd5b80600360006101000a81548173ffffffffffffffffffffffffffffffffffffffff021916908373ffffffffffffffffffffffffffffffffffffffff16021790555050565b600460009054906101000a900473ffffffffffffffffffffffffffffffffffffffff1681565b61378b61386a565b6137fd576040517f08c379a00000000000000000000000000000000000000000000000000000000081526004018080602001828103825260208152602001807f4f776e61626c653a2063616c6c6572206973206e6f7420746865206f776e657281525060200191505060405180910390fd5b80600260006101000a81548173ffffffffffffffffffffffffffffffffffffffff021916908373ffffffffffffffffffffffffffffffffffffffff16021790555050565b60008060009054906101000a900473ffffffffffffffffffffffffffffffffffffffff16905090565b60008060009054906101000a900473ffffffffffffffffffffffffffffffffffffffff1673ffffffffffffffffffffffffffffffffffffffff166138ac614487565b73ffffffffffffffffffffffffffffffffffffffff1614905090565b6000600560009054906101000a900473ffffffffffffffffffffffffffffffffffffffff16905090565b6138fa61386a565b61396c576040517f08c379a00000000000000000000000000000000000000000000000000000000081526004018080602001828103825260208152602001807f4f776e61626c653a2063616c6c6572206973206e6f7420746865206f776e657281525060200191505060405180910390fd5b80600460006101000a81548173ffffffffffffffffffffffffffffffffffffffff021916908373ffffffffffffffffffffffffffffffffffffffff16021790555050565b600660009054906101000a900473ffffffffffffffffffffffffffffffffffffffff1681565b60006139e182611a6f565b156139ef5760649050613a4d565b600760008373ffffffffffffffffffffffffffffffffffffffff1673ffffffffffffffffffffffffffffffffffffffff16815260200190815260200160002060020160009054906101000a900460ff166004811115613a4a57fe5b90505b919050565b6000806060600080600760008773ffffffffffffffffffffffffffffffffffffffff1673ffffffffffffffffffffffffffffffffffffffff16815260200190815260200160002060000160009054906101000a900467ffffffffffffffff16600760008873ffffffffffffffffffffffffffffffffffffffff1673ffffffffffffffffffffffffffffffffffffffff16815260200190815260200160002060000160089054906101000a900467ffffffffffffffff16600760008973ffffffffffffffffffffffffffffffffffffffff1673ffffffffffffffffffffffffffffffffffffffff168152602001908152602001600020600101600760008a73ffffffffffffffffffffffffffffffffffffffff1673ffffffffffffffffffffffffffffffffffffffff16815260200190815260200160002060020160009054906101000a900460ff166004811115613ba557fe5b89828054600181600116156101000203166002900480601f016020809104026020016040519081016040528092919081815260200182805460018160011615610100020316600290048015613c3b5780601f10613c1057610100808354040283529160200191613c3b565b820191906000526020600020905b815481529060010190602001808311613c1e57829003601f168201915b505050505092509450945094509450945091939590929450565b6000613c6082611a6f565b15613c6e5760009050613cda565b60006004811115613c7b57fe5b600760008473ffffffffffffffffffffffffffffffffffffffff1673ffffffffffffffffffffffffffffffffffffffff16815260200190815260200160002060020160009054906101000a900460ff166004811115613cd657fe5b1490505b919050565b60008060606000806000613cf38888611d8c565b9050613cfe81613a52565b95509550955095509550509295509295909350565b613d1c33611e03565b613d71576040517f08c379a000000000000000000000000000000000000000000000000000000000815260040180806020018281038252603d815260200180614965603d913960400191505060405180910390fd5b613d7a81611a6f565b15613dd0576040517f08c379a000000000000000000000000000000000000000000000000000000000815260040180806020018281038252602b815260200180614859602b913960400191505060405180910390fd5b6003600760008373ffffffffffffffffffffffffffffffffffffffff1673ffffffffffffffffffffffffffffffffffffffff16815260200190815260200160002060020160006101000a81548160ff02191690836004811115613e2f57fe5b02179055507fdc045d3f27fd791ef793c2738b61b510198185039db6a0cd4b608295d40ef4f781600760008473ffffffffffffffffffffffffffffffffffffffff1673ffffffffffffffffffffffffffffffffffffffff16815260200190815260200160002060000160009054906101000a900467ffffffffffffffff16600760008573ffffffffffffffffffffffffffffffffffffffff1673ffffffffffffffffffffffffffffffffffffffff16815260200190815260200160002060000160089054906101000a900467ffffffffffffffff16604051808473ffffffffffffffffffffffffffffffffffffffff1673ffffffffffffffffffffffffffffffffffffffff1681526020018367ffffffffffffffff1667ffffffffffffffff1681526020018267ffffffffffffffff1667ffffffffffffffff168152602001935050505060405180910390a150565b6000600260009054906101000a900473ffffffffffffffffffffffffffffffffffffffff16905090565b613fb061386a565b614022576040517f08c379a00000000000000000000000000000000000000000000000000000000081526004018080602001828103825260208152602001807f4f776e61626c653a2063616c6c6572206973206e6f7420746865206f776e657281525060200191505060405180910390fd5b80600160006101000a81548173ffffffffffffffffffffffffffffffffffffffff021916908373ffffffffffffffffffffffffffffffffffffffff16021790555050565b600060048081111561407457fe5b600760008473ffffffffffffffffffffffffffffffffffffffff1673ffffffffffffffffffffffffffffffffffffffff16815260200190815260200160002060020160009054906101000a900460ff1660048111156140cf57fe5b149050919050565b6000600760008373ffffffffffffffffffffffffffffffffffffffff1673ffffffffffffffffffffffffffffffffffffffff16815260200190815260200160002060000160009054906101000a900467ffffffffffffffff169050919050565b60003373ffffffffffffffffffffffffffffffffffffffff16600660009054906101000a900473ffffffffffffffffffffffffffffffffffffffff1673ffffffffffffffffffffffffffffffffffffffff1614905090565b600061419a8261355f565b801561420b5750600260048111156141ae57fe5b600760008473ffffffffffffffffffffffffffffffffffffffff1673ffffffffffffffffffffffffffffffffffffffff16815260200190815260200160002060020160009054906101000a900460ff16600481111561420957fe5b145b9050919050565b6000600360009054906101000a900473ffffffffffffffffffffffffffffffffffffffff16905090565b61424461386a565b6142b6576040517f08c379a00000000000000000000000000000000000000000000000000000000081526004018080602001828103825260208152602001807f4f776e61626c653a2063616c6c6572206973206e6f7420746865206f776e657281525060200191505060405180910390fd5b80600560006101000a81548173ffffffffffffffffffffffffffffffffffffffff021916908373ffffffffffffffffffffffffffffffffffffffff16021790555050565b6000600560009054906101000a900473ffffffffffffffffffffffffffffffffffffffff1673ffffffffffffffffffffffffffffffffffffffff168273ffffffffffffffffffffffffffffffffffffffff16149050919050565b61435c61386a565b6143ce576040517f08c379a00000000000000000000000000000000000000000000000000000000081526004018080602001828103825260208152602001807f4f776e61626c653a2063616c6c6572206973206e6f7420746865206f776e657281525060200191505060405180910390fd5b6143d78161448f565b50565b6000600160009054906101000a900473ffffffffffffffffffffffffffffffffffffffff16905090565b600061440f82611cf0565b801561448057506002600481111561442357fe5b600760008473ffffffffffffffffffffffffffffffffffffffff1673ffffffffffffffffffffffffffffffffffffffff16815260200190815260200160002060020160009054906101000a900460ff16600481111561447e57fe5b145b9050919050565b600033905090565b600073ffffffffffffffffffffffffffffffffffffffff168173ffffffffffffffffffffffffffffffffffffffff161415614515576040517f08c379a00000000000000000000000000000000000000000000000000000000081526004018080602001828103825260268152602001806146eb6026913960400191505060405180910390fd5b8073ffffffffffffffffffffffffffffffffffffffff166000809054906101000a900473ffffffffffffffffffffffffffffffffffffffff1673ffffffffffffffffffffffffffffffffffffffff167f8be0079c531659141344cd1fd0a4f28419497f9722a3daafe3b4186f6b6457e060405160405180910390a3806000806101000a81548173ffffffffffffffffffffffffffffffffffffffff021916908373ffffffffffffffffffffffffffffffffffffffff16021790555050565b828054600181600116156101000203166002900490600052602060002090601f016020900481019282601f1061461457805160ff1916838001178555614642565b82800160010185558215614642579182015b82811115614641578251825591602001919060010190614626565b5b50905061464f9190614653565b5090565b61467591905b80821115614671576000816000905550600101614659565b5090565b9056fe54656d2071756520686176657220756d20656e64657265c3a76f206173736f636961646f2061206573736520636e706a2f7375626372c3a96469746f4120636f6e74612070726563697361206573746172206e6f2065737461646f20416775617264616e646f2056616c696461c3a7c3a36f4f776e61626c653a206e6577206f776e657220697320746865207a65726f2061646472657373466f726e656365646f72206ac3a120657374c3a1206173736f636961646f2061206f7574726f20656e64657265c3a76f2e2055736520612066756ec3a7c3a36f2054726f63612e536f6d656e7465206f20726573706f6e73c3a176656c2070656c612076616c696461c3a7c3a36f20706f646520686162696c6974617220612074726f636120646520636f6e74614461646f7320696e636f6e73697374656e74657320646520636e706a206f75207375626372c3a96469746f4f2068617368206461206465636c617261c3a7c3a36f20c3a920696e76c3a16c69646f436c69656e7465206ac3a120657374c3a1206173736f636961646f2061206f7574726f20656e64657265c3a76f2e2055736520612066756ec3a7c3a36f2054726f63612e4f206861736820726563656269646f20c3a9206469666572656e746520646f20657370657261646f4ec3a36f20c3a920706f7373c3ad76656c20696e76616c6964617220636f6e74612072657365727661646153686f756c64206e6f7420656e61626c652074686520616c726561647920656e61626c6564206163636f756e744e6f766f20656e64657265c3a76f206ec3a36f20657374c3a120646973706f6ec3ad76656c4120636f6e7461206e6f7661206ec3a36f20657374c3a120686162696c697461646120706172612074726f63614ec3a36f20706f64652074726f63617220656e64657265c3a76f20646520636f6e746120726573657276616461456e64657265c3a76f206ec3a36f20706f646520746572207369646f206361646173747261646f20616e746572696f726d656e7465536f6d656e7465206f20726573706f6e73c3a176656c2070656c612076616c696461c3a7c3a36f20706f646520696e76616c6964617220636f6e746173536f6d656e7465206f20726573706f6e73c3a176656c2070656c612076616c696461c3a7c3a36f20706f64652076616c6964617220636f6e7461734120636f6e746120696e666f726d616461206ec3a36f20657374c3a120686162696c6974616461207061726120636164617374726fa265627a7a72315820d3abab16dea50a6c4fa5964fba52172dac07aa198005774afa5ac05bd5cb343164736f6c63430005100032",
  "source": "pragma solidity ^0.5.0;\n\n//import \"openzeppelin-solidity/contracts/ownership/Ownable.sol\";\nimport '@openzeppelin/contracts/ownership/Ownable.sol';\nimport '@openzeppelin/contracts/lifecycle/Pausable.sol';\n\ncontract BNDESRegistry is Ownable() {\n\n    /**\n        The account of clients and suppliers are assigned to states. \n        Reserved accounts (e.g. from BNDES and ANCINE) do not have state.\n        AVAILABLE - The account is not yet assigned any role (any of them - client, donor or any reserved addresses).\n        WAITING_VALIDATION - The account was linked to a legal entity but it still needs to be validated\n        VALIDATED - The account was validated\n        INVALIDATED_BY_VALIDATOR - The account was invalidated\n        INVALIDATED_BY_CHANGE - The client or donor changed the ethereum account so the original one must be invalidated.\n     */\n    enum BlockchainAccountState {AVAILABLE,WAITING_VALIDATION,VALIDATED,INVALIDATED_BY_VALIDATOR,INVALIDATED_BY_CHANGE} \n    BlockchainAccountState blockchainState; //Not used. Defined to create the enum type.\n\n    address public responsibleForSettlement;\n    address public responsibleForRegistryValidation;\n    address public responsibleForDonationConfirmation;\n    address public responsibleForDisbursement;\n    address public disbursementAddress;\n    address public tokenAddress;\n\n    /**\n        Describes the Legal Entity - clients or donors\n     */\n    struct LegalEntityInfo {\n        uint64 cnpj; //Brazilian identification of legal entity\n        uint64 idFinancialSupportAgreement; //SCC contract        \n        string idProofHash; //hash of declaration\n        BlockchainAccountState state;\n    } \n\n    /**\n        Links Ethereum addresses to LegalEntityInfo        \n     */\n    mapping(address => LegalEntityInfo) public legalEntitiesInfo;\n\n    /**\n        Links Legal Entity to Ethereum address. \n        cnpj => (idFinancialSupportAgreement => address)\n     */\n    mapping(uint64 => mapping(uint64 => address)) public cnpjFSAddr; \n\n\n    /**\n        Links Ethereum addresses to the possibility to change the account\n        Since the Ethereum account can be changed once, it is not necessary to put the bool to false.\n        TODO: Discuss later what is the best data structure\n     */\n    mapping(address => bool) public legalEntitiesChangeAccount;\n\n\n    event AccountRegistration(address addr, uint64 cnpj, uint64 idFinancialSupportAgreement, string idProofHash);\n    event AccountChange(address oldAddr, address newAddr, uint64 cnpj, uint64 idFinancialSupportAgreement, string idProofHash);\n    event AccountValidation(address addr, uint64 cnpj, uint64 idFinancialSupportAgreement);\n    event AccountInvalidation(address addr, uint64 cnpj, uint64 idFinancialSupportAgreement);\n\n    /**\n     * @dev Throws if called by any account other than the token address.\n     */\n    modifier onlyTokenAddress() {\n        require(isTokenAddress());\n        _;\n    }\n\n    constructor() public {\n        responsibleForSettlement = msg.sender;\n        responsibleForRegistryValidation = msg.sender;\n        responsibleForDisbursement = msg.sender;\n        disbursementAddress = msg.sender;\n        responsibleForDonationConfirmation = msg.sender;\n    }\n\n\n   /**\n    * Link blockchain address with CNPJ - It can be a cliente or a donor\n    * The link still needs to be validated by BNDES\n    * This method can only be called by BNDESToken contract because BNDESToken can pause.\n    * @param cnpj Brazilian identifier to legal entities\n    * @param idFinancialSupportAgreement contract number of financial contract with BNDES. It assumes 0 if it is a donor.\n    * @param addr the address to be associated with the legal entity.\n    * @param idProofHash The legal entities have to send BNDES a PDF where it assumes as responsible for an Ethereum account. \n    *                   This PDF is signed with eCNPJ and send to BNDES. \n    */\n    function registryLegalEntity(uint64 cnpj, uint64 idFinancialSupportAgreement, \n        address addr, string memory idProofHash) onlyTokenAddress public { \n\n        // Endereo no pode ter sido cadastrado anteriormente\n        require (isAvailableAccount(addr), \"Endereo no pode ter sido cadastrado anteriormente\");\n\n        require (isValidHash(idProofHash), \"O hash da declarao  invlido\");\n\n        require (isChangeAccountEnabled(addr), \"A conta informada no est habilitada para cadastro\");\n\n        legalEntitiesInfo[addr] = LegalEntityInfo(cnpj, idFinancialSupportAgreement, idProofHash, BlockchainAccountState.WAITING_VALIDATION);\n        \n        // No pode haver outro endereo cadastrado para esse mesmo subcrdito\n        if (idFinancialSupportAgreement > 0) {\n            address account = getBlockchainAccount(cnpj,idFinancialSupportAgreement);\n            require (isAvailableAccount(account), \"Cliente j est associado a outro endereo. Use a funo Troca.\");\n        }\n        else {\n            address account = getBlockchainAccount(cnpj,0);\n            require (isAvailableAccount(account), \"Fornecedor j est associado a outro endereo. Use a funo Troca.\");\n        }\n        \n        cnpjFSAddr[cnpj][idFinancialSupportAgreement] = addr;\n\n        emit AccountRegistration(addr, cnpj, idFinancialSupportAgreement, idProofHash);\n    }\n\n   /**\n    * Changes the original link between CNPJ and Ethereum account. \n    * The new link still needs to be validated by BNDES.\n    * This method can only be called by BNDESToken contract because BNDESToken can pause and because there are \n    * additional instructions there.\n    * @param cnpj Brazilian identifier to legal entities\n    * @param idFinancialSupportAgreement contract number of financial contract with BNDES. It assumes 0 if it is a donor.\n    * @param newAddr the new address to be associated with the legal entity\n    * @param idProofHash The legal entities have to send BNDES a PDF where it assumes as responsible for an Ethereum account. \n    *                   This PDF is signed with eCNPJ and send to BNDES. \n    */\n    function changeAccountLegalEntity(uint64 cnpj, uint64 idFinancialSupportAgreement, \n        address newAddr, string memory idProofHash) onlyTokenAddress public {\n\n        address oldAddr = getBlockchainAccount(cnpj, idFinancialSupportAgreement);\n    \n        // Tem que haver um endereo associado a esse cnpj/subcrdito\n        require(!isReservedAccount(oldAddr), \"No pode trocar endereo de conta reservada\");\n\n        require(!isAvailableAccount(oldAddr), \"Tem que haver um endereo associado a esse cnpj/subcrdito\");\n\n        require(isAvailableAccount(newAddr), \"Novo endereo no est disponvel\");\n\n        require (isChangeAccountEnabled(newAddr), \"A conta nova no est habilitada para troca\");\n\n        require (isValidHash(idProofHash), \"O hash da declarao  invlido\");        \n\n        require(legalEntitiesInfo[oldAddr].cnpj==cnpj \n                    && legalEntitiesInfo[oldAddr].idFinancialSupportAgreement ==idFinancialSupportAgreement, \n                    \"Dados inconsistentes de cnpj ou subcrdito\");\n\n        // Aponta o novo endereo para o novo LegalEntityInfo\n        legalEntitiesInfo[newAddr] = LegalEntityInfo(cnpj, idFinancialSupportAgreement, idProofHash, BlockchainAccountState.WAITING_VALIDATION);\n\n        // Apaga o mapping do endereo antigo\n        legalEntitiesInfo[oldAddr].state = BlockchainAccountState.INVALIDATED_BY_CHANGE;\n\n        // Aponta mapping CNPJ e Subcredito para newAddr\n        cnpjFSAddr[cnpj][idFinancialSupportAgreement] = newAddr;\n\n        emit AccountChange(oldAddr, newAddr, cnpj, idFinancialSupportAgreement, idProofHash); \n\n    }\n\n   /**\n    * Validates the initial registry of a legal entity or the change of its registry\n    * @param addr Ethereum address that needs to be validated\n    * @param idProofHash The legal entities have to send BNDES a PDF where it assumes as responsible for an Ethereum account. \n    *                   This PDF is signed with eCNPJ and send to BNDES. \n    */\n    function validateRegistryLegalEntity(address addr, string memory idProofHash) public {\n\n        require(isResponsibleForRegistryValidation(msg.sender), \"Somente o responsvel pela validao pode validar contas\");\n\n        require(legalEntitiesInfo[addr].state == BlockchainAccountState.WAITING_VALIDATION, \"A conta precisa estar no estado Aguardando Validao\");\n\n        require(keccak256(abi.encodePacked(legalEntitiesInfo[addr].idProofHash)) == keccak256(abi.encodePacked(idProofHash)), \"O hash recebido  diferente do esperado\");\n\n        legalEntitiesInfo[addr].state = BlockchainAccountState.VALIDATED;\n\n        emit AccountValidation(addr, legalEntitiesInfo[addr].cnpj, \n            legalEntitiesInfo[addr].idFinancialSupportAgreement);\n    }\n\n   /**\n    * Invalidates the initial registry of a legal entity or the change of its registry\n    * The invalidation can be called at any time in the lifecycle of the address (not only when it is WAITING_VALIDATION)\n    * @param addr Ethereum address that needs to be validated\n    */\n    function invalidateRegistryLegalEntity(address addr) public {\n\n        require(isResponsibleForRegistryValidation(msg.sender), \"Somente o responsvel pela validao pode invalidar contas\");\n\n        require(!isReservedAccount(addr), \"No  possvel invalidar conta reservada\");\n\n        legalEntitiesInfo[addr].state = BlockchainAccountState.INVALIDATED_BY_VALIDATOR;\n        \n        emit AccountInvalidation(addr, legalEntitiesInfo[addr].cnpj, \n            legalEntitiesInfo[addr].idFinancialSupportAgreement);\n    }\n\n\n   /**\n    * By default, the owner is also the Responsible for Settlement. \n    * The owner can assign other address to be the Responsible for Settlement. \n    * @param rs Ethereum address to be assigned as Responsible for Settlement.\n    */\n    function setResponsibleForSettlement(address rs) onlyOwner public {\n        responsibleForSettlement = rs;\n    }\n\n   /**\n    * By default, the owner is also the Responsible for Donation Confirmation. \n    * The owner can assign other address to be the Responsible for Donation Confirmation. \n    * @param rs Ethereum address to be assigned as Responsible for Donation Confirmation.\n    */\n    function setResponsibleForDonationConfirmation(address rs) onlyOwner public {\n        responsibleForDonationConfirmation = rs;\n    }\n\n   /**\n    * By default, the owner is also the Responsible for Validation. \n    * The owner can assign other address to be the Responsible for Validation. \n    * @param rs Ethereum address to be assigned as Responsible for Validation.\n    */\n    function setResponsibleForRegistryValidation(address rs) onlyOwner public {\n        responsibleForRegistryValidation = rs;\n    }\n\n   /**\n    * By default, the owner is also the Responsible for Disbursment. \n    * The owner can assign other address to be the Responsible for Disbursment. \n    * @param rs Ethereum address to be assigned as Responsible for Disbursment.\n    */\n    function setResponsibleForDisbursement(address rs) onlyOwner public {\n        responsibleForDisbursement = rs;\n    }\n\n   /**\n    * The account where the token is stored to futher disbursement. \n    * By default, the disbursement address is the address of the owner. \n    * The owner can change the disbursement address using this function. \n    * @param rs new Disbursement address\n    */\n    function setDisbursementAddress(address rs) onlyOwner public {\n        disbursementAddress = rs;\n    }\n\n   /**\n    * @param rs Ethereum address to be assigned to the token address.\n    */\n    function setTokenAddress(address rs) onlyOwner public {\n        tokenAddress = rs;\n    }\n\n   /**\n    * Enable the legal entity to change the account\n    * @param rs account that can be changed.\n    */\n    function enableChangeAccount (address rs) public {\n        require(isResponsibleForRegistryValidation(msg.sender), \"Somente o responsvel pela validao pode habilitar a troca de conta\");\n        require(legalEntitiesChangeAccount[rs] == false, \"Should not enable the already enabled account\");\n        legalEntitiesChangeAccount[rs] = true;\n    }\n\n    function isChangeAccountEnabled (address rs) view public returns (bool) {\n        return legalEntitiesChangeAccount[rs] == true;\n    }    \n\n    function isTokenAddress() public view returns (bool) {\n        return tokenAddress == msg.sender;\n    } \n    function isResponsibleForSettlement(address addr) view public returns (bool) {\n        return (addr == responsibleForSettlement);\n    }\n    function isResponsibleForRegistryValidation(address addr) view public returns (bool) {\n        return (addr == responsibleForRegistryValidation);\n    }\n    function isResponsibleForDonationConfirmation(address addr) view public returns (bool) {\n        return (addr == responsibleForDonationConfirmation);\n    }\n    function isResponsibleForDisbursement(address addr) view public returns (bool) {\n        return (addr == responsibleForDisbursement);\n    }\n    function isDisbursementAddress(address addr) view public returns (bool) {\n        return (addr == disbursementAddress);\n    }\n\n    function isReservedAccount(address addr) view public returns (bool) {\n\n        if (owner()==addr\n                           || isResponsibleForSettlement(addr)\n                           || isResponsibleForRegistryValidation(addr)\n                           || isResponsibleForDisbursement(addr)\n                           || isResponsibleForDonationConfirmation(addr)\n                           || isDisbursementAddress(addr)  ) {\n            return true;\n        }\n        return false;\n    }\n\n    function isDonor(address addr) view public returns (bool) {\n\n        if (isReservedAccount(addr))\n            return false;\n\n        if (isAvailableAccount(addr))\n            return false;\n\n        return legalEntitiesInfo[addr].idFinancialSupportAgreement == 0;\n    }\n\n    function isValidatedDonor (address addr) view public returns (bool) {\n        return isDonor(addr) && (legalEntitiesInfo[addr].state == BlockchainAccountState.VALIDATED);\n    }\n\n    function isClient (address addr) view public returns (bool) {\n        if (isReservedAccount(addr)) {\n            return false;\n        }\n        return legalEntitiesInfo[addr].idFinancialSupportAgreement != 0;\n    }\n\n    function isValidatedClient (address addr) view public returns (bool) {\n        return isClient(addr) && (legalEntitiesInfo[addr].state == BlockchainAccountState.VALIDATED);\n    }\n\n    function isAvailableAccount(address addr) view public returns (bool) {\n        if ( isReservedAccount(addr) ) {\n            return false;\n        } \n        return legalEntitiesInfo[addr].state == BlockchainAccountState.AVAILABLE;\n    }\n\n    function isWaitingValidationAccount(address addr) view public returns (bool) {\n        return legalEntitiesInfo[addr].state == BlockchainAccountState.WAITING_VALIDATION;\n    }\n\n    function isValidatedAccount(address addr) view public returns (bool) {\n        return legalEntitiesInfo[addr].state == BlockchainAccountState.VALIDATED;\n    }\n\n    function isInvalidatedByValidatorAccount(address addr) view public returns (bool) {\n        return legalEntitiesInfo[addr].state == BlockchainAccountState.INVALIDATED_BY_VALIDATOR;\n    }\n\n    function isInvalidatedByChangeAccount(address addr) view public returns (bool) {\n        return legalEntitiesInfo[addr].state == BlockchainAccountState.INVALIDATED_BY_CHANGE;\n    }\n\n    function getResponsibleForSettlement() view public returns (address) {\n        return responsibleForSettlement;\n    }\n    function getResponsibleForRegistryValidation() view public returns (address) {\n        return responsibleForRegistryValidation;\n    }\n    function getResponsibleForDisbursement() view public returns (address) {\n        return responsibleForDisbursement;\n    }\n    function getResponsibleForDonationConfirmation() view public returns (address) {\n        return responsibleForDonationConfirmation;\n    }    \n    function getDisbursementAddress() view public returns (address) {\n        return disbursementAddress;\n    }\n    function getCNPJ(address addr) view public returns (uint64) {\n        return legalEntitiesInfo[addr].cnpj;\n    }\n\n    function getIdLegalFinancialAgreement(address addr) view public returns (uint64) {\n        return legalEntitiesInfo[addr].idFinancialSupportAgreement;\n    }\n\n    function getLegalEntityInfo (address addr) view public returns (uint64, uint64, string memory, uint, address) {\n        return (legalEntitiesInfo[addr].cnpj, legalEntitiesInfo[addr].idFinancialSupportAgreement, \n             legalEntitiesInfo[addr].idProofHash, (uint) (legalEntitiesInfo[addr].state),\n             addr);\n    }\n\n    function getBlockchainAccount(uint64 cnpj, uint64 idFinancialSupportAgreement) view public returns (address) {\n        return cnpjFSAddr[cnpj][idFinancialSupportAgreement];\n    }\n\n    function getBlockchainAccountOfDonor(uint64 cnpj) view public returns (address) {\n        return cnpjFSAddr[cnpj][0];\n    }    \n\n    function getLegalEntityInfoByCNPJ (uint64 cnpj, uint64 idFinancialSupportAgreement) \n        view public returns (uint64, uint64, string memory, uint, address) {\n        \n        address addr = getBlockchainAccount(cnpj,idFinancialSupportAgreement);\n        return getLegalEntityInfo (addr);\n    }\n\n    function getAccountState(address addr) view public returns (int) {\n\n        if ( isReservedAccount(addr) ) {\n            return 100;\n        } \n        else {\n            return ((int) (legalEntitiesInfo[addr].state));\n        }\n\n    }\n\n\n  function isValidHash(string memory str) pure public returns (bool)  {\n\n    bytes memory b = bytes(str);\n    if(b.length != 64) return false;\n\n    for (uint i=0; i<64; i++) {\n        if (b[i] < \"0\") return false;\n        if (b[i] > \"9\" && b[i] <\"a\") return false;\n        if (b[i] > \"f\") return false;\n    }\n        \n    return true;\n }\n\n\n}\n\n\n/**\ncontract Context {\n    // Empty internal constructor, to prevent people from mistakenly deploying\n    // an instance of this contract, which should be used via inheritance.\n    constructor () internal { }\n    // solhint-disable-previous-line no-empty-blocks\n\n    function _msgSender() internal view returns (address payable) {\n        return msg.sender;\n    }\n\n    function _msgData() internal view returns (bytes memory) {\n        this; // silence state mutability warning without generating bytecode - see https://github.com/ethereum/solidity/issues/2691\n        return msg.data;\n    }\n}\ncontract Ownable is Context {\n    address private _owner;\n\n    event OwnershipTransferred(address indexed previousOwner, address indexed newOwner);\n\n    constructor () internal {\n        address msgSender = _msgSender();\n        _owner = msgSender;\n        emit OwnershipTransferred(address(0), msgSender);\n    }\n\n    function owner() public view returns (address) {\n        return _owner;\n    }\n\n    modifier onlyOwner() {\n        require(isOwner(), \"Ownable: caller is not the owner\");\n        _;\n    }\n\n    function isOwner() public view returns (bool) {\n        return _msgSender() == _owner;\n    }\n\n    function renounceOwnership() public onlyOwner {\n        emit OwnershipTransferred(_owner, address(0));\n        _owner = address(0);\n    }\n\n    function transferOwnership(address newOwner) public onlyOwner {\n        _transferOwnership(newOwner);\n    }\n\n    function _transferOwnership(address newOwner) internal {\n        require(newOwner != address(0), \"Ownable: new owner is the zero address\");\n        emit OwnershipTransferred(_owner, newOwner);\n        _owner = newOwner;\n    }\n}\n*/",
  "sourcePath": "/Users/suzana.moreno/workspace/bndestoken-captacao/Back-Blockchain/contracts/BNDESRegistry.sol",
  "compiler": {
    "name": "solc",
    "version": "0.5.16+commit.9c3226ce.Emscripten.clang"
  },
  "schemaVersion": "3.0.23",
  "updatedAt": "2020-04-07T19:23:52.951Z",
  "networkType": "ethereum",
  "devdoc": {
    "methods": {
      "changeAccountLegalEntity(uint64,uint64,address,string)": {
        "params": {
          "cnpj": "Brazilian identifier to legal entities",
          "idFinancialSupportAgreement": "contract number of financial contract with BNDES. It assumes 0 if it is a donor.",
          "idProofHash": "The legal entities have to send BNDES a PDF where it assumes as responsible for an Ethereum account.                   This PDF is signed with eCNPJ and send to BNDES. ",
          "newAddr": "the new address to be associated with the legal entity"
        }
      },
      "enableChangeAccount(address)": {
        "params": {
          "rs": "account that can be changed."
        }
      },
      "invalidateRegistryLegalEntity(address)": {
        "params": {
          "addr": "Ethereum address that needs to be validated"
        }
      },
      "isOwner()": {
        "details": "Returns true if the caller is the current owner."
      },
      "owner()": {
        "details": "Returns the address of the current owner."
      },
      "registryLegalEntity(uint64,uint64,address,string)": {
        "params": {
          "addr": "the address to be associated with the legal entity.",
          "cnpj": "Brazilian identifier to legal entities",
          "idFinancialSupportAgreement": "contract number of financial contract with BNDES. It assumes 0 if it is a donor.",
          "idProofHash": "The legal entities have to send BNDES a PDF where it assumes as responsible for an Ethereum account.                   This PDF is signed with eCNPJ and send to BNDES. "
        }
      },
      "renounceOwnership()": {
        "details": "Leaves the contract without owner. It will not be possible to call `onlyOwner` functions anymore. Can only be called by the current owner.     * NOTE: Renouncing ownership will leave the contract without an owner, thereby removing any functionality that is only available to the owner."
      },
      "setDisbursementAddress(address)": {
        "params": {
          "rs": "new Disbursement address"
        }
      },
      "setResponsibleForDisbursement(address)": {
        "params": {
          "rs": "Ethereum address to be assigned as Responsible for Disbursment."
        }
      },
      "setResponsibleForDonationConfirmation(address)": {
        "params": {
          "rs": "Ethereum address to be assigned as Responsible for Donation Confirmation."
        }
      },
      "setResponsibleForRegistryValidation(address)": {
        "params": {
          "rs": "Ethereum address to be assigned as Responsible for Validation."
        }
      },
      "setResponsibleForSettlement(address)": {
        "params": {
          "rs": "Ethereum address to be assigned as Responsible for Settlement."
        }
      },
      "setTokenAddress(address)": {
        "params": {
          "rs": "Ethereum address to be assigned to the token address."
        }
      },
      "transferOwnership(address)": {
        "details": "Transfers ownership of the contract to a new account (`newOwner`). Can only be called by the current owner."
      },
      "validateRegistryLegalEntity(address,string)": {
        "params": {
          "addr": "Ethereum address that needs to be validated",
          "idProofHash": "The legal entities have to send BNDES a PDF where it assumes as responsible for an Ethereum account.                   This PDF is signed with eCNPJ and send to BNDES. "
        }
      }
    }
  },
  "userdoc": {
    "methods": {
      "changeAccountLegalEntity(uint64,uint64,address,string)": {
        "notice": "Changes the original link between CNPJ and Ethereum account.  The new link still needs to be validated by BNDES. This method can only be called by BNDESToken contract because BNDESToken can pause and because there are  additional instructions there."
      },
      "enableChangeAccount(address)": {
        "notice": "Enable the legal entity to change the account"
      },
      "invalidateRegistryLegalEntity(address)": {
        "notice": "Invalidates the initial registry of a legal entity or the change of its registry The invalidation can be called at any time in the lifecycle of the address (not only when it is WAITING_VALIDATION)"
      },
      "registryLegalEntity(uint64,uint64,address,string)": {
        "notice": "Link blockchain address with CNPJ - It can be a cliente or a donor The link still needs to be validated by BNDES This method can only be called by BNDESToken contract because BNDESToken can pause."
      },
      "setDisbursementAddress(address)": {
        "notice": "The account where the token is stored to futher disbursement.  By default, the disbursement address is the address of the owner.  The owner can change the disbursement address using this function. "
      },
      "setResponsibleForDisbursement(address)": {
        "notice": "By default, the owner is also the Responsible for Disbursment.  The owner can assign other address to be the Responsible for Disbursment. "
      },
      "setResponsibleForDonationConfirmation(address)": {
        "notice": "By default, the owner is also the Responsible for Donation Confirmation.  The owner can assign other address to be the Responsible for Donation Confirmation. "
      },
      "setResponsibleForRegistryValidation(address)": {
        "notice": "By default, the owner is also the Responsible for Validation.  The owner can assign other address to be the Responsible for Validation. "
      },
      "setResponsibleForSettlement(address)": {
        "notice": "By default, the owner is also the Responsible for Settlement.  The owner can assign other address to be the Responsible for Settlement. "
      },
      "validateRegistryLegalEntity(address,string)": {
        "notice": "Validates the initial registry of a legal entity or the change of its registry"
      }
    }
  }
}