{
  "contractName": "BNDESToken",
  "abi": [
    {
      "inputs": [
        {
          "internalType": "contract BNDESRegistry",
          "name": "_registry",
          "type": "address"
        },
        {
          "internalType": "uint8",
          "name": "_decimals",
          "type": "uint8"
        },
        {
          "internalType": "uint256",
          "name": "_bndesFee",
          "type": "uint256"
        }
      ],
      "payable": false,
      "stateMutability": "nonpayable",
      "type": "constructor"
    },
    {
      "anonymous": false,
      "inputs": [
        {
          "indexed": false,
          "internalType": "uint64",
          "name": "cnpj",
          "type": "uint64"
        },
        {
          "indexed": false,
          "internalType": "uint256",
          "name": "amount",
          "type": "uint256"
        },
        {
          "indexed": false,
          "internalType": "uint64",
          "name": "idFinancialSupportAgreement",
          "type": "uint64"
        }
      ],
      "name": "Disbursement",
      "type": "event"
    },
    {
      "anonymous": false,
      "inputs": [
        {
          "indexed": false,
          "internalType": "uint64",
          "name": "cnpj",
          "type": "uint64"
        },
        {
          "indexed": false,
          "internalType": "uint256",
          "name": "amount",
          "type": "uint256"
        }
      ],
      "name": "DonationBooked",
      "type": "event"
    },
    {
      "anonymous": false,
      "inputs": [
        {
          "indexed": false,
          "internalType": "uint64",
          "name": "cnpj",
          "type": "uint64"
        },
        {
          "indexed": false,
          "internalType": "uint256",
          "name": "amount",
          "type": "uint256"
        },
        {
          "indexed": false,
          "internalType": "uint256",
          "name": "tokenMinted",
          "type": "uint256"
        },
        {
          "indexed": false,
          "internalType": "string",
          "name": "docHash",
          "type": "string"
        }
      ],
      "name": "DonationConfirmed",
      "type": "event"
    },
    {
      "anonymous": false,
      "inputs": [
        {
          "indexed": false,
          "internalType": "string",
          "name": "description",
          "type": "string"
        }
      ],
      "name": "ManualIntervention",
      "type": "event"
    },
    {
      "anonymous": false,
      "inputs": [
        {
          "indexed": false,
          "internalType": "address",
          "name": "account",
          "type": "address"
        }
      ],
      "name": "Paused",
      "type": "event"
    },
    {
      "anonymous": false,
      "inputs": [
        {
          "indexed": true,
          "internalType": "address",
          "name": "account",
          "type": "address"
        }
      ],
      "name": "PauserAdded",
      "type": "event"
    },
    {
      "anonymous": false,
      "inputs": [
        {
          "indexed": true,
          "internalType": "address",
          "name": "account",
          "type": "address"
        }
      ],
      "name": "PauserRemoved",
      "type": "event"
    },
    {
      "anonymous": false,
      "inputs": [
        {
          "indexed": false,
          "internalType": "uint64",
          "name": "cnpj",
          "type": "uint64"
        },
        {
          "indexed": false,
          "internalType": "uint256",
          "name": "amount",
          "type": "uint256"
        },
        {
          "indexed": false,
          "internalType": "uint64",
          "name": "idFinancialSupportAgreement",
          "type": "uint64"
        }
      ],
      "name": "RedemptionRequested",
      "type": "event"
    },
    {
      "anonymous": false,
      "inputs": [
        {
          "indexed": false,
          "internalType": "string",
          "name": "redemptionTransactionHash",
          "type": "string"
        },
        {
          "indexed": false,
          "internalType": "string",
          "name": "receiptHash",
          "type": "string"
        }
      ],
      "name": "RedemptionSettlement",
      "type": "event"
    },
    {
      "anonymous": false,
      "inputs": [
        {
          "indexed": false,
          "internalType": "address",
          "name": "from",
          "type": "address"
        },
        {
          "indexed": false,
          "internalType": "address",
          "name": "to",
          "type": "address"
        },
        {
          "indexed": false,
          "internalType": "uint256",
          "name": "amount",
          "type": "uint256"
        }
      ],
      "name": "TransferBookedBalance",
      "type": "event"
    },
    {
      "anonymous": false,
      "inputs": [
        {
          "indexed": false,
          "internalType": "address",
          "name": "from",
          "type": "address"
        },
        {
          "indexed": false,
          "internalType": "address",
          "name": "to",
          "type": "address"
        },
        {
          "indexed": false,
          "internalType": "uint256",
          "name": "amount",
          "type": "uint256"
        }
      ],
      "name": "TransferConfirmedBalance",
      "type": "event"
    },
    {
      "anonymous": false,
      "inputs": [
        {
          "indexed": false,
          "internalType": "address",
          "name": "account",
          "type": "address"
        }
      ],
      "name": "Unpaused",
      "type": "event"
    },
    {
      "constant": false,
      "inputs": [
        {
          "internalType": "address",
          "name": "account",
          "type": "address"
        }
      ],
      "name": "addPauser",
      "outputs": [],
      "payable": false,
      "stateMutability": "nonpayable",
      "type": "function"
    },
    {
      "constant": true,
      "inputs": [],
      "name": "bndesFee",
      "outputs": [
        {
          "internalType": "uint256",
          "name": "",
          "type": "uint256"
        }
      ],
      "payable": false,
      "stateMutability": "view",
      "type": "function"
    },
    {
      "constant": true,
      "inputs": [
        {
          "internalType": "address",
          "name": "",
          "type": "address"
        }
      ],
      "name": "bookedBalances",
      "outputs": [
        {
          "internalType": "uint256",
          "name": "",
          "type": "uint256"
        }
      ],
      "payable": false,
      "stateMutability": "view",
      "type": "function"
    },
    {
      "constant": true,
      "inputs": [],
      "name": "bookedTotalSupply",
      "outputs": [
        {
          "internalType": "uint256",
          "name": "",
          "type": "uint256"
        }
      ],
      "payable": false,
      "stateMutability": "view",
      "type": "function"
    },
    {
      "constant": true,
      "inputs": [
        {
          "internalType": "address",
          "name": "",
          "type": "address"
        }
      ],
      "name": "confirmedBalances",
      "outputs": [
        {
          "internalType": "uint256",
          "name": "",
          "type": "uint256"
        }
      ],
      "payable": false,
      "stateMutability": "view",
      "type": "function"
    },
    {
      "constant": true,
      "inputs": [],
      "name": "confirmedTotalSupply",
      "outputs": [
        {
          "internalType": "uint256",
          "name": "",
          "type": "uint256"
        }
      ],
      "payable": false,
      "stateMutability": "view",
      "type": "function"
    },
    {
      "constant": true,
      "inputs": [],
      "name": "decimals",
      "outputs": [
        {
          "internalType": "uint8",
          "name": "",
          "type": "uint8"
        }
      ],
      "payable": false,
      "stateMutability": "view",
      "type": "function"
    },
    {
      "constant": true,
      "inputs": [
        {
          "internalType": "address",
          "name": "account",
          "type": "address"
        }
      ],
      "name": "isPauser",
      "outputs": [
        {
          "internalType": "bool",
          "name": "",
          "type": "bool"
        }
      ],
      "payable": false,
      "stateMutability": "view",
      "type": "function"
    },
    {
      "constant": false,
      "inputs": [],
      "name": "pause",
      "outputs": [],
      "payable": false,
      "stateMutability": "nonpayable",
      "type": "function"
    },
    {
      "constant": true,
      "inputs": [],
      "name": "paused",
      "outputs": [
        {
          "internalType": "bool",
          "name": "",
          "type": "bool"
        }
      ],
      "payable": false,
      "stateMutability": "view",
      "type": "function"
    },
    {
      "constant": false,
      "inputs": [],
      "name": "renouncePauser",
      "outputs": [],
      "payable": false,
      "stateMutability": "nonpayable",
      "type": "function"
    },
    {
      "constant": false,
      "inputs": [],
      "name": "unpause",
      "outputs": [],
      "payable": false,
      "stateMutability": "nonpayable",
      "type": "function"
    },
    {
      "constant": false,
      "inputs": [
        {
          "internalType": "uint256",
          "name": "amount",
          "type": "uint256"
        }
      ],
      "name": "bookDonation",
      "outputs": [],
      "payable": false,
      "stateMutability": "nonpayable",
      "type": "function"
    },
    {
      "constant": false,
      "inputs": [
        {
          "internalType": "address",
          "name": "account",
          "type": "address"
        },
        {
          "internalType": "uint256",
          "name": "amount",
          "type": "uint256"
        },
        {
          "internalType": "string",
          "name": "docHash",
          "type": "string"
        }
      ],
      "name": "confirmDonation",
      "outputs": [],
      "payable": false,
      "stateMutability": "nonpayable",
      "type": "function"
    },
    {
      "constant": false,
      "inputs": [
        {
          "internalType": "address",
          "name": "client",
          "type": "address"
        },
        {
          "internalType": "uint256",
          "name": "amount",
          "type": "uint256"
        }
      ],
      "name": "makeDisbursement",
      "outputs": [],
      "payable": false,
      "stateMutability": "nonpayable",
      "type": "function"
    },
    {
      "constant": false,
      "inputs": [
        {
          "internalType": "uint256",
          "name": "amount",
          "type": "uint256"
        }
      ],
      "name": "redeem",
      "outputs": [
        {
          "internalType": "bool",
          "name": "",
          "type": "bool"
        }
      ],
      "payable": false,
      "stateMutability": "nonpayable",
      "type": "function"
    },
    {
      "constant": false,
      "inputs": [
        {
          "internalType": "string",
          "name": "redemptionTransactionHash",
          "type": "string"
        },
        {
          "internalType": "string",
          "name": "receiptHash",
          "type": "string"
        }
      ],
      "name": "notifyRedemptionSettlement",
      "outputs": [],
      "payable": false,
      "stateMutability": "nonpayable",
      "type": "function"
    },
    {
      "constant": false,
      "inputs": [
        {
          "internalType": "address",
          "name": "account",
          "type": "address"
        },
        {
          "internalType": "uint256",
          "name": "amount",
          "type": "uint256"
        },
        {
          "internalType": "string",
          "name": "description",
          "type": "string"
        }
      ],
      "name": "mintBooked",
      "outputs": [],
      "payable": false,
      "stateMutability": "nonpayable",
      "type": "function"
    },
    {
      "constant": false,
      "inputs": [
        {
          "internalType": "address",
          "name": "account",
          "type": "address"
        },
        {
          "internalType": "uint256",
          "name": "amount",
          "type": "uint256"
        },
        {
          "internalType": "string",
          "name": "description",
          "type": "string"
        }
      ],
      "name": "burnBooked",
      "outputs": [],
      "payable": false,
      "stateMutability": "nonpayable",
      "type": "function"
    },
    {
      "constant": false,
      "inputs": [
        {
          "internalType": "address",
          "name": "account",
          "type": "address"
        },
        {
          "internalType": "uint256",
          "name": "amount",
          "type": "uint256"
        },
        {
          "internalType": "string",
          "name": "description",
          "type": "string"
        }
      ],
      "name": "mintConfirmed",
      "outputs": [],
      "payable": false,
      "stateMutability": "nonpayable",
      "type": "function"
    },
    {
      "constant": false,
      "inputs": [
        {
          "internalType": "address",
          "name": "account",
          "type": "address"
        },
        {
          "internalType": "uint256",
          "name": "amount",
          "type": "uint256"
        },
        {
          "internalType": "string",
          "name": "description",
          "type": "string"
        }
      ],
      "name": "burnConfirmed",
      "outputs": [],
      "payable": false,
      "stateMutability": "nonpayable",
      "type": "function"
    },
    {
      "constant": false,
      "inputs": [
        {
          "internalType": "uint64",
          "name": "cnpj",
          "type": "uint64"
        },
        {
          "internalType": "uint64",
          "name": "idFinancialSupportAgreement",
          "type": "uint64"
        },
        {
          "internalType": "string",
          "name": "idProofHash",
          "type": "string"
        }
      ],
      "name": "registryLegalEntity",
      "outputs": [],
      "payable": false,
      "stateMutability": "nonpayable",
      "type": "function"
    },
    {
      "constant": false,
      "inputs": [
        {
          "internalType": "uint64",
          "name": "cnpj",
          "type": "uint64"
        },
        {
          "internalType": "uint64",
          "name": "idFinancialSupportAgreement",
          "type": "uint64"
        },
        {
          "internalType": "string",
          "name": "idProofHash",
          "type": "string"
        }
      ],
      "name": "changeAccountLegalEntity",
      "outputs": [],
      "payable": false,
      "stateMutability": "nonpayable",
      "type": "function"
    },
    {
      "constant": true,
      "inputs": [
        {
          "internalType": "address",
          "name": "client",
          "type": "address"
        }
      ],
      "name": "confirmedBalanceOf",
      "outputs": [
        {
          "internalType": "uint256",
          "name": "",
          "type": "uint256"
        }
      ],
      "payable": false,
      "stateMutability": "view",
      "type": "function"
    },
    {
      "constant": true,
      "inputs": [
        {
          "internalType": "address",
          "name": "donor",
          "type": "address"
        }
      ],
      "name": "bookedBalanceOf",
      "outputs": [
        {
          "internalType": "uint256",
          "name": "",
          "type": "uint256"
        }
      ],
      "payable": false,
      "stateMutability": "view",
      "type": "function"
    },
    {
      "constant": true,
      "inputs": [],
      "name": "getBookedTotalSupply",
      "outputs": [
        {
          "internalType": "uint256",
          "name": "",
          "type": "uint256"
        }
      ],
      "payable": false,
      "stateMutability": "view",
      "type": "function"
    },
    {
      "constant": true,
      "inputs": [],
      "name": "getConfirmedTotalSupply",
      "outputs": [
        {
          "internalType": "uint256",
          "name": "",
          "type": "uint256"
        }
      ],
      "payable": false,
      "stateMutability": "view",
      "type": "function"
    },
    {
      "constant": true,
      "inputs": [],
      "name": "getDecimals",
      "outputs": [
        {
          "internalType": "uint8",
          "name": "",
          "type": "uint8"
        }
      ],
      "payable": false,
      "stateMutability": "view",
      "type": "function"
    }
  ],
  "bytecode": "0x60806040523480156200001157600080fd5b50604051620049fc380380620049fc833981810160405260608110156200003757600080fd5b810190808051906020019092919080519060200190929190805190602001909291905050506200007c620000706200010360201b60201c565b6200010b60201b60201c565b6000600160006101000a81548160ff02191690831515021790555082600860006101000a81548173ffffffffffffffffffffffffffffffffffffffff021916908373ffffffffffffffffffffffffffffffffffffffff16021790555081600660006101000a81548160ff021916908360ff1602179055508060078190555050505062000330565b600033905090565b620001268160006200016c60201b620042b41790919060201c565b8073ffffffffffffffffffffffffffffffffffffffff167f6719d08c1888103bea251a4ed56406bd0c3e69723c8a1686e017e7bbe159b6f860405160405180910390a250565b6200017e82826200025060201b60201c565b15620001f2576040517f08c379a000000000000000000000000000000000000000000000000000000000815260040180806020018281038252601f8152602001807f526f6c65733a206163636f756e7420616c72656164792068617320726f6c650081525060200191505060405180910390fd5b60018260000160008373ffffffffffffffffffffffffffffffffffffffff1673ffffffffffffffffffffffffffffffffffffffff16815260200190815260200160002060006101000a81548160ff0219169083151502179055505050565b60008073ffffffffffffffffffffffffffffffffffffffff168273ffffffffffffffffffffffffffffffffffffffff161415620002d9576040517f08c379a0000000000000000000000000000000000000000000000000000000008152600401808060200182810382526022815260200180620049da6022913960400191505060405180910390fd5b8260000160008373ffffffffffffffffffffffffffffffffffffffff1673ffffffffffffffffffffffffffffffffffffffff16815260200190815260200160002060009054906101000a900460ff16905092915050565b61469a80620003406000396000f3fe608060405234801561001057600080fd5b50600436106101c45760003560e01c806387cf6423116100f9578063c3dd910311610097578063db006a7511610071578063db006a7514610b06578063dfcf13c914610b4c578063e5fb86c214610c31578063f0141d8414610d16576101c4565b8063c3dd910314610920578063c5dee09b14610a05578063cb09e94c14610a23576101c4565b8063a79a8b2d116100d3578063a79a8b2d1461070a578063a8736be614610738578063ad641da61461081d578063c177c6ce1461083b576101c4565b806387cf642314610487578063890fc54a146105d9578063a4b1484b146106bc576101c4565b8063613c33be116101665780636ef8d66d116101405780636ef8d66d146103d75780637b850cc6146103e157806382dc1ec4146104395780638456cb591461047d576101c4565b8063613c33be1461030957806365572c8a1461032757806369742aa81461037f576101c4565b80633f4ba83a116101a25780633f4ba83a1461022957806346fbf68e14610233578063575e5c021461028f5780635c975abb146102e7576101c4565b806313d95b54146101c95780631879fb9d146101e7578063313ce56714610205575b600080fd5b6101d1610d3a565b6040518082815260200191505060405180910390f35b6101ef610d40565b6040518082815260200191505060405180910390f35b61020d610d46565b604051808260ff1660ff16815260200191505060405180910390f35b610231610d59565b005b6102756004803603602081101561024957600080fd5b81019080803573ffffffffffffffffffffffffffffffffffffffff169060200190929190505050610ec7565b604051808215151515815260200191505060405180910390f35b6102d1600480360360208110156102a557600080fd5b81019080803573ffffffffffffffffffffffffffffffffffffffff169060200190929190505050610ee4565b6040518082815260200191505060405180910390f35b6102ef610efc565b604051808215151515815260200191505060405180910390f35b610311610f13565b6040518082815260200191505060405180910390f35b6103696004803603602081101561033d57600080fd5b81019080803573ffffffffffffffffffffffffffffffffffffffff169060200190929190505050610f1d565b6040518082815260200191505060405180910390f35b6103c16004803603602081101561039557600080fd5b81019080803573ffffffffffffffffffffffffffffffffffffffff169060200190929190505050610f66565b6040518082815260200191505060405180910390f35b6103df610f7e565b005b610423600480360360208110156103f757600080fd5b81019080803573ffffffffffffffffffffffffffffffffffffffff169060200190929190505050610f90565b6040518082815260200191505060405180910390f35b61047b6004803603602081101561044f57600080fd5b81019080803573ffffffffffffffffffffffffffffffffffffffff169060200190929190505050610fd9565b005b61048561104a565b005b6105d76004803603604081101561049d57600080fd5b81019080803590602001906401000000008111156104ba57600080fd5b8201836020820111156104cc57600080fd5b803590602001918460018302840111640100000000831117156104ee57600080fd5b91908080601f016020809104026020016040519081016040528093929190818152602001838380828437600081840152601f19601f8201169050808301925050505050505091929192908035906020019064010000000081111561055157600080fd5b82018360208201111561056357600080fd5b8035906020019184600183028401116401000000008311171561058557600080fd5b91908080601f016020809104026020016040519081016040528093929190818152602001838380828437600081840152601f19601f8201169050808301925050505050505091929192905050506111b8565b005b6106ba600480360360608110156105ef57600080fd5b81019080803567ffffffffffffffff169060200190929190803567ffffffffffffffff1690602001909291908035906020019064010000000081111561063457600080fd5b82018360208201111561064657600080fd5b8035906020019184600183028401116401000000008311171561066857600080fd5b91908080601f016020809104026020016040519081016040528093929190818152602001838380828437600081840152601f19601f8201169050808301925050505050505091929192905050506115fc565b005b610708600480360360408110156106d257600080fd5b81019080803573ffffffffffffffffffffffffffffffffffffffff169060200190929190803590602001909291905050506119f1565b005b6107366004803603602081101561072057600080fd5b8101908080359060200190929190505050611e35565b005b61081b6004803603606081101561074e57600080fd5b81019080803573ffffffffffffffffffffffffffffffffffffffff169060200190929190803590602001909291908035906020019064010000000081111561079557600080fd5b8201836020820111156107a757600080fd5b803590602001918460018302840111640100000000831117156107c957600080fd5b91908080601f016020809104026020016040519081016040528093929190818152602001838380828437600081840152601f19601f820116905080830192505050505050509192919290505050612186565b005b610825612409565b6040518082815260200191505060405180910390f35b61091e6004803603606081101561085157600080fd5b81019080803573ffffffffffffffffffffffffffffffffffffffff169060200190929190803590602001909291908035906020019064010000000081111561089857600080fd5b8201836020820111156108aa57600080fd5b803590602001918460018302840111640100000000831117156108cc57600080fd5b91908080601f016020809104026020016040519081016040528093929190818152602001838380828437600081840152601f19601f82011690508083019250505050505050919291929050505061240f565b005b610a036004803603606081101561093657600080fd5b81019080803573ffffffffffffffffffffffffffffffffffffffff169060200190929190803590602001909291908035906020019064010000000081111561097d57600080fd5b82018360208201111561098f57600080fd5b803590602001918460018302840111640100000000831117156109b157600080fd5b91908080601f016020809104026020016040519081016040528093929190818152602001838380828437600081840152601f19601f8201169050808301925050505050505091929192905050506126ac565b005b610a0d612ca1565b6040518082815260200191505060405180910390f35b610b0460048036036060811015610a3957600080fd5b81019080803567ffffffffffffffff169060200190929190803567ffffffffffffffff16906020019092919080359060200190640100000000811115610a7e57600080fd5b820183602082011115610a9057600080fd5b80359060200191846001830284011164010000000083111715610ab257600080fd5b91908080601f016020809104026020016040519081016040528093929190818152602001838380828437600081840152601f19601f820116905080830192505050505050509192919290505050612cab565b005b610b3260048036036020811015610b1c57600080fd5b8101908080359060200190929190505050612e91565b604051808215151515815260200191505060405180910390f35b610c2f60048036036060811015610b6257600080fd5b81019080803573ffffffffffffffffffffffffffffffffffffffff1690602001909291908035906020019092919080359060200190640100000000811115610ba957600080fd5b820183602082011115610bbb57600080fd5b80359060200191846001830284011164010000000083111715610bdd57600080fd5b91908080601f016020809104026020016040519081016040528093929190818152602001838380828437600081840152601f19601f8201169050808301925050505050505091929192905050506132dc565b005b610d1460048036036060811015610c4757600080fd5b81019080803573ffffffffffffffffffffffffffffffffffffffff1690602001909291908035906020019092919080359060200190640100000000811115610c8e57600080fd5b820183602082011115610ca057600080fd5b80359060200191846001830284011164010000000083111715610cc257600080fd5b91908080601f016020809104026020016040519081016040528093929190818152602001838380828437600081840152601f19601f820116905080830192505050505050509192919290505050613579565b005b610d1e6137fc565b604051808260ff1660ff16815260200191505060405180910390f35b60045481565b60055481565b600660009054906101000a900460ff1681565b610d69610d64613813565b610ec7565b610dbe576040517f08c379a00000000000000000000000000000000000000000000000000000000081526004018080602001828103825260308152602001806144c76030913960400191505060405180910390fd5b600160009054906101000a900460ff16610e40576040517f08c379a00000000000000000000000000000000000000000000000000000000081526004018080602001828103825260148152602001807f5061757361626c653a206e6f742070617573656400000000000000000000000081525060200191505060405180910390fd5b6000600160006101000a81548160ff0219169083151502179055507f5db9ee0a495bf2e6ff9c91a7834c1ba4fdd244a5e8aa4e537bd38aeae4b073aa610e84613813565b604051808273ffffffffffffffffffffffffffffffffffffffff1673ffffffffffffffffffffffffffffffffffffffff16815260200191505060405180910390a1565b6000610edd82600061381b90919063ffffffff16565b9050919050565b60026020528060005260406000206000915090505481565b6000600160009054906101000a900460ff16905090565b6000600454905090565b6000600360008373ffffffffffffffffffffffffffffffffffffffff1673ffffffffffffffffffffffffffffffffffffffff168152602001908152602001600020549050919050565b60036020528060005260406000206000915090505481565b610f8e610f89613813565b6138f9565b565b6000600260008373ffffffffffffffffffffffffffffffffffffffff1673ffffffffffffffffffffffffffffffffffffffff168152602001908152602001600020549050919050565b610fe9610fe4613813565b610ec7565b61103e576040517f08c379a00000000000000000000000000000000000000000000000000000000081526004018080602001828103825260308152602001806144c76030913960400191505060405180910390fd5b61104781613953565b50565b61105a611055613813565b610ec7565b6110af576040517f08c379a00000000000000000000000000000000000000000000000000000000081526004018080602001828103825260308152602001806144c76030913960400191505060405180910390fd5b600160009054906101000a900460ff1615611132576040517f08c379a00000000000000000000000000000000000000000000000000000000081526004018080602001828103825260108152602001807f5061757361626c653a207061757365640000000000000000000000000000000081525060200191505060405180910390fd5b60018060006101000a81548160ff0219169083151502179055507f62e78cea01bee320cd4e420270b5ea74000d11b0c9f74754ebdbfc544b05a258611175613813565b604051808273ffffffffffffffffffffffffffffffffffffffff1673ffffffffffffffffffffffffffffffffffffffff16815260200191505060405180910390a1565b600160009054906101000a900460ff161561123b576040517f08c379a00000000000000000000000000000000000000000000000000000000081526004018080602001828103825260108152602001807f5061757361626c653a207061757365640000000000000000000000000000000081525060200191505060405180910390fd5b600860009054906101000a900473ffffffffffffffffffffffffffffffffffffffff1673ffffffffffffffffffffffffffffffffffffffff166385fecf9b336040518263ffffffff1660e01b8152600401808273ffffffffffffffffffffffffffffffffffffffff1673ffffffffffffffffffffffffffffffffffffffff16815260200191505060206040518083038186803b1580156112da57600080fd5b505afa1580156112ee573d6000803e3d6000fd5b505050506040513d602081101561130457600080fd5b810190808051906020019092919050505061136a576040517f08c379a000000000000000000000000000000000000000000000000000000000815260040180806020018281038252605481526020018061451c6054913960600191505060405180910390fd5b600860009054906101000a900473ffffffffffffffffffffffffffffffffffffffff1673ffffffffffffffffffffffffffffffffffffffff16636edcb12f826040518263ffffffff1660e01b81526004018080602001828103825283818151815260200191508051906020019080838360005b838110156113f85780820151818401526020810190506113dd565b50505050905090810190601f1680156114255780820380516001836020036101000a031916815260200191505b509250505060206040518083038186803b15801561144257600080fd5b505afa158015611456573d6000803e3d6000fd5b505050506040513d602081101561146c57600080fd5b81019080805190602001909291905050506114ef576040517f08c379a000000000000000000000000000000000000000000000000000000000815260040180806020018281038252601d8152602001807f4f206861736820646f2072656369626f20c3a920696e76c3a16c69646f00000081525060200191505060405180910390fd5b7fc5c85710ca450311aa550ba9b7404810c70a332cda36f77ae18faa406acb12388282604051808060200180602001838103835285818151815260200191508051906020019080838360005b8381101561155657808201518184015260208101905061153b565b50505050905090810190601f1680156115835780820380516001836020036101000a031916815260200191505b50838103825284818151815260200191508051906020019080838360005b838110156115bc5780820151818401526020810190506115a1565b50505050905090810190601f1680156115e95780820380516001836020036101000a031916815260200191505b5094505050505060405180910390a15050565b600160009054906101000a900460ff161561167f576040517f08c379a00000000000000000000000000000000000000000000000000000000081526004018080602001828103825260108152602001807f5061757361626c653a207061757365640000000000000000000000000000000081525060200191505060405180910390fd5b6000600860009054906101000a900473ffffffffffffffffffffffffffffffffffffffff1673ffffffffffffffffffffffffffffffffffffffff16633933384985856040518363ffffffff1660e01b8152600401808367ffffffffffffffff1667ffffffffffffffff1681526020018267ffffffffffffffff1667ffffffffffffffff1681526020019250505060206040518083038186803b15801561172457600080fd5b505afa158015611738573d6000803e3d6000fd5b505050506040513d602081101561174e57600080fd5b810190808051906020019092919050505090506000339050600860009054906101000a900473ffffffffffffffffffffffffffffffffffffffff1673ffffffffffffffffffffffffffffffffffffffff16633d6e154e868633876040518563ffffffff1660e01b8152600401808567ffffffffffffffff1667ffffffffffffffff1681526020018467ffffffffffffffff1667ffffffffffffffff1681526020018373ffffffffffffffffffffffffffffffffffffffff1673ffffffffffffffffffffffffffffffffffffffff16815260200180602001828103825283818151815260200191508051906020019080838360005b8381101561185d578082015181840152602081019050611842565b50505050905090810190601f16801561188a5780820380516001836020036101000a031916815260200191505b5095505050505050600060405180830381600087803b1580156118ac57600080fd5b505af11580156118c0573d6000803e3d6000fd5b505050506000600260008473ffffffffffffffffffffffffffffffffffffffff1673ffffffffffffffffffffffffffffffffffffffff168152602001908152602001600020541115611957576119568282600260008673ffffffffffffffffffffffffffffffffffffffff1673ffffffffffffffffffffffffffffffffffffffff168152602001908152602001600020546139ad565b5b6000600360008473ffffffffffffffffffffffffffffffffffffffff1673ffffffffffffffffffffffffffffffffffffffff1681526020019081526020016000205411156119ea576119e98282600360008673ffffffffffffffffffffffffffffffffffffffff1673ffffffffffffffffffffffffffffffffffffffff16815260200190815260200160002054613ca1565b5b5050505050565b600160009054906101000a900460ff1615611a74576040517f08c379a00000000000000000000000000000000000000000000000000000000081526004018080602001828103825260108152602001807f5061757361626c653a207061757365640000000000000000000000000000000081525060200191505060405180910390fd5b600860009054906101000a900473ffffffffffffffffffffffffffffffffffffffff1673ffffffffffffffffffffffffffffffffffffffff16634add3110336040518263ffffffff1660e01b8152600401808273ffffffffffffffffffffffffffffffffffffffff1673ffffffffffffffffffffffffffffffffffffffff16815260200191505060206040518083038186803b158015611b1357600080fd5b505afa158015611b27573d6000803e3d6000fd5b505050506040513d6020811015611b3d57600080fd5b8101908080519060200190929190505050611b5757600080fd5b611c04600860009054906101000a900473ffffffffffffffffffffffffffffffffffffffff1673ffffffffffffffffffffffffffffffffffffffff166357cdcb3e6040518163ffffffff1660e01b815260040160206040518083038186803b158015611bc257600080fd5b505afa158015611bd6573d6000803e3d6000fd5b505050506040513d6020811015611bec57600080fd5b81019080805190602001909291905050508383613ca1565b6000600860009054906101000a900473ffffffffffffffffffffffffffffffffffffffff1673ffffffffffffffffffffffffffffffffffffffff1663be49b78d846040518263ffffffff1660e01b8152600401808273ffffffffffffffffffffffffffffffffffffffff1673ffffffffffffffffffffffffffffffffffffffff16815260200191505060206040518083038186803b158015611ca557600080fd5b505afa158015611cb9573d6000803e3d6000fd5b505050506040513d6020811015611ccf57600080fd5b810190808051906020019092919050505090506000600860009054906101000a900473ffffffffffffffffffffffffffffffffffffffff1673ffffffffffffffffffffffffffffffffffffffff1663876c6e9b856040518263ffffffff1660e01b8152600401808273ffffffffffffffffffffffffffffffffffffffff1673ffffffffffffffffffffffffffffffffffffffff16815260200191505060206040518083038186803b158015611d8357600080fd5b505afa158015611d97573d6000803e3d6000fd5b505050506040513d6020811015611dad57600080fd5b810190808051906020019092919050505090507f20c2bda137f2ae008499959b7a73e3642d9aeb79b381813dae258a0303a4df93828483604051808467ffffffffffffffff1667ffffffffffffffff1681526020018381526020018267ffffffffffffffff1667ffffffffffffffff168152602001935050505060405180910390a150505050565b600160009054906101000a900460ff1615611eb8576040517f08c379a00000000000000000000000000000000000000000000000000000000081526004018080602001828103825260108152602001807f5061757361626c653a207061757365640000000000000000000000000000000081525060200191505060405180910390fd5b600860009054906101000a900473ffffffffffffffffffffffffffffffffffffffff1673ffffffffffffffffffffffffffffffffffffffff1663f50cd96b336040518263ffffffff1660e01b8152600401808273ffffffffffffffffffffffffffffffffffffffff1673ffffffffffffffffffffffffffffffffffffffff16815260200191505060206040518083038186803b158015611f5757600080fd5b505afa158015611f6b573d6000803e3d6000fd5b505050506040513d6020811015611f8157600080fd5b8101908080519060200190929190505050611f9b57600080fd5b6000339050611fb582600454613f9590919063ffffffff16565b60048190555061200d82600260008473ffffffffffffffffffffffffffffffffffffffff1673ffffffffffffffffffffffffffffffffffffffff16815260200190815260200160002054613f9590919063ffffffff16565b600260008373ffffffffffffffffffffffffffffffffffffffff1673ffffffffffffffffffffffffffffffffffffffff168152602001908152602001600020819055506000600860009054906101000a900473ffffffffffffffffffffffffffffffffffffffff1673ffffffffffffffffffffffffffffffffffffffff1663be49b78d836040518263ffffffff1660e01b8152600401808273ffffffffffffffffffffffffffffffffffffffff1673ffffffffffffffffffffffffffffffffffffffff16815260200191505060206040518083038186803b1580156120f157600080fd5b505afa158015612105573d6000803e3d6000fd5b505050506040513d602081101561211b57600080fd5b810190808051906020019092919050505090507fe2ca6588fe810f0a29b60c9ce89e496936de73496911954f13d5b43dfbb3f0788184604051808367ffffffffffffffff1667ffffffffffffffff1681526020018281526020019250505060405180910390a1505050565b600860009054906101000a900473ffffffffffffffffffffffffffffffffffffffff1673ffffffffffffffffffffffffffffffffffffffff16638f32d59b6040518163ffffffff1660e01b815260040160206040518083038186803b1580156121ee57600080fd5b505afa158015612202573d6000803e3d6000fd5b505050506040513d602081101561221857600080fd5b810190808051906020019092919050505061223257600080fd5b600073ffffffffffffffffffffffffffffffffffffffff168373ffffffffffffffffffffffffffffffffffffffff1614156122b8576040517f08c379a000000000000000000000000000000000000000000000000000000000815260040180806020018281038252602181526020018061461f6021913960400191505060405180910390fd5b61230a82600360008673ffffffffffffffffffffffffffffffffffffffff1673ffffffffffffffffffffffffffffffffffffffff16815260200190815260200160002054613f9590919063ffffffff16565b600360008573ffffffffffffffffffffffffffffffffffffffff1673ffffffffffffffffffffffffffffffffffffffff1681526020019081526020016000208190555061236282600554613f9590919063ffffffff16565b6005819055507f76748fe503062c7944abe7ec0349339e7d476339a49acca09ccf212e44c1f42b816040518080602001828103825283818151815260200191508051906020019080838360005b838110156123ca5780820151818401526020810190506123af565b50505050905090810190601f1680156123f75780820380516001836020036101000a031916815260200191505b509250505060405180910390a1505050565b60075481565b600860009054906101000a900473ffffffffffffffffffffffffffffffffffffffff1673ffffffffffffffffffffffffffffffffffffffff16638f32d59b6040518163ffffffff1660e01b815260040160206040518083038186803b15801561247757600080fd5b505afa15801561248b573d6000803e3d6000fd5b505050506040513d60208110156124a157600080fd5b81019080805190602001909291905050506124bb57600080fd5b600073ffffffffffffffffffffffffffffffffffffffff168373ffffffffffffffffffffffffffffffffffffffff161415612541576040517f08c379a000000000000000000000000000000000000000000000000000000000815260040180806020018281038252602181526020018061461f6021913960400191505060405180910390fd5b6125ad826040518060600160405280602281526020016144a560229139600360008773ffffffffffffffffffffffffffffffffffffffff1673ffffffffffffffffffffffffffffffffffffffff1681526020019081526020016000205461401d9092919063ffffffff16565b600360008573ffffffffffffffffffffffffffffffffffffffff1673ffffffffffffffffffffffffffffffffffffffff16815260200190815260200160002081905550612605826005546140dd90919063ffffffff16565b6005819055507f76748fe503062c7944abe7ec0349339e7d476339a49acca09ccf212e44c1f42b816040518080602001828103825283818151815260200191508051906020019080838360005b8381101561266d578082015181840152602081019050612652565b50505050905090810190601f16801561269a5780820380516001836020036101000a031916815260200191505b509250505060405180910390a1505050565b600160009054906101000a900460ff161561272f576040517f08c379a00000000000000000000000000000000000000000000000000000000081526004018080602001828103825260108152602001807f5061757361626c653a207061757365640000000000000000000000000000000081525060200191505060405180910390fd5b600860009054906101000a900473ffffffffffffffffffffffffffffffffffffffff1673ffffffffffffffffffffffffffffffffffffffff16635b072a50336040518263ffffffff1660e01b8152600401808273ffffffffffffffffffffffffffffffffffffffff1673ffffffffffffffffffffffffffffffffffffffff16815260200191505060206040518083038186803b1580156127ce57600080fd5b505afa1580156127e2573d6000803e3d6000fd5b505050506040513d60208110156127f857600080fd5b810190808051906020019092919050505061281257600080fd5b600061284e61283f60646128316007548761412790919063ffffffff16565b6141ad90919063ffffffff16565b846140dd90919063ffffffff16565b9050612865836004546140dd90919063ffffffff16565b60048190555061288081600554613f9590919063ffffffff16565b6005819055506128d883600260008773ffffffffffffffffffffffffffffffffffffffff1673ffffffffffffffffffffffffffffffffffffffff168152602001908152602001600020546140dd90919063ffffffff16565b600260008673ffffffffffffffffffffffffffffffffffffffff1673ffffffffffffffffffffffffffffffffffffffff16815260200190815260200160002081905550612a0f8160036000600860009054906101000a900473ffffffffffffffffffffffffffffffffffffffff1673ffffffffffffffffffffffffffffffffffffffff166357cdcb3e6040518163ffffffff1660e01b815260040160206040518083038186803b15801561298b57600080fd5b505afa15801561299f573d6000803e3d6000fd5b505050506040513d60208110156129b557600080fd5b810190808051906020019092919050505073ffffffffffffffffffffffffffffffffffffffff1673ffffffffffffffffffffffffffffffffffffffff16815260200190815260200160002054613f9590919063ffffffff16565b60036000600860009054906101000a900473ffffffffffffffffffffffffffffffffffffffff1673ffffffffffffffffffffffffffffffffffffffff166357cdcb3e6040518163ffffffff1660e01b815260040160206040518083038186803b158015612a7b57600080fd5b505afa158015612a8f573d6000803e3d6000fd5b505050506040513d6020811015612aa557600080fd5b810190808051906020019092919050505073ffffffffffffffffffffffffffffffffffffffff1673ffffffffffffffffffffffffffffffffffffffff168152602001908152602001600020819055506000600860009054906101000a900473ffffffffffffffffffffffffffffffffffffffff1673ffffffffffffffffffffffffffffffffffffffff1663be49b78d866040518263ffffffff1660e01b8152600401808273ffffffffffffffffffffffffffffffffffffffff1673ffffffffffffffffffffffffffffffffffffffff16815260200191505060206040518083038186803b158015612b9557600080fd5b505afa158015612ba9573d6000803e3d6000fd5b505050506040513d6020811015612bbf57600080fd5b810190808051906020019092919050505090507fcb03d9227a979eafaf266c92988c709a8e181d9f18d48ae1051d822cafe2e4a981858486604051808567ffffffffffffffff1667ffffffffffffffff16815260200184815260200183815260200180602001828103825283818151815260200191508051906020019080838360005b83811015612c5d578082015181840152602081019050612c42565b50505050905090810190601f168015612c8a5780820380516001836020036101000a031916815260200191505b509550505050505060405180910390a15050505050565b6000600554905090565b600160009054906101000a900460ff1615612d2e576040517f08c379a00000000000000000000000000000000000000000000000000000000081526004018080602001828103825260108152602001807f5061757361626c653a207061757365640000000000000000000000000000000081525060200191505060405180910390fd5b600860009054906101000a900473ffffffffffffffffffffffffffffffffffffffff1673ffffffffffffffffffffffffffffffffffffffff166356eb8510848433856040518563ffffffff1660e01b8152600401808567ffffffffffffffff1667ffffffffffffffff1681526020018467ffffffffffffffff1667ffffffffffffffff1681526020018373ffffffffffffffffffffffffffffffffffffffff1673ffffffffffffffffffffffffffffffffffffffff16815260200180602001828103825283818151815260200191508051906020019080838360005b83811015612e25578082015181840152602081019050612e0a565b50505050905090810190601f168015612e525780820380516001836020036101000a031916815260200191505b5095505050505050600060405180830381600087803b158015612e7457600080fd5b505af1158015612e88573d6000803e3d6000fd5b50505050505050565b6000600160009054906101000a900460ff1615612f16576040517f08c379a00000000000000000000000000000000000000000000000000000000081526004018080602001828103825260108152602001807f5061757361626c653a207061757365640000000000000000000000000000000081525060200191505060405180910390fd5b6000339050600073ffffffffffffffffffffffffffffffffffffffff168173ffffffffffffffffffffffffffffffffffffffff161415612fbe576040517f08c379a000000000000000000000000000000000000000000000000000000000815260040180806020018281038252601a8152602001807f6275726e2066726f6d20746865207a65726f206164647265737300000000000081525060200191505060405180910390fd5b613047836040518060400160405280601b81526020017f6275726e20616d6f756e7420657863656564732062616c616e63650000000000815250600360008573ffffffffffffffffffffffffffffffffffffffff1673ffffffffffffffffffffffffffffffffffffffff1681526020019081526020016000205461401d9092919063ffffffff16565b600360008373ffffffffffffffffffffffffffffffffffffffff1673ffffffffffffffffffffffffffffffffffffffff1681526020019081526020016000208190555061309f836005546140dd90919063ffffffff16565b6005819055506000600860009054906101000a900473ffffffffffffffffffffffffffffffffffffffff1673ffffffffffffffffffffffffffffffffffffffff1663876c6e9b836040518263ffffffff1660e01b8152600401808273ffffffffffffffffffffffffffffffffffffffff1673ffffffffffffffffffffffffffffffffffffffff16815260200191505060206040518083038186803b15801561314657600080fd5b505afa15801561315a573d6000803e3d6000fd5b505050506040513d602081101561317057600080fd5b810190808051906020019092919050505090506000600860009054906101000a900473ffffffffffffffffffffffffffffffffffffffff1673ffffffffffffffffffffffffffffffffffffffff1663be49b78d846040518263ffffffff1660e01b8152600401808273ffffffffffffffffffffffffffffffffffffffff1673ffffffffffffffffffffffffffffffffffffffff16815260200191505060206040518083038186803b15801561322457600080fd5b505afa158015613238573d6000803e3d6000fd5b505050506040513d602081101561324e57600080fd5b810190808051906020019092919050505090507f47cec4837b2a0b7e6ef1b6811796fe0f3d71b938b87d1acb1c4033d5e7c375f2818684604051808467ffffffffffffffff1667ffffffffffffffff1681526020018381526020018267ffffffffffffffff1667ffffffffffffffff168152602001935050505060405180910390a160019350505050919050565b600860009054906101000a900473ffffffffffffffffffffffffffffffffffffffff1673ffffffffffffffffffffffffffffffffffffffff16638f32d59b6040518163ffffffff1660e01b815260040160206040518083038186803b15801561334457600080fd5b505afa158015613358573d6000803e3d6000fd5b505050506040513d602081101561336e57600080fd5b810190808051906020019092919050505061338857600080fd5b600073ffffffffffffffffffffffffffffffffffffffff168373ffffffffffffffffffffffffffffffffffffffff16141561340e576040517f08c379a000000000000000000000000000000000000000000000000000000000815260040180806020018281038252602181526020018061461f6021913960400191505060405180910390fd5b61347a826040518060600160405280602281526020016144a560229139600260008773ffffffffffffffffffffffffffffffffffffffff1673ffffffffffffffffffffffffffffffffffffffff1681526020019081526020016000205461401d9092919063ffffffff16565b600260008573ffffffffffffffffffffffffffffffffffffffff1673ffffffffffffffffffffffffffffffffffffffff168152602001908152602001600020819055506134d2826004546140dd90919063ffffffff16565b6004819055507f76748fe503062c7944abe7ec0349339e7d476339a49acca09ccf212e44c1f42b816040518080602001828103825283818151815260200191508051906020019080838360005b8381101561353a57808201518184015260208101905061351f565b50505050905090810190601f1680156135675780820380516001836020036101000a031916815260200191505b509250505060405180910390a1505050565b600860009054906101000a900473ffffffffffffffffffffffffffffffffffffffff1673ffffffffffffffffffffffffffffffffffffffff16638f32d59b6040518163ffffffff1660e01b815260040160206040518083038186803b1580156135e157600080fd5b505afa1580156135f5573d6000803e3d6000fd5b505050506040513d602081101561360b57600080fd5b810190808051906020019092919050505061362557600080fd5b600073ffffffffffffffffffffffffffffffffffffffff168373ffffffffffffffffffffffffffffffffffffffff1614156136ab576040517f08c379a000000000000000000000000000000000000000000000000000000000815260040180806020018281038252602181526020018061461f6021913960400191505060405180910390fd5b6136fd82600260008673ffffffffffffffffffffffffffffffffffffffff1673ffffffffffffffffffffffffffffffffffffffff16815260200190815260200160002054613f9590919063ffffffff16565b600260008573ffffffffffffffffffffffffffffffffffffffff1673ffffffffffffffffffffffffffffffffffffffff1681526020019081526020016000208190555061375582600454613f9590919063ffffffff16565b6004819055507f76748fe503062c7944abe7ec0349339e7d476339a49acca09ccf212e44c1f42b816040518080602001828103825283818151815260200191508051906020019080838360005b838110156137bd5780820151818401526020810190506137a2565b50505050905090810190601f1680156137ea5780820380516001836020036101000a031916815260200191505b509250505060405180910390a1505050565b6000600660009054906101000a900460ff16905090565b600033905090565b60008073ffffffffffffffffffffffffffffffffffffffff168273ffffffffffffffffffffffffffffffffffffffff1614156138a2576040517f08c379a00000000000000000000000000000000000000000000000000000000081526004018080602001828103825260228152602001806145b26022913960400191505060405180910390fd5b8260000160008373ffffffffffffffffffffffffffffffffffffffff1673ffffffffffffffffffffffffffffffffffffffff16815260200190815260200160002060009054906101000a900460ff16905092915050565b61390d8160006141f790919063ffffffff16565b8073ffffffffffffffffffffffffffffffffffffffff167fcd265ebaf09df2871cc7bd4133404a235ba12eff2041bb89d9c714a2621c7c7e60405160405180910390a250565b6139678160006142b490919063ffffffff16565b8073ffffffffffffffffffffffffffffffffffffffff167f6719d08c1888103bea251a4ed56406bd0c3e69723c8a1686e017e7bbe159b6f860405160405180910390a250565b600073ffffffffffffffffffffffffffffffffffffffff168373ffffffffffffffffffffffffffffffffffffffff161415613a33576040517f08c379a00000000000000000000000000000000000000000000000000000000081526004018080602001828103825260258152602001806144f76025913960400191505060405180910390fd5b600073ffffffffffffffffffffffffffffffffffffffff168273ffffffffffffffffffffffffffffffffffffffff161415613ab9576040517f08c379a00000000000000000000000000000000000000000000000000000000081526004018080602001828103825260238152602001806145d46023913960400191505060405180910390fd5b613b258160405180606001604052806026815260200161447f60269139600260008773ffffffffffffffffffffffffffffffffffffffff1673ffffffffffffffffffffffffffffffffffffffff1681526020019081526020016000205461401d9092919063ffffffff16565b600260008573ffffffffffffffffffffffffffffffffffffffff1673ffffffffffffffffffffffffffffffffffffffff16815260200190815260200160002081905550613bba81600260008573ffffffffffffffffffffffffffffffffffffffff1673ffffffffffffffffffffffffffffffffffffffff16815260200190815260200160002054613f9590919063ffffffff16565b600260008473ffffffffffffffffffffffffffffffffffffffff1673ffffffffffffffffffffffffffffffffffffffff168152602001908152602001600020819055507f029c81a8baa3c4482455ae03f559287a88485fe4bff619b039fdad8b24dd7e82838383604051808473ffffffffffffffffffffffffffffffffffffffff1673ffffffffffffffffffffffffffffffffffffffff1681526020018373ffffffffffffffffffffffffffffffffffffffff1673ffffffffffffffffffffffffffffffffffffffff168152602001828152602001935050505060405180910390a1505050565b600073ffffffffffffffffffffffffffffffffffffffff168373ffffffffffffffffffffffffffffffffffffffff161415613d27576040517f08c379a00000000000000000000000000000000000000000000000000000000081526004018080602001828103825260288152602001806145f76028913960400191505060405180910390fd5b600073ffffffffffffffffffffffffffffffffffffffff168273ffffffffffffffffffffffffffffffffffffffff161415613dad576040517f08c379a00000000000000000000000000000000000000000000000000000000081526004018080602001828103825260268152602001806146406026913960400191505060405180910390fd5b613e198160405180606001604052806029815260200161445660299139600360008773ffffffffffffffffffffffffffffffffffffffff1673ffffffffffffffffffffffffffffffffffffffff1681526020019081526020016000205461401d9092919063ffffffff16565b600360008573ffffffffffffffffffffffffffffffffffffffff1673ffffffffffffffffffffffffffffffffffffffff16815260200190815260200160002081905550613eae81600360008573ffffffffffffffffffffffffffffffffffffffff1673ffffffffffffffffffffffffffffffffffffffff16815260200190815260200160002054613f9590919063ffffffff16565b600360008473ffffffffffffffffffffffffffffffffffffffff1673ffffffffffffffffffffffffffffffffffffffff168152602001908152602001600020819055507fc904f1a10cf8f6490ca61b4c3e8cf14f12b32d990a9c635e40976ce4d6799d8e838383604051808473ffffffffffffffffffffffffffffffffffffffff1673ffffffffffffffffffffffffffffffffffffffff1681526020018373ffffffffffffffffffffffffffffffffffffffff1673ffffffffffffffffffffffffffffffffffffffff168152602001828152602001935050505060405180910390a1505050565b600080828401905083811015614013576040517f08c379a000000000000000000000000000000000000000000000000000000000815260040180806020018281038252601b8152602001807f536166654d6174683a206164646974696f6e206f766572666c6f77000000000081525060200191505060405180910390fd5b8091505092915050565b60008383111582906140ca576040517f08c379a00000000000000000000000000000000000000000000000000000000081526004018080602001828103825283818151815260200191508051906020019080838360005b8381101561408f578082015181840152602081019050614074565b50505050905090810190601f1680156140bc5780820380516001836020036101000a031916815260200191505b509250505060405180910390fd5b5060008385039050809150509392505050565b600061411f83836040518060400160405280601e81526020017f536166654d6174683a207375627472616374696f6e206f766572666c6f77000081525061401d565b905092915050565b60008083141561413a57600090506141a7565b600082840290508284828161414b57fe5b04146141a2576040517f08c379a00000000000000000000000000000000000000000000000000000000081526004018080602001828103825260218152602001806145916021913960400191505060405180910390fd5b809150505b92915050565b60006141ef83836040518060400160405280601a81526020017f536166654d6174683a206469766973696f6e206279207a65726f00000000000081525061438f565b905092915050565b614201828261381b565b614256576040517f08c379a00000000000000000000000000000000000000000000000000000000081526004018080602001828103825260218152602001806145706021913960400191505060405180910390fd5b60008260000160008373ffffffffffffffffffffffffffffffffffffffff1673ffffffffffffffffffffffffffffffffffffffff16815260200190815260200160002060006101000a81548160ff0219169083151502179055505050565b6142be828261381b565b15614331576040517f08c379a000000000000000000000000000000000000000000000000000000000815260040180806020018281038252601f8152602001807f526f6c65733a206163636f756e7420616c72656164792068617320726f6c650081525060200191505060405180910390fd5b60018260000160008373ffffffffffffffffffffffffffffffffffffffff1673ffffffffffffffffffffffffffffffffffffffff16815260200190815260200160002060006101000a81548160ff0219169083151502179055505050565b6000808311829061443b576040517f08c379a00000000000000000000000000000000000000000000000000000000081526004018080602001828103825283818151815260200191508051906020019080838360005b838110156144005780820151818401526020810190506143e5565b50505050905090810190601f16801561442d5780820380516001836020036101000a031916815260200191505b509250505060405180910390fd5b50600083858161444757fe5b04905080915050939250505056fe636f6e6669726d6564207472616e7366657220616d6f756e7420657863656564732062616c616e6365626f6f6b6564207472616e7366657220616d6f756e7420657863656564732062616c616e636545524332303a206275726e20616d6f756e7420657863656564732062616c616e6365506175736572526f6c653a2063616c6c657220646f6573206e6f742068617665207468652050617573657220726f6c65626f6f6b6564207472616e736665722066726f6d20746865207a65726f206164647265737341206c697175696461c3a7c3a36f2073c3b3206ec3a36f20706f646520736572207265616c697a6164612070656c6f20656e64657265c3a76f20717565207375626d657465752061207472616e7361c3a7c3a36f526f6c65733a206163636f756e7420646f6573206e6f74206861766520726f6c65536166654d6174683a206d756c7469706c69636174696f6e206f766572666c6f77526f6c65733a206163636f756e7420697320746865207a65726f2061646472657373626f6f6b6564207472616e7366657220746f20746865207a65726f2061646472657373636f6e6669726d6564207472616e736665722066726f6d20746865207a65726f206164647265737345524332303a206275726e2066726f6d20746865207a65726f2061646472657373636f6e6669726d6564207472616e7366657220746f20746865207a65726f2061646472657373a265627a7a72315820e85a596c6bcc4780d3ce4ca9be09655d8b3038b89a98c91265acb9c58d9a882e64736f6c63430005100032526f6c65733a206163636f756e7420697320746865207a65726f2061646472657373",
  "source": "pragma solidity ^0.5.0;\r\n\r\n//import './SafeMath.sol';\r\nimport './BNDESRegistry.sol';\r\nimport '@openzeppelin/contracts/lifecycle/Pausable.sol';\r\nimport '@openzeppelin/contracts/math/SafeMath.sol';\r\n\r\ncontract BNDESToken is Pausable {\r\n    using SafeMath for uint256;\r\n    \r\n    /* This table stores the intentions of donations */\r\n    mapping (address => uint256) public bookedBalances;\r\n    /* This table stores the real BNDESTokens for BNDES and its Clients */\r\n    mapping (address => uint256) public confirmedBalances;\r\n    /* The current amount composed by intentions of donations */\r\n    uint256 public bookedTotalSupply;\r\n    /* The current amount of BNDESTokens minted  */\r\n    uint256 public confirmedTotalSupply;\r\n    /* Number of decimals stored in balance's mappings */\r\n    uint8 public decimals;\r\n    /* BNDES Fee percentage */\r\n    uint256 public bndesFee;\r\n    \r\n    /* Higher level events */\r\n    event DonationBooked      (uint64 cnpj, uint256 amount);\r\n    event DonationConfirmed   (uint64 cnpj, uint256 amount, uint256 tokenMinted, string docHash);\r\n    event Disbursement        (uint64 cnpj, uint256 amount, uint64 idFinancialSupportAgreement);\r\n    event RedemptionRequested (uint64 cnpj, uint256 amount, uint64 idFinancialSupportAgreement);\r\n    event RedemptionSettlement(string redemptionTransactionHash, string  receiptHash);\r\n    \r\n    event TransferBookedBalance(address from, address to, uint256 amount);    \r\n    event TransferConfirmedBalance(address from, address to, uint256 amount);    \r\n    event ManualIntervention(string description);\r\n    \r\n    BNDESRegistry registry;\r\n    \r\n    constructor (BNDESRegistry _registry, uint8 _decimals, uint256 _bndesFee) public {\r\n        registry = BNDESRegistry(_registry);\r\n        decimals = _decimals;\r\n        bndesFee = _bndesFee;\r\n    }\r\n    \r\n    /* Donor books a donation */\r\n    function bookDonation(uint256 amount) public whenNotPaused onlyValidatedDonor {\r\n        address account = msg.sender;\r\n        bookedTotalSupply = bookedTotalSupply.add(amount);\r\n        bookedBalances[account] = bookedBalances[account].add(amount);\r\n        uint64 cnpj = registry.getCNPJ(account);\r\n        emit DonationBooked(cnpj, amount);\r\n    }\r\n    \r\n    /* BNDES confirms the donor's donation */\r\n    function confirmDonation(address account, uint256 amount, string memory docHash) public whenNotPaused onlyResponsibleForDonationConfirmation {       \r\n        uint256 tokenMinted = amount.sub(amount.mul(bndesFee).div(100));\r\n\r\n        bookedTotalSupply    = bookedTotalSupply.sub( amount );\r\n        confirmedTotalSupply = confirmedTotalSupply.add( tokenMinted );\r\n\r\n        bookedBalances[account] = bookedBalances[account].sub( amount );\r\n        confirmedBalances[registry.getResponsibleForDisbursement()] = \r\n                confirmedBalances[registry.getResponsibleForDisbursement()].add( tokenMinted );\r\n        uint64 cnpj = registry.getCNPJ(account);\r\n        emit DonationConfirmed(cnpj, amount, tokenMinted, docHash);\r\n    }\r\n    \r\n    /* BNDES disbursement - transfer donations to a client */\r\n    function makeDisbursement(address client, uint256 amount) public whenNotPaused onlyResponsibleForDisbursement {\r\n        transferConfirmed(registry.getResponsibleForDisbursement(), client, amount);\r\n        uint64 cnpj = registry.getCNPJ(client);\r\n        uint64 idLegalFinancialAgreement = registry.getIdLegalFinancialAgreement(client);\r\n        emit Disbursement(cnpj, amount, idLegalFinancialAgreement);\r\n    }\r\n\r\n   /**\r\n    * When redeeming, the supplier indicated to the Resposible for Settlement that he wants to receive \r\n    * the FIAT money.\r\n    * @param amount - how much BNDESToken the supplier wants to redeem\r\n    */\r\n    function redeem (uint256 amount) public whenNotPaused returns (bool) {\r\n        address account = msg.sender;\r\n        require(account != address(0), \"burn from the zero address\");\r\n        confirmedBalances[account] = confirmedBalances[account].sub(amount, \"burn amount exceeds balance\");\r\n        confirmedTotalSupply = confirmedTotalSupply.sub(amount);             \r\n        uint64 idLegalFinancialAgreement = registry.getIdLegalFinancialAgreement(account);\r\n        uint64 cnpj = registry.getCNPJ(account);\r\n        emit RedemptionRequested(cnpj, amount, idLegalFinancialAgreement);        \r\n        return true;\r\n    }\r\n\r\n   /**\r\n    * Using this function, the Responsible for Settlement indicates that he has made the FIAT money transfer.\r\n    * @param redemptionTransactionHash hash of the redeem transaction in which the FIAT money settlement occurred.\r\n    * @param receiptHash hash that proof the FIAT money transfer\r\n    */\r\n    function notifyRedemptionSettlement(string memory redemptionTransactionHash, string memory receiptHash) \r\n        public whenNotPaused {\r\n        require (registry.isResponsibleForSettlement(msg.sender), \"A liquidao s no pode ser realizada pelo endereo que submeteu a transao\"); \r\n        require (registry.isValidHash(receiptHash), \"O hash do recibo  invlido\");\r\n        emit RedemptionSettlement(redemptionTransactionHash, receiptHash);\r\n    }    \r\n\r\n    /* BNDES transfers bookedBalances from a sender to a receiver */\r\n    function transferBooked(address sender, address recipient, uint256 amount) internal {\r\n        require(sender    != address(0), \"booked transfer from the zero address\");\r\n        require(recipient != address(0), \"booked transfer to the zero address\");\r\n\r\n        bookedBalances[sender]    = bookedBalances[sender].sub(amount, \"booked transfer amount exceeds balance\");\r\n        bookedBalances[recipient] = bookedBalances[recipient].add(amount);\r\n        emit TransferBookedBalance(sender, recipient, amount);\r\n    }\r\n\r\n    /* BNDES transfers confirmedBalances from a sender to a receiver */\r\n    function transferConfirmed(address sender, address recipient, uint256 amount) internal {\r\n        require(sender != address(0), \"confirmed transfer from the zero address\");\r\n        require(recipient != address(0), \"confirmed transfer to the zero address\");\r\n\r\n        confirmedBalances[sender]    = confirmedBalances[sender].sub(amount, \"confirmed transfer amount exceeds balance\");\r\n        confirmedBalances[recipient] = confirmedBalances[recipient].add(amount);\r\n        emit TransferConfirmedBalance(sender, recipient, amount);\r\n    }\r\n\r\n    //These methods may be necessary to solve incidents.\r\n    function mintBooked(address account, uint256 amount, string memory description) public onlyOwner {\r\n        require(account != address(0), \"ERC20: burn from the zero address\");\r\n        bookedBalances[account] = bookedBalances[account].add(amount);\r\n        bookedTotalSupply = bookedTotalSupply.add(amount);\r\n        emit ManualIntervention(description);        \r\n    }        \r\n    //These methods may be necessary to solve incidents.\r\n    function burnBooked(address account, uint256 amount, string memory description) public onlyOwner {\r\n        require(account != address(0), \"ERC20: burn from the zero address\");\r\n        bookedBalances[account] = bookedBalances[account].sub(amount, \"ERC20: burn amount exceeds balance\");\r\n        bookedTotalSupply = bookedTotalSupply.sub(amount);\r\n        emit ManualIntervention(description);        \r\n    }\r\n    //These methods may be necessary to solve incidents.\r\n    function mintConfirmed(address account, uint256 amount, string memory description) public onlyOwner {\r\n        require(account != address(0), \"ERC20: burn from the zero address\");\r\n        confirmedBalances[account] = confirmedBalances[account].add(amount);\r\n        confirmedTotalSupply = confirmedTotalSupply.add(amount);\r\n        emit ManualIntervention(description);        \r\n    }\r\n    //These methods may be necessary to solve incidents.\r\n    function burnConfirmed(address account, uint256 amount, string memory description) public onlyOwner {\r\n        require(account != address(0), \"ERC20: burn from the zero address\");\r\n        confirmedBalances[account] = confirmedBalances[account].sub(amount, \"ERC20: burn amount exceeds balance\");\r\n        confirmedTotalSupply = confirmedTotalSupply.sub(amount);\r\n        emit ManualIntervention(description);        \r\n    }   \r\n\r\n    function registryLegalEntity(uint64 cnpj, uint64 idFinancialSupportAgreement, string memory idProofHash) \r\n        public whenNotPaused { \r\n        registry.registryLegalEntity(cnpj,  idFinancialSupportAgreement, msg.sender, idProofHash);\r\n    }\r\n\r\n   /**\r\n    * Changes the original link between CNPJ and Ethereum account. \r\n    * The new link still needs to be validated by BNDES.\r\n    * IMPORTANT: The BNDESTOKENs are transfered from the original to the new Ethereum address \r\n    * @param cnpj Brazilian identifier to legal entities\r\n    * @param idFinancialSupportAgreement contract number of financial contract with BNDES. It assumes 0 if it is a supplier.\r\n    * @param idProofHash The legal entities have to send BNDES a PDF where it assumes as responsible for an Ethereum account. \r\n    *                   This PDF is signed with eCNPJ and send to BNDES. \r\n    */\r\n    function changeAccountLegalEntity(uint64 cnpj, uint64 idFinancialSupportAgreement, string memory idProofHash) \r\n        public whenNotPaused {\r\n        \r\n        address oldAddr = registry.getBlockchainAccount(cnpj, idFinancialSupportAgreement);\r\n        address newAddr = msg.sender;\r\n        \r\n        registry.changeAccountLegalEntity(cnpj, idFinancialSupportAgreement, msg.sender, idProofHash);\r\n\r\n        // Se h saldo no enderecoAntigo, precisa transferir\r\n        if (bookedBalances[oldAddr] > 0) {\r\n            transferBooked(oldAddr, newAddr, bookedBalances[oldAddr]);\r\n        }\r\n        if (confirmedBalances[oldAddr] > 0) {\r\n            transferConfirmed(oldAddr, newAddr, confirmedBalances[oldAddr]);\r\n        }        \r\n    }\r\n\r\n    function confirmedBalanceOf(address client) public view returns (uint256) {\r\n        return confirmedBalances[client];\r\n    }    \r\n\r\n    function bookedBalanceOf(address donor) public view returns (uint256) {\r\n        return bookedBalances[donor];\r\n    }        \r\n\r\n    function getBookedTotalSupply() public view returns (uint256) {\r\n        return bookedTotalSupply;\r\n    }        \r\n\r\n    function getConfirmedTotalSupply() public view returns (uint256) {\r\n        return confirmedTotalSupply;\r\n    } \r\n    \r\n    function getDecimals() public view returns (uint8) {\r\n        return decimals;\r\n    }    \r\n    \r\n    /*\r\n    modifier whenNotPaused() {\r\n        // FIXME: remove it when the import Pausable is available \r\n        _;\r\n    } */\r\n\r\n    modifier onlyResponsibleForDonationConfirmation() {\r\n        require(registry.isResponsibleForDonationConfirmation(msg.sender));        \r\n        _;\r\n    }\r\n    modifier onlyResponsibleForDisbursement() {\r\n        require(registry.isResponsibleForDisbursement(msg.sender));\r\n        _;\r\n    }\r\n    modifier onlyResponsibleForSettlement() {\r\n        require(registry.isResponsibleForSettlement(msg.sender));\r\n        _;\r\n    }\r\n    modifier onlyValidatedClient() {\r\n        require(registry.isValidatedClient(msg.sender));\r\n        _;\r\n    }\r\n    modifier onlyValidatedDonor() {\r\n        require(registry.isValidatedDonor(msg.sender));\r\n        _;\r\n    }\r\n    modifier onlyOwner() {\r\n        require(registry.isOwner());\r\n        _;\r\n    }    \r\n}\r\n\r\n/** \r\n\r\nlibrary SafeMath {\r\n\r\n    function add(uint256 a, uint256 b) internal pure returns (uint256) {\r\n        uint256 c = a + b;\r\n        require(c >= a, \"SafeMath: addition overflow\");\r\n\r\n        return c;\r\n    }\r\n\r\n    function sub(uint256 a, uint256 b) internal pure returns (uint256) {\r\n        return sub(a, b, \"SafeMath: subtraction overflow\");\r\n    }\r\n\r\n    function sub(uint256 a, uint256 b, string memory errorMessage) internal pure returns (uint256) {\r\n        require(b <= a, errorMessage);\r\n        uint256 c = a - b;\r\n\r\n        return c;\r\n    }\r\n\r\n    function mul(uint256 a, uint256 b) internal pure returns (uint256) {\r\n        // Gas optimization: this is cheaper than requiring 'a' not being zero, but the\r\n        // benefit is lost if 'b' is also tested.\r\n        // See: https://github.com/OpenZeppelin/openzeppelin-contracts/pull/522\r\n        if (a == 0) {\r\n            return 0;\r\n        }\r\n\r\n        uint256 c = a * b;\r\n        require(c / a == b, \"SafeMath: multiplication overflow\");\r\n\r\n        return c;\r\n    }\r\n\r\n    function div(uint256 a, uint256 b) internal pure returns (uint256) {\r\n        return div(a, b, \"SafeMath: division by zero\");\r\n    }\r\n\r\n    function div(uint256 a, uint256 b, string memory errorMessage) internal pure returns (uint256) {\r\n        // Solidity only automatically asserts when dividing by 0\r\n        require(b > 0, errorMessage);\r\n        uint256 c = a / b;\r\n        // assert(a == b * c + a % b); // There is no case in which this doesn't hold\r\n\r\n        return c;\r\n    }\r\n\r\n    function mod(uint256 a, uint256 b) internal pure returns (uint256) {\r\n        return mod(a, b, \"SafeMath: modulo by zero\");\r\n    }\r\n    \r\n    function mod(uint256 a, uint256 b, string memory errorMessage) internal pure returns (uint256) {\r\n        require(b != 0, errorMessage);\r\n        return a % b;\r\n    }\r\n}\r\n\r\n/**/",
  "sourcePath": "D:\\git.repo\\bndestoken-captacao\\Back-Blockchain\\contracts\\BNDESToken.sol",
  "compiler": {
    "name": "solc",
    "version": "0.5.16+commit.9c3226ce.Emscripten.clang"
  },
  "schemaVersion": "3.0.23",
  "updatedAt": "2020-03-12T16:12:20.711Z",
  "networkType": "ethereum",
  "devdoc": {
    "methods": {
      "changeAccountLegalEntity(uint64,uint64,string)": {
        "params": {
          "cnpj": "Brazilian identifier to legal entities",
          "idFinancialSupportAgreement": "contract number of financial contract with BNDES. It assumes 0 if it is a supplier.",
          "idProofHash": "The legal entities have to send BNDES a PDF where it assumes as responsible for an Ethereum account.                   This PDF is signed with eCNPJ and send to BNDES. "
        }
      },
      "notifyRedemptionSettlement(string,string)": {
        "params": {
          "receiptHash": "hash that proof the FIAT money transfer",
          "redemptionTransactionHash": "hash of the redeem transaction in which the FIAT money settlement occurred."
        }
      },
      "pause()": {
        "details": "Called by a pauser to pause, triggers stopped state."
      },
      "paused()": {
        "details": "Returns true if the contract is paused, and false otherwise."
      },
      "redeem(uint256)": {
        "params": {
          "amount": "- how much BNDESToken the supplier wants to redeem"
        }
      },
      "unpause()": {
        "details": "Called by a pauser to unpause, returns to normal state."
      }
    }
  },
  "userdoc": {
    "methods": {
      "changeAccountLegalEntity(uint64,uint64,string)": {
        "notice": "Changes the original link between CNPJ and Ethereum account.  The new link still needs to be validated by BNDES. IMPORTANT: The BNDESTOKENs are transfered from the original to the new Ethereum address "
      },
      "notifyRedemptionSettlement(string,string)": {
        "notice": "Using this function, the Responsible for Settlement indicates that he has made the FIAT money transfer."
      },
      "redeem(uint256)": {
        "notice": "When redeeming, the supplier indicated to the Resposible for Settlement that he wants to receive  the FIAT money."
      }
    }
  }
}