{
  "contractName": "BNDESToken",
  "abi": [
    {
      "inputs": [
        {
          "internalType": "contract BNDESRegistry",
          "name": "_registry",
          "type": "address"
        },
        {
          "internalType": "uint8",
          "name": "_decimals",
          "type": "uint8"
        }
      ],
      "payable": false,
      "stateMutability": "nonpayable",
      "type": "constructor"
    },
    {
      "anonymous": false,
      "inputs": [
        {
          "indexed": false,
          "internalType": "uint64",
          "name": "cnpj",
          "type": "uint64"
        },
        {
          "indexed": false,
          "internalType": "uint256",
          "name": "amount",
          "type": "uint256"
        },
        {
          "indexed": false,
          "internalType": "uint64",
          "name": "idFinancialSupportAgreement",
          "type": "uint64"
        }
      ],
      "name": "Disbursement",
      "type": "event"
    },
    {
      "anonymous": false,
      "inputs": [
        {
          "indexed": false,
          "internalType": "uint64",
          "name": "cnpj",
          "type": "uint64"
        },
        {
          "indexed": false,
          "internalType": "uint256",
          "name": "amount",
          "type": "uint256"
        }
      ],
      "name": "DonationBooked",
      "type": "event"
    },
    {
      "anonymous": false,
      "inputs": [
        {
          "indexed": false,
          "internalType": "uint64",
          "name": "cnpj",
          "type": "uint64"
        },
        {
          "indexed": false,
          "internalType": "uint256",
          "name": "amount",
          "type": "uint256"
        },
        {
          "indexed": false,
          "internalType": "string",
          "name": "docHash",
          "type": "string"
        }
      ],
      "name": "DonationConfirmed",
      "type": "event"
    },
    {
      "anonymous": false,
      "inputs": [
        {
          "indexed": false,
          "internalType": "string",
          "name": "description",
          "type": "string"
        }
      ],
      "name": "ManualIntervention",
      "type": "event"
    },
    {
      "anonymous": false,
      "inputs": [
        {
          "indexed": false,
          "internalType": "address",
          "name": "account",
          "type": "address"
        }
      ],
      "name": "Paused",
      "type": "event"
    },
    {
      "anonymous": false,
      "inputs": [
        {
          "indexed": true,
          "internalType": "address",
          "name": "account",
          "type": "address"
        }
      ],
      "name": "PauserAdded",
      "type": "event"
    },
    {
      "anonymous": false,
      "inputs": [
        {
          "indexed": true,
          "internalType": "address",
          "name": "account",
          "type": "address"
        }
      ],
      "name": "PauserRemoved",
      "type": "event"
    },
    {
      "anonymous": false,
      "inputs": [
        {
          "indexed": false,
          "internalType": "uint64",
          "name": "cnpj",
          "type": "uint64"
        },
        {
          "indexed": false,
          "internalType": "uint256",
          "name": "amount",
          "type": "uint256"
        },
        {
          "indexed": false,
          "internalType": "uint64",
          "name": "idFinancialSupportAgreement",
          "type": "uint64"
        }
      ],
      "name": "RedemptionRequested",
      "type": "event"
    },
    {
      "anonymous": false,
      "inputs": [
        {
          "indexed": false,
          "internalType": "string",
          "name": "redemptionTransactionHash",
          "type": "string"
        },
        {
          "indexed": false,
          "internalType": "string",
          "name": "receiptHash",
          "type": "string"
        }
      ],
      "name": "RedemptionSettlement",
      "type": "event"
    },
    {
      "anonymous": false,
      "inputs": [
        {
          "indexed": false,
          "internalType": "address",
          "name": "from",
          "type": "address"
        },
        {
          "indexed": false,
          "internalType": "address",
          "name": "to",
          "type": "address"
        },
        {
          "indexed": false,
          "internalType": "uint256",
          "name": "amount",
          "type": "uint256"
        }
      ],
      "name": "TransferBookedBalance",
      "type": "event"
    },
    {
      "anonymous": false,
      "inputs": [
        {
          "indexed": false,
          "internalType": "address",
          "name": "from",
          "type": "address"
        },
        {
          "indexed": false,
          "internalType": "address",
          "name": "to",
          "type": "address"
        },
        {
          "indexed": false,
          "internalType": "uint256",
          "name": "amount",
          "type": "uint256"
        }
      ],
      "name": "TransferConfirmedBalance",
      "type": "event"
    },
    {
      "anonymous": false,
      "inputs": [
        {
          "indexed": false,
          "internalType": "address",
          "name": "account",
          "type": "address"
        }
      ],
      "name": "Unpaused",
      "type": "event"
    },
    {
      "constant": false,
      "inputs": [
        {
          "internalType": "address",
          "name": "account",
          "type": "address"
        }
      ],
      "name": "addPauser",
      "outputs": [],
      "payable": false,
      "stateMutability": "nonpayable",
      "type": "function"
    },
    {
      "constant": true,
      "inputs": [
        {
          "internalType": "address",
          "name": "",
          "type": "address"
        }
      ],
      "name": "bookedBalances",
      "outputs": [
        {
          "internalType": "uint256",
          "name": "",
          "type": "uint256"
        }
      ],
      "payable": false,
      "stateMutability": "view",
      "type": "function"
    },
    {
      "constant": true,
      "inputs": [],
      "name": "bookedTotalSupply",
      "outputs": [
        {
          "internalType": "uint256",
          "name": "",
          "type": "uint256"
        }
      ],
      "payable": false,
      "stateMutability": "view",
      "type": "function"
    },
    {
      "constant": true,
      "inputs": [
        {
          "internalType": "address",
          "name": "",
          "type": "address"
        }
      ],
      "name": "confirmedBalances",
      "outputs": [
        {
          "internalType": "uint256",
          "name": "",
          "type": "uint256"
        }
      ],
      "payable": false,
      "stateMutability": "view",
      "type": "function"
    },
    {
      "constant": true,
      "inputs": [],
      "name": "confirmedTotalSupply",
      "outputs": [
        {
          "internalType": "uint256",
          "name": "",
          "type": "uint256"
        }
      ],
      "payable": false,
      "stateMutability": "view",
      "type": "function"
    },
    {
      "constant": true,
      "inputs": [],
      "name": "decimals",
      "outputs": [
        {
          "internalType": "uint8",
          "name": "",
          "type": "uint8"
        }
      ],
      "payable": false,
      "stateMutability": "view",
      "type": "function"
    },
    {
      "constant": true,
      "inputs": [
        {
          "internalType": "address",
          "name": "account",
          "type": "address"
        }
      ],
      "name": "isPauser",
      "outputs": [
        {
          "internalType": "bool",
          "name": "",
          "type": "bool"
        }
      ],
      "payable": false,
      "stateMutability": "view",
      "type": "function"
    },
    {
      "constant": false,
      "inputs": [],
      "name": "pause",
      "outputs": [],
      "payable": false,
      "stateMutability": "nonpayable",
      "type": "function"
    },
    {
      "constant": true,
      "inputs": [],
      "name": "paused",
      "outputs": [
        {
          "internalType": "bool",
          "name": "",
          "type": "bool"
        }
      ],
      "payable": false,
      "stateMutability": "view",
      "type": "function"
    },
    {
      "constant": false,
      "inputs": [],
      "name": "renouncePauser",
      "outputs": [],
      "payable": false,
      "stateMutability": "nonpayable",
      "type": "function"
    },
    {
      "constant": false,
      "inputs": [],
      "name": "unpause",
      "outputs": [],
      "payable": false,
      "stateMutability": "nonpayable",
      "type": "function"
    },
    {
      "constant": false,
      "inputs": [
        {
          "internalType": "uint256",
          "name": "amount",
          "type": "uint256"
        }
      ],
      "name": "bookDonation",
      "outputs": [],
      "payable": false,
      "stateMutability": "nonpayable",
      "type": "function"
    },
    {
      "constant": false,
      "inputs": [
        {
          "internalType": "address",
          "name": "account",
          "type": "address"
        },
        {
          "internalType": "uint256",
          "name": "amount",
          "type": "uint256"
        },
        {
          "internalType": "string",
          "name": "docHash",
          "type": "string"
        }
      ],
      "name": "confirmDonation",
      "outputs": [],
      "payable": false,
      "stateMutability": "nonpayable",
      "type": "function"
    },
    {
      "constant": false,
      "inputs": [
        {
          "internalType": "address",
          "name": "client",
          "type": "address"
        },
        {
          "internalType": "uint256",
          "name": "amount",
          "type": "uint256"
        }
      ],
      "name": "makeDisbursement",
      "outputs": [],
      "payable": false,
      "stateMutability": "nonpayable",
      "type": "function"
    },
    {
      "constant": false,
      "inputs": [
        {
          "internalType": "uint256",
          "name": "amount",
          "type": "uint256"
        }
      ],
      "name": "redeem",
      "outputs": [
        {
          "internalType": "bool",
          "name": "",
          "type": "bool"
        }
      ],
      "payable": false,
      "stateMutability": "nonpayable",
      "type": "function"
    },
    {
      "constant": false,
      "inputs": [
        {
          "internalType": "string",
          "name": "redemptionTransactionHash",
          "type": "string"
        },
        {
          "internalType": "string",
          "name": "receiptHash",
          "type": "string"
        }
      ],
      "name": "notifyRedemptionSettlement",
      "outputs": [],
      "payable": false,
      "stateMutability": "nonpayable",
      "type": "function"
    },
    {
      "constant": false,
      "inputs": [
        {
          "internalType": "address",
          "name": "account",
          "type": "address"
        },
        {
          "internalType": "uint256",
          "name": "amount",
          "type": "uint256"
        },
        {
          "internalType": "string",
          "name": "description",
          "type": "string"
        }
      ],
      "name": "mintBooked",
      "outputs": [],
      "payable": false,
      "stateMutability": "nonpayable",
      "type": "function"
    },
    {
      "constant": false,
      "inputs": [
        {
          "internalType": "address",
          "name": "account",
          "type": "address"
        },
        {
          "internalType": "uint256",
          "name": "amount",
          "type": "uint256"
        },
        {
          "internalType": "string",
          "name": "description",
          "type": "string"
        }
      ],
      "name": "burnBooked",
      "outputs": [],
      "payable": false,
      "stateMutability": "nonpayable",
      "type": "function"
    },
    {
      "constant": false,
      "inputs": [
        {
          "internalType": "address",
          "name": "account",
          "type": "address"
        },
        {
          "internalType": "uint256",
          "name": "amount",
          "type": "uint256"
        },
        {
          "internalType": "string",
          "name": "description",
          "type": "string"
        }
      ],
      "name": "mintConfirmed",
      "outputs": [],
      "payable": false,
      "stateMutability": "nonpayable",
      "type": "function"
    },
    {
      "constant": false,
      "inputs": [
        {
          "internalType": "address",
          "name": "account",
          "type": "address"
        },
        {
          "internalType": "uint256",
          "name": "amount",
          "type": "uint256"
        },
        {
          "internalType": "string",
          "name": "description",
          "type": "string"
        }
      ],
      "name": "burnConfirmed",
      "outputs": [],
      "payable": false,
      "stateMutability": "nonpayable",
      "type": "function"
    },
    {
      "constant": false,
      "inputs": [
        {
          "internalType": "uint64",
          "name": "cnpj",
          "type": "uint64"
        },
        {
          "internalType": "uint64",
          "name": "idFinancialSupportAgreement",
          "type": "uint64"
        },
        {
          "internalType": "string",
          "name": "idProofHash",
          "type": "string"
        }
      ],
      "name": "registryLegalEntity",
      "outputs": [],
      "payable": false,
      "stateMutability": "nonpayable",
      "type": "function"
    },
    {
      "constant": false,
      "inputs": [
        {
          "internalType": "uint64",
          "name": "cnpj",
          "type": "uint64"
        },
        {
          "internalType": "uint64",
          "name": "idFinancialSupportAgreement",
          "type": "uint64"
        },
        {
          "internalType": "string",
          "name": "idProofHash",
          "type": "string"
        }
      ],
      "name": "changeAccountLegalEntity",
      "outputs": [],
      "payable": false,
      "stateMutability": "nonpayable",
      "type": "function"
    },
    {
      "constant": true,
      "inputs": [
        {
          "internalType": "address",
          "name": "client",
          "type": "address"
        }
      ],
      "name": "confirmedBalanceOf",
      "outputs": [
        {
          "internalType": "uint256",
          "name": "",
          "type": "uint256"
        }
      ],
      "payable": false,
      "stateMutability": "view",
      "type": "function"
    },
    {
      "constant": true,
      "inputs": [
        {
          "internalType": "address",
          "name": "donor",
          "type": "address"
        }
      ],
      "name": "bookedBalanceOf",
      "outputs": [
        {
          "internalType": "uint256",
          "name": "",
          "type": "uint256"
        }
      ],
      "payable": false,
      "stateMutability": "view",
      "type": "function"
    },
    {
      "constant": true,
      "inputs": [],
      "name": "getBookedTotalSupply",
      "outputs": [
        {
          "internalType": "uint256",
          "name": "",
          "type": "uint256"
        }
      ],
      "payable": false,
      "stateMutability": "view",
      "type": "function"
    },
    {
      "constant": true,
      "inputs": [],
      "name": "getConfirmedTotalSupply",
      "outputs": [
        {
          "internalType": "uint256",
          "name": "",
          "type": "uint256"
        }
      ],
      "payable": false,
      "stateMutability": "view",
      "type": "function"
    },
    {
      "constant": true,
      "inputs": [],
      "name": "getDecimals",
      "outputs": [
        {
          "internalType": "uint8",
          "name": "",
          "type": "uint8"
        }
      ],
      "payable": false,
      "stateMutability": "view",
      "type": "function"
    }
  ],
  "bytecode": "0x60806040523480156200001157600080fd5b50604051620047ad380380620047ad833981810160405260408110156200003757600080fd5b8101908080519060200190929190805190602001909291905050506200007262000066620000f160201b60201c565b620000f960201b60201c565b6000600160006101000a81548160ff02191690831515021790555081600660016101000a81548173ffffffffffffffffffffffffffffffffffffffff021916908373ffffffffffffffffffffffffffffffffffffffff16021790555080600660006101000a81548160ff021916908360ff16021790555050506200031e565b600033905090565b620001148160006200015a60201b6200415e1790919060201c565b8073ffffffffffffffffffffffffffffffffffffffff167f6719d08c1888103bea251a4ed56406bd0c3e69723c8a1686e017e7bbe159b6f860405160405180910390a250565b6200016c82826200023e60201b60201c565b15620001e0576040517f08c379a000000000000000000000000000000000000000000000000000000000815260040180806020018281038252601f8152602001807f526f6c65733a206163636f756e7420616c72656164792068617320726f6c650081525060200191505060405180910390fd5b60018260000160008373ffffffffffffffffffffffffffffffffffffffff1673ffffffffffffffffffffffffffffffffffffffff16815260200190815260200160002060006101000a81548160ff0219169083151502179055505050565b60008073ffffffffffffffffffffffffffffffffffffffff168273ffffffffffffffffffffffffffffffffffffffff161415620002c7576040517f08c379a00000000000000000000000000000000000000000000000000000000081526004018080602001828103825260228152602001806200478b6022913960400191505060405180910390fd5b8260000160008373ffffffffffffffffffffffffffffffffffffffff1673ffffffffffffffffffffffffffffffffffffffff16815260200190815260200160002060009054906101000a900460ff16905092915050565b61445d806200032e6000396000f3fe608060405234801561001057600080fd5b50600436106101a95760003560e01c80638456cb59116100f9578063c3dd910311610097578063db006a7511610071578063db006a7514610acd578063dfcf13c914610b13578063e5fb86c214610bf8578063f0141d8414610cdd576101a9565b8063c3dd9103146108e7578063c5dee09b146109cc578063cb09e94c146109ea576101a9565b8063a4b1484b116100d3578063a4b1484b146106a1578063a79a8b2d146106ef578063a8736be61461071d578063c177c6ce14610802576101a9565b80638456cb591461046257806387cf64231461046c578063890fc54a146105be576101a9565b80635c975abb1161016657806369742aa81161014057806369742aa8146103645780636ef8d66d146103bc5780637b850cc6146103c657806382dc1ec41461041e576101a9565b80635c975abb146102cc578063613c33be146102ee57806365572c8a1461030c576101a9565b806313d95b54146101ae5780631879fb9d146101cc578063313ce567146101ea5780633f4ba83a1461020e57806346fbf68e14610218578063575e5c0214610274575b600080fd5b6101b6610d01565b6040518082815260200191505060405180910390f35b6101d4610d07565b6040518082815260200191505060405180910390f35b6101f2610d0d565b604051808260ff1660ff16815260200191505060405180910390f35b610216610d20565b005b61025a6004803603602081101561022e57600080fd5b81019080803573ffffffffffffffffffffffffffffffffffffffff169060200190929190505050610e8e565b604051808215151515815260200191505060405180910390f35b6102b66004803603602081101561028a57600080fd5b81019080803573ffffffffffffffffffffffffffffffffffffffff169060200190929190505050610eab565b6040518082815260200191505060405180910390f35b6102d4610ec3565b604051808215151515815260200191505060405180910390f35b6102f6610eda565b6040518082815260200191505060405180910390f35b61034e6004803603602081101561032257600080fd5b81019080803573ffffffffffffffffffffffffffffffffffffffff169060200190929190505050610ee4565b6040518082815260200191505060405180910390f35b6103a66004803603602081101561037a57600080fd5b81019080803573ffffffffffffffffffffffffffffffffffffffff169060200190929190505050610f2d565b6040518082815260200191505060405180910390f35b6103c4610f45565b005b610408600480360360208110156103dc57600080fd5b81019080803573ffffffffffffffffffffffffffffffffffffffff169060200190929190505050610f57565b6040518082815260200191505060405180910390f35b6104606004803603602081101561043457600080fd5b81019080803573ffffffffffffffffffffffffffffffffffffffff169060200190929190505050610fa0565b005b61046a611011565b005b6105bc6004803603604081101561048257600080fd5b810190808035906020019064010000000081111561049f57600080fd5b8201836020820111156104b157600080fd5b803590602001918460018302840111640100000000831117156104d357600080fd5b91908080601f016020809104026020016040519081016040528093929190818152602001838380828437600081840152601f19601f8201169050808301925050505050505091929192908035906020019064010000000081111561053657600080fd5b82018360208201111561054857600080fd5b8035906020019184600183028401116401000000008311171561056a57600080fd5b91908080601f016020809104026020016040519081016040528093929190818152602001838380828437600081840152601f19601f82011690508083019250505050505050919291929050505061117f565b005b61069f600480360360608110156105d457600080fd5b81019080803567ffffffffffffffff169060200190929190803567ffffffffffffffff1690602001909291908035906020019064010000000081111561061957600080fd5b82018360208201111561062b57600080fd5b8035906020019184600183028401116401000000008311171561064d57600080fd5b91908080601f016020809104026020016040519081016040528093929190818152602001838380828437600081840152601f19601f8201169050808301925050505050505091929192905050506115c3565b005b6106ed600480360360408110156106b757600080fd5b81019080803573ffffffffffffffffffffffffffffffffffffffff169060200190929190803590602001909291905050506119b8565b005b61071b6004803603602081101561070557600080fd5b8101908080359060200190929190505050611dfc565b005b6108006004803603606081101561073357600080fd5b81019080803573ffffffffffffffffffffffffffffffffffffffff169060200190929190803590602001909291908035906020019064010000000081111561077a57600080fd5b82018360208201111561078c57600080fd5b803590602001918460018302840111640100000000831117156107ae57600080fd5b91908080601f016020809104026020016040519081016040528093929190818152602001838380828437600081840152601f19601f82011690508083019250505050505050919291929050505061214d565b005b6108e56004803603606081101561081857600080fd5b81019080803573ffffffffffffffffffffffffffffffffffffffff169060200190929190803590602001909291908035906020019064010000000081111561085f57600080fd5b82018360208201111561087157600080fd5b8035906020019184600183028401116401000000008311171561089357600080fd5b91908080601f016020809104026020016040519081016040528093929190818152602001838380828437600081840152601f19601f8201169050808301925050505050505091929192905050506123d0565b005b6109ca600480360360608110156108fd57600080fd5b81019080803573ffffffffffffffffffffffffffffffffffffffff169060200190929190803590602001909291908035906020019064010000000081111561094457600080fd5b82018360208201111561095657600080fd5b8035906020019184600183028401116401000000008311171561097857600080fd5b91908080601f016020809104026020016040519081016040528093929190818152602001838380828437600081840152601f19601f82011690508083019250505050505050919291929050505061266d565b005b6109d4612c1b565b6040518082815260200191505060405180910390f35b610acb60048036036060811015610a0057600080fd5b81019080803567ffffffffffffffff169060200190929190803567ffffffffffffffff16906020019092919080359060200190640100000000811115610a4557600080fd5b820183602082011115610a5757600080fd5b80359060200191846001830284011164010000000083111715610a7957600080fd5b91908080601f016020809104026020016040519081016040528093929190818152602001838380828437600081840152601f19601f820116905080830192505050505050509192919290505050612c25565b005b610af960048036036020811015610ae357600080fd5b8101908080359060200190929190505050612e0b565b604051808215151515815260200191505060405180910390f35b610bf660048036036060811015610b2957600080fd5b81019080803573ffffffffffffffffffffffffffffffffffffffff1690602001909291908035906020019092919080359060200190640100000000811115610b7057600080fd5b820183602082011115610b8257600080fd5b80359060200191846001830284011164010000000083111715610ba457600080fd5b91908080601f016020809104026020016040519081016040528093929190818152602001838380828437600081840152601f19601f820116905080830192505050505050509192919290505050613256565b005b610cdb60048036036060811015610c0e57600080fd5b81019080803573ffffffffffffffffffffffffffffffffffffffff1690602001909291908035906020019092919080359060200190640100000000811115610c5557600080fd5b820183602082011115610c6757600080fd5b80359060200191846001830284011164010000000083111715610c8957600080fd5b91908080601f016020809104026020016040519081016040528093929190818152602001838380828437600081840152601f19601f8201169050808301925050505050505091929192905050506134f3565b005b610ce5613776565b604051808260ff1660ff16815260200191505060405180910390f35b60045481565b60055481565b600660009054906101000a900460ff1681565b610d30610d2b61378d565b610e8e565b610d85576040517f08c379a00000000000000000000000000000000000000000000000000000000081526004018080602001828103825260308152602001806142ab6030913960400191505060405180910390fd5b600160009054906101000a900460ff16610e07576040517f08c379a00000000000000000000000000000000000000000000000000000000081526004018080602001828103825260148152602001807f5061757361626c653a206e6f742070617573656400000000000000000000000081525060200191505060405180910390fd5b6000600160006101000a81548160ff0219169083151502179055507f5db9ee0a495bf2e6ff9c91a7834c1ba4fdd244a5e8aa4e537bd38aeae4b073aa610e4b61378d565b604051808273ffffffffffffffffffffffffffffffffffffffff1673ffffffffffffffffffffffffffffffffffffffff16815260200191505060405180910390a1565b6000610ea482600061379590919063ffffffff16565b9050919050565b60026020528060005260406000206000915090505481565b6000600160009054906101000a900460ff16905090565b6000600454905090565b6000600360008373ffffffffffffffffffffffffffffffffffffffff1673ffffffffffffffffffffffffffffffffffffffff168152602001908152602001600020549050919050565b60036020528060005260406000206000915090505481565b610f55610f5061378d565b613873565b565b6000600260008373ffffffffffffffffffffffffffffffffffffffff1673ffffffffffffffffffffffffffffffffffffffff168152602001908152602001600020549050919050565b610fb0610fab61378d565b610e8e565b611005576040517f08c379a00000000000000000000000000000000000000000000000000000000081526004018080602001828103825260308152602001806142ab6030913960400191505060405180910390fd5b61100e816138cd565b50565b61102161101c61378d565b610e8e565b611076576040517f08c379a00000000000000000000000000000000000000000000000000000000081526004018080602001828103825260308152602001806142ab6030913960400191505060405180910390fd5b600160009054906101000a900460ff16156110f9576040517f08c379a00000000000000000000000000000000000000000000000000000000081526004018080602001828103825260108152602001807f5061757361626c653a207061757365640000000000000000000000000000000081525060200191505060405180910390fd5b60018060006101000a81548160ff0219169083151502179055507f62e78cea01bee320cd4e420270b5ea74000d11b0c9f74754ebdbfc544b05a25861113c61378d565b604051808273ffffffffffffffffffffffffffffffffffffffff1673ffffffffffffffffffffffffffffffffffffffff16815260200191505060405180910390a1565b600160009054906101000a900460ff1615611202576040517f08c379a00000000000000000000000000000000000000000000000000000000081526004018080602001828103825260108152602001807f5061757361626c653a207061757365640000000000000000000000000000000081525060200191505060405180910390fd5b600660019054906101000a900473ffffffffffffffffffffffffffffffffffffffff1673ffffffffffffffffffffffffffffffffffffffff166385fecf9b336040518263ffffffff1660e01b8152600401808273ffffffffffffffffffffffffffffffffffffffff1673ffffffffffffffffffffffffffffffffffffffff16815260200191505060206040518083038186803b1580156112a157600080fd5b505afa1580156112b5573d6000803e3d6000fd5b505050506040513d60208110156112cb57600080fd5b8101908080519060200190929190505050611331576040517f08c379a00000000000000000000000000000000000000000000000000000000081526004018080602001828103825260548152602001806143006054913960600191505060405180910390fd5b600660019054906101000a900473ffffffffffffffffffffffffffffffffffffffff1673ffffffffffffffffffffffffffffffffffffffff16636edcb12f826040518263ffffffff1660e01b81526004018080602001828103825283818151815260200191508051906020019080838360005b838110156113bf5780820151818401526020810190506113a4565b50505050905090810190601f1680156113ec5780820380516001836020036101000a031916815260200191505b509250505060206040518083038186803b15801561140957600080fd5b505afa15801561141d573d6000803e3d6000fd5b505050506040513d602081101561143357600080fd5b81019080805190602001909291905050506114b6576040517f08c379a000000000000000000000000000000000000000000000000000000000815260040180806020018281038252601d8152602001807f4f206861736820646f2072656369626f20c3a920696e76c3a16c69646f00000081525060200191505060405180910390fd5b7fc5c85710ca450311aa550ba9b7404810c70a332cda36f77ae18faa406acb12388282604051808060200180602001838103835285818151815260200191508051906020019080838360005b8381101561151d578082015181840152602081019050611502565b50505050905090810190601f16801561154a5780820380516001836020036101000a031916815260200191505b50838103825284818151815260200191508051906020019080838360005b83811015611583578082015181840152602081019050611568565b50505050905090810190601f1680156115b05780820380516001836020036101000a031916815260200191505b5094505050505060405180910390a15050565b600160009054906101000a900460ff1615611646576040517f08c379a00000000000000000000000000000000000000000000000000000000081526004018080602001828103825260108152602001807f5061757361626c653a207061757365640000000000000000000000000000000081525060200191505060405180910390fd5b6000600660019054906101000a900473ffffffffffffffffffffffffffffffffffffffff1673ffffffffffffffffffffffffffffffffffffffff16633933384985856040518363ffffffff1660e01b8152600401808367ffffffffffffffff1667ffffffffffffffff1681526020018267ffffffffffffffff1667ffffffffffffffff1681526020019250505060206040518083038186803b1580156116eb57600080fd5b505afa1580156116ff573d6000803e3d6000fd5b505050506040513d602081101561171557600080fd5b810190808051906020019092919050505090506000339050600660019054906101000a900473ffffffffffffffffffffffffffffffffffffffff1673ffffffffffffffffffffffffffffffffffffffff16633d6e154e868633876040518563ffffffff1660e01b8152600401808567ffffffffffffffff1667ffffffffffffffff1681526020018467ffffffffffffffff1667ffffffffffffffff1681526020018373ffffffffffffffffffffffffffffffffffffffff1673ffffffffffffffffffffffffffffffffffffffff16815260200180602001828103825283818151815260200191508051906020019080838360005b83811015611824578082015181840152602081019050611809565b50505050905090810190601f1680156118515780820380516001836020036101000a031916815260200191505b5095505050505050600060405180830381600087803b15801561187357600080fd5b505af1158015611887573d6000803e3d6000fd5b505050506000600260008473ffffffffffffffffffffffffffffffffffffffff1673ffffffffffffffffffffffffffffffffffffffff16815260200190815260200160002054111561191e5761191d8282600260008673ffffffffffffffffffffffffffffffffffffffff1673ffffffffffffffffffffffffffffffffffffffff16815260200190815260200160002054613927565b5b6000600360008473ffffffffffffffffffffffffffffffffffffffff1673ffffffffffffffffffffffffffffffffffffffff1681526020019081526020016000205411156119b1576119b08282600360008673ffffffffffffffffffffffffffffffffffffffff1673ffffffffffffffffffffffffffffffffffffffff16815260200190815260200160002054613c1b565b5b5050505050565b600160009054906101000a900460ff1615611a3b576040517f08c379a00000000000000000000000000000000000000000000000000000000081526004018080602001828103825260108152602001807f5061757361626c653a207061757365640000000000000000000000000000000081525060200191505060405180910390fd5b600660019054906101000a900473ffffffffffffffffffffffffffffffffffffffff1673ffffffffffffffffffffffffffffffffffffffff16634add3110336040518263ffffffff1660e01b8152600401808273ffffffffffffffffffffffffffffffffffffffff1673ffffffffffffffffffffffffffffffffffffffff16815260200191505060206040518083038186803b158015611ada57600080fd5b505afa158015611aee573d6000803e3d6000fd5b505050506040513d6020811015611b0457600080fd5b8101908080519060200190929190505050611b1e57600080fd5b611bcb600660019054906101000a900473ffffffffffffffffffffffffffffffffffffffff1673ffffffffffffffffffffffffffffffffffffffff166357cdcb3e6040518163ffffffff1660e01b815260040160206040518083038186803b158015611b8957600080fd5b505afa158015611b9d573d6000803e3d6000fd5b505050506040513d6020811015611bb357600080fd5b81019080805190602001909291905050508383613c1b565b6000600660019054906101000a900473ffffffffffffffffffffffffffffffffffffffff1673ffffffffffffffffffffffffffffffffffffffff1663be49b78d846040518263ffffffff1660e01b8152600401808273ffffffffffffffffffffffffffffffffffffffff1673ffffffffffffffffffffffffffffffffffffffff16815260200191505060206040518083038186803b158015611c6c57600080fd5b505afa158015611c80573d6000803e3d6000fd5b505050506040513d6020811015611c9657600080fd5b810190808051906020019092919050505090506000600660019054906101000a900473ffffffffffffffffffffffffffffffffffffffff1673ffffffffffffffffffffffffffffffffffffffff1663876c6e9b856040518263ffffffff1660e01b8152600401808273ffffffffffffffffffffffffffffffffffffffff1673ffffffffffffffffffffffffffffffffffffffff16815260200191505060206040518083038186803b158015611d4a57600080fd5b505afa158015611d5e573d6000803e3d6000fd5b505050506040513d6020811015611d7457600080fd5b810190808051906020019092919050505090507f20c2bda137f2ae008499959b7a73e3642d9aeb79b381813dae258a0303a4df93828483604051808467ffffffffffffffff1667ffffffffffffffff1681526020018381526020018267ffffffffffffffff1667ffffffffffffffff168152602001935050505060405180910390a150505050565b600160009054906101000a900460ff1615611e7f576040517f08c379a00000000000000000000000000000000000000000000000000000000081526004018080602001828103825260108152602001807f5061757361626c653a207061757365640000000000000000000000000000000081525060200191505060405180910390fd5b600660019054906101000a900473ffffffffffffffffffffffffffffffffffffffff1673ffffffffffffffffffffffffffffffffffffffff1663f50cd96b336040518263ffffffff1660e01b8152600401808273ffffffffffffffffffffffffffffffffffffffff1673ffffffffffffffffffffffffffffffffffffffff16815260200191505060206040518083038186803b158015611f1e57600080fd5b505afa158015611f32573d6000803e3d6000fd5b505050506040513d6020811015611f4857600080fd5b8101908080519060200190929190505050611f6257600080fd5b6000339050611f7c82600454613f0f90919063ffffffff16565b600481905550611fd482600260008473ffffffffffffffffffffffffffffffffffffffff1673ffffffffffffffffffffffffffffffffffffffff16815260200190815260200160002054613f0f90919063ffffffff16565b600260008373ffffffffffffffffffffffffffffffffffffffff1673ffffffffffffffffffffffffffffffffffffffff168152602001908152602001600020819055506000600660019054906101000a900473ffffffffffffffffffffffffffffffffffffffff1673ffffffffffffffffffffffffffffffffffffffff1663be49b78d836040518263ffffffff1660e01b8152600401808273ffffffffffffffffffffffffffffffffffffffff1673ffffffffffffffffffffffffffffffffffffffff16815260200191505060206040518083038186803b1580156120b857600080fd5b505afa1580156120cc573d6000803e3d6000fd5b505050506040513d60208110156120e257600080fd5b810190808051906020019092919050505090507fe2ca6588fe810f0a29b60c9ce89e496936de73496911954f13d5b43dfbb3f0788184604051808367ffffffffffffffff1667ffffffffffffffff1681526020018281526020019250505060405180910390a1505050565b600660019054906101000a900473ffffffffffffffffffffffffffffffffffffffff1673ffffffffffffffffffffffffffffffffffffffff16638f32d59b6040518163ffffffff1660e01b815260040160206040518083038186803b1580156121b557600080fd5b505afa1580156121c9573d6000803e3d6000fd5b505050506040513d60208110156121df57600080fd5b81019080805190602001909291905050506121f957600080fd5b600073ffffffffffffffffffffffffffffffffffffffff168373ffffffffffffffffffffffffffffffffffffffff16141561227f576040517f08c379a00000000000000000000000000000000000000000000000000000000081526004018080602001828103825260218152602001806143e26021913960400191505060405180910390fd5b6122d182600360008673ffffffffffffffffffffffffffffffffffffffff1673ffffffffffffffffffffffffffffffffffffffff16815260200190815260200160002054613f0f90919063ffffffff16565b600360008573ffffffffffffffffffffffffffffffffffffffff1673ffffffffffffffffffffffffffffffffffffffff1681526020019081526020016000208190555061232982600554613f0f90919063ffffffff16565b6005819055507f76748fe503062c7944abe7ec0349339e7d476339a49acca09ccf212e44c1f42b816040518080602001828103825283818151815260200191508051906020019080838360005b83811015612391578082015181840152602081019050612376565b50505050905090810190601f1680156123be5780820380516001836020036101000a031916815260200191505b509250505060405180910390a1505050565b600660019054906101000a900473ffffffffffffffffffffffffffffffffffffffff1673ffffffffffffffffffffffffffffffffffffffff16638f32d59b6040518163ffffffff1660e01b815260040160206040518083038186803b15801561243857600080fd5b505afa15801561244c573d6000803e3d6000fd5b505050506040513d602081101561246257600080fd5b810190808051906020019092919050505061247c57600080fd5b600073ffffffffffffffffffffffffffffffffffffffff168373ffffffffffffffffffffffffffffffffffffffff161415612502576040517f08c379a00000000000000000000000000000000000000000000000000000000081526004018080602001828103825260218152602001806143e26021913960400191505060405180910390fd5b61256e8260405180606001604052806022815260200161428960229139600360008773ffffffffffffffffffffffffffffffffffffffff1673ffffffffffffffffffffffffffffffffffffffff16815260200190815260200160002054613f979092919063ffffffff16565b600360008573ffffffffffffffffffffffffffffffffffffffff1673ffffffffffffffffffffffffffffffffffffffff168152602001908152602001600020819055506125c68260055461405790919063ffffffff16565b6005819055507f76748fe503062c7944abe7ec0349339e7d476339a49acca09ccf212e44c1f42b816040518080602001828103825283818151815260200191508051906020019080838360005b8381101561262e578082015181840152602081019050612613565b50505050905090810190601f16801561265b5780820380516001836020036101000a031916815260200191505b509250505060405180910390a1505050565b600160009054906101000a900460ff16156126f0576040517f08c379a00000000000000000000000000000000000000000000000000000000081526004018080602001828103825260108152602001807f5061757361626c653a207061757365640000000000000000000000000000000081525060200191505060405180910390fd5b600660019054906101000a900473ffffffffffffffffffffffffffffffffffffffff1673ffffffffffffffffffffffffffffffffffffffff16635b072a50336040518263ffffffff1660e01b8152600401808273ffffffffffffffffffffffffffffffffffffffff1673ffffffffffffffffffffffffffffffffffffffff16815260200191505060206040518083038186803b15801561278f57600080fd5b505afa1580156127a3573d6000803e3d6000fd5b505050506040513d60208110156127b957600080fd5b81019080805190602001909291905050506127d357600080fd5b6127e88260045461405790919063ffffffff16565b60048190555061280382600554613f0f90919063ffffffff16565b60058190555061285b82600260008673ffffffffffffffffffffffffffffffffffffffff1673ffffffffffffffffffffffffffffffffffffffff1681526020019081526020016000205461405790919063ffffffff16565b600260008573ffffffffffffffffffffffffffffffffffffffff1673ffffffffffffffffffffffffffffffffffffffff168152602001908152602001600020819055506129928260036000600660019054906101000a900473ffffffffffffffffffffffffffffffffffffffff1673ffffffffffffffffffffffffffffffffffffffff166357cdcb3e6040518163ffffffff1660e01b815260040160206040518083038186803b15801561290e57600080fd5b505afa158015612922573d6000803e3d6000fd5b505050506040513d602081101561293857600080fd5b810190808051906020019092919050505073ffffffffffffffffffffffffffffffffffffffff1673ffffffffffffffffffffffffffffffffffffffff16815260200190815260200160002054613f0f90919063ffffffff16565b60036000600660019054906101000a900473ffffffffffffffffffffffffffffffffffffffff1673ffffffffffffffffffffffffffffffffffffffff166357cdcb3e6040518163ffffffff1660e01b815260040160206040518083038186803b1580156129fe57600080fd5b505afa158015612a12573d6000803e3d6000fd5b505050506040513d6020811015612a2857600080fd5b810190808051906020019092919050505073ffffffffffffffffffffffffffffffffffffffff1673ffffffffffffffffffffffffffffffffffffffff168152602001908152602001600020819055506000600660019054906101000a900473ffffffffffffffffffffffffffffffffffffffff1673ffffffffffffffffffffffffffffffffffffffff1663be49b78d856040518263ffffffff1660e01b8152600401808273ffffffffffffffffffffffffffffffffffffffff1673ffffffffffffffffffffffffffffffffffffffff16815260200191505060206040518083038186803b158015612b1857600080fd5b505afa158015612b2c573d6000803e3d6000fd5b505050506040513d6020811015612b4257600080fd5b810190808051906020019092919050505090507f615a043310baf52f45f7786effd0e0f2c6f8671adf687de0840c22665ef5461c818484604051808467ffffffffffffffff1667ffffffffffffffff16815260200183815260200180602001828103825283818151815260200191508051906020019080838360005b83811015612bd9578082015181840152602081019050612bbe565b50505050905090810190601f168015612c065780820380516001836020036101000a031916815260200191505b5094505050505060405180910390a150505050565b6000600554905090565b600160009054906101000a900460ff1615612ca8576040517f08c379a00000000000000000000000000000000000000000000000000000000081526004018080602001828103825260108152602001807f5061757361626c653a207061757365640000000000000000000000000000000081525060200191505060405180910390fd5b600660019054906101000a900473ffffffffffffffffffffffffffffffffffffffff1673ffffffffffffffffffffffffffffffffffffffff166356eb8510848433856040518563ffffffff1660e01b8152600401808567ffffffffffffffff1667ffffffffffffffff1681526020018467ffffffffffffffff1667ffffffffffffffff1681526020018373ffffffffffffffffffffffffffffffffffffffff1673ffffffffffffffffffffffffffffffffffffffff16815260200180602001828103825283818151815260200191508051906020019080838360005b83811015612d9f578082015181840152602081019050612d84565b50505050905090810190601f168015612dcc5780820380516001836020036101000a031916815260200191505b5095505050505050600060405180830381600087803b158015612dee57600080fd5b505af1158015612e02573d6000803e3d6000fd5b50505050505050565b6000600160009054906101000a900460ff1615612e90576040517f08c379a00000000000000000000000000000000000000000000000000000000081526004018080602001828103825260108152602001807f5061757361626c653a207061757365640000000000000000000000000000000081525060200191505060405180910390fd5b6000339050600073ffffffffffffffffffffffffffffffffffffffff168173ffffffffffffffffffffffffffffffffffffffff161415612f38576040517f08c379a000000000000000000000000000000000000000000000000000000000815260040180806020018281038252601a8152602001807f6275726e2066726f6d20746865207a65726f206164647265737300000000000081525060200191505060405180910390fd5b612fc1836040518060400160405280601b81526020017f6275726e20616d6f756e7420657863656564732062616c616e63650000000000815250600360008573ffffffffffffffffffffffffffffffffffffffff1673ffffffffffffffffffffffffffffffffffffffff16815260200190815260200160002054613f979092919063ffffffff16565b600360008373ffffffffffffffffffffffffffffffffffffffff1673ffffffffffffffffffffffffffffffffffffffff168152602001908152602001600020819055506130198360055461405790919063ffffffff16565b6005819055506000600660019054906101000a900473ffffffffffffffffffffffffffffffffffffffff1673ffffffffffffffffffffffffffffffffffffffff1663876c6e9b836040518263ffffffff1660e01b8152600401808273ffffffffffffffffffffffffffffffffffffffff1673ffffffffffffffffffffffffffffffffffffffff16815260200191505060206040518083038186803b1580156130c057600080fd5b505afa1580156130d4573d6000803e3d6000fd5b505050506040513d60208110156130ea57600080fd5b810190808051906020019092919050505090506000600660019054906101000a900473ffffffffffffffffffffffffffffffffffffffff1673ffffffffffffffffffffffffffffffffffffffff1663be49b78d846040518263ffffffff1660e01b8152600401808273ffffffffffffffffffffffffffffffffffffffff1673ffffffffffffffffffffffffffffffffffffffff16815260200191505060206040518083038186803b15801561319e57600080fd5b505afa1580156131b2573d6000803e3d6000fd5b505050506040513d60208110156131c857600080fd5b810190808051906020019092919050505090507f47cec4837b2a0b7e6ef1b6811796fe0f3d71b938b87d1acb1c4033d5e7c375f2818684604051808467ffffffffffffffff1667ffffffffffffffff1681526020018381526020018267ffffffffffffffff1667ffffffffffffffff168152602001935050505060405180910390a160019350505050919050565b600660019054906101000a900473ffffffffffffffffffffffffffffffffffffffff1673ffffffffffffffffffffffffffffffffffffffff16638f32d59b6040518163ffffffff1660e01b815260040160206040518083038186803b1580156132be57600080fd5b505afa1580156132d2573d6000803e3d6000fd5b505050506040513d60208110156132e857600080fd5b810190808051906020019092919050505061330257600080fd5b600073ffffffffffffffffffffffffffffffffffffffff168373ffffffffffffffffffffffffffffffffffffffff161415613388576040517f08c379a00000000000000000000000000000000000000000000000000000000081526004018080602001828103825260218152602001806143e26021913960400191505060405180910390fd5b6133f48260405180606001604052806022815260200161428960229139600260008773ffffffffffffffffffffffffffffffffffffffff1673ffffffffffffffffffffffffffffffffffffffff16815260200190815260200160002054613f979092919063ffffffff16565b600260008573ffffffffffffffffffffffffffffffffffffffff1673ffffffffffffffffffffffffffffffffffffffff1681526020019081526020016000208190555061344c8260045461405790919063ffffffff16565b6004819055507f76748fe503062c7944abe7ec0349339e7d476339a49acca09ccf212e44c1f42b816040518080602001828103825283818151815260200191508051906020019080838360005b838110156134b4578082015181840152602081019050613499565b50505050905090810190601f1680156134e15780820380516001836020036101000a031916815260200191505b509250505060405180910390a1505050565b600660019054906101000a900473ffffffffffffffffffffffffffffffffffffffff1673ffffffffffffffffffffffffffffffffffffffff16638f32d59b6040518163ffffffff1660e01b815260040160206040518083038186803b15801561355b57600080fd5b505afa15801561356f573d6000803e3d6000fd5b505050506040513d602081101561358557600080fd5b810190808051906020019092919050505061359f57600080fd5b600073ffffffffffffffffffffffffffffffffffffffff168373ffffffffffffffffffffffffffffffffffffffff161415613625576040517f08c379a00000000000000000000000000000000000000000000000000000000081526004018080602001828103825260218152602001806143e26021913960400191505060405180910390fd5b61367782600260008673ffffffffffffffffffffffffffffffffffffffff1673ffffffffffffffffffffffffffffffffffffffff16815260200190815260200160002054613f0f90919063ffffffff16565b600260008573ffffffffffffffffffffffffffffffffffffffff1673ffffffffffffffffffffffffffffffffffffffff168152602001908152602001600020819055506136cf82600454613f0f90919063ffffffff16565b6004819055507f76748fe503062c7944abe7ec0349339e7d476339a49acca09ccf212e44c1f42b816040518080602001828103825283818151815260200191508051906020019080838360005b8381101561373757808201518184015260208101905061371c565b50505050905090810190601f1680156137645780820380516001836020036101000a031916815260200191505b509250505060405180910390a1505050565b6000600660009054906101000a900460ff16905090565b600033905090565b60008073ffffffffffffffffffffffffffffffffffffffff168273ffffffffffffffffffffffffffffffffffffffff16141561381c576040517f08c379a00000000000000000000000000000000000000000000000000000000081526004018080602001828103825260228152602001806143756022913960400191505060405180910390fd5b8260000160008373ffffffffffffffffffffffffffffffffffffffff1673ffffffffffffffffffffffffffffffffffffffff16815260200190815260200160002060009054906101000a900460ff16905092915050565b6138878160006140a190919063ffffffff16565b8073ffffffffffffffffffffffffffffffffffffffff167fcd265ebaf09df2871cc7bd4133404a235ba12eff2041bb89d9c714a2621c7c7e60405160405180910390a250565b6138e181600061415e90919063ffffffff16565b8073ffffffffffffffffffffffffffffffffffffffff167f6719d08c1888103bea251a4ed56406bd0c3e69723c8a1686e017e7bbe159b6f860405160405180910390a250565b600073ffffffffffffffffffffffffffffffffffffffff168373ffffffffffffffffffffffffffffffffffffffff1614156139ad576040517f08c379a00000000000000000000000000000000000000000000000000000000081526004018080602001828103825260258152602001806142db6025913960400191505060405180910390fd5b600073ffffffffffffffffffffffffffffffffffffffff168273ffffffffffffffffffffffffffffffffffffffff161415613a33576040517f08c379a00000000000000000000000000000000000000000000000000000000081526004018080602001828103825260238152602001806143976023913960400191505060405180910390fd5b613a9f8160405180606001604052806026815260200161426360269139600260008773ffffffffffffffffffffffffffffffffffffffff1673ffffffffffffffffffffffffffffffffffffffff16815260200190815260200160002054613f979092919063ffffffff16565b600260008573ffffffffffffffffffffffffffffffffffffffff1673ffffffffffffffffffffffffffffffffffffffff16815260200190815260200160002081905550613b3481600260008573ffffffffffffffffffffffffffffffffffffffff1673ffffffffffffffffffffffffffffffffffffffff16815260200190815260200160002054613f0f90919063ffffffff16565b600260008473ffffffffffffffffffffffffffffffffffffffff1673ffffffffffffffffffffffffffffffffffffffff168152602001908152602001600020819055507f029c81a8baa3c4482455ae03f559287a88485fe4bff619b039fdad8b24dd7e82838383604051808473ffffffffffffffffffffffffffffffffffffffff1673ffffffffffffffffffffffffffffffffffffffff1681526020018373ffffffffffffffffffffffffffffffffffffffff1673ffffffffffffffffffffffffffffffffffffffff168152602001828152602001935050505060405180910390a1505050565b600073ffffffffffffffffffffffffffffffffffffffff168373ffffffffffffffffffffffffffffffffffffffff161415613ca1576040517f08c379a00000000000000000000000000000000000000000000000000000000081526004018080602001828103825260288152602001806143ba6028913960400191505060405180910390fd5b600073ffffffffffffffffffffffffffffffffffffffff168273ffffffffffffffffffffffffffffffffffffffff161415613d27576040517f08c379a00000000000000000000000000000000000000000000000000000000081526004018080602001828103825260268152602001806144036026913960400191505060405180910390fd5b613d938160405180606001604052806029815260200161423a60299139600360008773ffffffffffffffffffffffffffffffffffffffff1673ffffffffffffffffffffffffffffffffffffffff16815260200190815260200160002054613f979092919063ffffffff16565b600360008573ffffffffffffffffffffffffffffffffffffffff1673ffffffffffffffffffffffffffffffffffffffff16815260200190815260200160002081905550613e2881600360008573ffffffffffffffffffffffffffffffffffffffff1673ffffffffffffffffffffffffffffffffffffffff16815260200190815260200160002054613f0f90919063ffffffff16565b600360008473ffffffffffffffffffffffffffffffffffffffff1673ffffffffffffffffffffffffffffffffffffffff168152602001908152602001600020819055507fc904f1a10cf8f6490ca61b4c3e8cf14f12b32d990a9c635e40976ce4d6799d8e838383604051808473ffffffffffffffffffffffffffffffffffffffff1673ffffffffffffffffffffffffffffffffffffffff1681526020018373ffffffffffffffffffffffffffffffffffffffff1673ffffffffffffffffffffffffffffffffffffffff168152602001828152602001935050505060405180910390a1505050565b600080828401905083811015613f8d576040517f08c379a000000000000000000000000000000000000000000000000000000000815260040180806020018281038252601b8152602001807f536166654d6174683a206164646974696f6e206f766572666c6f77000000000081525060200191505060405180910390fd5b8091505092915050565b6000838311158290614044576040517f08c379a00000000000000000000000000000000000000000000000000000000081526004018080602001828103825283818151815260200191508051906020019080838360005b83811015614009578082015181840152602081019050613fee565b50505050905090810190601f1680156140365780820380516001836020036101000a031916815260200191505b509250505060405180910390fd5b5060008385039050809150509392505050565b600061409983836040518060400160405280601e81526020017f536166654d6174683a207375627472616374696f6e206f766572666c6f770000815250613f97565b905092915050565b6140ab8282613795565b614100576040517f08c379a00000000000000000000000000000000000000000000000000000000081526004018080602001828103825260218152602001806143546021913960400191505060405180910390fd5b60008260000160008373ffffffffffffffffffffffffffffffffffffffff1673ffffffffffffffffffffffffffffffffffffffff16815260200190815260200160002060006101000a81548160ff0219169083151502179055505050565b6141688282613795565b156141db576040517f08c379a000000000000000000000000000000000000000000000000000000000815260040180806020018281038252601f8152602001807f526f6c65733a206163636f756e7420616c72656164792068617320726f6c650081525060200191505060405180910390fd5b60018260000160008373ffffffffffffffffffffffffffffffffffffffff1673ffffffffffffffffffffffffffffffffffffffff16815260200190815260200160002060006101000a81548160ff021916908315150217905550505056fe636f6e6669726d6564207472616e7366657220616d6f756e7420657863656564732062616c616e6365626f6f6b6564207472616e7366657220616d6f756e7420657863656564732062616c616e636545524332303a206275726e20616d6f756e7420657863656564732062616c616e6365506175736572526f6c653a2063616c6c657220646f6573206e6f742068617665207468652050617573657220726f6c65626f6f6b6564207472616e736665722066726f6d20746865207a65726f206164647265737341206c697175696461c3a7c3a36f2073c3b3206ec3a36f20706f646520736572207265616c697a6164612070656c6f20656e64657265c3a76f20717565207375626d657465752061207472616e7361c3a7c3a36f526f6c65733a206163636f756e7420646f6573206e6f74206861766520726f6c65526f6c65733a206163636f756e7420697320746865207a65726f2061646472657373626f6f6b6564207472616e7366657220746f20746865207a65726f2061646472657373636f6e6669726d6564207472616e736665722066726f6d20746865207a65726f206164647265737345524332303a206275726e2066726f6d20746865207a65726f2061646472657373636f6e6669726d6564207472616e7366657220746f20746865207a65726f2061646472657373a265627a7a72315820ea06436f26894b91946cf58785fafa11c46460153a9f7b9ff857ba4a617de67a64736f6c63430005100032526f6c65733a206163636f756e7420697320746865207a65726f2061646472657373",
  "source": "pragma solidity ^0.5.0;\r\n\r\n//import './SafeMath.sol';\r\nimport './BNDESRegistry.sol';\r\nimport '@openzeppelin/contracts/lifecycle/Pausable.sol';\r\nimport '@openzeppelin/contracts/math/SafeMath.sol';\r\n\r\ncontract BNDESToken is Pausable {\r\n    using SafeMath for uint256;\r\n    \r\n    /* This table stores the intentions of donations */\r\n    mapping (address => uint256) public bookedBalances;\r\n    /* This table stores the real BNDESTokens for BNDES and its Clients */\r\n    mapping (address => uint256) public confirmedBalances;\r\n    /* The current amount composed by intentions of donations */\r\n    uint256 public bookedTotalSupply;\r\n    /* The current amount of BNDESTokens minted  */\r\n    uint256 public confirmedTotalSupply;\r\n    /* Number of decimals stored in balance's mappings */\r\n    uint8 public decimals;\r\n    \r\n    /* Higher level events */\r\n    event DonationBooked      (uint64 cnpj, uint256 amount);\r\n    event DonationConfirmed   (uint64 cnpj, uint256 amount, string docHash);\r\n    event Disbursement        (uint64 cnpj, uint256 amount, uint64 idFinancialSupportAgreement);\r\n    event RedemptionRequested (uint64 cnpj, uint256 amount, uint64 idFinancialSupportAgreement);\r\n    event RedemptionSettlement(string redemptionTransactionHash, string  receiptHash);\r\n    \r\n    event TransferBookedBalance(address from, address to, uint256 amount);    \r\n    event TransferConfirmedBalance(address from, address to, uint256 amount);    \r\n    event ManualIntervention(string description);\r\n    \r\n    BNDESRegistry registry;\r\n    \r\n    constructor (BNDESRegistry _registry, uint8 _decimals) public {\r\n        registry = BNDESRegistry(_registry);\r\n        decimals = _decimals;\r\n    }\r\n    \r\n    /* Donor books a donation */\r\n    function bookDonation(uint256 amount) public whenNotPaused onlyValidatedDonor {\r\n        address account = msg.sender;\r\n        bookedTotalSupply = bookedTotalSupply.add(amount);\r\n        bookedBalances[account] = bookedBalances[account].add(amount);\r\n        uint64 cnpj = registry.getCNPJ(account);\r\n        emit DonationBooked(cnpj, amount);\r\n    }\r\n    \r\n    /* BNDES confirms the donor's donation */\r\n    function confirmDonation(address account, uint256 amount, string memory docHash) public whenNotPaused onlyResponsibleForDonationConfirmation {\r\n        bookedTotalSupply = bookedTotalSupply.sub(amount);\r\n        confirmedTotalSupply = confirmedTotalSupply.add(amount);\r\n        \r\n        bookedBalances[account] = bookedBalances[account].sub(amount);\r\n        confirmedBalances[registry.getResponsibleForDisbursement()] = confirmedBalances[registry.getResponsibleForDisbursement()].add(amount);\r\n        uint64 cnpj = registry.getCNPJ(account);\r\n        emit DonationConfirmed(cnpj, amount, docHash);\r\n    }\r\n    \r\n    /* BNDES disbursement - transfer donations to a client */\r\n    function makeDisbursement(address client, uint256 amount) public whenNotPaused onlyResponsibleForDisbursement {\r\n        transferConfirmed(registry.getResponsibleForDisbursement(), client, amount);\r\n        uint64 cnpj = registry.getCNPJ(client);\r\n        uint64 idLegalFinancialAgreement = registry.getIdLegalFinancialAgreement(client);\r\n        emit Disbursement(cnpj, amount, idLegalFinancialAgreement);\r\n    }\r\n\r\n   /**\r\n    * When redeeming, the supplier indicated to the Resposible for Settlement that he wants to receive \r\n    * the FIAT money.\r\n    * @param amount - how much BNDESToken the supplier wants to redeem\r\n    */\r\n    function redeem (uint256 amount) public whenNotPaused returns (bool) {\r\n        address account = msg.sender;\r\n        require(account != address(0), \"burn from the zero address\");\r\n        confirmedBalances[account] = confirmedBalances[account].sub(amount, \"burn amount exceeds balance\");\r\n        confirmedTotalSupply = confirmedTotalSupply.sub(amount);             \r\n        uint64 idLegalFinancialAgreement = registry.getIdLegalFinancialAgreement(account);\r\n        uint64 cnpj = registry.getCNPJ(account);\r\n        emit RedemptionRequested(cnpj, amount, idLegalFinancialAgreement);        \r\n        return true;\r\n    }\r\n\r\n   /**\r\n    * Using this function, the Responsible for Settlement indicates that he has made the FIAT money transfer.\r\n    * @param redemptionTransactionHash hash of the redeem transaction in which the FIAT money settlement occurred.\r\n    * @param receiptHash hash that proof the FIAT money transfer\r\n    */\r\n    function notifyRedemptionSettlement(string memory redemptionTransactionHash, string memory receiptHash) \r\n        public whenNotPaused {\r\n        require (registry.isResponsibleForSettlement(msg.sender), \"A liquidao s no pode ser realizada pelo endereo que submeteu a transao\"); \r\n        require (registry.isValidHash(receiptHash), \"O hash do recibo  invlido\");\r\n        emit RedemptionSettlement(redemptionTransactionHash, receiptHash);\r\n    }    \r\n\r\n    /* BNDES transfers bookedBalances from a sender to a receiver */\r\n    function transferBooked(address sender, address recipient, uint256 amount) internal {\r\n        require(sender    != address(0), \"booked transfer from the zero address\");\r\n        require(recipient != address(0), \"booked transfer to the zero address\");\r\n\r\n        bookedBalances[sender]    = bookedBalances[sender].sub(amount, \"booked transfer amount exceeds balance\");\r\n        bookedBalances[recipient] = bookedBalances[recipient].add(amount);\r\n        emit TransferBookedBalance(sender, recipient, amount);\r\n    }\r\n\r\n    /* BNDES transfers confirmedBalances from a sender to a receiver */\r\n    function transferConfirmed(address sender, address recipient, uint256 amount) internal {\r\n        require(sender != address(0), \"confirmed transfer from the zero address\");\r\n        require(recipient != address(0), \"confirmed transfer to the zero address\");\r\n\r\n        confirmedBalances[sender]    = confirmedBalances[sender].sub(amount, \"confirmed transfer amount exceeds balance\");\r\n        confirmedBalances[recipient] = confirmedBalances[recipient].add(amount);\r\n        emit TransferConfirmedBalance(sender, recipient, amount);\r\n    }\r\n\r\n    //These methods may be necessary to solve incidents.\r\n    function mintBooked(address account, uint256 amount, string memory description) public onlyOwner {\r\n        require(account != address(0), \"ERC20: burn from the zero address\");\r\n        bookedBalances[account] = bookedBalances[account].add(amount);\r\n        bookedTotalSupply = bookedTotalSupply.add(amount);\r\n        emit ManualIntervention(description);        \r\n    }        \r\n    //These methods may be necessary to solve incidents.\r\n    function burnBooked(address account, uint256 amount, string memory description) public onlyOwner {\r\n        require(account != address(0), \"ERC20: burn from the zero address\");\r\n        bookedBalances[account] = bookedBalances[account].sub(amount, \"ERC20: burn amount exceeds balance\");\r\n        bookedTotalSupply = bookedTotalSupply.sub(amount);\r\n        emit ManualIntervention(description);        \r\n    }\r\n    //These methods may be necessary to solve incidents.\r\n    function mintConfirmed(address account, uint256 amount, string memory description) public onlyOwner {\r\n        require(account != address(0), \"ERC20: burn from the zero address\");\r\n        confirmedBalances[account] = confirmedBalances[account].add(amount);\r\n        confirmedTotalSupply = confirmedTotalSupply.add(amount);\r\n        emit ManualIntervention(description);        \r\n    }\r\n    //These methods may be necessary to solve incidents.\r\n    function burnConfirmed(address account, uint256 amount, string memory description) public onlyOwner {\r\n        require(account != address(0), \"ERC20: burn from the zero address\");\r\n        confirmedBalances[account] = confirmedBalances[account].sub(amount, \"ERC20: burn amount exceeds balance\");\r\n        confirmedTotalSupply = confirmedTotalSupply.sub(amount);\r\n        emit ManualIntervention(description);        \r\n    }   \r\n\r\n    function registryLegalEntity(uint64 cnpj, uint64 idFinancialSupportAgreement, string memory idProofHash) \r\n        public whenNotPaused { \r\n        registry.registryLegalEntity(cnpj,  idFinancialSupportAgreement, msg.sender, idProofHash);\r\n    }\r\n\r\n   /**\r\n    * Changes the original link between CNPJ and Ethereum account. \r\n    * The new link still needs to be validated by BNDES.\r\n    * IMPORTANT: The BNDESTOKENs are transfered from the original to the new Ethereum address \r\n    * @param cnpj Brazilian identifier to legal entities\r\n    * @param idFinancialSupportAgreement contract number of financial contract with BNDES. It assumes 0 if it is a supplier.\r\n    * @param idProofHash The legal entities have to send BNDES a PDF where it assumes as responsible for an Ethereum account. \r\n    *                   This PDF is signed with eCNPJ and send to BNDES. \r\n    */\r\n    function changeAccountLegalEntity(uint64 cnpj, uint64 idFinancialSupportAgreement, string memory idProofHash) \r\n        public whenNotPaused {\r\n        \r\n        address oldAddr = registry.getBlockchainAccount(cnpj, idFinancialSupportAgreement);\r\n        address newAddr = msg.sender;\r\n        \r\n        registry.changeAccountLegalEntity(cnpj, idFinancialSupportAgreement, msg.sender, idProofHash);\r\n\r\n        // Se h saldo no enderecoAntigo, precisa transferir\r\n        if (bookedBalances[oldAddr] > 0) {\r\n            transferBooked(oldAddr, newAddr, bookedBalances[oldAddr]);\r\n        }\r\n        if (confirmedBalances[oldAddr] > 0) {\r\n            transferConfirmed(oldAddr, newAddr, confirmedBalances[oldAddr]);\r\n        }        \r\n    }\r\n\r\n    function confirmedBalanceOf(address client) public view returns (uint256) {\r\n        return confirmedBalances[client];\r\n    }    \r\n\r\n    function bookedBalanceOf(address donor) public view returns (uint256) {\r\n        return bookedBalances[donor];\r\n    }        \r\n\r\n    function getBookedTotalSupply() public view returns (uint256) {\r\n        return bookedTotalSupply;\r\n    }        \r\n\r\n    function getConfirmedTotalSupply() public view returns (uint256) {\r\n        return confirmedTotalSupply;\r\n    } \r\n    \r\n    function getDecimals() public view returns (uint8) {\r\n        return decimals;\r\n    }    \r\n    \r\n    /*\r\n    modifier whenNotPaused() {\r\n        // FIXME: remove it when the import Pausable is available \r\n        _;\r\n    } */\r\n\r\n    modifier onlyResponsibleForDonationConfirmation() {\r\n        require(registry.isResponsibleForDonationConfirmation(msg.sender));        \r\n        _;\r\n    }\r\n    modifier onlyResponsibleForDisbursement() {\r\n        require(registry.isResponsibleForDisbursement(msg.sender));\r\n        _;\r\n    }\r\n    modifier onlyResponsibleForSettlement() {\r\n        require(registry.isResponsibleForSettlement(msg.sender));\r\n        _;\r\n    }\r\n    modifier onlyValidatedClient() {\r\n        require(registry.isValidatedClient(msg.sender));\r\n        _;\r\n    }\r\n    modifier onlyValidatedDonor() {\r\n        require(registry.isValidatedDonor(msg.sender));\r\n        _;\r\n    }\r\n    modifier onlyOwner() {\r\n        require(registry.isOwner());\r\n        _;\r\n    }    \r\n}\r\n\r\n/** \r\n\r\nlibrary SafeMath {\r\n\r\n    function add(uint256 a, uint256 b) internal pure returns (uint256) {\r\n        uint256 c = a + b;\r\n        require(c >= a, \"SafeMath: addition overflow\");\r\n\r\n        return c;\r\n    }\r\n\r\n    function sub(uint256 a, uint256 b) internal pure returns (uint256) {\r\n        return sub(a, b, \"SafeMath: subtraction overflow\");\r\n    }\r\n\r\n    function sub(uint256 a, uint256 b, string memory errorMessage) internal pure returns (uint256) {\r\n        require(b <= a, errorMessage);\r\n        uint256 c = a - b;\r\n\r\n        return c;\r\n    }\r\n\r\n    function mul(uint256 a, uint256 b) internal pure returns (uint256) {\r\n        // Gas optimization: this is cheaper than requiring 'a' not being zero, but the\r\n        // benefit is lost if 'b' is also tested.\r\n        // See: https://github.com/OpenZeppelin/openzeppelin-contracts/pull/522\r\n        if (a == 0) {\r\n            return 0;\r\n        }\r\n\r\n        uint256 c = a * b;\r\n        require(c / a == b, \"SafeMath: multiplication overflow\");\r\n\r\n        return c;\r\n    }\r\n\r\n    function div(uint256 a, uint256 b) internal pure returns (uint256) {\r\n        return div(a, b, \"SafeMath: division by zero\");\r\n    }\r\n\r\n    function div(uint256 a, uint256 b, string memory errorMessage) internal pure returns (uint256) {\r\n        // Solidity only automatically asserts when dividing by 0\r\n        require(b > 0, errorMessage);\r\n        uint256 c = a / b;\r\n        // assert(a == b * c + a % b); // There is no case in which this doesn't hold\r\n\r\n        return c;\r\n    }\r\n\r\n    function mod(uint256 a, uint256 b) internal pure returns (uint256) {\r\n        return mod(a, b, \"SafeMath: modulo by zero\");\r\n    }\r\n    \r\n    function mod(uint256 a, uint256 b, string memory errorMessage) internal pure returns (uint256) {\r\n        require(b != 0, errorMessage);\r\n        return a % b;\r\n    }\r\n}\r\n\r\n/**/",
  "sourcePath": "D:\\Workspace\\bndestoken-captacao\\Back-Blockchain\\contracts\\BNDESToken.sol",
  "compiler": {
    "name": "solc",
    "version": "0.5.16+commit.9c3226ce.Emscripten.clang"
  },
  "schemaVersion": "3.0.23",
  "updatedAt": "2020-03-06T15:01:08.920Z",
  "networkType": "ethereum",
  "devdoc": {
    "methods": {
      "changeAccountLegalEntity(uint64,uint64,string)": {
        "params": {
          "cnpj": "Brazilian identifier to legal entities",
          "idFinancialSupportAgreement": "contract number of financial contract with BNDES. It assumes 0 if it is a supplier.",
          "idProofHash": "The legal entities have to send BNDES a PDF where it assumes as responsible for an Ethereum account.                   This PDF is signed with eCNPJ and send to BNDES. "
        }
      },
      "notifyRedemptionSettlement(string,string)": {
        "params": {
          "receiptHash": "hash that proof the FIAT money transfer",
          "redemptionTransactionHash": "hash of the redeem transaction in which the FIAT money settlement occurred."
        }
      },
      "pause()": {
        "details": "Called by a pauser to pause, triggers stopped state."
      },
      "paused()": {
        "details": "Returns true if the contract is paused, and false otherwise."
      },
      "redeem(uint256)": {
        "params": {
          "amount": "- how much BNDESToken the supplier wants to redeem"
        }
      },
      "unpause()": {
        "details": "Called by a pauser to unpause, returns to normal state."
      }
    }
  },
  "userdoc": {
    "methods": {
      "changeAccountLegalEntity(uint64,uint64,string)": {
        "notice": "Changes the original link between CNPJ and Ethereum account.  The new link still needs to be validated by BNDES. IMPORTANT: The BNDESTOKENs are transfered from the original to the new Ethereum address "
      },
      "notifyRedemptionSettlement(string,string)": {
        "notice": "Using this function, the Responsible for Settlement indicates that he has made the FIAT money transfer."
      },
      "redeem(uint256)": {
        "notice": "When redeeming, the supplier indicated to the Resposible for Settlement that he wants to receive  the FIAT money."
      }
    }
  }
}