{
  "contractName": "BNDESToken",
  "abi": [
    {
      "inputs": [
        {
          "internalType": "contract BNDESRegistry",
          "name": "_registry",
          "type": "address"
        },
        {
          "internalType": "uint8",
          "name": "_decimals",
          "type": "uint8"
        }
      ],
      "payable": false,
      "stateMutability": "nonpayable",
      "type": "constructor"
    },
    {
      "anonymous": false,
      "inputs": [
        {
          "indexed": false,
          "internalType": "uint64",
          "name": "cnpj",
          "type": "uint64"
        },
        {
          "indexed": false,
          "internalType": "uint256",
          "name": "amount",
          "type": "uint256"
        },
        {
          "indexed": false,
          "internalType": "uint64",
          "name": "idFinancialSupportAgreement",
          "type": "uint64"
        }
      ],
      "name": "Disbursement",
      "type": "event"
    },
    {
      "anonymous": false,
      "inputs": [
        {
          "indexed": false,
          "internalType": "uint64",
          "name": "cnpj",
          "type": "uint64"
        },
        {
          "indexed": false,
          "internalType": "uint256",
          "name": "amount",
          "type": "uint256"
        }
      ],
      "name": "DonationBooked",
      "type": "event"
    },
    {
      "anonymous": false,
      "inputs": [
        {
          "indexed": false,
          "internalType": "uint64",
          "name": "cnpj",
          "type": "uint64"
        },
        {
          "indexed": false,
          "internalType": "uint256",
          "name": "amount",
          "type": "uint256"
        }
      ],
      "name": "DonationConfirmed",
      "type": "event"
    },
    {
      "anonymous": false,
      "inputs": [
        {
          "indexed": false,
          "internalType": "address",
          "name": "account",
          "type": "address"
        }
      ],
      "name": "Paused",
      "type": "event"
    },
    {
      "anonymous": false,
      "inputs": [
        {
          "indexed": true,
          "internalType": "address",
          "name": "account",
          "type": "address"
        }
      ],
      "name": "PauserAdded",
      "type": "event"
    },
    {
      "anonymous": false,
      "inputs": [
        {
          "indexed": true,
          "internalType": "address",
          "name": "account",
          "type": "address"
        }
      ],
      "name": "PauserRemoved",
      "type": "event"
    },
    {
      "anonymous": false,
      "inputs": [
        {
          "indexed": false,
          "internalType": "uint64",
          "name": "cnpj",
          "type": "uint64"
        },
        {
          "indexed": false,
          "internalType": "uint256",
          "name": "amount",
          "type": "uint256"
        },
        {
          "indexed": false,
          "internalType": "uint64",
          "name": "idFinancialSupportAgreement",
          "type": "uint64"
        }
      ],
      "name": "RedemptionRequested",
      "type": "event"
    },
    {
      "anonymous": false,
      "inputs": [
        {
          "indexed": false,
          "internalType": "string",
          "name": "redemptionTransactionHash",
          "type": "string"
        },
        {
          "indexed": false,
          "internalType": "string",
          "name": "receiptHash",
          "type": "string"
        }
      ],
      "name": "RedemptionSettlement",
      "type": "event"
    },
    {
      "anonymous": false,
      "inputs": [
        {
          "indexed": false,
          "internalType": "address",
          "name": "from",
          "type": "address"
        },
        {
          "indexed": false,
          "internalType": "address",
          "name": "to",
          "type": "address"
        },
        {
          "indexed": false,
          "internalType": "uint256",
          "name": "amount",
          "type": "uint256"
        }
      ],
      "name": "Transfer",
      "type": "event"
    },
    {
      "anonymous": false,
      "inputs": [
        {
          "indexed": false,
          "internalType": "address",
          "name": "account",
          "type": "address"
        }
      ],
      "name": "Unpaused",
      "type": "event"
    },
    {
      "constant": false,
      "inputs": [
        {
          "internalType": "address",
          "name": "account",
          "type": "address"
        }
      ],
      "name": "addPauser",
      "outputs": [],
      "payable": false,
      "stateMutability": "nonpayable",
      "type": "function"
    },
    {
      "constant": true,
      "inputs": [
        {
          "internalType": "address",
          "name": "",
          "type": "address"
        }
      ],
      "name": "bookedBalances",
      "outputs": [
        {
          "internalType": "uint256",
          "name": "",
          "type": "uint256"
        }
      ],
      "payable": false,
      "stateMutability": "view",
      "type": "function"
    },
    {
      "constant": true,
      "inputs": [],
      "name": "bookedTotalSupply",
      "outputs": [
        {
          "internalType": "uint256",
          "name": "",
          "type": "uint256"
        }
      ],
      "payable": false,
      "stateMutability": "view",
      "type": "function"
    },
    {
      "constant": true,
      "inputs": [
        {
          "internalType": "address",
          "name": "",
          "type": "address"
        }
      ],
      "name": "confirmedBalances",
      "outputs": [
        {
          "internalType": "uint256",
          "name": "",
          "type": "uint256"
        }
      ],
      "payable": false,
      "stateMutability": "view",
      "type": "function"
    },
    {
      "constant": true,
      "inputs": [],
      "name": "confirmedTotalSupply",
      "outputs": [
        {
          "internalType": "uint256",
          "name": "",
          "type": "uint256"
        }
      ],
      "payable": false,
      "stateMutability": "view",
      "type": "function"
    },
    {
      "constant": true,
      "inputs": [],
      "name": "decimals",
      "outputs": [
        {
          "internalType": "uint8",
          "name": "",
          "type": "uint8"
        }
      ],
      "payable": false,
      "stateMutability": "view",
      "type": "function"
    },
    {
      "constant": true,
      "inputs": [
        {
          "internalType": "address",
          "name": "account",
          "type": "address"
        }
      ],
      "name": "isPauser",
      "outputs": [
        {
          "internalType": "bool",
          "name": "",
          "type": "bool"
        }
      ],
      "payable": false,
      "stateMutability": "view",
      "type": "function"
    },
    {
      "constant": false,
      "inputs": [],
      "name": "pause",
      "outputs": [],
      "payable": false,
      "stateMutability": "nonpayable",
      "type": "function"
    },
    {
      "constant": true,
      "inputs": [],
      "name": "paused",
      "outputs": [
        {
          "internalType": "bool",
          "name": "",
          "type": "bool"
        }
      ],
      "payable": false,
      "stateMutability": "view",
      "type": "function"
    },
    {
      "constant": false,
      "inputs": [],
      "name": "renouncePauser",
      "outputs": [],
      "payable": false,
      "stateMutability": "nonpayable",
      "type": "function"
    },
    {
      "constant": false,
      "inputs": [],
      "name": "unpause",
      "outputs": [],
      "payable": false,
      "stateMutability": "nonpayable",
      "type": "function"
    },
    {
      "constant": false,
      "inputs": [
        {
          "internalType": "uint256",
          "name": "amount",
          "type": "uint256"
        }
      ],
      "name": "bookDonation",
      "outputs": [],
      "payable": false,
      "stateMutability": "nonpayable",
      "type": "function"
    },
    {
      "constant": false,
      "inputs": [
        {
          "internalType": "address",
          "name": "account",
          "type": "address"
        },
        {
          "internalType": "uint256",
          "name": "amount",
          "type": "uint256"
        }
      ],
      "name": "confirmDonation",
      "outputs": [],
      "payable": false,
      "stateMutability": "nonpayable",
      "type": "function"
    },
    {
      "constant": false,
      "inputs": [
        {
          "internalType": "address",
          "name": "client",
          "type": "address"
        },
        {
          "internalType": "uint256",
          "name": "amount",
          "type": "uint256"
        }
      ],
      "name": "makeDisbursement",
      "outputs": [],
      "payable": false,
      "stateMutability": "nonpayable",
      "type": "function"
    },
    {
      "constant": false,
      "inputs": [
        {
          "internalType": "uint256",
          "name": "amount",
          "type": "uint256"
        }
      ],
      "name": "redeem",
      "outputs": [
        {
          "internalType": "bool",
          "name": "",
          "type": "bool"
        }
      ],
      "payable": false,
      "stateMutability": "nonpayable",
      "type": "function"
    },
    {
      "constant": false,
      "inputs": [
        {
          "internalType": "string",
          "name": "redemptionTransactionHash",
          "type": "string"
        },
        {
          "internalType": "string",
          "name": "receiptHash",
          "type": "string"
        }
      ],
      "name": "notifyRedemptionSettlement",
      "outputs": [],
      "payable": false,
      "stateMutability": "nonpayable",
      "type": "function"
    },
    {
      "constant": false,
      "inputs": [
        {
          "internalType": "uint64",
          "name": "cnpj",
          "type": "uint64"
        },
        {
          "internalType": "uint64",
          "name": "idFinancialSupportAgreement",
          "type": "uint64"
        },
        {
          "internalType": "string",
          "name": "idProofHash",
          "type": "string"
        }
      ],
      "name": "registryLegalEntity",
      "outputs": [],
      "payable": false,
      "stateMutability": "nonpayable",
      "type": "function"
    },
    {
      "constant": false,
      "inputs": [
        {
          "internalType": "uint64",
          "name": "cnpj",
          "type": "uint64"
        },
        {
          "internalType": "uint64",
          "name": "idFinancialSupportAgreement",
          "type": "uint64"
        },
        {
          "internalType": "string",
          "name": "idProofHash",
          "type": "string"
        }
      ],
      "name": "changeAccountLegalEntity",
      "outputs": [],
      "payable": false,
      "stateMutability": "nonpayable",
      "type": "function"
    },
    {
      "constant": true,
      "inputs": [
        {
          "internalType": "address",
          "name": "client",
          "type": "address"
        }
      ],
      "name": "confirmedBalanceOf",
      "outputs": [
        {
          "internalType": "uint256",
          "name": "",
          "type": "uint256"
        }
      ],
      "payable": false,
      "stateMutability": "view",
      "type": "function"
    },
    {
      "constant": true,
      "inputs": [
        {
          "internalType": "address",
          "name": "donor",
          "type": "address"
        }
      ],
      "name": "bookedBalanceOf",
      "outputs": [
        {
          "internalType": "uint256",
          "name": "",
          "type": "uint256"
        }
      ],
      "payable": false,
      "stateMutability": "view",
      "type": "function"
    },
    {
      "constant": true,
      "inputs": [],
      "name": "getBookedTotalSupply",
      "outputs": [
        {
          "internalType": "uint256",
          "name": "",
          "type": "uint256"
        }
      ],
      "payable": false,
      "stateMutability": "view",
      "type": "function"
    },
    {
      "constant": true,
      "inputs": [],
      "name": "getConfirmedTotalSupply",
      "outputs": [
        {
          "internalType": "uint256",
          "name": "",
          "type": "uint256"
        }
      ],
      "payable": false,
      "stateMutability": "view",
      "type": "function"
    },
    {
      "constant": true,
      "inputs": [],
      "name": "getDecimals",
      "outputs": [
        {
          "internalType": "uint8",
          "name": "",
          "type": "uint8"
        }
      ],
      "payable": false,
      "stateMutability": "view",
      "type": "function"
    }
  ],
  "bytecode": "0x60806040523480156200001157600080fd5b506040516200342038038062003420833981810160405260408110156200003757600080fd5b8101908080519060200190929190805190602001909291905050506200007262000066620000f160201b60201c565b620000f960201b60201c565b6000600160006101000a81548160ff02191690831515021790555081600660016101000a81548173ffffffffffffffffffffffffffffffffffffffff021916908373ffffffffffffffffffffffffffffffffffffffff16021790555080600660006101000a81548160ff021916908360ff16021790555050506200031e565b600033905090565b620001148160006200015a60201b62002ef91790919060201c565b8073ffffffffffffffffffffffffffffffffffffffff167f6719d08c1888103bea251a4ed56406bd0c3e69723c8a1686e017e7bbe159b6f860405160405180910390a250565b6200016c82826200023e60201b60201c565b15620001e0576040517f08c379a000000000000000000000000000000000000000000000000000000000815260040180806020018281038252601f8152602001807f526f6c65733a206163636f756e7420616c72656164792068617320726f6c650081525060200191505060405180910390fd5b60018260000160008373ffffffffffffffffffffffffffffffffffffffff1673ffffffffffffffffffffffffffffffffffffffff16815260200190815260200160002060006101000a81548160ff0219169083151502179055505050565b60008073ffffffffffffffffffffffffffffffffffffffff168273ffffffffffffffffffffffffffffffffffffffff161415620002c7576040517f08c379a0000000000000000000000000000000000000000000000000000000008152600401808060200182810382526022815260200180620033fe6022913960400191505060405180910390fd5b8260000160008373ffffffffffffffffffffffffffffffffffffffff1673ffffffffffffffffffffffffffffffffffffffff16815260200190815260200160002060009054906101000a900460ff16905092915050565b6130d0806200032e6000396000f3fe608060405234801561001057600080fd5b506004361061014d5760003560e01c80637b850cc6116100c3578063a79a8b2d1161007c578063a79a8b2d14610693578063c5dee09b146106c1578063cb09e94c146106df578063db006a75146107c2578063f0141d8414610808578063f259fe1e1461082c5761014d565b80637b850cc61461036a57806382dc1ec4146103c25780638456cb591461040657806387cf642314610410578063890fc54a14610562578063a4b1484b146106455761014d565b8063575e5c0211610115578063575e5c02146102185780635c975abb14610270578063613c33be1461029257806365572c8a146102b057806369742aa8146103085780636ef8d66d146103605761014d565b806313d95b54146101525780631879fb9d14610170578063313ce5671461018e5780633f4ba83a146101b257806346fbf68e146101bc575b600080fd5b61015a61087a565b6040518082815260200191505060405180910390f35b610178610880565b6040518082815260200191505060405180910390f35b610196610886565b604051808260ff1660ff16815260200191505060405180910390f35b6101ba610899565b005b6101fe600480360360208110156101d257600080fd5b81019080803573ffffffffffffffffffffffffffffffffffffffff169060200190929190505050610a07565b604051808215151515815260200191505060405180910390f35b61025a6004803603602081101561022e57600080fd5b81019080803573ffffffffffffffffffffffffffffffffffffffff169060200190929190505050610a24565b6040518082815260200191505060405180910390f35b610278610a3c565b604051808215151515815260200191505060405180910390f35b61029a610a53565b6040518082815260200191505060405180910390f35b6102f2600480360360208110156102c657600080fd5b81019080803573ffffffffffffffffffffffffffffffffffffffff169060200190929190505050610a5d565b6040518082815260200191505060405180910390f35b61034a6004803603602081101561031e57600080fd5b81019080803573ffffffffffffffffffffffffffffffffffffffff169060200190929190505050610aa6565b6040518082815260200191505060405180910390f35b610368610abe565b005b6103ac6004803603602081101561038057600080fd5b81019080803573ffffffffffffffffffffffffffffffffffffffff169060200190929190505050610ad0565b6040518082815260200191505060405180910390f35b610404600480360360208110156103d857600080fd5b81019080803573ffffffffffffffffffffffffffffffffffffffff169060200190929190505050610b19565b005b61040e610b8a565b005b6105606004803603604081101561042657600080fd5b810190808035906020019064010000000081111561044357600080fd5b82018360208201111561045557600080fd5b8035906020019184600183028401116401000000008311171561047757600080fd5b91908080601f016020809104026020016040519081016040528093929190818152602001838380828437600081840152601f19601f820116905080830192505050505050509192919290803590602001906401000000008111156104da57600080fd5b8201836020820111156104ec57600080fd5b8035906020019184600183028401116401000000008311171561050e57600080fd5b91908080601f016020809104026020016040519081016040528093929190818152602001838380828437600081840152601f19601f820116905080830192505050505050509192919290505050610cf8565b005b6106436004803603606081101561057857600080fd5b81019080803567ffffffffffffffff169060200190929190803567ffffffffffffffff169060200190929190803590602001906401000000008111156105bd57600080fd5b8201836020820111156105cf57600080fd5b803590602001918460018302840111640100000000831117156105f157600080fd5b91908080601f016020809104026020016040519081016040528093929190818152602001838380828437600081840152601f19601f82011690508083019250505050505050919291929050505061113c565b005b6106916004803603604081101561065b57600080fd5b81019080803573ffffffffffffffffffffffffffffffffffffffff1690602001909291908035906020019092919050505061149e565b005b6106bf600480360360208110156106a957600080fd5b81019080803590602001909291905050506118e2565b005b6106c9611c33565b6040518082815260200191505060405180910390f35b6107c0600480360360608110156106f557600080fd5b81019080803567ffffffffffffffff169060200190929190803567ffffffffffffffff1690602001909291908035906020019064010000000081111561073a57600080fd5b82018360208201111561074c57600080fd5b8035906020019184600183028401116401000000008311171561076e57600080fd5b91908080601f016020809104026020016040519081016040528093929190818152602001838380828437600081840152601f19601f820116905080830192505050505050509192919290505050611c3d565b005b6107ee600480360360208110156107d857600080fd5b8101908080359060200190929190505050611e23565b604051808215151515815260200191505060405180910390f35b61081061226e565b604051808260ff1660ff16815260200191505060405180910390f35b6108786004803603604081101561084257600080fd5b81019080803573ffffffffffffffffffffffffffffffffffffffff16906020019092919080359060200190929190505050612285565b005b60045481565b60055481565b600660009054906101000a900460ff1681565b6108a96108a46127c5565b610a07565b6108fe576040517f08c379a0000000000000000000000000000000000000000000000000000000008152600401808060200182810382526030815260200180612fd56030913960400191505060405180910390fd5b600160009054906101000a900460ff16610980576040517f08c379a00000000000000000000000000000000000000000000000000000000081526004018080602001828103825260148152602001807f5061757361626c653a206e6f742070617573656400000000000000000000000081525060200191505060405180910390fd5b6000600160006101000a81548160ff0219169083151502179055507f5db9ee0a495bf2e6ff9c91a7834c1ba4fdd244a5e8aa4e537bd38aeae4b073aa6109c46127c5565b604051808273ffffffffffffffffffffffffffffffffffffffff1673ffffffffffffffffffffffffffffffffffffffff16815260200191505060405180910390a1565b6000610a1d8260006127cd90919063ffffffff16565b9050919050565b60026020528060005260406000206000915090505481565b6000600160009054906101000a900460ff16905090565b6000600454905090565b6000600360008373ffffffffffffffffffffffffffffffffffffffff1673ffffffffffffffffffffffffffffffffffffffff168152602001908152602001600020549050919050565b60036020528060005260406000206000915090505481565b610ace610ac96127c5565b6128ab565b565b6000600260008373ffffffffffffffffffffffffffffffffffffffff1673ffffffffffffffffffffffffffffffffffffffff168152602001908152602001600020549050919050565b610b29610b246127c5565b610a07565b610b7e576040517f08c379a0000000000000000000000000000000000000000000000000000000008152600401808060200182810382526030815260200180612fd56030913960400191505060405180910390fd5b610b8781612905565b50565b610b9a610b956127c5565b610a07565b610bef576040517f08c379a0000000000000000000000000000000000000000000000000000000008152600401808060200182810382526030815260200180612fd56030913960400191505060405180910390fd5b600160009054906101000a900460ff1615610c72576040517f08c379a00000000000000000000000000000000000000000000000000000000081526004018080602001828103825260108152602001807f5061757361626c653a207061757365640000000000000000000000000000000081525060200191505060405180910390fd5b60018060006101000a81548160ff0219169083151502179055507f62e78cea01bee320cd4e420270b5ea74000d11b0c9f74754ebdbfc544b05a258610cb56127c5565b604051808273ffffffffffffffffffffffffffffffffffffffff1673ffffffffffffffffffffffffffffffffffffffff16815260200191505060405180910390a1565b600160009054906101000a900460ff1615610d7b576040517f08c379a00000000000000000000000000000000000000000000000000000000081526004018080602001828103825260108152602001807f5061757361626c653a207061757365640000000000000000000000000000000081525060200191505060405180910390fd5b600660019054906101000a900473ffffffffffffffffffffffffffffffffffffffff1673ffffffffffffffffffffffffffffffffffffffff166385fecf9b336040518263ffffffff1660e01b8152600401808273ffffffffffffffffffffffffffffffffffffffff1673ffffffffffffffffffffffffffffffffffffffff16815260200191505060206040518083038186803b158015610e1a57600080fd5b505afa158015610e2e573d6000803e3d6000fd5b505050506040513d6020811015610e4457600080fd5b8101908080519060200190929190505050610eaa576040517f08c379a00000000000000000000000000000000000000000000000000000000081526004018080602001828103825260548152602001806130056054913960600191505060405180910390fd5b600660019054906101000a900473ffffffffffffffffffffffffffffffffffffffff1673ffffffffffffffffffffffffffffffffffffffff16636edcb12f826040518263ffffffff1660e01b81526004018080602001828103825283818151815260200191508051906020019080838360005b83811015610f38578082015181840152602081019050610f1d565b50505050905090810190601f168015610f655780820380516001836020036101000a031916815260200191505b509250505060206040518083038186803b158015610f8257600080fd5b505afa158015610f96573d6000803e3d6000fd5b505050506040513d6020811015610fac57600080fd5b810190808051906020019092919050505061102f576040517f08c379a000000000000000000000000000000000000000000000000000000000815260040180806020018281038252601d8152602001807f4f206861736820646f2072656369626f20c3a920696e76c3a16c69646f00000081525060200191505060405180910390fd5b7fc5c85710ca450311aa550ba9b7404810c70a332cda36f77ae18faa406acb12388282604051808060200180602001838103835285818151815260200191508051906020019080838360005b8381101561109657808201518184015260208101905061107b565b50505050905090810190601f1680156110c35780820380516001836020036101000a031916815260200191505b50838103825284818151815260200191508051906020019080838360005b838110156110fc5780820151818401526020810190506110e1565b50505050905090810190601f1680156111295780820380516001836020036101000a031916815260200191505b5094505050505060405180910390a15050565b600160009054906101000a900460ff16156111bf576040517f08c379a00000000000000000000000000000000000000000000000000000000081526004018080602001828103825260108152602001807f5061757361626c653a207061757365640000000000000000000000000000000081525060200191505060405180910390fd5b6000600660019054906101000a900473ffffffffffffffffffffffffffffffffffffffff1673ffffffffffffffffffffffffffffffffffffffff16633933384985856040518363ffffffff1660e01b8152600401808367ffffffffffffffff1667ffffffffffffffff1681526020018267ffffffffffffffff1667ffffffffffffffff1681526020019250505060206040518083038186803b15801561126457600080fd5b505afa158015611278573d6000803e3d6000fd5b505050506040513d602081101561128e57600080fd5b810190808051906020019092919050505090506000339050600660019054906101000a900473ffffffffffffffffffffffffffffffffffffffff1673ffffffffffffffffffffffffffffffffffffffff16633d6e154e868633876040518563ffffffff1660e01b8152600401808567ffffffffffffffff1667ffffffffffffffff1681526020018467ffffffffffffffff1667ffffffffffffffff1681526020018373ffffffffffffffffffffffffffffffffffffffff1673ffffffffffffffffffffffffffffffffffffffff16815260200180602001828103825283818151815260200191508051906020019080838360005b8381101561139d578082015181840152602081019050611382565b50505050905090810190601f1680156113ca5780820380516001836020036101000a031916815260200191505b5095505050505050600060405180830381600087803b1580156113ec57600080fd5b505af1158015611400573d6000803e3d6000fd5b505050506000600360008473ffffffffffffffffffffffffffffffffffffffff1673ffffffffffffffffffffffffffffffffffffffff168152602001908152602001600020541115611497576114968282600360008673ffffffffffffffffffffffffffffffffffffffff1673ffffffffffffffffffffffffffffffffffffffff1681526020019081526020016000205461295f565b5b5050505050565b600160009054906101000a900460ff1615611521576040517f08c379a00000000000000000000000000000000000000000000000000000000081526004018080602001828103825260108152602001807f5061757361626c653a207061757365640000000000000000000000000000000081525060200191505060405180910390fd5b600660019054906101000a900473ffffffffffffffffffffffffffffffffffffffff1673ffffffffffffffffffffffffffffffffffffffff16634add3110336040518263ffffffff1660e01b8152600401808273ffffffffffffffffffffffffffffffffffffffff1673ffffffffffffffffffffffffffffffffffffffff16815260200191505060206040518083038186803b1580156115c057600080fd5b505afa1580156115d4573d6000803e3d6000fd5b505050506040513d60208110156115ea57600080fd5b810190808051906020019092919050505061160457600080fd5b6116b1600660019054906101000a900473ffffffffffffffffffffffffffffffffffffffff1673ffffffffffffffffffffffffffffffffffffffff166357cdcb3e6040518163ffffffff1660e01b815260040160206040518083038186803b15801561166f57600080fd5b505afa158015611683573d6000803e3d6000fd5b505050506040513d602081101561169957600080fd5b8101908080519060200190929190505050838361295f565b6000600660019054906101000a900473ffffffffffffffffffffffffffffffffffffffff1673ffffffffffffffffffffffffffffffffffffffff1663be49b78d846040518263ffffffff1660e01b8152600401808273ffffffffffffffffffffffffffffffffffffffff1673ffffffffffffffffffffffffffffffffffffffff16815260200191505060206040518083038186803b15801561175257600080fd5b505afa158015611766573d6000803e3d6000fd5b505050506040513d602081101561177c57600080fd5b810190808051906020019092919050505090506000600660019054906101000a900473ffffffffffffffffffffffffffffffffffffffff1673ffffffffffffffffffffffffffffffffffffffff1663876c6e9b856040518263ffffffff1660e01b8152600401808273ffffffffffffffffffffffffffffffffffffffff1673ffffffffffffffffffffffffffffffffffffffff16815260200191505060206040518083038186803b15801561183057600080fd5b505afa158015611844573d6000803e3d6000fd5b505050506040513d602081101561185a57600080fd5b810190808051906020019092919050505090507f20c2bda137f2ae008499959b7a73e3642d9aeb79b381813dae258a0303a4df93828483604051808467ffffffffffffffff1667ffffffffffffffff1681526020018381526020018267ffffffffffffffff1667ffffffffffffffff168152602001935050505060405180910390a150505050565b600160009054906101000a900460ff1615611965576040517f08c379a00000000000000000000000000000000000000000000000000000000081526004018080602001828103825260108152602001807f5061757361626c653a207061757365640000000000000000000000000000000081525060200191505060405180910390fd5b600660019054906101000a900473ffffffffffffffffffffffffffffffffffffffff1673ffffffffffffffffffffffffffffffffffffffff1663f50cd96b336040518263ffffffff1660e01b8152600401808273ffffffffffffffffffffffffffffffffffffffff1673ffffffffffffffffffffffffffffffffffffffff16815260200191505060206040518083038186803b158015611a0457600080fd5b505afa158015611a18573d6000803e3d6000fd5b505050506040513d6020811015611a2e57600080fd5b8101908080519060200190929190505050611a4857600080fd5b6000339050611a6282600454612caa90919063ffffffff16565b600481905550611aba82600260008473ffffffffffffffffffffffffffffffffffffffff1673ffffffffffffffffffffffffffffffffffffffff16815260200190815260200160002054612caa90919063ffffffff16565b600260008373ffffffffffffffffffffffffffffffffffffffff1673ffffffffffffffffffffffffffffffffffffffff168152602001908152602001600020819055506000600660019054906101000a900473ffffffffffffffffffffffffffffffffffffffff1673ffffffffffffffffffffffffffffffffffffffff1663be49b78d836040518263ffffffff1660e01b8152600401808273ffffffffffffffffffffffffffffffffffffffff1673ffffffffffffffffffffffffffffffffffffffff16815260200191505060206040518083038186803b158015611b9e57600080fd5b505afa158015611bb2573d6000803e3d6000fd5b505050506040513d6020811015611bc857600080fd5b810190808051906020019092919050505090507fe2ca6588fe810f0a29b60c9ce89e496936de73496911954f13d5b43dfbb3f0788184604051808367ffffffffffffffff1667ffffffffffffffff1681526020018281526020019250505060405180910390a1505050565b6000600554905090565b600160009054906101000a900460ff1615611cc0576040517f08c379a00000000000000000000000000000000000000000000000000000000081526004018080602001828103825260108152602001807f5061757361626c653a207061757365640000000000000000000000000000000081525060200191505060405180910390fd5b600660019054906101000a900473ffffffffffffffffffffffffffffffffffffffff1673ffffffffffffffffffffffffffffffffffffffff166356eb8510848433856040518563ffffffff1660e01b8152600401808567ffffffffffffffff1667ffffffffffffffff1681526020018467ffffffffffffffff1667ffffffffffffffff1681526020018373ffffffffffffffffffffffffffffffffffffffff1673ffffffffffffffffffffffffffffffffffffffff16815260200180602001828103825283818151815260200191508051906020019080838360005b83811015611db7578082015181840152602081019050611d9c565b50505050905090810190601f168015611de45780820380516001836020036101000a031916815260200191505b5095505050505050600060405180830381600087803b158015611e0657600080fd5b505af1158015611e1a573d6000803e3d6000fd5b50505050505050565b6000600160009054906101000a900460ff1615611ea8576040517f08c379a00000000000000000000000000000000000000000000000000000000081526004018080602001828103825260108152602001807f5061757361626c653a207061757365640000000000000000000000000000000081525060200191505060405180910390fd5b6000339050600073ffffffffffffffffffffffffffffffffffffffff168173ffffffffffffffffffffffffffffffffffffffff161415611f50576040517f08c379a000000000000000000000000000000000000000000000000000000000815260040180806020018281038252601a8152602001807f6275726e2066726f6d20746865207a65726f206164647265737300000000000081525060200191505060405180910390fd5b611fd9836040518060400160405280601b81526020017f6275726e20616d6f756e7420657863656564732062616c616e63650000000000815250600360008573ffffffffffffffffffffffffffffffffffffffff1673ffffffffffffffffffffffffffffffffffffffff16815260200190815260200160002054612d329092919063ffffffff16565b600360008373ffffffffffffffffffffffffffffffffffffffff1673ffffffffffffffffffffffffffffffffffffffff1681526020019081526020016000208190555061203183600554612df290919063ffffffff16565b6005819055506000600660019054906101000a900473ffffffffffffffffffffffffffffffffffffffff1673ffffffffffffffffffffffffffffffffffffffff1663876c6e9b836040518263ffffffff1660e01b8152600401808273ffffffffffffffffffffffffffffffffffffffff1673ffffffffffffffffffffffffffffffffffffffff16815260200191505060206040518083038186803b1580156120d857600080fd5b505afa1580156120ec573d6000803e3d6000fd5b505050506040513d602081101561210257600080fd5b810190808051906020019092919050505090506000600660019054906101000a900473ffffffffffffffffffffffffffffffffffffffff1673ffffffffffffffffffffffffffffffffffffffff1663be49b78d846040518263ffffffff1660e01b8152600401808273ffffffffffffffffffffffffffffffffffffffff1673ffffffffffffffffffffffffffffffffffffffff16815260200191505060206040518083038186803b1580156121b657600080fd5b505afa1580156121ca573d6000803e3d6000fd5b505050506040513d60208110156121e057600080fd5b810190808051906020019092919050505090507f47cec4837b2a0b7e6ef1b6811796fe0f3d71b938b87d1acb1c4033d5e7c375f2818684604051808467ffffffffffffffff1667ffffffffffffffff1681526020018381526020018267ffffffffffffffff1667ffffffffffffffff168152602001935050505060405180910390a160019350505050919050565b6000600660009054906101000a900460ff16905090565b600160009054906101000a900460ff1615612308576040517f08c379a00000000000000000000000000000000000000000000000000000000081526004018080602001828103825260108152602001807f5061757361626c653a207061757365640000000000000000000000000000000081525060200191505060405180910390fd5b600660019054906101000a900473ffffffffffffffffffffffffffffffffffffffff1673ffffffffffffffffffffffffffffffffffffffff16635b072a50336040518263ffffffff1660e01b8152600401808273ffffffffffffffffffffffffffffffffffffffff1673ffffffffffffffffffffffffffffffffffffffff16815260200191505060206040518083038186803b1580156123a757600080fd5b505afa1580156123bb573d6000803e3d6000fd5b505050506040513d60208110156123d157600080fd5b81019080805190602001909291905050506123eb57600080fd5b61240081600454612df290919063ffffffff16565b60048190555061241b81600554612caa90919063ffffffff16565b60058190555061247381600260008573ffffffffffffffffffffffffffffffffffffffff1673ffffffffffffffffffffffffffffffffffffffff16815260200190815260200160002054612df290919063ffffffff16565b600260008473ffffffffffffffffffffffffffffffffffffffff1673ffffffffffffffffffffffffffffffffffffffff168152602001908152602001600020819055506125aa8160036000600660019054906101000a900473ffffffffffffffffffffffffffffffffffffffff1673ffffffffffffffffffffffffffffffffffffffff166357cdcb3e6040518163ffffffff1660e01b815260040160206040518083038186803b15801561252657600080fd5b505afa15801561253a573d6000803e3d6000fd5b505050506040513d602081101561255057600080fd5b810190808051906020019092919050505073ffffffffffffffffffffffffffffffffffffffff1673ffffffffffffffffffffffffffffffffffffffff16815260200190815260200160002054612caa90919063ffffffff16565b60036000600660019054906101000a900473ffffffffffffffffffffffffffffffffffffffff1673ffffffffffffffffffffffffffffffffffffffff166357cdcb3e6040518163ffffffff1660e01b815260040160206040518083038186803b15801561261657600080fd5b505afa15801561262a573d6000803e3d6000fd5b505050506040513d602081101561264057600080fd5b810190808051906020019092919050505073ffffffffffffffffffffffffffffffffffffffff1673ffffffffffffffffffffffffffffffffffffffff168152602001908152602001600020819055506000600660019054906101000a900473ffffffffffffffffffffffffffffffffffffffff1673ffffffffffffffffffffffffffffffffffffffff1663be49b78d846040518263ffffffff1660e01b8152600401808273ffffffffffffffffffffffffffffffffffffffff1673ffffffffffffffffffffffffffffffffffffffff16815260200191505060206040518083038186803b15801561273057600080fd5b505afa158015612744573d6000803e3d6000fd5b505050506040513d602081101561275a57600080fd5b810190808051906020019092919050505090507f7b86174c7fe1743e8d5161e3dc7f0d0bee1efca3ec4def3ed87e37569ed1f40f8183604051808367ffffffffffffffff1667ffffffffffffffff1681526020018281526020019250505060405180910390a1505050565b600033905090565b60008073ffffffffffffffffffffffffffffffffffffffff168273ffffffffffffffffffffffffffffffffffffffff161415612854576040517f08c379a000000000000000000000000000000000000000000000000000000000815260040180806020018281038252602281526020018061307a6022913960400191505060405180910390fd5b8260000160008373ffffffffffffffffffffffffffffffffffffffff1673ffffffffffffffffffffffffffffffffffffffff16815260200190815260200160002060009054906101000a900460ff16905092915050565b6128bf816000612e3c90919063ffffffff16565b8073ffffffffffffffffffffffffffffffffffffffff167fcd265ebaf09df2871cc7bd4133404a235ba12eff2041bb89d9c714a2621c7c7e60405160405180910390a250565b612919816000612ef990919063ffffffff16565b8073ffffffffffffffffffffffffffffffffffffffff167f6719d08c1888103bea251a4ed56406bd0c3e69723c8a1686e017e7bbe159b6f860405160405180910390a250565b600073ffffffffffffffffffffffffffffffffffffffff168373ffffffffffffffffffffffffffffffffffffffff161415612a02576040517f08c379a000000000000000000000000000000000000000000000000000000000815260040180806020018281038252601e8152602001807f7472616e736665722066726f6d20746865207a65726f2061646472657373000081525060200191505060405180910390fd5b600073ffffffffffffffffffffffffffffffffffffffff168273ffffffffffffffffffffffffffffffffffffffff161415612aa5576040517f08c379a000000000000000000000000000000000000000000000000000000000815260040180806020018281038252601c8152602001807f7472616e7366657220746f20746865207a65726f20616464726573730000000081525060200191505060405180910390fd5b612b2e816040518060400160405280601f81526020017f7472616e7366657220616d6f756e7420657863656564732062616c616e636500815250600360008773ffffffffffffffffffffffffffffffffffffffff1673ffffffffffffffffffffffffffffffffffffffff16815260200190815260200160002054612d329092919063ffffffff16565b600360008573ffffffffffffffffffffffffffffffffffffffff1673ffffffffffffffffffffffffffffffffffffffff16815260200190815260200160002081905550612bc381600360008573ffffffffffffffffffffffffffffffffffffffff1673ffffffffffffffffffffffffffffffffffffffff16815260200190815260200160002054612caa90919063ffffffff16565b600360008473ffffffffffffffffffffffffffffffffffffffff1673ffffffffffffffffffffffffffffffffffffffff168152602001908152602001600020819055507fddf252ad1be2c89b69c2b068fc378daa952ba7f163c4a11628f55a4df523b3ef838383604051808473ffffffffffffffffffffffffffffffffffffffff1673ffffffffffffffffffffffffffffffffffffffff1681526020018373ffffffffffffffffffffffffffffffffffffffff1673ffffffffffffffffffffffffffffffffffffffff168152602001828152602001935050505060405180910390a1505050565b600080828401905083811015612d28576040517f08c379a000000000000000000000000000000000000000000000000000000000815260040180806020018281038252601b8152602001807f536166654d6174683a206164646974696f6e206f766572666c6f77000000000081525060200191505060405180910390fd5b8091505092915050565b6000838311158290612ddf576040517f08c379a00000000000000000000000000000000000000000000000000000000081526004018080602001828103825283818151815260200191508051906020019080838360005b83811015612da4578082015181840152602081019050612d89565b50505050905090810190601f168015612dd15780820380516001836020036101000a031916815260200191505b509250505060405180910390fd5b5060008385039050809150509392505050565b6000612e3483836040518060400160405280601e81526020017f536166654d6174683a207375627472616374696f6e206f766572666c6f770000815250612d32565b905092915050565b612e4682826127cd565b612e9b576040517f08c379a00000000000000000000000000000000000000000000000000000000081526004018080602001828103825260218152602001806130596021913960400191505060405180910390fd5b60008260000160008373ffffffffffffffffffffffffffffffffffffffff1673ffffffffffffffffffffffffffffffffffffffff16815260200190815260200160002060006101000a81548160ff0219169083151502179055505050565b612f0382826127cd565b15612f76576040517f08c379a000000000000000000000000000000000000000000000000000000000815260040180806020018281038252601f8152602001807f526f6c65733a206163636f756e7420616c72656164792068617320726f6c650081525060200191505060405180910390fd5b60018260000160008373ffffffffffffffffffffffffffffffffffffffff1673ffffffffffffffffffffffffffffffffffffffff16815260200190815260200160002060006101000a81548160ff021916908315150217905550505056fe506175736572526f6c653a2063616c6c657220646f6573206e6f742068617665207468652050617573657220726f6c6541206c697175696461c3a7c3a36f2073c3b3206ec3a36f20706f646520736572207265616c697a6164612070656c6f20656e64657265c3a76f20717565207375626d657465752061207472616e7361c3a7c3a36f526f6c65733a206163636f756e7420646f6573206e6f74206861766520726f6c65526f6c65733a206163636f756e7420697320746865207a65726f2061646472657373a265627a7a72315820709b73a21de2d42926289bfef598fb2df7e0e09a34c497d2f13ef1daa761bfe264736f6c63430005100032526f6c65733a206163636f756e7420697320746865207a65726f2061646472657373",
  "source": "pragma solidity ^0.5.0;\r\n\r\n//import './SafeMath.sol';\r\nimport './BNDESRegistry.sol';\r\nimport '@openzeppelin/contracts/lifecycle/Pausable.sol';\r\nimport '@openzeppelin/contracts/math/SafeMath.sol';\r\n\r\ncontract BNDESToken is Pausable {\r\n    using SafeMath for uint256;\r\n    \r\n    /* This table stores the intentions of donations */\r\n    mapping (address => uint256) public bookedBalances;\r\n    /* This table stores the real BNDESTokens for BNDES and its Clients */\r\n    mapping (address => uint256) public confirmedBalances;\r\n    /* The current amount composed by intentions of donations */\r\n    uint256 public bookedTotalSupply;\r\n    /* The current amount of BNDESTokens minted  */\r\n    uint256 public confirmedTotalSupply;\r\n    /* Number of decimals stored in balance's mappings */\r\n    uint8 public decimals;\r\n    \r\n    /* Higher level events */\r\n    event DonationBooked      (uint64 cnpj, uint256 amount);\r\n    event DonationConfirmed   (uint64 cnpj, uint256 amount);\r\n    event Disbursement        (uint64 cnpj, uint256 amount, uint64 idFinancialSupportAgreement);\r\n    event RedemptionRequested (uint64 cnpj, uint256 amount, uint64 idFinancialSupportAgreement);\r\n    //event RedemptionSettlement(uint64 cnpj, uint256 amount);\r\n    event RedemptionSettlement(string redemptionTransactionHash, string  receiptHash);\r\n    \r\n    /* Lower level event (close to the ERC20) */\r\n    event Transfer(address from, address to, uint256 amount);    \r\n    \r\n    BNDESRegistry registry;\r\n    \r\n    constructor (BNDESRegistry _registry, uint8 _decimals) public {\r\n        registry = BNDESRegistry(_registry);\r\n        decimals = _decimals;\r\n    }\r\n    \r\n    /* Donor books a donation */\r\n    function bookDonation(uint256 amount) public whenNotPaused onlyValidatedDonor {\r\n        address account = msg.sender;\r\n        bookedTotalSupply = bookedTotalSupply.add(amount);\r\n        bookedBalances[account] = bookedBalances[account].add(amount);\r\n        uint64 cnpj = registry.getCNPJ(account);\r\n        emit DonationBooked(cnpj, amount);\r\n    }\r\n    \r\n    /* BNDES confirms the donor's donation */\r\n    function confirmDonation(address account, uint256 amount) public whenNotPaused onlyResponsibleForDonationConfirmation {\r\n        bookedTotalSupply = bookedTotalSupply.sub(amount);\r\n        confirmedTotalSupply = confirmedTotalSupply.add(amount);\r\n        \r\n        bookedBalances[account] = bookedBalances[account].sub(amount);\r\n        confirmedBalances[registry.getResponsibleForDisbursement()] = confirmedBalances[registry.getResponsibleForDisbursement()].add(amount);\r\n        uint64 cnpj = registry.getCNPJ(account);\r\n        emit DonationConfirmed(cnpj, amount);\r\n    }\r\n    \r\n    /* BNDES disbursement - transfer donations to a client */\r\n    function makeDisbursement(address client, uint256 amount) public whenNotPaused onlyResponsibleForDisbursement {\r\n        _transfer(registry.getResponsibleForDisbursement(), client, amount);\r\n        uint64 cnpj = registry.getCNPJ(client);\r\n        uint64 idLegalFinancialAgreement = registry.getIdLegalFinancialAgreement(client);\r\n        emit Disbursement(cnpj, amount, idLegalFinancialAgreement);\r\n    }\r\n    \r\n    /* Client request a redemption * /\r\n    function requestRedemption(uint256 amount) public whenNotPaused onlyValidatedClient {\r\n        address clientAddress = msg.sender;\r\n        _transfer(clientAddress, registry.getResponsibleForSettlement(), amount);\r\n        uint64 cnpj = registry.getCNPJ(clientAddress);\r\n        uint64 idLegalFinancialAgreement = registry.getIdLegalFinancialAgreement(clientAddress);\r\n        emit RedemptionRequested(cnpj, amount, idLegalFinancialAgreement);\r\n    }\r\n    \r\n    /* BNDES settles the client's redemption * /\r\n    function redemptionSettlement (address to, uint256 amount) public whenNotPaused onlyResponsibleForSettlement {\r\n        address account = registry.getResponsibleForSettlement();\r\n        require(account != address(0), \"burn from the zero address\");\r\n        confirmedBalances[account] = confirmedBalances[account].sub(amount, \"burn amount exceeds balance\");\r\n        confirmedTotalSupply = confirmedTotalSupply.sub(amount);\r\n        uint64 cnpj = registry.getCNPJ(to);\r\n        emit RedemptionSettlement(cnpj, amount);\r\n    }\r\n    /**/\r\n\r\n   /**\r\n    * When redeeming, the supplier indicated to the Resposible for Settlement that he wants to receive \r\n    * the FIAT money.\r\n    * @param amount - how much BNDESToken the supplier wants to redeem\r\n    */\r\n    function redeem (uint256 amount) public whenNotPaused returns (bool) {\r\n        address account = msg.sender;\r\n        require(account != address(0), \"burn from the zero address\");\r\n        confirmedBalances[account] = confirmedBalances[account].sub(amount, \"burn amount exceeds balance\");\r\n        confirmedTotalSupply = confirmedTotalSupply.sub(amount);             \r\n        uint64 idLegalFinancialAgreement = registry.getIdLegalFinancialAgreement(account);\r\n        uint64 cnpj = registry.getCNPJ(account);\r\n        emit RedemptionRequested(cnpj, amount, idLegalFinancialAgreement);        \r\n        return true;\r\n    }\r\n\r\n   /**\r\n    * Using this function, the Responsible for Settlement indicates that he has made the FIAT money transfer.\r\n    * @param redemptionTransactionHash hash of the redeem transaction in which the FIAT money settlement occurred.\r\n    * @param receiptHash hash that proof the FIAT money transfer\r\n    */\r\n    function notifyRedemptionSettlement(string memory redemptionTransactionHash, string memory receiptHash) \r\n        public whenNotPaused {\r\n        require (registry.isResponsibleForSettlement(msg.sender), \"A liquidao s no pode ser realizada pelo endereo que submeteu a transao\"); \r\n        require (registry.isValidHash(receiptHash), \"O hash do recibo  invlido\");\r\n        emit RedemptionSettlement(redemptionTransactionHash, receiptHash);\r\n    }    \r\n    \r\n    /* BNDES transfers confirmedBalances from a sender to a receiver */\r\n    function _transfer(address sender, address recipient, uint256 amount) internal {\r\n        require(sender != address(0), \"transfer from the zero address\");\r\n        require(recipient != address(0), \"transfer to the zero address\");\r\n\r\n        confirmedBalances[sender] = confirmedBalances[sender].sub(amount, \"transfer amount exceeds balance\");\r\n        confirmedBalances[recipient] = confirmedBalances[recipient].add(amount);\r\n        emit Transfer(sender, recipient, amount);\r\n    }\r\n    \r\n    function registryLegalEntity(uint64 cnpj, uint64 idFinancialSupportAgreement, string memory idProofHash) \r\n        public whenNotPaused { \r\n        registry.registryLegalEntity(cnpj,  idFinancialSupportAgreement, msg.sender, idProofHash);\r\n    }\r\n\r\n   /**\r\n    * Changes the original link between CNPJ and Ethereum account. \r\n    * The new link still needs to be validated by BNDES.\r\n    * IMPORTANT: The BNDESTOKENs are transfered from the original to the new Ethereum address \r\n    * @param cnpj Brazilian identifier to legal entities\r\n    * @param idFinancialSupportAgreement contract number of financial contract with BNDES. It assumes 0 if it is a supplier.\r\n    * @param idProofHash The legal entities have to send BNDES a PDF where it assumes as responsible for an Ethereum account. \r\n    *                   This PDF is signed with eCNPJ and send to BNDES. \r\n    */\r\n    function changeAccountLegalEntity(uint64 cnpj, uint64 idFinancialSupportAgreement, string memory idProofHash) \r\n        public whenNotPaused {\r\n        \r\n        address oldAddr = registry.getBlockchainAccount(cnpj, idFinancialSupportAgreement);\r\n        address newAddr = msg.sender;\r\n        \r\n        registry.changeAccountLegalEntity(cnpj, idFinancialSupportAgreement, msg.sender, idProofHash);\r\n\r\n        // Se h saldo no enderecoAntigo, precisa transferir\r\n        if (confirmedBalances[oldAddr] > 0) {\r\n            _transfer(oldAddr, newAddr, confirmedBalances[oldAddr]);\r\n        }\r\n    }\r\n\r\n    function confirmedBalanceOf(address client) public view returns (uint256) {\r\n        return confirmedBalances[client];\r\n    }    \r\n\r\n    function bookedBalanceOf(address donor) public view returns (uint256) {\r\n        return bookedBalances[donor];\r\n    }        \r\n\r\n    function getBookedTotalSupply() public view returns (uint256) {\r\n        return bookedTotalSupply;\r\n    }        \r\n\r\n    function getConfirmedTotalSupply() public view returns (uint256) {\r\n        return confirmedTotalSupply;\r\n    } \r\n    \r\n    function getDecimals() public view returns (uint8) {\r\n        return decimals;\r\n    }    \r\n    \r\n    /*\r\n    modifier whenNotPaused() {\r\n        // FIXME: remove it when the import Pausable is available \r\n        _;\r\n    } */\r\n\r\n    modifier onlyResponsibleForDonationConfirmation() {\r\n        require(registry.isResponsibleForDonationConfirmation(msg.sender));        \r\n        _;\r\n    }\r\n    modifier onlyResponsibleForDisbursement() {\r\n        require(registry.isResponsibleForDisbursement(msg.sender));\r\n        _;\r\n    }\r\n    modifier onlyResponsibleForSettlement() {\r\n        require(registry.isResponsibleForSettlement(msg.sender));\r\n        _;\r\n    }\r\n    modifier onlyValidatedClient() {\r\n        require(registry.isValidatedClient(msg.sender));\r\n        _;\r\n    }\r\n    modifier onlyValidatedDonor() {\r\n        require(registry.isValidatedDonor(msg.sender));\r\n        _;\r\n    }\r\n    modifier onlyOwner() {\r\n        require(registry.isOwner(msg.sender));\r\n        _;\r\n    }    \r\n}\r\n\r\n/** \r\n\r\nlibrary SafeMath {\r\n\r\n    function add(uint256 a, uint256 b) internal pure returns (uint256) {\r\n        uint256 c = a + b;\r\n        require(c >= a, \"SafeMath: addition overflow\");\r\n\r\n        return c;\r\n    }\r\n\r\n    function sub(uint256 a, uint256 b) internal pure returns (uint256) {\r\n        return sub(a, b, \"SafeMath: subtraction overflow\");\r\n    }\r\n\r\n    function sub(uint256 a, uint256 b, string memory errorMessage) internal pure returns (uint256) {\r\n        require(b <= a, errorMessage);\r\n        uint256 c = a - b;\r\n\r\n        return c;\r\n    }\r\n\r\n    function mul(uint256 a, uint256 b) internal pure returns (uint256) {\r\n        // Gas optimization: this is cheaper than requiring 'a' not being zero, but the\r\n        // benefit is lost if 'b' is also tested.\r\n        // See: https://github.com/OpenZeppelin/openzeppelin-contracts/pull/522\r\n        if (a == 0) {\r\n            return 0;\r\n        }\r\n\r\n        uint256 c = a * b;\r\n        require(c / a == b, \"SafeMath: multiplication overflow\");\r\n\r\n        return c;\r\n    }\r\n\r\n    function div(uint256 a, uint256 b) internal pure returns (uint256) {\r\n        return div(a, b, \"SafeMath: division by zero\");\r\n    }\r\n\r\n    function div(uint256 a, uint256 b, string memory errorMessage) internal pure returns (uint256) {\r\n        // Solidity only automatically asserts when dividing by 0\r\n        require(b > 0, errorMessage);\r\n        uint256 c = a / b;\r\n        // assert(a == b * c + a % b); // There is no case in which this doesn't hold\r\n\r\n        return c;\r\n    }\r\n\r\n    function mod(uint256 a, uint256 b) internal pure returns (uint256) {\r\n        return mod(a, b, \"SafeMath: modulo by zero\");\r\n    }\r\n    \r\n    function mod(uint256 a, uint256 b, string memory errorMessage) internal pure returns (uint256) {\r\n        require(b != 0, errorMessage);\r\n        return a % b;\r\n    }\r\n}\r\n\r\n/**/",
  "sourcePath": "D:\\Workspace\\bndestoken-captacao\\Back-Blockchain\\contracts\\BNDESToken.sol",
  "compiler": {
    "name": "solc",
    "version": "0.5.16+commit.9c3226ce.Emscripten.clang"
  },
  "schemaVersion": "3.0.23",
  "updatedAt": "2020-02-13T14:29:31.752Z",
  "networkType": "ethereum",
  "devdoc": {
    "methods": {
      "changeAccountLegalEntity(uint64,uint64,string)": {
        "params": {
          "cnpj": "Brazilian identifier to legal entities",
          "idFinancialSupportAgreement": "contract number of financial contract with BNDES. It assumes 0 if it is a supplier.",
          "idProofHash": "The legal entities have to send BNDES a PDF where it assumes as responsible for an Ethereum account.                   This PDF is signed with eCNPJ and send to BNDES. "
        }
      },
      "notifyRedemptionSettlement(string,string)": {
        "params": {
          "receiptHash": "hash that proof the FIAT money transfer",
          "redemptionTransactionHash": "hash of the redeem transaction in which the FIAT money settlement occurred."
        }
      },
      "pause()": {
        "details": "Called by a pauser to pause, triggers stopped state."
      },
      "paused()": {
        "details": "Returns true if the contract is paused, and false otherwise."
      },
      "redeem(uint256)": {
        "params": {
          "amount": "- how much BNDESToken the supplier wants to redeem"
        }
      },
      "unpause()": {
        "details": "Called by a pauser to unpause, returns to normal state."
      }
    }
  },
  "userdoc": {
    "methods": {
      "changeAccountLegalEntity(uint64,uint64,string)": {
        "notice": "Changes the original link between CNPJ and Ethereum account.  The new link still needs to be validated by BNDES. IMPORTANT: The BNDESTOKENs are transfered from the original to the new Ethereum address "
      },
      "notifyRedemptionSettlement(string,string)": {
        "notice": "Using this function, the Responsible for Settlement indicates that he has made the FIAT money transfer."
      },
      "redeem(uint256)": {
        "notice": "When redeeming, the supplier indicated to the Resposible for Settlement that he wants to receive  the FIAT money."
      }
    }
  }
}