{
  "contractName": "ChangeManagement",
  "abi": [
    {
      "inputs": [
        {
          "internalType": "address",
          "name": "adminOfNewContractsAddr",
          "type": "address"
        }
      ],
      "payable": false,
      "stateMutability": "nonpayable",
      "type": "constructor"
    },
    {
      "anonymous": false,
      "inputs": [
        {
          "indexed": false,
          "internalType": "uint256",
          "name": "changeNumber",
          "type": "uint256"
        }
      ],
      "name": "ChangeApproved",
      "type": "event"
    },
    {
      "anonymous": false,
      "inputs": [
        {
          "indexed": false,
          "internalType": "uint256",
          "name": "changeNumber",
          "type": "uint256"
        }
      ],
      "name": "ChangeCancelled",
      "type": "event"
    },
    {
      "anonymous": false,
      "inputs": [
        {
          "indexed": false,
          "internalType": "uint256",
          "name": "changeNumber",
          "type": "uint256"
        }
      ],
      "name": "ChangeDisapproved",
      "type": "event"
    },
    {
      "anonymous": false,
      "inputs": [
        {
          "indexed": false,
          "internalType": "uint256",
          "name": "changeNumber",
          "type": "uint256"
        }
      ],
      "name": "ChangeExecuted",
      "type": "event"
    },
    {
      "anonymous": false,
      "inputs": [
        {
          "indexed": false,
          "internalType": "uint256",
          "name": "changeNumber",
          "type": "uint256"
        },
        {
          "indexed": false,
          "internalType": "uint256",
          "name": "index",
          "type": "uint256"
        }
      ],
      "name": "ChangePartialExecuted",
      "type": "event"
    },
    {
      "anonymous": false,
      "inputs": [
        {
          "indexed": false,
          "internalType": "uint256",
          "name": "changeNumber",
          "type": "uint256"
        },
        {
          "indexed": false,
          "internalType": "bytes32",
          "name": "hashChangeMotivation",
          "type": "bytes32"
        },
        {
          "indexed": false,
          "internalType": "address[]",
          "name": "upgraderContractsAddr",
          "type": "address[]"
        },
        {
          "indexed": false,
          "internalType": "address",
          "name": "decisionContractAddr",
          "type": "address"
        }
      ],
      "name": "NewChangeCreated",
      "type": "event"
    },
    {
      "anonymous": false,
      "inputs": [
        {
          "indexed": true,
          "internalType": "address",
          "name": "previousOwner",
          "type": "address"
        },
        {
          "indexed": true,
          "internalType": "address",
          "name": "newOwner",
          "type": "address"
        }
      ],
      "name": "OwnershipTransferred",
      "type": "event"
    },
    {
      "anonymous": false,
      "inputs": [
        {
          "indexed": false,
          "internalType": "address",
          "name": "account",
          "type": "address"
        }
      ],
      "name": "Paused",
      "type": "event"
    },
    {
      "anonymous": false,
      "inputs": [
        {
          "indexed": true,
          "internalType": "address",
          "name": "account",
          "type": "address"
        }
      ],
      "name": "PauserAdded",
      "type": "event"
    },
    {
      "anonymous": false,
      "inputs": [
        {
          "indexed": true,
          "internalType": "address",
          "name": "account",
          "type": "address"
        }
      ],
      "name": "PauserRemoved",
      "type": "event"
    },
    {
      "anonymous": false,
      "inputs": [
        {
          "indexed": false,
          "internalType": "address",
          "name": "account",
          "type": "address"
        }
      ],
      "name": "Unpaused",
      "type": "event"
    },
    {
      "constant": true,
      "inputs": [],
      "name": "_governanceAddress",
      "outputs": [
        {
          "internalType": "address",
          "name": "",
          "type": "address"
        }
      ],
      "payable": false,
      "stateMutability": "view",
      "type": "function"
    },
    {
      "constant": false,
      "inputs": [
        {
          "internalType": "address",
          "name": "account",
          "type": "address"
        }
      ],
      "name": "addPauser",
      "outputs": [],
      "payable": false,
      "stateMutability": "nonpayable",
      "type": "function"
    },
    {
      "constant": true,
      "inputs": [
        {
          "internalType": "uint256",
          "name": "",
          "type": "uint256"
        }
      ],
      "name": "governingChanges",
      "outputs": [
        {
          "internalType": "bytes32",
          "name": "hashChangeMotivation",
          "type": "bytes32"
        },
        {
          "internalType": "uint256",
          "name": "upgraderContractToBeExecutedIndex",
          "type": "uint256"
        },
        {
          "internalType": "address",
          "name": "decisionContractAddr",
          "type": "address"
        },
        {
          "internalType": "enum ChangeManagement.ChangeState",
          "name": "changeState",
          "type": "uint8"
        }
      ],
      "payable": false,
      "stateMutability": "view",
      "type": "function"
    },
    {
      "constant": true,
      "inputs": [],
      "name": "isOwner",
      "outputs": [
        {
          "internalType": "bool",
          "name": "",
          "type": "bool"
        }
      ],
      "payable": false,
      "stateMutability": "view",
      "type": "function"
    },
    {
      "constant": true,
      "inputs": [
        {
          "internalType": "address",
          "name": "account",
          "type": "address"
        }
      ],
      "name": "isPauser",
      "outputs": [
        {
          "internalType": "bool",
          "name": "",
          "type": "bool"
        }
      ],
      "payable": false,
      "stateMutability": "view",
      "type": "function"
    },
    {
      "constant": true,
      "inputs": [],
      "name": "owner",
      "outputs": [
        {
          "internalType": "address",
          "name": "",
          "type": "address"
        }
      ],
      "payable": false,
      "stateMutability": "view",
      "type": "function"
    },
    {
      "constant": false,
      "inputs": [],
      "name": "pause",
      "outputs": [],
      "payable": false,
      "stateMutability": "nonpayable",
      "type": "function"
    },
    {
      "constant": true,
      "inputs": [],
      "name": "paused",
      "outputs": [
        {
          "internalType": "bool",
          "name": "",
          "type": "bool"
        }
      ],
      "payable": false,
      "stateMutability": "view",
      "type": "function"
    },
    {
      "constant": false,
      "inputs": [],
      "name": "renounceOwnership",
      "outputs": [],
      "payable": false,
      "stateMutability": "nonpayable",
      "type": "function"
    },
    {
      "constant": false,
      "inputs": [],
      "name": "renouncePauser",
      "outputs": [],
      "payable": false,
      "stateMutability": "nonpayable",
      "type": "function"
    },
    {
      "constant": false,
      "inputs": [
        {
          "internalType": "address",
          "name": "newOwner",
          "type": "address"
        }
      ],
      "name": "transferOwnership",
      "outputs": [],
      "payable": false,
      "stateMutability": "nonpayable",
      "type": "function"
    },
    {
      "constant": false,
      "inputs": [],
      "name": "unpause",
      "outputs": [],
      "payable": false,
      "stateMutability": "nonpayable",
      "type": "function"
    },
    {
      "constant": true,
      "inputs": [],
      "name": "upgraderInfo",
      "outputs": [
        {
          "internalType": "contract UpgraderInfo",
          "name": "",
          "type": "address"
        }
      ],
      "payable": false,
      "stateMutability": "view",
      "type": "function"
    },
    {
      "constant": false,
      "inputs": [
        {
          "internalType": "bytes32",
          "name": "hashChangeMotivation",
          "type": "bytes32"
        },
        {
          "internalType": "address[]",
          "name": "upgraderContractsAddr",
          "type": "address[]"
        },
        {
          "internalType": "address",
          "name": "decisionContractAddr",
          "type": "address"
        }
      ],
      "name": "createNewChange",
      "outputs": [],
      "payable": false,
      "stateMutability": "nonpayable",
      "type": "function"
    },
    {
      "constant": false,
      "inputs": [
        {
          "internalType": "uint256",
          "name": "changeNumber",
          "type": "uint256"
        }
      ],
      "name": "executeChange",
      "outputs": [],
      "payable": false,
      "stateMutability": "nonpayable",
      "type": "function"
    },
    {
      "constant": false,
      "inputs": [
        {
          "internalType": "uint256",
          "name": "changeNumber",
          "type": "uint256"
        },
        {
          "internalType": "uint256",
          "name": "index",
          "type": "uint256"
        }
      ],
      "name": "executeChange",
      "outputs": [],
      "payable": false,
      "stateMutability": "nonpayable",
      "type": "function"
    },
    {
      "constant": false,
      "inputs": [
        {
          "internalType": "uint256",
          "name": "changeNumber",
          "type": "uint256"
        }
      ],
      "name": "cancelChange",
      "outputs": [],
      "payable": false,
      "stateMutability": "nonpayable",
      "type": "function"
    },
    {
      "constant": true,
      "inputs": [
        {
          "internalType": "uint256",
          "name": "changeNumber",
          "type": "uint256"
        }
      ],
      "name": "getChange",
      "outputs": [
        {
          "internalType": "bytes32",
          "name": "",
          "type": "bytes32"
        },
        {
          "internalType": "address[]",
          "name": "",
          "type": "address[]"
        },
        {
          "internalType": "uint256",
          "name": "",
          "type": "uint256"
        },
        {
          "internalType": "address",
          "name": "",
          "type": "address"
        },
        {
          "internalType": "enum ChangeManagement.ChangeState",
          "name": "",
          "type": "uint8"
        }
      ],
      "payable": false,
      "stateMutability": "view",
      "type": "function"
    },
    {
      "constant": true,
      "inputs": [
        {
          "internalType": "uint256",
          "name": "changeNumber",
          "type": "uint256"
        }
      ],
      "name": "getDecisionContractToMakeResult",
      "outputs": [
        {
          "internalType": "address",
          "name": "",
          "type": "address"
        }
      ],
      "payable": false,
      "stateMutability": "view",
      "type": "function"
    },
    {
      "constant": false,
      "inputs": [
        {
          "internalType": "uint256",
          "name": "changeNumber",
          "type": "uint256"
        }
      ],
      "name": "approveChange",
      "outputs": [],
      "payable": false,
      "stateMutability": "nonpayable",
      "type": "function"
    },
    {
      "constant": false,
      "inputs": [
        {
          "internalType": "uint256",
          "name": "changeNumber",
          "type": "uint256"
        }
      ],
      "name": "reproveChange",
      "outputs": [],
      "payable": false,
      "stateMutability": "nonpayable",
      "type": "function"
    },
    {
      "constant": false,
      "inputs": [
        {
          "internalType": "address",
          "name": "governanceAddress",
          "type": "address"
        }
      ],
      "name": "setGovernanceAddress",
      "outputs": [],
      "payable": false,
      "stateMutability": "nonpayable",
      "type": "function"
    },
    {
      "constant": false,
      "inputs": [
        {
          "internalType": "address",
          "name": "newAddr",
          "type": "address"
        }
      ],
      "name": "setAdminAddr",
      "outputs": [],
      "payable": false,
      "stateMutability": "nonpayable",
      "type": "function"
    },
    {
      "constant": true,
      "inputs": [],
      "name": "upgraderInfoAddr",
      "outputs": [
        {
          "internalType": "address",
          "name": "",
          "type": "address"
        }
      ],
      "payable": false,
      "stateMutability": "view",
      "type": "function"
    }
  ],
  "bytecode": "0x60806040523480156200001157600080fd5b5060405162003e1238038062003e12833981810160405260208110156200003757600080fd5b81019080805190602001909291905050506200005933620001da60201b60201c565b6000600160006101000a81548160ff021916908315150217905550336001806101000a81548173ffffffffffffffffffffffffffffffffffffffff021916908373ffffffffffffffffffffffffffffffffffffffff1602179055506001809054906101000a900473ffffffffffffffffffffffffffffffffffffffff1673ffffffffffffffffffffffffffffffffffffffff16600073ffffffffffffffffffffffffffffffffffffffff167f8be0079c531659141344cd1fd0a4f28419497f9722a3daafe3b4186f6b6457e060405160405180910390a3806040516200013f9062000384565b808273ffffffffffffffffffffffffffffffffffffffff1673ffffffffffffffffffffffffffffffffffffffff168152602001915050604051809103906000f08015801562000192573d6000803e3d6000fd5b50600360006101000a81548173ffffffffffffffffffffffffffffffffffffffff021916908373ffffffffffffffffffffffffffffffffffffffff1602179055505062000392565b620001f58160006200023b60201b62002aca1790919060201c565b8073ffffffffffffffffffffffffffffffffffffffff167f6719d08c1888103bea251a4ed56406bd0c3e69723c8a1686e017e7bbe159b6f860405160405180910390a250565b600073ffffffffffffffffffffffffffffffffffffffff168173ffffffffffffffffffffffffffffffffffffffff1614156200027657600080fd5b620002888282620002f160201b60201c565b156200029357600080fd5b60018260000160008373ffffffffffffffffffffffffffffffffffffffff1673ffffffffffffffffffffffffffffffffffffffff16815260200190815260200160002060006101000a81548160ff0219169083151502179055505050565b60008073ffffffffffffffffffffffffffffffffffffffff168273ffffffffffffffffffffffffffffffffffffffff1614156200032d57600080fd5b8260000160008373ffffffffffffffffffffffffffffffffffffffff1673ffffffffffffffffffffffffffffffffffffffff16815260200190815260200160002060009054906101000a900460ff16905092915050565b610bdb806200323783390190565b612e9580620003a26000396000f3fe608060405234801561001057600080fd5b50600436106101585760003560e01c8063715018a6116100c3578063900126f41161007c578063900126f414610661578063c23619ea146106ab578063cfc16254146106e3578063e741940d14610727578063e92bdfe714610795578063f2fde38b146107c357610158565b8063715018a61461050c5780637636ca6e1461051657806382dc1ec4146105a75780638456cb59146105eb5780638da5cb5b146105f55780638f32d59b1461063f57610158565b806346fbf68e1161011557806346fbf68e1461033357806352bf2c3c1461038f57806354a8bd07146103d95780635b57a2ed146104b25780635c975abb146104e05780636ef8d66d1461050257610158565b8063196fe7b11461015d5780631f80f1b11461018b57806335e3aa211461026d5780633f4ba83a1461029b57806341a28df6146102a5578063439bb83f146102e9575b600080fd5b6101896004803603602081101561017357600080fd5b8101908080359060200190929190505050610807565b005b61026b600480360360608110156101a157600080fd5b8101908080359060200190929190803590602001906401000000008111156101c857600080fd5b8201836020820111156101da57600080fd5b803590602001918460208302840111640100000000831117156101fc57600080fd5b919080806020026020016040519081016040528093929190818152602001838360200280828437600081840152601f19601f820116905080830192505050505050509192919290803573ffffffffffffffffffffffffffffffffffffffff169060200190929190505050610815565b005b6102996004803603602081101561028357600080fd5b8101908080359060200190929190505050610bb7565b005b6102a3610f1a565b005b6102e7600480360360208110156102bb57600080fd5b81019080803573ffffffffffffffffffffffffffffffffffffffff169060200190929190505050610fc5565b005b6102f16111b0565b604051808273ffffffffffffffffffffffffffffffffffffffff1673ffffffffffffffffffffffffffffffffffffffff16815260200191505060405180910390f35b6103756004803603602081101561034957600080fd5b81019080803573ffffffffffffffffffffffffffffffffffffffff1690602001909291905050506111d6565b604051808215151515815260200191505060405180910390f35b6103976111f3565b604051808273ffffffffffffffffffffffffffffffffffffffff1673ffffffffffffffffffffffffffffffffffffffff16815260200191505060405180910390f35b610405600480360360208110156103ef57600080fd5b810190808035906020019092919050505061121d565b60405180868152602001806020018581526020018473ffffffffffffffffffffffffffffffffffffffff1673ffffffffffffffffffffffffffffffffffffffff16815260200183600581111561045757fe5b60ff168152602001828103825286818151815260200191508051906020019060200280838360005b8381101561049a57808201518184015260208101905061047f565b50505050905001965050505050505060405180910390f35b6104de600480360360208110156104c857600080fd5b8101908080359060200190929190505050611425565b005b6104e861173d565b604051808215151515815260200191505060405180910390f35b61050a611754565b005b61051461175f565b005b6105426004803603602081101561052c57600080fd5b810190808035906020019092919050505061182f565b604051808581526020018481526020018373ffffffffffffffffffffffffffffffffffffffff1673ffffffffffffffffffffffffffffffffffffffff16815260200182600581111561059057fe5b60ff16815260200194505050505060405180910390f35b6105e9600480360360208110156105bd57600080fd5b81019080803573ffffffffffffffffffffffffffffffffffffffff169060200190929190505050611899565b005b6105f36118b7565b005b6105fd611962565b604051808273ffffffffffffffffffffffffffffffffffffffff1673ffffffffffffffffffffffffffffffffffffffff16815260200191505060405180910390f35b61064761198b565b604051808215151515815260200191505060405180910390f35b6106696119e2565b604051808273ffffffffffffffffffffffffffffffffffffffff1673ffffffffffffffffffffffffffffffffffffffff16815260200191505060405180910390f35b6106e1600480360360408110156106c157600080fd5b810190808035906020019092919080359060200190929190505050611a08565b005b610725600480360360208110156106f957600080fd5b81019080803573ffffffffffffffffffffffffffffffffffffffff1690602001909291905050506121bb565b005b6107536004803603602081101561073d57600080fd5b8101908080359060200190929190505050612210565b604051808273ffffffffffffffffffffffffffffffffffffffff1673ffffffffffffffffffffffffffffffffffffffff16815260200191505060405180910390f35b6107c1600480360360208110156107ab57600080fd5b8101908080359060200190929190505050612461565b005b610805600480360360208110156107d957600080fd5b81019080803573ffffffffffffffffffffffffffffffffffffffff1690602001909291905050506127c4565b005b610812816000611a08565b50565b61081d61198b565b61082657600080fd5b60006002805490509050610838612b76565b600073ffffffffffffffffffffffffffffffffffffffff168373ffffffffffffffffffffffffffffffffffffffff1614610979576040518060a00160405280868152602001858152602001600081526020018473ffffffffffffffffffffffffffffffffffffffff168152602001600060058111156108b357fe5b81525090507fd546849b0889a5bec23c81690ccf246e96207848430c4fced15c9defa658e0838286868660405180858152602001848152602001806020018373ffffffffffffffffffffffffffffffffffffffff1673ffffffffffffffffffffffffffffffffffffffff168152602001828103825284818151815260200191508051906020019060200280838360005b8381101561095e578082015181840152602081019050610943565b505050509050019550505050505060405180910390a1610ade565b6040518060a0016040528086815260200185815260200160008152602001600073ffffffffffffffffffffffffffffffffffffffff168152602001600160058111156109c157fe5b81525090507fd546849b0889a5bec23c81690ccf246e96207848430c4fced15c9defa658e083828686600060405180858152602001848152602001806020018373ffffffffffffffffffffffffffffffffffffffff1673ffffffffffffffffffffffffffffffffffffffff168152602001828103825284818151815260200191508051906020019060200280838360005b83811015610a6d578082015181840152602081019050610a52565b505050509050019550505050505060405180910390a1600181608001906005811115610a9557fe5b90816005811115610aa257fe5b815250507ff6c7f9b41b46dcd0ed5e8a9b5ea016cc15493d731db259a2efb7dd055af86684826040518082815260200191505060405180910390a15b60028190806001815401808255809150509060018203906000526020600020906004020160009091929091909150600082015181600001556020820151816001019080519060200190610b32929190612bc9565b506040820151816002015560608201518160030160006101000a81548173ffffffffffffffffffffffffffffffffffffffff021916908373ffffffffffffffffffffffffffffffffffffffff16021790555060808201518160030160146101000a81548160ff02191690836005811115610ba857fe5b02179055505050505050505050565b600460009054906101000a900473ffffffffffffffffffffffffffffffffffffffff1673ffffffffffffffffffffffffffffffffffffffff163373ffffffffffffffffffffffffffffffffffffffff1614610c5d576040517f08c379a0000000000000000000000000000000000000000000000000000000008152600401808060200182810382526030815260200180612d266030913960400191505060405180910390fd5b6002805490508110610cd7576040517f08c379a00000000000000000000000000000000000000000000000000000000081526004018080602001828103825260158152602001807f496e76616c6964206368616e6765206e756d626572000000000000000000000081525060200191505060405180910390fd5b610cdf612b76565b60028281548110610cec57fe5b90600052602060002090600402016040518060a00160405290816000820154815260200160018201805480602002602001604051908101604052809291908181526020018280548015610d9457602002820191906000526020600020905b8160009054906101000a900473ffffffffffffffffffffffffffffffffffffffff1673ffffffffffffffffffffffffffffffffffffffff1681526020019060010190808311610d4a575b50505050508152602001600282015481526020016003820160009054906101000a900473ffffffffffffffffffffffffffffffffffffffff1673ffffffffffffffffffffffffffffffffffffffff1673ffffffffffffffffffffffffffffffffffffffff1681526020016003820160149054906101000a900460ff166005811115610e1b57fe5b6005811115610e2657fe5b81525050905060006005811115610e3957fe5b81608001516005811115610e4957fe5b14610e9f576040517f08c379a0000000000000000000000000000000000000000000000000000000008152600401808060200182810382526027815260200180612dfd6027913960400191505060405180910390fd5b600160028381548110610eae57fe5b906000526020600020906004020160030160146101000a81548160ff02191690836005811115610eda57fe5b02179055507ff6c7f9b41b46dcd0ed5e8a9b5ea016cc15493d731db259a2efb7dd055af86684826040518082815260200191505060405180910390a15050565b610f23336111d6565b610f2c57600080fd5b600160009054906101000a900460ff16610f4557600080fd5b6000600160006101000a81548160ff0219169083151502179055507f5db9ee0a495bf2e6ff9c91a7834c1ba4fdd244a5e8aa4e537bd38aeae4b073aa33604051808273ffffffffffffffffffffffffffffffffffffffff1673ffffffffffffffffffffffffffffffffffffffff16815260200191505060405180910390a1565b600360009054906101000a900473ffffffffffffffffffffffffffffffffffffffff1673ffffffffffffffffffffffffffffffffffffffff16637e96549f336040518263ffffffff1660e01b8152600401808273ffffffffffffffffffffffffffffffffffffffff1673ffffffffffffffffffffffffffffffffffffffff16815260200191505060206040518083038186803b15801561106457600080fd5b505afa158015611078573d6000803e3d6000fd5b505050506040513d602081101561108e57600080fd5b81019080805190602001909291905050506110f4576040517f08c379a000000000000000000000000000000000000000000000000000000000815260040180806020018281038252602f815260200180612cbf602f913960400191505060405180910390fd5b600360009054906101000a900473ffffffffffffffffffffffffffffffffffffffff1673ffffffffffffffffffffffffffffffffffffffff166341a28df6826040518263ffffffff1660e01b8152600401808273ffffffffffffffffffffffffffffffffffffffff1673ffffffffffffffffffffffffffffffffffffffff168152602001915050600060405180830381600087803b15801561119557600080fd5b505af11580156111a9573d6000803e3d6000fd5b5050505050565b600460009054906101000a900473ffffffffffffffffffffffffffffffffffffffff1681565b60006111ec8260006127e190919063ffffffff16565b9050919050565b6000600360009054906101000a900473ffffffffffffffffffffffffffffffffffffffff16905090565b60006060600080600060028054905086106112a0576040517f08c379a00000000000000000000000000000000000000000000000000000000081526004018080602001828103825260158152602001807f496e76616c6964206368616e6765206e756d626572000000000000000000000081525060200191505060405180910390fd5b6112a8612b76565b600287815481106112b557fe5b90600052602060002090600402016040518060a0016040529081600082015481526020016001820180548060200260200160405190810160405280929190818152602001828054801561135d57602002820191906000526020600020905b8160009054906101000a900473ffffffffffffffffffffffffffffffffffffffff1673ffffffffffffffffffffffffffffffffffffffff1681526020019060010190808311611313575b50505050508152602001600282015481526020016003820160009054906101000a900473ffffffffffffffffffffffffffffffffffffffff1673ffffffffffffffffffffffffffffffffffffffff1673ffffffffffffffffffffffffffffffffffffffff1681526020016003820160149054906101000a900460ff1660058111156113e457fe5b60058111156113ef57fe5b81525050905080600001518160200151826040015183606001518460800151839350955095509550955095505091939590929450565b61142d61198b565b61143657600080fd5b60028054905081106114b0576040517f08c379a00000000000000000000000000000000000000000000000000000000081526004018080602001828103825260158152602001807f496e76616c6964206368616e6765206e756d626572000000000000000000000081525060200191505060405180910390fd5b6114b8612b76565b600282815481106114c557fe5b90600052602060002090600402016040518060a0016040529081600082015481526020016001820180548060200260200160405190810160405280929190818152602001828054801561156d57602002820191906000526020600020905b8160009054906101000a900473ffffffffffffffffffffffffffffffffffffffff1673ffffffffffffffffffffffffffffffffffffffff1681526020019060010190808311611523575b50505050508152602001600282015481526020016003820160009054906101000a900473ffffffffffffffffffffffffffffffffffffffff1673ffffffffffffffffffffffffffffffffffffffff1673ffffffffffffffffffffffffffffffffffffffff1681526020016003820160149054906101000a900460ff1660058111156115f457fe5b60058111156115ff57fe5b8152505090506000600581111561161257fe5b8160800151600581111561162257fe5b148061164857506001600581111561163657fe5b8160800151600581111561164657fe5b145b8061166d57506002600581111561165b57fe5b8160800151600581111561166b57fe5b145b6116c2576040517f08c379a0000000000000000000000000000000000000000000000000000000008152600401808060200182810382526040815260200180612d566040913960400191505060405180910390fd5b6004600283815481106116d157fe5b906000526020600020906004020160030160146101000a81548160ff021916908360058111156116fd57fe5b02179055507f5edd520c0103960fbe1e1fc55ae80c123b61704fa2429473cef253e3c90ae27e826040518082815260200191505060405180910390a15050565b6000600160009054906101000a900460ff16905090565b61175d33612873565b565b61176761198b565b61177057600080fd5b600073ffffffffffffffffffffffffffffffffffffffff166001809054906101000a900473ffffffffffffffffffffffffffffffffffffffff1673ffffffffffffffffffffffffffffffffffffffff167f8be0079c531659141344cd1fd0a4f28419497f9722a3daafe3b4186f6b6457e060405160405180910390a360006001806101000a81548173ffffffffffffffffffffffffffffffffffffffff021916908373ffffffffffffffffffffffffffffffffffffffff160217905550565b6002818154811061183c57fe5b90600052602060002090600402016000915090508060000154908060020154908060030160009054906101000a900473ffffffffffffffffffffffffffffffffffffffff16908060030160149054906101000a900460ff16905084565b6118a2336111d6565b6118ab57600080fd5b6118b4816128cd565b50565b6118c0336111d6565b6118c957600080fd5b600160009054906101000a900460ff16156118e357600080fd5b60018060006101000a81548160ff0219169083151502179055507f62e78cea01bee320cd4e420270b5ea74000d11b0c9f74754ebdbfc544b05a25833604051808273ffffffffffffffffffffffffffffffffffffffff1673ffffffffffffffffffffffffffffffffffffffff16815260200191505060405180910390a1565b60006001809054906101000a900473ffffffffffffffffffffffffffffffffffffffff16905090565b60006001809054906101000a900473ffffffffffffffffffffffffffffffffffffffff1673ffffffffffffffffffffffffffffffffffffffff163373ffffffffffffffffffffffffffffffffffffffff1614905090565b600360009054906101000a900473ffffffffffffffffffffffffffffffffffffffff1681565b6002805490508210611a82576040517f08c379a00000000000000000000000000000000000000000000000000000000081526004018080602001828103825260158152602001807f496e76616c6964206368616e6765206e756d626572000000000000000000000081525060200191505060405180910390fd5b600360009054906101000a900473ffffffffffffffffffffffffffffffffffffffff1673ffffffffffffffffffffffffffffffffffffffff166324d7806c336040518263ffffffff1660e01b8152600401808273ffffffffffffffffffffffffffffffffffffffff1673ffffffffffffffffffffffffffffffffffffffff16815260200191505060206040518083038186803b158015611b2157600080fd5b505afa158015611b35573d6000803e3d6000fd5b505050506040513d6020811015611b4b57600080fd5b8101908080519060200190929190505050611bb1576040517f08c379a0000000000000000000000000000000000000000000000000000000008152600401808060200182810382526028815260200180612c976028913960400191505060405180910390fd5b611bb9612b76565b60028381548110611bc657fe5b90600052602060002090600402016040518060a00160405290816000820154815260200160018201805480602002602001604051908101604052809291908181526020018280548015611c6e57602002820191906000526020600020905b8160009054906101000a900473ffffffffffffffffffffffffffffffffffffffff1673ffffffffffffffffffffffffffffffffffffffff1681526020019060010190808311611c24575b50505050508152602001600282015481526020016003820160009054906101000a900473ffffffffffffffffffffffffffffffffffffffff1673ffffffffffffffffffffffffffffffffffffffff1673ffffffffffffffffffffffffffffffffffffffff1681526020016003820160149054906101000a900460ff166005811115611cf557fe5b6005811115611d0057fe5b81525050905060016005811115611d1357fe5b81608001516005811115611d2357fe5b1480611d49575060026005811115611d3757fe5b81608001516005811115611d4757fe5b145b611d9e576040517f08c379a0000000000000000000000000000000000000000000000000000000008152600401808060200182810382526038815260200180612cee6038913960400191505060405180910390fd5b60608160200151905080518310611e00576040517f08c379a0000000000000000000000000000000000000000000000000000000008152600401808060200182810382526034815260200180612dc96034913960400191505060405180910390fd5b8160400151831015611e5d576040517f08c379a0000000000000000000000000000000000000000000000000000000008152600401808060200182810382526033815260200180612d966033913960400191505060405180910390fd5b8160400151831115611eba576040517f08c379a000000000000000000000000000000000000000000000000000000000815260040180806020018281038252603d815260200180612e24603d913960400191505060405180910390fd5b6000818481518110611ec857fe5b60200260200101519050600360009054906101000a900473ffffffffffffffffffffffffffffffffffffffff1673ffffffffffffffffffffffffffffffffffffffff166311a1c423826040518263ffffffff1660e01b8152600401808273ffffffffffffffffffffffffffffffffffffffff1673ffffffffffffffffffffffffffffffffffffffff168152602001915050600060405180830381600087803b158015611f7357600080fd5b505af1158015611f87573d6000803e3d6000fd5b5050505060008190508073ffffffffffffffffffffffffffffffffffffffff1663d55ec6976040518163ffffffff1660e01b8152600401600060405180830381600087803b158015611fd857600080fd5b505af1158015611fec573d6000803e3d6000fd5b5050505060028681548110611ffd57fe5b90600052602060002090600402016002016000815480929190600101919050555082516002878154811061202d57fe5b9060005260206000209060040201600201541015612113577f41946281f85c39b347ef098a9c9a8d2aae5e51c510aee0293cc4359bd7de35d48686604051808381526020018281526020019250505060405180910390a16001600581111561209157fe5b6002878154811061209e57fe5b906000526020600020906004020160030160149054906101000a900460ff1660058111156120c857fe5b141561210e5760028087815481106120dc57fe5b906000526020600020906004020160030160146101000a81548160ff0219169083600581111561210857fe5b02179055505b6121b3565b82516002878154811061212257fe5b90600052602060002090600402016002015414156121b25760056002878154811061214957fe5b906000526020600020906004020160030160146101000a81548160ff0219169083600581111561217557fe5b02179055507f917059c1f4e69f15a941c78efb433b9957e94aceae99b068787c32e18c4a9b8d866040518082815260200191505060405180910390a15b5b505050505050565b6121c361198b565b6121cc57600080fd5b80600460006101000a81548173ffffffffffffffffffffffffffffffffffffffff021916908373ffffffffffffffffffffffffffffffffffffffff16021790555050565b6000600280549050821061228c576040517f08c379a00000000000000000000000000000000000000000000000000000000081526004018080602001828103825260158152602001807f496e76616c6964206368616e6765206e756d626572000000000000000000000081525060200191505060405180910390fd5b612294612b76565b600283815481106122a157fe5b90600052602060002090600402016040518060a0016040529081600082015481526020016001820180548060200260200160405190810160405280929190818152602001828054801561234957602002820191906000526020600020905b8160009054906101000a900473ffffffffffffffffffffffffffffffffffffffff1673ffffffffffffffffffffffffffffffffffffffff16815260200190600101908083116122ff575b50505050508152602001600282015481526020016003820160009054906101000a900473ffffffffffffffffffffffffffffffffffffffff1673ffffffffffffffffffffffffffffffffffffffff1673ffffffffffffffffffffffffffffffffffffffff1681526020016003820160149054906101000a900460ff1660058111156123d057fe5b60058111156123db57fe5b815250509050600060058111156123ee57fe5b816080015160058111156123fe57fe5b14612454576040517f08c379a0000000000000000000000000000000000000000000000000000000008152600401808060200182810382526027815260200180612dfd6027913960400191505060405180910390fd5b8060600151915050919050565b600460009054906101000a900473ffffffffffffffffffffffffffffffffffffffff1673ffffffffffffffffffffffffffffffffffffffff163373ffffffffffffffffffffffffffffffffffffffff1614612507576040517f08c379a0000000000000000000000000000000000000000000000000000000008152600401808060200182810382526030815260200180612d266030913960400191505060405180910390fd5b6002805490508110612581576040517f08c379a00000000000000000000000000000000000000000000000000000000081526004018080602001828103825260158152602001807f496e76616c6964206368616e6765206e756d626572000000000000000000000081525060200191505060405180910390fd5b612589612b76565b6002828154811061259657fe5b90600052602060002090600402016040518060a0016040529081600082015481526020016001820180548060200260200160405190810160405280929190818152602001828054801561263e57602002820191906000526020600020905b8160009054906101000a900473ffffffffffffffffffffffffffffffffffffffff1673ffffffffffffffffffffffffffffffffffffffff16815260200190600101908083116125f4575b50505050508152602001600282015481526020016003820160009054906101000a900473ffffffffffffffffffffffffffffffffffffffff1673ffffffffffffffffffffffffffffffffffffffff1673ffffffffffffffffffffffffffffffffffffffff1681526020016003820160149054906101000a900460ff1660058111156126c557fe5b60058111156126d057fe5b815250509050600060058111156126e357fe5b816080015160058111156126f357fe5b14612749576040517f08c379a0000000000000000000000000000000000000000000000000000000008152600401808060200182810382526027815260200180612dfd6027913960400191505060405180910390fd5b60036002838154811061275857fe5b906000526020600020906004020160030160146101000a81548160ff0219169083600581111561278457fe5b02179055507ff1a8ffd21fe9ef7be34e0f4bf577d3bf31ce3c19c68d2c046d22275cb8b715f4826040518082815260200191505060405180910390a15050565b6127cc61198b565b6127d557600080fd5b6127de81612927565b50565b60008073ffffffffffffffffffffffffffffffffffffffff168273ffffffffffffffffffffffffffffffffffffffff16141561281c57600080fd5b8260000160008373ffffffffffffffffffffffffffffffffffffffff1673ffffffffffffffffffffffffffffffffffffffff16815260200190815260200160002060009054906101000a900460ff16905092915050565b612887816000612a1f90919063ffffffff16565b8073ffffffffffffffffffffffffffffffffffffffff167fcd265ebaf09df2871cc7bd4133404a235ba12eff2041bb89d9c714a2621c7c7e60405160405180910390a250565b6128e1816000612aca90919063ffffffff16565b8073ffffffffffffffffffffffffffffffffffffffff167f6719d08c1888103bea251a4ed56406bd0c3e69723c8a1686e017e7bbe159b6f860405160405180910390a250565b600073ffffffffffffffffffffffffffffffffffffffff168173ffffffffffffffffffffffffffffffffffffffff16141561296157600080fd5b8073ffffffffffffffffffffffffffffffffffffffff166001809054906101000a900473ffffffffffffffffffffffffffffffffffffffff1673ffffffffffffffffffffffffffffffffffffffff167f8be0079c531659141344cd1fd0a4f28419497f9722a3daafe3b4186f6b6457e060405160405180910390a3806001806101000a81548173ffffffffffffffffffffffffffffffffffffffff021916908373ffffffffffffffffffffffffffffffffffffffff16021790555050565b600073ffffffffffffffffffffffffffffffffffffffff168173ffffffffffffffffffffffffffffffffffffffff161415612a5957600080fd5b612a6382826127e1565b612a6c57600080fd5b60008260000160008373ffffffffffffffffffffffffffffffffffffffff1673ffffffffffffffffffffffffffffffffffffffff16815260200190815260200160002060006101000a81548160ff0219169083151502179055505050565b600073ffffffffffffffffffffffffffffffffffffffff168173ffffffffffffffffffffffffffffffffffffffff161415612b0457600080fd5b612b0e82826127e1565b15612b1857600080fd5b60018260000160008373ffffffffffffffffffffffffffffffffffffffff1673ffffffffffffffffffffffffffffffffffffffff16815260200190815260200160002060006101000a81548160ff0219169083151502179055505050565b6040518060a00160405280600080191681526020016060815260200160008152602001600073ffffffffffffffffffffffffffffffffffffffff16815260200160006005811115612bc357fe5b81525090565b828054828255906000526020600020908101928215612c42579160200282015b82811115612c415782518260006101000a81548173ffffffffffffffffffffffffffffffffffffffff021916908373ffffffffffffffffffffffffffffffffffffffff16021790555091602001919060010190612be9565b5b509050612c4f9190612c53565b5090565b612c9391905b80821115612c8f57600081816101000a81549073ffffffffffffffffffffffffffffffffffffffff021916905550600101612c59565b5090565b9056fe546865206368616e6765206e6565647320746f2062652065786563757465642062792041646d696e546869732066756e6374696f6e2063616e206f6e6c7920626520657865637574656420627920557067726164657273546865206368616e6765206e6565647320746f20626520696e20415050524f564544206f7220696e20455845435554494e47207374617465546869732066756e6374696f6e2063616e206f6e6c7920626520657865637574656420627920476f7665726e616e6365546865206368616e6765206e6565647320746f20626520696e2057414954494e47206f7220415050524f564544206f7220455845435554494e47207374617465696e6465782062656c6f6e677320746f2061206368616e676520746861742077617320616c7265616479206578656375746564696e646578206d757374206265206c6f776572207468616e2074686520746f74616c2073697a65206f6620557067726164657273546865206368616e6765206e6565647320746f20626520696e2057414954494e472073746174656974206973206e656365737361727920746f206578656375746520616e2075706772616465722077697468206c6f77657220696e646578206669727374a265627a7a723158207427b5e56892c028bd2f522c7f828804439e97761f23801f27d41504b60e9e3264736f6c634300050c0032608060405234801561001057600080fd5b50604051610bdb380380610bdb8339818101604052602081101561003357600080fd5b8101908080519060200190929190505050336000806101000a81548173ffffffffffffffffffffffffffffffffffffffff021916908373ffffffffffffffffffffffffffffffffffffffff1602179055506000809054906101000a900473ffffffffffffffffffffffffffffffffffffffff1673ffffffffffffffffffffffffffffffffffffffff16600073ffffffffffffffffffffffffffffffffffffffff167f8be0079c531659141344cd1fd0a4f28419497f9722a3daafe3b4186f6b6457e060405160405180910390a38073ffffffffffffffffffffffffffffffffffffffff16600260009054906101000a900473ffffffffffffffffffffffffffffffffffffffff1673ffffffffffffffffffffffffffffffffffffffff167f7e644d79422f17c01e4894b5f4f588d331ebfa28653d42ae832dc59e38c9798f60405160405180910390a380600260006101000a81548173ffffffffffffffffffffffffffffffffffffffff021916908373ffffffffffffffffffffffffffffffffffffffff16021790555050610a0e806101cd6000396000f3fe608060405234801561001057600080fd5b50600436106100b45760003560e01c80637e96549f116100715780637e96549f1461023b57806381830593146102975780638da5cb5b146102e15780638f32d59b1461032b578063eff2dcc61461034d578063f2fde38b14610397576100b4565b8063030aa320146100b957806311a1c4231461010357806324d7806c146101475780632ea6895e146101a357806341a28df6146101ed578063715018a614610231575b600080fd5b6100c16103db565b604051808273ffffffffffffffffffffffffffffffffffffffff1673ffffffffffffffffffffffffffffffffffffffff16815260200191505060405180910390f35b6101456004803603602081101561011957600080fd5b81019080803573ffffffffffffffffffffffffffffffffffffffff169060200190929190505050610401565b005b6101896004803603602081101561015d57600080fd5b81019080803573ffffffffffffffffffffffffffffffffffffffff1690602001909291905050506104d2565b604051808215151515815260200191505060405180910390f35b6101ab61052c565b604051808273ffffffffffffffffffffffffffffffffffffffff1673ffffffffffffffffffffffffffffffffffffffff16815260200191505060405180910390f35b61022f6004803603602081101561020357600080fd5b81019080803573ffffffffffffffffffffffffffffffffffffffff169060200190929190505050610552565b005b6102396106c6565b005b61027d6004803603602081101561025157600080fd5b81019080803573ffffffffffffffffffffffffffffffffffffffff169060200190929190505050610796565b604051808215151515815260200191505060405180910390f35b61029f6107f0565b604051808273ffffffffffffffffffffffffffffffffffffffff1673ffffffffffffffffffffffffffffffffffffffff16815260200191505060405180910390f35b6102e961081a565b604051808273ffffffffffffffffffffffffffffffffffffffff1673ffffffffffffffffffffffffffffffffffffffff16815260200191505060405180910390f35b610333610843565b604051808215151515815260200191505060405180910390f35b61035561089a565b604051808273ffffffffffffffffffffffffffffffffffffffff1673ffffffffffffffffffffffffffffffffffffffff16815260200191505060405180910390f35b6103d9600480360360208110156103ad57600080fd5b81019080803573ffffffffffffffffffffffffffffffffffffffff1690602001909291905050506108c4565b005b600260009054906101000a900473ffffffffffffffffffffffffffffffffffffffff1681565b610409610843565b61041257600080fd5b8073ffffffffffffffffffffffffffffffffffffffff16600160009054906101000a900473ffffffffffffffffffffffffffffffffffffffff1673ffffffffffffffffffffffffffffffffffffffff167f9cc0fca95bdc66b57e27ff56ce70619d6c76e891759b10768345411032913ecf60405160405180910390a380600160006101000a81548173ffffffffffffffffffffffffffffffffffffffff021916908373ffffffffffffffffffffffffffffffffffffffff16021790555050565b60008173ffffffffffffffffffffffffffffffffffffffff16600260009054906101000a900473ffffffffffffffffffffffffffffffffffffffff1673ffffffffffffffffffffffffffffffffffffffff16149050919050565b600160009054906101000a900473ffffffffffffffffffffffffffffffffffffffff1681565b61055a610843565b61056357600080fd5b600073ffffffffffffffffffffffffffffffffffffffff168173ffffffffffffffffffffffffffffffffffffffff161415610606576040517f08c379a000000000000000000000000000000000000000000000000000000000815260040180806020018281038252601e8152602001807f4e657741646472206973206e6f7420612076616c69642061646472657373000081525060200191505060405180910390fd5b8073ffffffffffffffffffffffffffffffffffffffff16600260009054906101000a900473ffffffffffffffffffffffffffffffffffffffff1673ffffffffffffffffffffffffffffffffffffffff167f7e644d79422f17c01e4894b5f4f588d331ebfa28653d42ae832dc59e38c9798f60405160405180910390a380600260006101000a81548173ffffffffffffffffffffffffffffffffffffffff021916908373ffffffffffffffffffffffffffffffffffffffff16021790555050565b6106ce610843565b6106d757600080fd5b600073ffffffffffffffffffffffffffffffffffffffff166000809054906101000a900473ffffffffffffffffffffffffffffffffffffffff1673ffffffffffffffffffffffffffffffffffffffff167f8be0079c531659141344cd1fd0a4f28419497f9722a3daafe3b4186f6b6457e060405160405180910390a360008060006101000a81548173ffffffffffffffffffffffffffffffffffffffff021916908373ffffffffffffffffffffffffffffffffffffffff160217905550565b6000600160009054906101000a900473ffffffffffffffffffffffffffffffffffffffff1673ffffffffffffffffffffffffffffffffffffffff168273ffffffffffffffffffffffffffffffffffffffff16149050919050565b6000600260009054906101000a900473ffffffffffffffffffffffffffffffffffffffff16905090565b60008060009054906101000a900473ffffffffffffffffffffffffffffffffffffffff16905090565b60008060009054906101000a900473ffffffffffffffffffffffffffffffffffffffff1673ffffffffffffffffffffffffffffffffffffffff163373ffffffffffffffffffffffffffffffffffffffff1614905090565b6000600160009054906101000a900473ffffffffffffffffffffffffffffffffffffffff16905090565b6108cc610843565b6108d557600080fd5b6108de816108e1565b50565b600073ffffffffffffffffffffffffffffffffffffffff168173ffffffffffffffffffffffffffffffffffffffff16141561091b57600080fd5b8073ffffffffffffffffffffffffffffffffffffffff166000809054906101000a900473ffffffffffffffffffffffffffffffffffffffff1673ffffffffffffffffffffffffffffffffffffffff167f8be0079c531659141344cd1fd0a4f28419497f9722a3daafe3b4186f6b6457e060405160405180910390a3806000806101000a81548173ffffffffffffffffffffffffffffffffffffffff021916908373ffffffffffffffffffffffffffffffffffffffff1602179055505056fea265627a7a723158208f7e6b55aaad80bcbf7ca939fee3a147bca4d96341b89a19322760fe3140d1b264736f6c634300050c0032",
  "source": "pragma solidity ^0.5.0;\r\n\r\nimport \"openzeppelin-solidity/contracts/ownership/Ownable.sol\";\r\nimport \"openzeppelin-solidity/contracts/lifecycle/Pausable.sol\";\r\n\r\nimport \"./UpgraderInfo.sol\";\r\nimport \"./Upgrader.sol\";\r\n\r\ncontract ChangeManagement is Pausable, Ownable() {\r\n\r\n    enum ChangeState { WAITING, APPROVED, EXECUTING, DISAPPROVED, CANCELED, FINISHED }\r\n\r\n    struct ChangeDataStructure {\r\n        \r\n        //Hash of the change motivation\r\n        bytes32 hashChangeMotivation;\r\n        \r\n        //Address of upgrader contract\r\n        address[] upgraderContractsAddr;\r\n\r\n        //Stores the next executed upgrader of this change data structure - it will finish with upgraderContractsAddr.lenght\r\n        uint upgraderContractToBeExecutedIndex;\r\n\r\n        //Address of decision contract (if necessary)\r\n        address decisionContractAddr;\r\n\r\n        ChangeState changeState;\r\n    }\r\n\r\n    ChangeDataStructure[] public governingChanges;\r\n    UpgraderInfo public upgraderInfo;\r\n    address public _governanceAddress;\r\n\r\n    modifier onlyAllowedUpgrader() {\r\n        require(upgraderInfo.isAllowedUpgrader(msg.sender), \"This function can only be executed by Upgraders\");\r\n        _;\r\n    }\r\n    modifier onlyGovernance() {\r\n        require(msg.sender==_governanceAddress, \"This function can only be executed by Governance\");\r\n        _;\r\n    }\r\n\r\n    constructor (address adminOfNewContractsAddr) public {\r\n        upgraderInfo = new UpgraderInfo(adminOfNewContractsAddr);\r\n    }\r\n\r\n    event NewChangeCreated(uint changeNumber, bytes32 hashChangeMotivation, address[] upgraderContractsAddr,\r\n            address decisionContractAddr);\r\n    event ChangeApproved(uint changeNumber);\r\n    event ChangePartialExecuted(uint changeNumber, uint index);\r\n    event ChangeExecuted(uint changeNumber);\r\n    event ChangeDisapproved(uint changeNumber);\r\n    event ChangeCancelled(uint changeNumber);\r\n    \r\n\r\n    function createNewChange (bytes32 hashChangeMotivation, address[] memory upgraderContractsAddr,\r\n            address decisionContractAddr) public onlyOwner {\r\n            \r\n            uint changeNumber = governingChanges.length;\r\n\r\n            ChangeDataStructure memory cds;\r\n            \r\n            //TODO: funciona?\r\n            if (decisionContractAddr != address(0)) {\r\n                //GovernanceDecision governanceDecision = new GovernanceDecision(governanceMembersId, percentageDecision, address(idRegistry), changeNumber);\r\n                cds = ChangeDataStructure(hashChangeMotivation, upgraderContractsAddr, 0,\r\n                        decisionContractAddr, ChangeState.WAITING);\r\n                emit NewChangeCreated(changeNumber, hashChangeMotivation, upgraderContractsAddr, decisionContractAddr);\r\n\r\n            }\r\n            else { //The owner decided by itself\r\n                cds = ChangeDataStructure(hashChangeMotivation, upgraderContractsAddr, 0,\r\n                                    address(0), ChangeState.APPROVED);\r\n                emit NewChangeCreated(changeNumber, hashChangeMotivation, upgraderContractsAddr, address(0));\r\n                cds.changeState = ChangeState.APPROVED;\r\n                emit ChangeApproved(changeNumber);\r\n\r\n            }\r\n            governingChanges.push(cds);\r\n    }\r\n\r\n    function executeChange (uint changeNumber) public {\r\n        executeChange(changeNumber, 0);\r\n    }\r\n\r\n    function executeChange (uint changeNumber, uint index) public {\r\n\r\n        require (changeNumber<governingChanges.length, \"Invalid change number\");\r\n\r\n        require (upgraderInfo.isAdmin(msg.sender), \"The change needs to be executed by Admin\");\r\n\r\n        ChangeDataStructure memory cds = governingChanges[changeNumber];\r\n\r\n        require(cds.changeState==ChangeState.APPROVED || cds.changeState==ChangeState.EXECUTING,\r\n            \"The change needs to be in APPROVED or in EXECUTING state\");\r\n\r\n        address[] memory upgraderContractsAddr = cds.upgraderContractsAddr;\r\n\r\n        require (index < upgraderContractsAddr.length, \"index must be lower than the total size of Upgraders\");\r\n        require (!(index < cds.upgraderContractToBeExecutedIndex), \"index belongs to a change that was already executed\");\r\n        require (!(index > cds.upgraderContractToBeExecutedIndex), \"it is necessary to execute an upgrader with lower index first\");\r\n\r\n        address upgraderAddr = upgraderContractsAddr[index];\r\n        upgraderInfo.setAllowedUpgrader(upgraderAddr);\r\n        Upgrader upgrader = Upgrader(upgraderAddr);\r\n        upgrader.upgrade();\r\n        governingChanges[changeNumber].upgraderContractToBeExecutedIndex++;\r\n\r\n        if (governingChanges[changeNumber].upgraderContractToBeExecutedIndex < upgraderContractsAddr.length) { //still need to execute more changes\r\n            emit ChangePartialExecuted(changeNumber, index);\r\n            if (governingChanges[changeNumber].changeState == ChangeState.APPROVED) {\r\n                governingChanges[changeNumber].changeState = ChangeState.EXECUTING;\r\n            }\r\n        }\r\n        \r\n        else if (governingChanges[changeNumber].upgraderContractToBeExecutedIndex == upgraderContractsAddr.length) {\r\n            governingChanges[changeNumber].changeState = ChangeState.FINISHED;\r\n            emit ChangeExecuted(changeNumber);\r\n        }\r\n    }\r\n\r\n\r\n    function cancelChange (uint changeNumber) public onlyOwner {\r\n\r\n        require (changeNumber<governingChanges.length, \"Invalid change number\");\r\n\r\n        ChangeDataStructure memory cds = governingChanges[changeNumber];\r\n\r\n        require(cds.changeState==ChangeState.WAITING || cds.changeState==ChangeState.APPROVED || cds.changeState==ChangeState.EXECUTING,\r\n            \"The change needs to be in WAITING or APPROVED or EXECUTING state\");\r\n\r\n        governingChanges[changeNumber].changeState = ChangeState.CANCELED;\r\n\r\n        //Importante: nao cancelar no contrato de deciso\r\n\r\n        emit ChangeCancelled(changeNumber);\r\n    }\r\n\r\n    function getChange(uint changeNumber) public view returns (bytes32, address[] memory, uint, address, ChangeState) {\r\n\r\n        require (changeNumber<governingChanges.length, \"Invalid change number\");\r\n\r\n        ChangeDataStructure memory cds = governingChanges[changeNumber];\r\n        return (cds.hashChangeMotivation, cds.upgraderContractsAddr, cds.upgraderContractToBeExecutedIndex,\r\n                cds.decisionContractAddr, cds.changeState);\r\n\r\n    }\r\n\r\n\r\n    function getDecisionContractToMakeResult(uint changeNumber) public view returns (address) {\r\n\r\n        require (changeNumber<governingChanges.length, \"Invalid change number\");\r\n\r\n        ChangeDataStructure memory cds = governingChanges[changeNumber];\r\n\r\n        require(cds.changeState==ChangeState.WAITING, \"The change needs to be in WAITING state\");\r\n\r\n        return (cds.decisionContractAddr);\r\n    }\r\n\r\n    function approveChange(uint changeNumber) public onlyGovernance {\r\n\r\n        require (changeNumber<governingChanges.length, \"Invalid change number\");\r\n\r\n        ChangeDataStructure memory cds = governingChanges[changeNumber];\r\n\r\n        require(cds.changeState==ChangeState.WAITING, \"The change needs to be in WAITING state\");\r\n        \r\n        governingChanges[changeNumber].changeState = ChangeState.APPROVED;\r\n        \r\n        emit ChangeApproved(changeNumber);\r\n    }\r\n\r\n    function reproveChange(uint changeNumber) public onlyGovernance {\r\n\r\n        require (changeNumber<governingChanges.length, \"Invalid change number\");\r\n\r\n        ChangeDataStructure memory cds = governingChanges[changeNumber];\r\n\r\n        require(cds.changeState==ChangeState.WAITING, \"The change needs to be in WAITING state\");\r\n\r\n        governingChanges[changeNumber].changeState = ChangeState.DISAPPROVED;\r\n        \r\n        emit ChangeDisapproved(changeNumber);\r\n    }\r\n\r\n    function setGovernanceAddress(address governanceAddress) public onlyOwner {\r\n        _governanceAddress = governanceAddress;\r\n    }\r\n\r\n    //This function should not be called alone. In order to change the admin, it is necessary to change the pausables.\r\n    function setAdminAddr (address newAddr) public onlyAllowedUpgrader {\r\n        upgraderInfo.setAdminAddr(newAddr);\r\n    }\r\n\r\n    function upgraderInfoAddr() public view returns (address)  {\r\n        return address(upgraderInfo);\r\n    }\r\n   \r\n }",
  "sourcePath": "D:\\workspace\\bndestoken-captacao\\Back-Blockchain\\contracts\\appGovernanceUpgrade\\ChangeManagement.sol",
  "compiler": {
    "name": "solc",
    "version": "0.5.12+commit.7709ece9.Emscripten.clang"
  },
  "schemaVersion": "3.0.20",
  "updatedAt": "2020-01-31T18:10:32.310Z",
  "devdoc": {
    "methods": {
      "isOwner()": {
        "return": "true if `msg.sender` is the owner of the contract."
      },
      "owner()": {
        "return": "the address of the owner."
      },
      "pause()": {
        "details": "called by the owner to pause, triggers stopped state"
      },
      "paused()": {
        "return": "true if the contract is paused, false otherwise."
      },
      "renounceOwnership()": {
        "details": "Allows the current owner to relinquish control of the contract."
      },
      "transferOwnership(address)": {
        "details": "Allows the current owner to transfer control of the contract to a newOwner.",
        "params": {
          "newOwner": "The address to transfer ownership to."
        }
      },
      "unpause()": {
        "details": "called by the owner to unpause, returns to normal state"
      }
    }
  },
  "userdoc": {
    "methods": {
      "renounceOwnership()": {
        "notice": "Renouncing to ownership will leave the contract without an owner. It will not be possible to call the functions with the `onlyOwner` modifier anymore."
      }
    }
  }
}