{
  "contractName": "GovernanceDecision",
  "abi": [
    {
      "inputs": [
        {
          "internalType": "bytes32",
          "name": "hashChangeMotivation",
          "type": "bytes32"
        },
        {
          "internalType": "uint256[]",
          "name": "votersId",
          "type": "uint256[]"
        },
        {
          "internalType": "uint256",
          "name": "percentage",
          "type": "uint256"
        },
        {
          "internalType": "address",
          "name": "idRegistryAddr",
          "type": "address"
        }
      ],
      "payable": false,
      "stateMutability": "nonpayable",
      "type": "constructor"
    },
    {
      "anonymous": false,
      "inputs": [
        {
          "indexed": true,
          "internalType": "address",
          "name": "previousOwner",
          "type": "address"
        },
        {
          "indexed": true,
          "internalType": "address",
          "name": "newOwner",
          "type": "address"
        }
      ],
      "name": "OwnershipTransferred",
      "type": "event"
    },
    {
      "constant": true,
      "inputs": [],
      "name": "idRegistry",
      "outputs": [
        {
          "internalType": "contract IdRegistry",
          "name": "",
          "type": "address"
        }
      ],
      "payable": false,
      "stateMutability": "view",
      "type": "function"
    },
    {
      "constant": true,
      "inputs": [],
      "name": "isOwner",
      "outputs": [
        {
          "internalType": "bool",
          "name": "",
          "type": "bool"
        }
      ],
      "payable": false,
      "stateMutability": "view",
      "type": "function"
    },
    {
      "constant": true,
      "inputs": [],
      "name": "numOfAgreements",
      "outputs": [
        {
          "internalType": "uint256",
          "name": "",
          "type": "uint256"
        }
      ],
      "payable": false,
      "stateMutability": "view",
      "type": "function"
    },
    {
      "constant": true,
      "inputs": [],
      "name": "numOfVoters",
      "outputs": [
        {
          "internalType": "uint256",
          "name": "",
          "type": "uint256"
        }
      ],
      "payable": false,
      "stateMutability": "view",
      "type": "function"
    },
    {
      "constant": true,
      "inputs": [],
      "name": "owner",
      "outputs": [
        {
          "internalType": "address",
          "name": "",
          "type": "address"
        }
      ],
      "payable": false,
      "stateMutability": "view",
      "type": "function"
    },
    {
      "constant": true,
      "inputs": [],
      "name": "percentage",
      "outputs": [
        {
          "internalType": "uint256",
          "name": "",
          "type": "uint256"
        }
      ],
      "payable": false,
      "stateMutability": "view",
      "type": "function"
    },
    {
      "constant": false,
      "inputs": [],
      "name": "renounceOwnership",
      "outputs": [],
      "payable": false,
      "stateMutability": "nonpayable",
      "type": "function"
    },
    {
      "constant": true,
      "inputs": [],
      "name": "status",
      "outputs": [
        {
          "internalType": "enum GovernanceDecision.UpgraderStatus",
          "name": "",
          "type": "uint8"
        }
      ],
      "payable": false,
      "stateMutability": "view",
      "type": "function"
    },
    {
      "constant": false,
      "inputs": [
        {
          "internalType": "address",
          "name": "newOwner",
          "type": "address"
        }
      ],
      "name": "transferOwnership",
      "outputs": [],
      "payable": false,
      "stateMutability": "nonpayable",
      "type": "function"
    },
    {
      "constant": true,
      "inputs": [
        {
          "internalType": "uint256",
          "name": "",
          "type": "uint256"
        }
      ],
      "name": "voterRegistered",
      "outputs": [
        {
          "internalType": "bool",
          "name": "",
          "type": "bool"
        }
      ],
      "payable": false,
      "stateMutability": "view",
      "type": "function"
    },
    {
      "constant": true,
      "inputs": [
        {
          "internalType": "uint256",
          "name": "",
          "type": "uint256"
        }
      ],
      "name": "voting",
      "outputs": [
        {
          "internalType": "bool",
          "name": "",
          "type": "bool"
        }
      ],
      "payable": false,
      "stateMutability": "view",
      "type": "function"
    },
    {
      "constant": false,
      "inputs": [
        {
          "internalType": "bool",
          "name": "_choose",
          "type": "bool"
        }
      ],
      "name": "vote",
      "outputs": [],
      "payable": false,
      "stateMutability": "nonpayable",
      "type": "function"
    },
    {
      "constant": false,
      "inputs": [],
      "name": "makeResult",
      "outputs": [
        {
          "internalType": "bool",
          "name": "",
          "type": "bool"
        }
      ],
      "payable": false,
      "stateMutability": "nonpayable",
      "type": "function"
    }
  ],
  "bytecode": "0x60806040526000600655600060075534801561001a57600080fd5b50604051610d93380380610d938339818101604052608081101561003d57600080fd5b81019080805190602001909291908051604051939291908464010000000082111561006757600080fd5b8382019150602082018581111561007d57600080fd5b825186602082028301116401000000008211171561009a57600080fd5b8083526020830192505050908051906020019060200280838360005b838110156100d15780820151818401526020810190506100b6565b505050509050016040526020018051906020019092919080519060200190929190505050336000806101000a81548173ffffffffffffffffffffffffffffffffffffffff021916908373ffffffffffffffffffffffffffffffffffffffff1602179055506000809054906101000a900473ffffffffffffffffffffffffffffffffffffffff1673ffffffffffffffffffffffffffffffffffffffff16600073ffffffffffffffffffffffffffffffffffffffff167f8be0079c531659141344cd1fd0a4f28419497f9722a3daafe3b4186f6b6457e060405160405180910390a3836002819055506101c78361024460201b60201c565b6101d6826102ee60201b60201c565b80600160006101000a81548173ffffffffffffffffffffffffffffffffffffffff021916908373ffffffffffffffffffffffffffffffffffffffff1602179055506000600160146101000a81548160ff0219169083600381111561023657fe5b02179055505050505061030c565b60008090505b81518110156102ea576005600083838151811061026357fe5b6020026020010151815260200190815260200160002060009054906101000a900460ff166102dd5760016005600084848151811061029d57fe5b6020026020010151815260200190815260200160002060006101000a81548160ff0219169083151502179055506006600081548092919060010191905055505b808060010191505061024a565b5050565b80600381905550606460035411156103095760646003819055505b50565b610a788061031b6000396000f3fe608060405234801561001057600080fd5b50600436106100cf5760003560e01c806398f0b34c1161008c578063e14d58d911610066578063e14d58d914610272578063ef32fc5114610294578063f2fde38b146102b2578063fd4a77f1146102f6576100cf565b806398f0b34c146101f0578063be33dc4c1461020e578063c78ad77f14610254576100cf565b80630aa13b8c146100d4578063200d2ed21461011e5780634b9f5c981461014a578063715018a61461017a5780638da5cb5b146101845780638f32d59b146101ce575b600080fd5b6100dc61033c565b604051808273ffffffffffffffffffffffffffffffffffffffff1673ffffffffffffffffffffffffffffffffffffffff16815260200191505060405180910390f35b610126610362565b6040518082600381111561013657fe5b60ff16815260200191505060405180910390f35b6101786004803603602081101561016057600080fd5b81019080803515159060200190929190505050610375565b005b6101826105f0565b005b61018c6106c0565b604051808273ffffffffffffffffffffffffffffffffffffffff1673ffffffffffffffffffffffffffffffffffffffff16815260200191505060405180910390f35b6101d66106e9565b604051808215151515815260200191505060405180910390f35b6101f8610740565b6040518082815260200191505060405180910390f35b61023a6004803603602081101561022457600080fd5b8101908080359060200190929190505050610746565b604051808215151515815260200191505060405180910390f35b61025c610766565b6040518082815260200191505060405180910390f35b61027a61076c565b604051808215151515815260200191505060405180910390f35b61029c610887565b6040518082815260200191505060405180910390f35b6102f4600480360360208110156102c857600080fd5b81019080803573ffffffffffffffffffffffffffffffffffffffff16906020019092919050505061088d565b005b6103226004803603602081101561030c57600080fd5b81019080803590602001909291905050506108aa565b604051808215151515815260200191505060405180910390f35b600160009054906101000a900473ffffffffffffffffffffffffffffffffffffffff1681565b600160149054906101000a900460ff1681565b6000600381111561038257fe5b600160149054906101000a900460ff16600381111561039d57fe5b146103f3576040517f08c379a0000000000000000000000000000000000000000000000000000000008152600401808060200182810382526021815260200180610a236021913960400191505060405180910390fd5b6000600160009054906101000a900473ffffffffffffffffffffffffffffffffffffffff1673ffffffffffffffffffffffffffffffffffffffff166365f68c89336040518263ffffffff1660e01b8152600401808273ffffffffffffffffffffffffffffffffffffffff1673ffffffffffffffffffffffffffffffffffffffff16815260200191505060206040518083038186803b15801561049457600080fd5b505afa1580156104a8573d6000803e3d6000fd5b505050506040513d60208110156104be57600080fd5b810190808051906020019092919050505090506005600082815260200190815260200160002060009054906101000a900460ff16610564576040517f08c379a000000000000000000000000000000000000000000000000000000000815260040180806020018281038252601b8152602001807f446f206e6f74206861766520746865207065726d697373696f6e21000000000081525060200191505060405180910390fd5b8115156004600083815260200190815260200160002060009054906101000a900460ff161515146105ec5781156105ac576007600081548092919060010191905055506105c0565b600760008154809291906001900391905055505b816004600083815260200190815260200160002060006101000a81548160ff0219169083151502179055505b5050565b6105f86106e9565b61060157600080fd5b600073ffffffffffffffffffffffffffffffffffffffff166000809054906101000a900473ffffffffffffffffffffffffffffffffffffffff1673ffffffffffffffffffffffffffffffffffffffff167f8be0079c531659141344cd1fd0a4f28419497f9722a3daafe3b4186f6b6457e060405160405180910390a360008060006101000a81548173ffffffffffffffffffffffffffffffffffffffff021916908373ffffffffffffffffffffffffffffffffffffffff160217905550565b60008060009054906101000a900473ffffffffffffffffffffffffffffffffffffffff16905090565b60008060009054906101000a900473ffffffffffffffffffffffffffffffffffffffff1673ffffffffffffffffffffffffffffffffffffffff163373ffffffffffffffffffffffffffffffffffffffff1614905090565b60065481565b60056020528060005260406000206000915054906101000a900460ff1681565b60035481565b600080600381111561077a57fe5b600160149054906101000a900460ff16600381111561079557fe5b146107eb576040517f08c379a0000000000000000000000000000000000000000000000000000000008152600401808060200182810382526021815260200180610a236021913960400191505060405180910390fd5b6107f36106e9565b6107fc57600080fd5b61082660646108186003546006546108ca90919063ffffffff16565b61090490919063ffffffff16565b600754111561085b5760018060146101000a81548160ff0219169083600381111561084d57fe5b021790555060019050610884565b6002600160146101000a81548160ff0219169083600381111561087a57fe5b0217905550600090505b90565b60075481565b6108956106e9565b61089e57600080fd5b6108a78161092a565b50565b60046020528060005260406000206000915054906101000a900460ff1681565b6000808314156108dd57600090506108fe565b60008284029050828482816108ee57fe5b04146108f957600080fd5b809150505b92915050565b600080821161091257600080fd5b600082848161091d57fe5b0490508091505092915050565b600073ffffffffffffffffffffffffffffffffffffffff168173ffffffffffffffffffffffffffffffffffffffff16141561096457600080fd5b8073ffffffffffffffffffffffffffffffffffffffff166000809054906101000a900473ffffffffffffffffffffffffffffffffffffffff1673ffffffffffffffffffffffffffffffffffffffff167f8be0079c531659141344cd1fd0a4f28419497f9722a3daafe3b4186f6b6457e060405160405180910390a3806000806101000a81548173ffffffffffffffffffffffffffffffffffffffff021916908373ffffffffffffffffffffffffffffffffffffffff1602179055505056fe4465636973696f6e206e6f7420696e2074686520766f74696e6720737461746521a265627a7a723158206a92a46248c0a3d94e5b34df2ccff08219f8d336a5a0b1abbdc37b29f6cb615464736f6c634300050c0032",
  "source": "pragma solidity ^0.5.0;\r\n\r\nimport \"openzeppelin-solidity/contracts/math/SafeMath.sol\";\r\nimport \"openzeppelin-solidity/contracts/ownership/Ownable.sol\";\r\nimport \"./IdRegistry.sol\";\r\n\r\n\r\ncontract GovernanceDecision is Ownable() {\r\n\r\n\tusing SafeMath for uint256;\r\n\r\n\tIdRegistry public idRegistry;\r\n\r\n\tenum UpgraderStatus {\r\n\t\tVoting,\r\n\t\tApproved,\r\n\t\tRejected,\r\n\t\tCancelled\r\n\t}\r\n\r\n\tUpgraderStatus public status;\r\n\r\n\tbytes32 _hashChangeMotivation;\r\n\r\n\t/** Voting mechanism related */\r\n\tuint256 public percentage;\r\n\tmapping(uint => bool) public voting;\r\n\tmapping(uint => bool) public voterRegistered;\r\n\tuint256 public numOfVoters = 0;\r\n\tuint256 public numOfAgreements = 0;\r\n\r\n\tmodifier onlyInVotingState {\r\n\t\trequire(status == UpgraderStatus.Voting, \"Decision not in the voting state!\");\r\n\t\t_;\r\n\t}\r\n\r\n//If idRegistryAddr changes, the old contract will be still able to answer id Queries (unless it is destroyed).\r\n//If the answer of the old version of the contract is not ok, the decision contract should be cancelled.\r\n\r\n\tconstructor (bytes32 hashChangeMotivation, uint[] memory votersId, \r\n\t\tuint256 percentage, address idRegistryAddr) public {\r\n\r\n\t\t_hashChangeMotivation = hashChangeMotivation;\r\n\t\t_addVoters(votersId);\r\n\t\t_setPercentage(percentage);\r\n\r\n\t\tidRegistry = IdRegistry(idRegistryAddr);\r\n\r\n\t\t// Mark the contract as voting.\r\n\t\tstatus = UpgraderStatus.Voting;\r\n\r\n\t}\r\n\r\n\t//TODO: cancel change\r\n\r\n\r\n\t/**\r\n\t * Vote.\r\n\t *\r\n\t * @param\t_choose\tif the voter agrees with the proposal.\r\n\t *\r\n\t * exception\tPermissionException\tmsg.sender is not a voter.\r\n\t * \r\n\t */\r\n\tfunction vote (bool _choose) external onlyInVotingState {\r\n\t\tuint voterId = idRegistry.getId(msg.sender);\r\n\t\trequire(voterRegistered[voterId], \"Do not have the permission!\");\r\n\t\tif (voting[voterId] != _choose) {\r\n\t\t\tif (_choose) {\r\n\t\t\t\tnumOfAgreements++;\r\n\t\t\t} else {\r\n\t\t\t\tnumOfAgreements--;\r\n\t\t\t}\r\n\t\t\tvoting[voterId] = _choose;\r\n\t\t}\r\n\t}\r\n\r\n\r\n\r\n\tfunction makeResult() public onlyInVotingState onlyOwner returns(bool) {\r\n\r\n\t\tif (numOfAgreements > numOfVoters.mul(percentage).div(100)) {\r\n\t\t\tstatus = UpgraderStatus.Approved;\r\n\t\t\treturn true;\r\n\t\t}\r\n\t\telse {\r\n\t\t\tstatus = UpgraderStatus.Rejected;\r\n\t\t\treturn false;\r\n\t\t}\r\n\r\n\t}\r\n\r\n\r\n\t/**\r\n\t * Destruct itself.\r\n\t *\r\n\t * exception\tPermissionException\tmsg.sender is not the owner.\r\n\t */\r\n/*\tfunction done() external onlyOwner {\r\n\t\tselfdestruct(owner());\r\n\t}\r\n*/\r\n\r\n\r\n\tfunction _addVoters (uint[] memory _votersId) internal {\r\n\t\tfor (uint256 i = 0; i < _votersId.length; i++) {\r\n\t\t\tif (!voterRegistered[_votersId[i]]) {\r\n\t\t\t\tvoterRegistered[_votersId[i]] = true;\r\n\t\t\t\tnumOfVoters++;\r\n\t\t\t}\r\n\t\t}\r\n\t}\r\n\r\n\r\n\tfunction _setPercentage(uint256 _percentage) internal {\r\n\t\tpercentage = _percentage;\r\n\t\tif (percentage > 100) {\r\n\t\t\tpercentage = 100;\r\n\t\t}\r\n\t}\r\n\r\n}",
  "sourcePath": "D:\\workspace\\bndestoken-captacao\\Back-Blockchain\\contracts\\appGovernanceUpgrade\\GovernanceDecision.sol",
  "compiler": {
    "name": "solc",
    "version": "0.5.12+commit.7709ece9.Emscripten.clang"
  },
  "schemaVersion": "3.0.20",
  "updatedAt": "2020-01-31T18:10:32.338Z",
  "devdoc": {
    "methods": {
      "isOwner()": {
        "return": "true if `msg.sender` is the owner of the contract."
      },
      "owner()": {
        "return": "the address of the owner."
      },
      "renounceOwnership()": {
        "details": "Allows the current owner to relinquish control of the contract."
      },
      "transferOwnership(address)": {
        "details": "Allows the current owner to transfer control of the contract to a newOwner.",
        "params": {
          "newOwner": "The address to transfer ownership to."
        }
      },
      "vote(bool)": {
        "params": {
          "_choose": "if the voter agrees with the proposal. \t * exception\tPermissionException\tmsg.sender is not a voter. \r"
        }
      }
    }
  },
  "userdoc": {
    "methods": {
      "renounceOwnership()": {
        "notice": "Renouncing to ownership will leave the contract without an owner. It will not be possible to call the functions with the `onlyOwner` modifier anymore."
      },
      "vote(bool)": {
        "notice": "Vote. "
      }
    }
  }
}