{
  "contractName": "Governance",
  "abi": [
    {
      "constant": false,
      "inputs": [],
      "name": "unpause",
      "outputs": [],
      "payable": false,
      "stateMutability": "nonpayable",
      "type": "function"
    },
    {
      "constant": true,
      "inputs": [
        {
          "name": "account",
          "type": "address"
        }
      ],
      "name": "isPauser",
      "outputs": [
        {
          "name": "",
          "type": "bool"
        }
      ],
      "payable": false,
      "stateMutability": "view",
      "type": "function"
    },
    {
      "constant": true,
      "inputs": [],
      "name": "paused",
      "outputs": [
        {
          "name": "",
          "type": "bool"
        }
      ],
      "payable": false,
      "stateMutability": "view",
      "type": "function"
    },
    {
      "constant": false,
      "inputs": [],
      "name": "renouncePauser",
      "outputs": [],
      "payable": false,
      "stateMutability": "nonpayable",
      "type": "function"
    },
    {
      "constant": false,
      "inputs": [],
      "name": "renounceOwnership",
      "outputs": [],
      "payable": false,
      "stateMutability": "nonpayable",
      "type": "function"
    },
    {
      "constant": false,
      "inputs": [
        {
          "name": "account",
          "type": "address"
        }
      ],
      "name": "addPauser",
      "outputs": [],
      "payable": false,
      "stateMutability": "nonpayable",
      "type": "function"
    },
    {
      "constant": false,
      "inputs": [],
      "name": "pause",
      "outputs": [],
      "payable": false,
      "stateMutability": "nonpayable",
      "type": "function"
    },
    {
      "constant": true,
      "inputs": [],
      "name": "owner",
      "outputs": [
        {
          "name": "",
          "type": "address"
        }
      ],
      "payable": false,
      "stateMutability": "view",
      "type": "function"
    },
    {
      "constant": true,
      "inputs": [],
      "name": "isOwner",
      "outputs": [
        {
          "name": "",
          "type": "bool"
        }
      ],
      "payable": false,
      "stateMutability": "view",
      "type": "function"
    },
    {
      "constant": false,
      "inputs": [
        {
          "name": "newOwner",
          "type": "address"
        }
      ],
      "name": "transferOwnership",
      "outputs": [],
      "payable": false,
      "stateMutability": "nonpayable",
      "type": "function"
    },
    {
      "inputs": [
        {
          "name": "initialGovernanceMembersId",
          "type": "uint256[]"
        },
        {
          "name": "resposibleForAssigningGovernanceMembers",
          "type": "address"
        },
        {
          "name": "changeManagementAddr",
          "type": "address"
        }
      ],
      "payable": false,
      "stateMutability": "nonpayable",
      "type": "constructor"
    },
    {
      "anonymous": false,
      "inputs": [
        {
          "indexed": false,
          "name": "memberId",
          "type": "uint256"
        }
      ],
      "name": "NewGovernanceMemberAdded",
      "type": "event"
    },
    {
      "anonymous": false,
      "inputs": [
        {
          "indexed": false,
          "name": "memberId",
          "type": "uint256"
        }
      ],
      "name": "GovernanceMemberRemoved",
      "type": "event"
    },
    {
      "anonymous": false,
      "inputs": [
        {
          "indexed": true,
          "name": "previousOwner",
          "type": "address"
        },
        {
          "indexed": true,
          "name": "newOwner",
          "type": "address"
        }
      ],
      "name": "OwnershipTransferred",
      "type": "event"
    },
    {
      "anonymous": false,
      "inputs": [
        {
          "indexed": false,
          "name": "account",
          "type": "address"
        }
      ],
      "name": "Paused",
      "type": "event"
    },
    {
      "anonymous": false,
      "inputs": [
        {
          "indexed": false,
          "name": "account",
          "type": "address"
        }
      ],
      "name": "Unpaused",
      "type": "event"
    },
    {
      "anonymous": false,
      "inputs": [
        {
          "indexed": true,
          "name": "account",
          "type": "address"
        }
      ],
      "name": "PauserAdded",
      "type": "event"
    },
    {
      "anonymous": false,
      "inputs": [
        {
          "indexed": true,
          "name": "account",
          "type": "address"
        }
      ],
      "name": "PauserRemoved",
      "type": "event"
    },
    {
      "constant": false,
      "inputs": [
        {
          "name": "idRegistryAddr",
          "type": "address"
        }
      ],
      "name": "setIdRegistryAddr",
      "outputs": [],
      "payable": false,
      "stateMutability": "nonpayable",
      "type": "function"
    },
    {
      "constant": false,
      "inputs": [
        {
          "name": "changeNumber",
          "type": "uint256"
        }
      ],
      "name": "makeResult",
      "outputs": [
        {
          "name": "",
          "type": "bool"
        }
      ],
      "payable": false,
      "stateMutability": "nonpayable",
      "type": "function"
    },
    {
      "constant": false,
      "inputs": [
        {
          "name": "newMember",
          "type": "uint256"
        }
      ],
      "name": "includeNewGovernanceMember",
      "outputs": [],
      "payable": false,
      "stateMutability": "nonpayable",
      "type": "function"
    },
    {
      "constant": false,
      "inputs": [
        {
          "name": "memberId",
          "type": "uint256"
        }
      ],
      "name": "removeGovernanceMember",
      "outputs": [],
      "payable": false,
      "stateMutability": "nonpayable",
      "type": "function"
    },
    {
      "constant": true,
      "inputs": [],
      "name": "governanceMembers",
      "outputs": [
        {
          "name": "",
          "type": "uint256[]"
        }
      ],
      "payable": false,
      "stateMutability": "view",
      "type": "function"
    },
    {
      "constant": true,
      "inputs": [],
      "name": "idRegistryAddr",
      "outputs": [
        {
          "name": "",
          "type": "address"
        }
      ],
      "payable": false,
      "stateMutability": "view",
      "type": "function"
    }
  ],
  "bytecode": "0x60806040523480156200001157600080fd5b506040516200188738038062001887833981018060405260608110156200003757600080fd5b8101908080516401000000008111156200005057600080fd5b828101905060208101848111156200006757600080fd5b81518560208202830111640100000000821117156200008557600080fd5b50509291906020018051906020019092919080519060200190929190505050620000be3362000239640100000000026401000000009004565b6000600160006101000a81548160ff021916908315150217905550336001806101000a81548173ffffffffffffffffffffffffffffffffffffffff021916908373ffffffffffffffffffffffffffffffffffffffff1602179055506001809054906101000a900473ffffffffffffffffffffffffffffffffffffffff1673ffffffffffffffffffffffffffffffffffffffff16600073ffffffffffffffffffffffffffffffffffffffff167f8be0079c531659141344cd1fd0a4f28419497f9722a3daafe3b4186f6b6457e060405160405180910390a38260029080519060200190620001ad929190620003fb565b5080600560006101000a81548173ffffffffffffffffffffffffffffffffffffffff021916908373ffffffffffffffffffffffffffffffffffffffff16021790555081600460006101000a81548173ffffffffffffffffffffffffffffffffffffffff021916908373ffffffffffffffffffffffffffffffffffffffff16021790555050505062000475565b6200025d816000620002a364010000000002620012d5179091906401000000009004565b8073ffffffffffffffffffffffffffffffffffffffff167f6719d08c1888103bea251a4ed56406bd0c3e69723c8a1686e017e7bbe159b6f860405160405180910390a250565b600073ffffffffffffffffffffffffffffffffffffffff168173ffffffffffffffffffffffffffffffffffffffff1614151515620002e057600080fd5b620002fb828262000366640100000000026401000000009004565b1515156200030857600080fd5b60018260000160008373ffffffffffffffffffffffffffffffffffffffff1673ffffffffffffffffffffffffffffffffffffffff16815260200190815260200160002060006101000a81548160ff0219169083151502179055505050565b60008073ffffffffffffffffffffffffffffffffffffffff168273ffffffffffffffffffffffffffffffffffffffff1614151515620003a457600080fd5b8260000160008373ffffffffffffffffffffffffffffffffffffffff1673ffffffffffffffffffffffffffffffffffffffff16815260200190815260200160002060009054906101000a900460ff16905092915050565b8280548282559060005260206000209081019282156200043a579160200282015b82811115620004395782518255916020019190600101906200041c565b5b5090506200044991906200044d565b5090565b6200047291905b808211156200046e57600081600090555060010162000454565b5090565b90565b61140280620004856000396000f3fe6080604052600436106100e6576000357c0100000000000000000000000000000000000000000000000000000000900463ffffffff1680633f4ba83a146100eb578063441f1ff11461010257806346fbf68e1461013d5780635c975abb146101a65780636ef8d66d146101d5578063715018a6146101ec57806377dce43c1461020357806382dc1ec41461023e5780638456cb591461028f5780638da5cb5b146102a65780638f32d59b146102fd57806391a44cf71461032c578063a5026b8314610398578063abbae7de146103eb578063b708728814610442578063f2fde38b14610493575b600080fd5b3480156100f757600080fd5b506101006104e4565b005b34801561010e57600080fd5b5061013b6004803603602081101561012557600080fd5b8101908080359060200190929190505050610593565b005b34801561014957600080fd5b5061018c6004803603602081101561016057600080fd5b81019080803573ffffffffffffffffffffffffffffffffffffffff16906020019092919050505061070a565b604051808215151515815260200191505060405180910390f35b3480156101b257600080fd5b506101bb610727565b604051808215151515815260200191505060405180910390f35b3480156101e157600080fd5b506101ea61073e565b005b3480156101f857600080fd5b50610201610749565b005b34801561020f57600080fd5b5061023c6004803603602081101561022657600080fd5b810190808035906020019092919050505061081b565b005b34801561024a57600080fd5b5061028d6004803603602081101561026157600080fd5b81019080803573ffffffffffffffffffffffffffffffffffffffff169060200190929190505050610a49565b005b34801561029b57600080fd5b506102a4610a69565b005b3480156102b257600080fd5b506102bb610b18565b604051808273ffffffffffffffffffffffffffffffffffffffff1673ffffffffffffffffffffffffffffffffffffffff16815260200191505060405180910390f35b34801561030957600080fd5b50610312610b41565b604051808215151515815260200191505060405180910390f35b34801561033857600080fd5b50610341610b98565b6040518080602001828103825283818151815260200191508051906020019060200280838360005b83811015610384578082015181840152602081019050610369565b505050509050019250505060405180910390f35b3480156103a457600080fd5b506103d1600480360360208110156103bb57600080fd5b8101908080359060200190929190505050610bf0565b604051808215151515815260200191505060405180910390f35b3480156103f757600080fd5b50610400610ee5565b604051808273ffffffffffffffffffffffffffffffffffffffff1673ffffffffffffffffffffffffffffffffffffffff16815260200191505060405180910390f35b34801561044e57600080fd5b506104916004803603602081101561046557600080fd5b81019080803573ffffffffffffffffffffffffffffffffffffffff169060200190929190505050610f0f565b005b34801561049f57600080fd5b506104e2600480360360208110156104b657600080fd5b81019080803573ffffffffffffffffffffffffffffffffffffffff169060200190929190505050610f66565b005b6104ed3361070a565b15156104f857600080fd5b600160009054906101000a900460ff16151561051357600080fd5b6000600160006101000a81548160ff0219169083151502179055507f5db9ee0a495bf2e6ff9c91a7834c1ba4fdd244a5e8aa4e537bd38aeae4b073aa33604051808273ffffffffffffffffffffffffffffffffffffffff1673ffffffffffffffffffffffffffffffffffffffff16815260200191505060405180910390a1565b600460009054906101000a900473ffffffffffffffffffffffffffffffffffffffff1673ffffffffffffffffffffffffffffffffffffffff163373ffffffffffffffffffffffffffffffffffffffff161415156106a4576040517f08c379a000000000000000000000000000000000000000000000000000000000815260040180806020018281038252604c8152602001807f53686f756c642062652063616c6c65642062792074686520616464726573732081526020017f726573706f6e7369626c6520666f722061737369676e696e6720676f7665726e81526020017f616e6365206d656d62657273000000000000000000000000000000000000000081525060600191505060405180910390fd5b60028190806001815401808255809150509060018203906000526020600020016000909192909190915055507fd0d6e87f03b0a9aa964da58b3b1115f70ba7ab1f934594708c1875a123d518cc816040518082815260200191505060405180910390a150565b6000610720826000610f8590919063ffffffff16565b9050919050565b6000600160009054906101000a900460ff16905090565b61074733611019565b565b610751610b41565b151561075c57600080fd5b600073ffffffffffffffffffffffffffffffffffffffff166001809054906101000a900473ffffffffffffffffffffffffffffffffffffffff1673ffffffffffffffffffffffffffffffffffffffff167f8be0079c531659141344cd1fd0a4f28419497f9722a3daafe3b4186f6b6457e060405160405180910390a360006001806101000a81548173ffffffffffffffffffffffffffffffffffffffff021916908373ffffffffffffffffffffffffffffffffffffffff160217905550565b600460009054906101000a900473ffffffffffffffffffffffffffffffffffffffff1673ffffffffffffffffffffffffffffffffffffffff163373ffffffffffffffffffffffffffffffffffffffff1614151561092c576040517f08c379a000000000000000000000000000000000000000000000000000000000815260040180806020018281038252604c8152602001807f53686f756c642062652063616c6c65642062792074686520616464726573732081526020017f726573706f6e7369626c6520666f722061737369676e696e6720676f7665726e81526020017f616e6365206d656d62657273000000000000000000000000000000000000000081525060600191505060405180910390fd5b60008061093883611073565b91509150600115158215151415156109b8576040517f08c379a00000000000000000000000000000000000000000000000000000000081526004018080602001828103825260108152602001807f4d656d626572206e6f7420666f756e640000000000000000000000000000000081525060200191505060405180910390fd5b60026001600280549050038154811015156109cf57fe5b90600052602060002001546002828154811015156109e957fe5b90600052602060002001819055506002805480919060019003610a0c9190611385565b507f29520f0717e5e24930f787e501ceb9365ecd6c0b957114c0bc3f6d26f29c4ec7836040518082815260200191505060405180910390a1505050565b610a523361070a565b1515610a5d57600080fd5b610a66816110d2565b50565b610a723361070a565b1515610a7d57600080fd5b600160009054906101000a900460ff16151515610a9957600080fd5b60018060006101000a81548160ff0219169083151502179055507f62e78cea01bee320cd4e420270b5ea74000d11b0c9f74754ebdbfc544b05a25833604051808273ffffffffffffffffffffffffffffffffffffffff1673ffffffffffffffffffffffffffffffffffffffff16815260200191505060405180910390a1565b60006001809054906101000a900473ffffffffffffffffffffffffffffffffffffffff16905090565b60006001809054906101000a900473ffffffffffffffffffffffffffffffffffffffff1673ffffffffffffffffffffffffffffffffffffffff163373ffffffffffffffffffffffffffffffffffffffff1614905090565b60606002805480602002602001604051908101604052809291908181526020018280548015610be657602002820191906000526020600020905b815481526020019060010190808311610bd2575b5050505050905090565b6000610bfa610b41565b1515610c0557600080fd5b6000600560009054906101000a900473ffffffffffffffffffffffffffffffffffffffff1673ffffffffffffffffffffffffffffffffffffffff1663e741940d846040518263ffffffff167c01000000000000000000000000000000000000000000000000000000000281526004018082815260200191505060206040518083038186803b158015610c9657600080fd5b505afa158015610caa573d6000803e3d6000fd5b505050506040513d6020811015610cc057600080fd5b8101908080519060200190929190505050905060008190508073ffffffffffffffffffffffffffffffffffffffff1663e14d58d96040518163ffffffff167c0100000000000000000000000000000000000000000000000000000000028152600401602060405180830381600087803b158015610d3c57600080fd5b505af1158015610d50573d6000803e3d6000fd5b505050506040513d6020811015610d6657600080fd5b810190808051906020019092919050505015610e3057600560009054906101000a900473ffffffffffffffffffffffffffffffffffffffff1673ffffffffffffffffffffffffffffffffffffffff166335e3aa21856040518263ffffffff167c010000000000000000000000000000000000000000000000000000000002815260040180828152602001915050600060405180830381600087803b158015610e0d57600080fd5b505af1158015610e21573d6000803e3d6000fd5b50505050600192505050610ee0565b600560009054906101000a900473ffffffffffffffffffffffffffffffffffffffff1673ffffffffffffffffffffffffffffffffffffffff1663e92bdfe7856040518263ffffffff167c010000000000000000000000000000000000000000000000000000000002815260040180828152602001915050600060405180830381600087803b158015610ec157600080fd5b505af1158015610ed5573d6000803e3d6000fd5b505050506000925050505b919050565b6000600360009054906101000a900473ffffffffffffffffffffffffffffffffffffffff16905090565b610f17610b41565b1515610f2257600080fd5b80600360006101000a81548173ffffffffffffffffffffffffffffffffffffffff021916908373ffffffffffffffffffffffffffffffffffffffff16021790555050565b610f6e610b41565b1515610f7957600080fd5b610f828161112c565b50565b60008073ffffffffffffffffffffffffffffffffffffffff168273ffffffffffffffffffffffffffffffffffffffff1614151515610fc257600080fd5b8260000160008373ffffffffffffffffffffffffffffffffffffffff1673ffffffffffffffffffffffffffffffffffffffff16815260200190815260200160002060009054906101000a900460ff16905092915050565b61102d81600061122690919063ffffffff16565b8073ffffffffffffffffffffffffffffffffffffffff167fcd265ebaf09df2871cc7bd4133404a235ba12eff2041bb89d9c714a2621c7c7e60405160405180910390a250565b600080600080905060008090505b6002805490508210156110c5578460028381548110151561109e57fe5b906000526020600020015414156110b857600190506110c5565b8180600101925050611081565b8082935093505050915091565b6110e68160006112d590919063ffffffff16565b8073ffffffffffffffffffffffffffffffffffffffff167f6719d08c1888103bea251a4ed56406bd0c3e69723c8a1686e017e7bbe159b6f860405160405180910390a250565b600073ffffffffffffffffffffffffffffffffffffffff168173ffffffffffffffffffffffffffffffffffffffff161415151561116857600080fd5b8073ffffffffffffffffffffffffffffffffffffffff166001809054906101000a900473ffffffffffffffffffffffffffffffffffffffff1673ffffffffffffffffffffffffffffffffffffffff167f8be0079c531659141344cd1fd0a4f28419497f9722a3daafe3b4186f6b6457e060405160405180910390a3806001806101000a81548173ffffffffffffffffffffffffffffffffffffffff021916908373ffffffffffffffffffffffffffffffffffffffff16021790555050565b600073ffffffffffffffffffffffffffffffffffffffff168173ffffffffffffffffffffffffffffffffffffffff161415151561126257600080fd5b61126c8282610f85565b151561127757600080fd5b60008260000160008373ffffffffffffffffffffffffffffffffffffffff1673ffffffffffffffffffffffffffffffffffffffff16815260200190815260200160002060006101000a81548160ff0219169083151502179055505050565b600073ffffffffffffffffffffffffffffffffffffffff168173ffffffffffffffffffffffffffffffffffffffff161415151561131157600080fd5b61131b8282610f85565b15151561132757600080fd5b60018260000160008373ffffffffffffffffffffffffffffffffffffffff1673ffffffffffffffffffffffffffffffffffffffff16815260200190815260200160002060006101000a81548160ff0219169083151502179055505050565b8154818355818111156113ac578183600052602060002091820191016113ab91906113b1565b5b505050565b6113d391905b808211156113cf5760008160009055506001016113b7565b5090565b9056fea165627a7a723058200ee0c59d6f4e688555bb70426a75daa204c784013cff46592c833e52b2719a2b0029",
  "source": "pragma solidity ^0.5.0;\r\n\r\nimport \"openzeppelin-solidity/contracts/ownership/Ownable.sol\";\r\nimport \"openzeppelin-solidity/contracts/lifecycle/Pausable.sol\";\r\n\r\nimport \"../appCommonUpgrade/IdRegistry.sol\";\r\n\r\nimport \"../appChangeManagementUpgrade/ChangeManagement.sol\";\r\nimport \"../appChangeManagementUpgrade/UpgraderInfo.sol\";\r\nimport \"../appChangeManagementUpgrade/Upgrader.sol\";\r\n\r\nimport \"./GovernanceDecision.sol\";\r\n\r\n\r\ncontract Governance is Pausable, Ownable() {\r\n\r\n    uint[] private governanceMembersId;\r\n\r\n    IdRegistry private idRegistry;\r\n    address private _resposibleForAssigningGovernanceMembers;\r\n    ChangeManagement changeManagement;\r\n\r\n    event NewGovernanceMemberAdded(uint memberId);\r\n    event GovernanceMemberRemoved(uint memberId);\r\n\r\n    constructor (uint[] memory initialGovernanceMembersId,\r\n        address resposibleForAssigningGovernanceMembers,\r\n        address changeManagementAddr) public {\r\n        governanceMembersId = initialGovernanceMembersId;\r\n        changeManagement = ChangeManagement(changeManagementAddr);\r\n        _resposibleForAssigningGovernanceMembers = resposibleForAssigningGovernanceMembers;\r\n    }\r\n\r\n    //It is necessary to call this function before any governance decision\r\n    function setIdRegistryAddr(address idRegistryAddr) public onlyOwner {\r\n        idRegistry = IdRegistry(idRegistryAddr);\r\n    }\r\n\r\n\tfunction makeResult(uint changeNumber) public onlyOwner returns(bool) {\r\n\r\n        address decisionContractAddr = changeManagement.getDecisionContractToMakeResult(changeNumber);\r\n        \r\n        GovernanceDecision governanceDecision = GovernanceDecision(decisionContractAddr);\r\n\r\n        if (governanceDecision.makeResult()) {\r\n            changeManagement.approveChange(changeNumber);\r\n            return true;\r\n        }\r\n\t\telse {\r\n            changeManagement.reproveChange(changeNumber);\r\n\t\t\treturn false;\r\n\t\t}\r\n\r\n\t}\r\n\r\n    function includeNewGovernanceMember(uint newMember) public {\r\n        require (msg.sender == _resposibleForAssigningGovernanceMembers, \"Should be called by the address responsible for assigning governance members\");\r\n        governanceMembersId.push(newMember);\r\n        emit NewGovernanceMemberAdded(newMember);\r\n    }\r\n\r\n\r\n    function removeGovernanceMember(uint memberId) public {\r\n        require (msg.sender == _resposibleForAssigningGovernanceMembers, \"Should be called by the address responsible for assigning governance members\");\r\n        (bool find, uint index) = findIndexGovernanceMember(memberId);\r\n        require (find==true, \"Member not found\");\r\n        governanceMembersId[index]=governanceMembersId[governanceMembersId.length-1];\r\n        governanceMembersId.length--;\r\n        emit GovernanceMemberRemoved(memberId);\r\n    }\r\n\r\n    function findIndexGovernanceMember(uint newMember) view internal returns (bool, uint) {\r\n        uint i=0;\r\n        bool find = false;\r\n        for (;i<governanceMembersId.length; i++) {\r\n            if (governanceMembersId[i]==newMember) {\r\n                find = true;\r\n                break;\r\n            }\r\n        }\r\n        return (find,i);\r\n    }\r\n\r\n    function governanceMembers() view public returns (uint[] memory) {\r\n        return governanceMembersId;\r\n    }\r\n\r\n    function idRegistryAddr() public view returns (address) {\r\n        return address(idRegistry);\r\n    }\r\n\r\n   \r\n }",
  "sourcePath": "D:/Workspace/bndestoken-captacao/Back-Blockchain/contracts/appGovernanceUpgrade/Governance.sol",
  "compiler": {
    "name": "solc",
    "version": "0.5.0+commit.1d4f565a.Emscripten.clang"
  },
  "schemaVersion": "3.0.5",
  "updatedAt": "2020-02-10T15:12:32.151Z",
  "devdoc": {
    "methods": {
      "isOwner()": {
        "return": "true if `msg.sender` is the owner of the contract."
      },
      "owner()": {
        "return": "the address of the owner."
      },
      "pause()": {
        "details": "called by the owner to pause, triggers stopped state"
      },
      "paused()": {
        "return": "true if the contract is paused, false otherwise."
      },
      "renounceOwnership()": {
        "details": "Allows the current owner to relinquish control of the contract."
      },
      "transferOwnership(address)": {
        "details": "Allows the current owner to transfer control of the contract to a newOwner.",
        "params": {
          "newOwner": "The address to transfer ownership to."
        }
      },
      "unpause()": {
        "details": "called by the owner to unpause, returns to normal state"
      }
    }
  },
  "userdoc": {
    "methods": {
      "renounceOwnership()": {
        "notice": "Renouncing to ownership will leave the contract without an owner. It will not be possible to call the functions with the `onlyOwner` modifier anymore."
      }
    }
  }
}