{
  "contractName": "GovernanceDecision",
  "abi": [
    {
      "constant": true,
      "inputs": [],
      "name": "idRegistry",
      "outputs": [
        {
          "name": "",
          "type": "address"
        }
      ],
      "payable": false,
      "stateMutability": "view",
      "type": "function"
    },
    {
      "constant": true,
      "inputs": [],
      "name": "status",
      "outputs": [
        {
          "name": "",
          "type": "uint8"
        }
      ],
      "payable": false,
      "stateMutability": "view",
      "type": "function"
    },
    {
      "constant": false,
      "inputs": [],
      "name": "renounceOwnership",
      "outputs": [],
      "payable": false,
      "stateMutability": "nonpayable",
      "type": "function"
    },
    {
      "constant": true,
      "inputs": [],
      "name": "owner",
      "outputs": [
        {
          "name": "",
          "type": "address"
        }
      ],
      "payable": false,
      "stateMutability": "view",
      "type": "function"
    },
    {
      "constant": true,
      "inputs": [],
      "name": "isOwner",
      "outputs": [
        {
          "name": "",
          "type": "bool"
        }
      ],
      "payable": false,
      "stateMutability": "view",
      "type": "function"
    },
    {
      "constant": true,
      "inputs": [],
      "name": "numOfVoters",
      "outputs": [
        {
          "name": "",
          "type": "uint256"
        }
      ],
      "payable": false,
      "stateMutability": "view",
      "type": "function"
    },
    {
      "constant": true,
      "inputs": [
        {
          "name": "",
          "type": "uint256"
        }
      ],
      "name": "voterRegistered",
      "outputs": [
        {
          "name": "",
          "type": "bool"
        }
      ],
      "payable": false,
      "stateMutability": "view",
      "type": "function"
    },
    {
      "constant": true,
      "inputs": [],
      "name": "percentage",
      "outputs": [
        {
          "name": "",
          "type": "uint256"
        }
      ],
      "payable": false,
      "stateMutability": "view",
      "type": "function"
    },
    {
      "constant": true,
      "inputs": [],
      "name": "numOfAgreements",
      "outputs": [
        {
          "name": "",
          "type": "uint256"
        }
      ],
      "payable": false,
      "stateMutability": "view",
      "type": "function"
    },
    {
      "constant": false,
      "inputs": [
        {
          "name": "newOwner",
          "type": "address"
        }
      ],
      "name": "transferOwnership",
      "outputs": [],
      "payable": false,
      "stateMutability": "nonpayable",
      "type": "function"
    },
    {
      "constant": true,
      "inputs": [
        {
          "name": "",
          "type": "uint256"
        }
      ],
      "name": "voting",
      "outputs": [
        {
          "name": "",
          "type": "bool"
        }
      ],
      "payable": false,
      "stateMutability": "view",
      "type": "function"
    },
    {
      "inputs": [
        {
          "name": "hashChangeMotivation",
          "type": "bytes32"
        },
        {
          "name": "votersId",
          "type": "uint256[]"
        },
        {
          "name": "_percentage",
          "type": "uint256"
        },
        {
          "name": "idRegistryAddr",
          "type": "address"
        }
      ],
      "payable": false,
      "stateMutability": "nonpayable",
      "type": "constructor"
    },
    {
      "anonymous": false,
      "inputs": [
        {
          "indexed": true,
          "name": "previousOwner",
          "type": "address"
        },
        {
          "indexed": true,
          "name": "newOwner",
          "type": "address"
        }
      ],
      "name": "OwnershipTransferred",
      "type": "event"
    },
    {
      "constant": false,
      "inputs": [
        {
          "name": "_choose",
          "type": "bool"
        }
      ],
      "name": "vote",
      "outputs": [],
      "payable": false,
      "stateMutability": "nonpayable",
      "type": "function"
    },
    {
      "constant": false,
      "inputs": [],
      "name": "makeResult",
      "outputs": [
        {
          "name": "",
          "type": "bool"
        }
      ],
      "payable": false,
      "stateMutability": "nonpayable",
      "type": "function"
    }
  ],
  "bytecode": "0x60806040526000600655600060075534801561001a57600080fd5b50604051610e9a380380610e9a8339810180604052608081101561003d57600080fd5b8101908080519060200190929190805164010000000081111561005f57600080fd5b8281019050602081018481111561007557600080fd5b815185602082028301116401000000008211171561009257600080fd5b50509291906020018051906020019092919080519060200190929190505050336000806101000a81548173ffffffffffffffffffffffffffffffffffffffff021916908373ffffffffffffffffffffffffffffffffffffffff1602179055506000809054906101000a900473ffffffffffffffffffffffffffffffffffffffff1673ffffffffffffffffffffffffffffffffffffffff16600073ffffffffffffffffffffffffffffffffffffffff167f8be0079c531659141344cd1fd0a4f28419497f9722a3daafe3b4186f6b6457e060405160405180910390a38360028190555061018c83610212640100000000026401000000009004565b6101a4826102c6640100000000026401000000009004565b80600160006101000a81548173ffffffffffffffffffffffffffffffffffffffff021916908373ffffffffffffffffffffffffffffffffffffffff1602179055506000600160146101000a81548160ff0219169083600381111561020457fe5b0217905550505050506102e4565b60008090505b81518110156102c25760056000838381518110151561023357fe5b90602001906020020151815260200190815260200160002060009054906101000a900460ff1615156102b557600160056000848481518110151561027357fe5b90602001906020020151815260200190815260200160002060006101000a81548160ff0219169083151502179055506006600081548092919060010191905055505b8080600101915050610218565b5050565b80600381905550606460035411156102e15760646003819055505b50565b610ba7806102f36000396000f3fe6080604052600436106100c5576000357c0100000000000000000000000000000000000000000000000000000000900463ffffffff1680630aa13b8c146100ca578063200d2ed2146101215780634b9f5c981461015a578063715018a6146101975780638da5cb5b146101ae5780638f32d59b1461020557806398f0b34c14610234578063be33dc4c1461025f578063c78ad77f146102b2578063e14d58d9146102dd578063ef32fc511461030c578063f2fde38b14610337578063fd4a77f114610388575b600080fd5b3480156100d657600080fd5b506100df6103db565b604051808273ffffffffffffffffffffffffffffffffffffffff1673ffffffffffffffffffffffffffffffffffffffff16815260200191505060405180910390f35b34801561012d57600080fd5b50610136610401565b6040518082600381111561014657fe5b60ff16815260200191505060405180910390f35b34801561016657600080fd5b506101956004803603602081101561017d57600080fd5b81019080803515159060200190929190505050610414565b005b3480156101a357600080fd5b506101ac6106f4565b005b3480156101ba57600080fd5b506101c36107c6565b604051808273ffffffffffffffffffffffffffffffffffffffff1673ffffffffffffffffffffffffffffffffffffffff16815260200191505060405180910390f35b34801561021157600080fd5b5061021a6107ef565b604051808215151515815260200191505060405180910390f35b34801561024057600080fd5b50610249610846565b6040518082815260200191505060405180910390f35b34801561026b57600080fd5b506102986004803603602081101561028257600080fd5b810190808035906020019092919050505061084c565b604051808215151515815260200191505060405180910390f35b3480156102be57600080fd5b506102c761086c565b6040518082815260200191505060405180910390f35b3480156102e957600080fd5b506102f2610872565b604051808215151515815260200191505060405180910390f35b34801561031857600080fd5b506103216109d4565b6040518082815260200191505060405180910390f35b34801561034357600080fd5b506103866004803603602081101561035a57600080fd5b81019080803573ffffffffffffffffffffffffffffffffffffffff1690602001909291905050506109da565b005b34801561039457600080fd5b506103c1600480360360208110156103ab57600080fd5b81019080803590602001909291905050506109f9565b604051808215151515815260200191505060405180910390f35b600160009054906101000a900473ffffffffffffffffffffffffffffffffffffffff1681565b600160149054906101000a900460ff1681565b6000600381111561042157fe5b600160149054906101000a900460ff16600381111561043c57fe5b1415156104d7576040517f08c379a00000000000000000000000000000000000000000000000000000000081526004018080602001828103825260218152602001807f4465636973696f6e206e6f7420696e2074686520766f74696e6720737461746581526020017f210000000000000000000000000000000000000000000000000000000000000081525060400191505060405180910390fd5b6000600160009054906101000a900473ffffffffffffffffffffffffffffffffffffffff1673ffffffffffffffffffffffffffffffffffffffff166365f68c89336040518263ffffffff167c0100000000000000000000000000000000000000000000000000000000028152600401808273ffffffffffffffffffffffffffffffffffffffff1673ffffffffffffffffffffffffffffffffffffffff16815260200191505060206040518083038186803b15801561059457600080fd5b505afa1580156105a8573d6000803e3d6000fd5b505050506040513d60208110156105be57600080fd5b810190808051906020019092919050505090506005600082815260200190815260200160002060009054906101000a900460ff161515610666576040517f08c379a000000000000000000000000000000000000000000000000000000000815260040180806020018281038252601b8152602001807f446f206e6f74206861766520746865207065726d697373696f6e21000000000081525060200191505060405180910390fd5b8115156004600083815260200190815260200160002060009054906101000a900460ff1615151415156106f05781156106b0576007600081548092919060010191905055506106c4565b600760008154809291906001900391905055505b816004600083815260200190815260200160002060006101000a81548160ff0219169083151502179055505b5050565b6106fc6107ef565b151561070757600080fd5b600073ffffffffffffffffffffffffffffffffffffffff166000809054906101000a900473ffffffffffffffffffffffffffffffffffffffff1673ffffffffffffffffffffffffffffffffffffffff167f8be0079c531659141344cd1fd0a4f28419497f9722a3daafe3b4186f6b6457e060405160405180910390a360008060006101000a81548173ffffffffffffffffffffffffffffffffffffffff021916908373ffffffffffffffffffffffffffffffffffffffff160217905550565b60008060009054906101000a900473ffffffffffffffffffffffffffffffffffffffff16905090565b60008060009054906101000a900473ffffffffffffffffffffffffffffffffffffffff1673ffffffffffffffffffffffffffffffffffffffff163373ffffffffffffffffffffffffffffffffffffffff1614905090565b60065481565b60056020528060005260406000206000915054906101000a900460ff1681565b60035481565b600080600381111561088057fe5b600160149054906101000a900460ff16600381111561089b57fe5b141515610936576040517f08c379a00000000000000000000000000000000000000000000000000000000081526004018080602001828103825260218152602001807f4465636973696f6e206e6f7420696e2074686520766f74696e6720737461746581526020017f210000000000000000000000000000000000000000000000000000000000000081525060400191505060405180910390fd5b61093e6107ef565b151561094957600080fd5b6109736064610965600354600654610a1990919063ffffffff16565b610a5790919063ffffffff16565b60075411156109a85760018060146101000a81548160ff0219169083600381111561099a57fe5b0217905550600190506109d1565b6002600160146101000a81548160ff021916908360038111156109c757fe5b0217905550600090505b90565b60075481565b6109e26107ef565b15156109ed57600080fd5b6109f681610a81565b50565b60046020528060005260406000206000915054906101000a900460ff1681565b600080831415610a2c5760009050610a51565b60008284029050828482811515610a3f57fe5b04141515610a4c57600080fd5b809150505b92915050565b60008082111515610a6757600080fd5b60008284811515610a7457fe5b0490508091505092915050565b600073ffffffffffffffffffffffffffffffffffffffff168173ffffffffffffffffffffffffffffffffffffffff1614151515610abd57600080fd5b8073ffffffffffffffffffffffffffffffffffffffff166000809054906101000a900473ffffffffffffffffffffffffffffffffffffffff1673ffffffffffffffffffffffffffffffffffffffff167f8be0079c531659141344cd1fd0a4f28419497f9722a3daafe3b4186f6b6457e060405160405180910390a3806000806101000a81548173ffffffffffffffffffffffffffffffffffffffff021916908373ffffffffffffffffffffffffffffffffffffffff1602179055505056fea165627a7a72305820fc2ea692f0a37479a6f840ea2e9ee6e12551544c77f983f0ccdde2b8c1c11d3d0029",
  "source": "pragma solidity ^0.5.0;\r\n\r\nimport \"openzeppelin-solidity/contracts/math/SafeMath.sol\";\r\nimport \"openzeppelin-solidity/contracts/ownership/Ownable.sol\";\r\nimport \"../appCommonUpgrade/IdRegistry.sol\";\r\n\r\n\r\ncontract GovernanceDecision is Ownable() {\r\n\r\n\tusing SafeMath for uint256;\r\n\r\n\tIdRegistry public idRegistry;\r\n\r\n\tenum UpgraderStatus {\r\n\t\tVoting,\r\n\t\tApproved,\r\n\t\tRejected,\r\n\t\tCancelled\r\n\t}\r\n\r\n\tUpgraderStatus public status;\r\n\r\n\tbytes32 _hashChangeMotivation;\r\n\r\n\t/** Voting mechanism related */\r\n\tuint256 public percentage;\r\n\tmapping(uint => bool) public voting;\r\n\tmapping(uint => bool) public voterRegistered;\r\n\tuint256 public numOfVoters = 0;\r\n\tuint256 public numOfAgreements = 0;\r\n\r\n\tmodifier onlyInVotingState {\r\n\t\trequire(status == UpgraderStatus.Voting, \"Decision not in the voting state!\");\r\n\t\t_;\r\n\t}\r\n\r\n//If idRegistryAddr changes, the old contract will be still able to answer id Queries (unless it is destroyed).\r\n//If the answer of the old version of the contract is not ok, the decision contract should be cancelled.\r\n\r\n\tconstructor (bytes32 hashChangeMotivation, uint[] memory votersId, \r\n\t\tuint256 _percentage, address idRegistryAddr) public {\r\n\r\n\t\t_hashChangeMotivation = hashChangeMotivation;\r\n\t\t_addVoters(votersId);\r\n\t\t_setPercentage(_percentage);\r\n\r\n\t\tidRegistry = IdRegistry(idRegistryAddr);\r\n\r\n\t\t// Mark the contract as voting.\r\n\t\tstatus = UpgraderStatus.Voting;\r\n\r\n\t}\r\n\r\n\t//TODO: cancel change\r\n\r\n\r\n\t/**\r\n\t * Vote.\r\n\t *\r\n\t * @param\t_choose\tif the voter agrees with the proposal.\r\n\t *\r\n\t * exception\tPermissionException\tmsg.sender is not a voter.\r\n\t * \r\n\t */\r\n\tfunction vote (bool _choose) external onlyInVotingState {\r\n\t\tuint voterId = idRegistry.getId(msg.sender);\r\n\t\trequire(voterRegistered[voterId], \"Do not have the permission!\");\r\n\t\tif (voting[voterId] != _choose) {\r\n\t\t\tif (_choose) {\r\n\t\t\t\tnumOfAgreements++;\r\n\t\t\t} else {\r\n\t\t\t\tnumOfAgreements--;\r\n\t\t\t}\r\n\t\t\tvoting[voterId] = _choose;\r\n\t\t}\r\n\t}\r\n\r\n\r\n\r\n\tfunction makeResult() public onlyInVotingState onlyOwner returns(bool) {\r\n\r\n\t\tif (numOfAgreements > numOfVoters.mul(percentage).div(100)) {\r\n\t\t\tstatus = UpgraderStatus.Approved;\r\n\t\t\treturn true;\r\n\t\t}\r\n\t\telse {\r\n\t\t\tstatus = UpgraderStatus.Rejected;\r\n\t\t\treturn false;\r\n\t\t}\r\n\r\n\t}\r\n\r\n\r\n\t/**\r\n\t * Destruct itself.\r\n\t *\r\n\t * exception\tPermissionException\tmsg.sender is not the owner.\r\n\t */\r\n/*\tfunction done() external onlyOwner {\r\n\t\tselfdestruct(owner());\r\n\t}\r\n*/\r\n\r\n\r\n\tfunction _addVoters (uint[] memory _votersId) internal {\r\n\t\tfor (uint256 i = 0; i < _votersId.length; i++) {\r\n\t\t\tif (!voterRegistered[_votersId[i]]) {\r\n\t\t\t\tvoterRegistered[_votersId[i]] = true;\r\n\t\t\t\tnumOfVoters++;\r\n\t\t\t}\r\n\t\t}\r\n\t}\r\n\r\n\r\n\tfunction _setPercentage(uint256 _percentage) internal {\r\n\t\tpercentage = _percentage;\r\n\t\tif (percentage > 100) {\r\n\t\t\tpercentage = 100;\r\n\t\t}\r\n\t}\r\n\r\n}",
  "sourcePath": "D:\\Workspace\\bndestoken-captacao\\Back-Blockchain\\contracts\\appGovernanceUpgrade\\GovernanceDecision.sol",
  "compiler": {
    "name": "solc",
    "version": "0.5.0+commit.1d4f565a.Emscripten.clang"
  },
  "schemaVersion": "3.0.5",
  "updatedAt": "2020-02-10T15:16:17.693Z",
  "devdoc": {
    "methods": {
      "isOwner()": {
        "return": "true if `msg.sender` is the owner of the contract."
      },
      "owner()": {
        "return": "the address of the owner."
      },
      "renounceOwnership()": {
        "details": "Allows the current owner to relinquish control of the contract."
      },
      "transferOwnership(address)": {
        "details": "Allows the current owner to transfer control of the contract to a newOwner.",
        "params": {
          "newOwner": "The address to transfer ownership to."
        }
      },
      "vote(bool)": {
        "params": {
          "_choose": "if the voter agrees with the proposal.\r \t * exception\tPermissionException\tmsg.sender is not a voter.\r \r"
        }
      }
    }
  },
  "userdoc": {
    "methods": {
      "renounceOwnership()": {
        "notice": "Renouncing to ownership will leave the contract without an owner. It will not be possible to call the functions with the `onlyOwner` modifier anymore."
      },
      "vote(bool)": {
        "notice": "Vote.\r "
      }
    }
  }
}