{
  "contractName": "HelloWorld",
  "abi": [
    {
      "inputs": [],
      "payable": false,
      "stateMutability": "nonpayable",
      "type": "constructor"
    },
    {
      "constant": true,
      "inputs": [],
      "name": "get1",
      "outputs": [
        {
          "internalType": "uint256",
          "name": "",
          "type": "uint256"
        }
      ],
      "payable": false,
      "stateMutability": "pure",
      "type": "function"
    }
  ],
  "bytecode": "0x6080604052348015600f57600080fd5b5060878061001e6000396000f3fe6080604052348015600f57600080fd5b506004361060285760003560e01c8063054c1a7514602d575b600080fd5b60336049565b6040518082815260200191505060405180910390f35b6000600190509056fea265627a7a723158202fe3df8acf533a57e647e2aabb0f36969d0a5f5a6337e4a4b905e541665390fe64736f6c634300050c0032",
  "source": "pragma solidity ^0.5.0;\r\n\r\n//import \"./UpdatableHandleable.sol\";\r\n\r\n\r\ncontract HelloWorld {\r\n\r\n\r\n    constructor () public {\r\n    }\r\n\r\n    function get1() pure public returns (uint) {\r\n        return 1;\r\n    }\r\n\r\n}",
  "sourcePath": "D:/workspace/bndestoken-captacao/Back-Blockchain/contracts/HelloWorld.sol",
  "compiler": {
    "name": "solc",
    "version": "0.5.12+commit.7709ece9.Emscripten.clang"
  },
  "schemaVersion": "3.0.20",
  "updatedAt": "2020-01-31T14:42:48.132Z",
  "devdoc": {
    "methods": {}
  },
  "userdoc": {
    "methods": {}
  }
}