{
  "contractName": "HelloWorld",
  "abi": [
    {
      "inputs": [],
      "payable": false,
      "stateMutability": "nonpayable",
      "type": "constructor"
    },
    {
      "constant": true,
      "inputs": [],
      "name": "get1",
      "outputs": [
        {
          "name": "",
          "type": "uint256"
        }
      ],
      "payable": false,
      "stateMutability": "pure",
      "type": "function"
    }
  ],
  "bytecode": "0x6080604052348015600f57600080fd5b5060a18061001e6000396000f3fe608060405260043610603f576000357c0100000000000000000000000000000000000000000000000000000000900463ffffffff168063054c1a75146044575b600080fd5b348015604f57600080fd5b506056606c565b6040518082815260200191505060405180910390f35b6000600190509056fea165627a7a723058207c235cfe378391b820d80a90bf999b21e4d43e342e0c5649ff443eb0dcf128a10029",
  "source": "pragma solidity ^0.5.0;\r\n\r\n//import \"./UpdatableHandleable.sol\";\r\n\r\n\r\ncontract HelloWorld {\r\n\r\n\r\n    constructor () public {\r\n    }\r\n\r\n    function get1() pure public returns (uint) {\r\n        return 1;\r\n    }\r\n\r\n}",
  "sourcePath": "D:/Workspace/bndestoken-captacao/Back-Blockchain/contracts/HelloWorld.sol",
  "compiler": {
    "name": "solc",
    "version": "0.5.0+commit.1d4f565a.Emscripten.clang"
  },
  "schemaVersion": "3.0.5",
  "updatedAt": "2020-02-03T13:20:41.319Z",
  "devdoc": {
    "methods": {}
  },
  "userdoc": {
    "methods": {}
  }
}