{
  "contractName": "LegalEntityMapping",
  "abi": [
    {
      "constant": false,
      "inputs": [
        {
          "name": "b",
          "type": "bool"
        }
      ],
      "name": "setDataAvailable",
      "outputs": [],
      "payable": false,
      "stateMutability": "nonpayable",
      "type": "function"
    },
    {
      "constant": false,
      "inputs": [
        {
          "name": "_handlerAddr",
          "type": "address"
        }
      ],
      "name": "removeHandler",
      "outputs": [
        {
          "name": "",
          "type": "bool"
        }
      ],
      "payable": false,
      "stateMutability": "nonpayable",
      "type": "function"
    },
    {
      "constant": false,
      "inputs": [],
      "name": "unpause",
      "outputs": [],
      "payable": false,
      "stateMutability": "nonpayable",
      "type": "function"
    },
    {
      "constant": true,
      "inputs": [
        {
          "name": "account",
          "type": "address"
        }
      ],
      "name": "isPauser",
      "outputs": [
        {
          "name": "",
          "type": "bool"
        }
      ],
      "payable": false,
      "stateMutability": "view",
      "type": "function"
    },
    {
      "constant": true,
      "inputs": [],
      "name": "upgraderInfoAddr",
      "outputs": [
        {
          "name": "",
          "type": "address"
        }
      ],
      "payable": false,
      "stateMutability": "view",
      "type": "function"
    },
    {
      "constant": true,
      "inputs": [],
      "name": "paused",
      "outputs": [
        {
          "name": "",
          "type": "bool"
        }
      ],
      "payable": false,
      "stateMutability": "view",
      "type": "function"
    },
    {
      "constant": true,
      "inputs": [],
      "name": "isHandler",
      "outputs": [
        {
          "name": "",
          "type": "bool"
        }
      ],
      "payable": false,
      "stateMutability": "view",
      "type": "function"
    },
    {
      "constant": false,
      "inputs": [],
      "name": "renouncePauser",
      "outputs": [],
      "payable": false,
      "stateMutability": "nonpayable",
      "type": "function"
    },
    {
      "constant": false,
      "inputs": [
        {
          "name": "account",
          "type": "address"
        }
      ],
      "name": "addPauser",
      "outputs": [],
      "payable": false,
      "stateMutability": "nonpayable",
      "type": "function"
    },
    {
      "constant": false,
      "inputs": [],
      "name": "pause",
      "outputs": [],
      "payable": false,
      "stateMutability": "nonpayable",
      "type": "function"
    },
    {
      "constant": true,
      "inputs": [],
      "name": "dataAvailable",
      "outputs": [
        {
          "name": "",
          "type": "bool"
        }
      ],
      "payable": false,
      "stateMutability": "view",
      "type": "function"
    },
    {
      "constant": true,
      "inputs": [],
      "name": "isAllowedUpgrader",
      "outputs": [
        {
          "name": "",
          "type": "bool"
        }
      ],
      "payable": false,
      "stateMutability": "view",
      "type": "function"
    },
    {
      "constant": false,
      "inputs": [
        {
          "name": "_handlerAddr",
          "type": "address"
        }
      ],
      "name": "addHandler",
      "outputs": [
        {
          "name": "",
          "type": "bool"
        }
      ],
      "payable": false,
      "stateMutability": "nonpayable",
      "type": "function"
    },
    {
      "inputs": [
        {
          "name": "upgraderInfo",
          "type": "address"
        },
        {
          "name": "storageContractAddr",
          "type": "address"
        }
      ],
      "payable": false,
      "stateMutability": "nonpayable",
      "type": "constructor"
    },
    {
      "anonymous": false,
      "inputs": [
        {
          "indexed": false,
          "name": "account",
          "type": "address"
        }
      ],
      "name": "Paused",
      "type": "event"
    },
    {
      "anonymous": false,
      "inputs": [
        {
          "indexed": false,
          "name": "account",
          "type": "address"
        }
      ],
      "name": "Unpaused",
      "type": "event"
    },
    {
      "anonymous": false,
      "inputs": [
        {
          "indexed": true,
          "name": "account",
          "type": "address"
        }
      ],
      "name": "PauserAdded",
      "type": "event"
    },
    {
      "anonymous": false,
      "inputs": [
        {
          "indexed": true,
          "name": "account",
          "type": "address"
        }
      ],
      "name": "PauserRemoved",
      "type": "event"
    },
    {
      "constant": true,
      "inputs": [
        {
          "name": "addrLegalEntity",
          "type": "address"
        }
      ],
      "name": "getId",
      "outputs": [
        {
          "name": "",
          "type": "uint256"
        }
      ],
      "payable": false,
      "stateMutability": "view",
      "type": "function"
    },
    {
      "constant": false,
      "inputs": [
        {
          "name": "addrLegalEntity",
          "type": "address"
        },
        {
          "name": "id",
          "type": "uint256"
        }
      ],
      "name": "setId",
      "outputs": [],
      "payable": false,
      "stateMutability": "nonpayable",
      "type": "function"
    },
    {
      "constant": true,
      "inputs": [
        {
          "name": "addrLegalEntity",
          "type": "address"
        }
      ],
      "name": "getIdProofHash",
      "outputs": [
        {
          "name": "",
          "type": "string"
        }
      ],
      "payable": false,
      "stateMutability": "view",
      "type": "function"
    },
    {
      "constant": false,
      "inputs": [
        {
          "name": "addrLegalEntity",
          "type": "address"
        },
        {
          "name": "idProofHash",
          "type": "string"
        }
      ],
      "name": "setIdProofHash",
      "outputs": [],
      "payable": false,
      "stateMutability": "nonpayable",
      "type": "function"
    },
    {
      "constant": true,
      "inputs": [
        {
          "name": "addrLegalEntity",
          "type": "address"
        }
      ],
      "name": "isAvailable",
      "outputs": [
        {
          "name": "",
          "type": "bool"
        }
      ],
      "payable": false,
      "stateMutability": "view",
      "type": "function"
    },
    {
      "constant": true,
      "inputs": [
        {
          "name": "addrLegalEntity",
          "type": "address"
        }
      ],
      "name": "isWaitingValidation",
      "outputs": [
        {
          "name": "",
          "type": "bool"
        }
      ],
      "payable": false,
      "stateMutability": "view",
      "type": "function"
    },
    {
      "constant": true,
      "inputs": [
        {
          "name": "addrLegalEntity",
          "type": "address"
        }
      ],
      "name": "isValidated",
      "outputs": [
        {
          "name": "",
          "type": "bool"
        }
      ],
      "payable": false,
      "stateMutability": "view",
      "type": "function"
    },
    {
      "constant": true,
      "inputs": [
        {
          "name": "addrLegalEntity",
          "type": "address"
        }
      ],
      "name": "isInvalidatedByValidator",
      "outputs": [
        {
          "name": "",
          "type": "bool"
        }
      ],
      "payable": false,
      "stateMutability": "view",
      "type": "function"
    },
    {
      "constant": true,
      "inputs": [
        {
          "name": "addrLegalEntity",
          "type": "address"
        }
      ],
      "name": "isValidatedByChange",
      "outputs": [
        {
          "name": "",
          "type": "bool"
        }
      ],
      "payable": false,
      "stateMutability": "view",
      "type": "function"
    },
    {
      "constant": true,
      "inputs": [
        {
          "name": "addrLegalEntity",
          "type": "address"
        }
      ],
      "name": "getIdFinancialSupportAgreement",
      "outputs": [
        {
          "name": "",
          "type": "uint256"
        }
      ],
      "payable": false,
      "stateMutability": "view",
      "type": "function"
    },
    {
      "constant": false,
      "inputs": [
        {
          "name": "addrLegalEntity",
          "type": "address"
        },
        {
          "name": "id",
          "type": "uint256"
        }
      ],
      "name": "setIdFinancialSupportAgreement",
      "outputs": [],
      "payable": false,
      "stateMutability": "nonpayable",
      "type": "function"
    },
    {
      "constant": true,
      "inputs": [
        {
          "name": "addrLegalEntity",
          "type": "address"
        }
      ],
      "name": "isDonor",
      "outputs": [
        {
          "name": "",
          "type": "bool"
        }
      ],
      "payable": false,
      "stateMutability": "view",
      "type": "function"
    },
    {
      "constant": true,
      "inputs": [
        {
          "name": "addrLegalEntity",
          "type": "address"
        }
      ],
      "name": "isClient",
      "outputs": [
        {
          "name": "",
          "type": "bool"
        }
      ],
      "payable": false,
      "stateMutability": "view",
      "type": "function"
    },
    {
      "constant": true,
      "inputs": [
        {
          "name": "addrLegalEntity",
          "type": "address"
        }
      ],
      "name": "isSupplier",
      "outputs": [
        {
          "name": "",
          "type": "bool"
        }
      ],
      "payable": false,
      "stateMutability": "view",
      "type": "function"
    },
    {
      "constant": true,
      "inputs": [
        {
          "name": "addrLegalEntity",
          "type": "address"
        }
      ],
      "name": "isOtherRole",
      "outputs": [
        {
          "name": "",
          "type": "bool"
        }
      ],
      "payable": false,
      "stateMutability": "view",
      "type": "function"
    }
  ],
  "bytecode": "0x60806040523480156200001157600080fd5b50604051604080620029ee833981018060405260408110156200003357600080fd5b81019080805190602001909291908051906020019092919050505081806200006a336200012a640100000000026401000000009004565b6000600160006101000a81548160ff021916908315150217905550806001806101000a81548173ffffffffffffffffffffffffffffffffffffffff021916908373ffffffffffffffffffffffffffffffffffffffff16021790555060018060156101000a81548160ff021916908315150217905550505080600360026101000a81548173ffffffffffffffffffffffffffffffffffffffff021916908373ffffffffffffffffffffffffffffffffffffffff1602179055505050620002ec565b6200014e816000620001946401000000000262002616179091906401000000009004565b8073ffffffffffffffffffffffffffffffffffffffff167f6719d08c1888103bea251a4ed56406bd0c3e69723c8a1686e017e7bbe159b6f860405160405180910390a250565b600073ffffffffffffffffffffffffffffffffffffffff168173ffffffffffffffffffffffffffffffffffffffff1614151515620001d157600080fd5b620001ec828262000257640100000000026401000000009004565b151515620001f957600080fd5b60018260000160008373ffffffffffffffffffffffffffffffffffffffff1673ffffffffffffffffffffffffffffffffffffffff16815260200190815260200160002060006101000a81548160ff0219169083151502179055505050565b60008073ffffffffffffffffffffffffffffffffffffffff168273ffffffffffffffffffffffffffffffffffffffff16141515156200029557600080fd5b8260000160008373ffffffffffffffffffffffffffffffffffffffff1673ffffffffffffffffffffffffffffffffffffffff16815260200190815260200160002060009054906101000a900460ff16905092915050565b6126f280620002fc6000396000f3fe60806040526004361061016a576000357c0100000000000000000000000000000000000000000000000000000000900463ffffffff16806308194ea81461016f57806309ea2709146101d85780630b91eaf91461021557806316d3ffc31461027e5780632896f60b146102e75780632bc3d7aa14610350578063306c1f0c146103b95780633d4a02e0146104225780633f4ba83a1461047d57806344df585d14610494578063463365421461057c57806346fbf68e146105e557806352bf2c3c1461064e5780635c975abb146106a55780635fa037ca146106d457806365f68c89146107035780636ef8d66d14610768578063823d005b1461077f57806382dc1ec4146107e85780638456cb591461083957806384b7964f14610850578063901fe047146108b957806396a0604a146108e8578063b062674114610917578063b43f06ad1461097c578063dda85121146109d7578063f085865a14610aa1578063fb7d8a1e14610b0a575b600080fd5b34801561017b57600080fd5b506101be6004803603602081101561019257600080fd5b81019080803573ffffffffffffffffffffffffffffffffffffffff169060200190929190505050610b73565b604051808215151515815260200191505060405180910390f35b3480156101e457600080fd5b50610213600480360360208110156101fb57600080fd5b81019080803515159060200190929190505050610b98565b005b34801561022157600080fd5b506102646004803603602081101561023857600080fd5b81019080803573ffffffffffffffffffffffffffffffffffffffff169060200190929190505050610d44565b604051808215151515815260200191505060405180910390f35b34801561028a57600080fd5b506102cd600480360360208110156102a157600080fd5b81019080803573ffffffffffffffffffffffffffffffffffffffff169060200190929190505050610d69565b604051808215151515815260200191505060405180910390f35b3480156102f357600080fd5b506103366004803603602081101561030a57600080fd5b81019080803573ffffffffffffffffffffffffffffffffffffffff169060200190929190505050610f5b565b604051808215151515815260200191505060405180910390f35b34801561035c57600080fd5b5061039f6004803603602081101561037357600080fd5b81019080803573ffffffffffffffffffffffffffffffffffffffff169060200190929190505050610f6f565b604051808215151515815260200191505060405180910390f35b3480156103c557600080fd5b50610408600480360360208110156103dc57600080fd5b81019080803573ffffffffffffffffffffffffffffffffffffffff169060200190929190505050610f94565b604051808215151515815260200191505060405180910390f35b34801561042e57600080fd5b5061047b6004803603604081101561044557600080fd5b81019080803573ffffffffffffffffffffffffffffffffffffffff16906020019092919080359060200190929190505050610fb9565b005b34801561048957600080fd5b506104926111c7565b005b3480156104a057600080fd5b5061057a600480360360408110156104b757600080fd5b81019080803573ffffffffffffffffffffffffffffffffffffffff169060200190929190803590602001906401000000008111156104f457600080fd5b82018360208201111561050657600080fd5b8035906020019184600183028401116401000000008311171561052857600080fd5b91908080601f016020809104026020016040519081016040528093929190818152602001838380828437600081840152601f19601f820116905080830192505050505050509192919290505050611276565b005b34801561058857600080fd5b506105cb6004803603602081101561059f57600080fd5b81019080803573ffffffffffffffffffffffffffffffffffffffff1690602001909291905050506114e9565b604051808215151515815260200191505060405180910390f35b3480156105f157600080fd5b506106346004803603602081101561060857600080fd5b81019080803573ffffffffffffffffffffffffffffffffffffffff16906020019092919050505061150e565b604051808215151515815260200191505060405180910390f35b34801561065a57600080fd5b5061066361152b565b604051808273ffffffffffffffffffffffffffffffffffffffff1673ffffffffffffffffffffffffffffffffffffffff16815260200191505060405180910390f35b3480156106b157600080fd5b506106ba611554565b604051808215151515815260200191505060405180910390f35b3480156106e057600080fd5b506106e961156b565b604051808215151515815260200191505060405180910390f35b34801561070f57600080fd5b506107526004803603602081101561072657600080fd5b81019080803573ffffffffffffffffffffffffffffffffffffffff1690602001909291905050506115bf565b6040518082815260200191505060405180910390f35b34801561077457600080fd5b5061077d611748565b005b34801561078b57600080fd5b506107ce600480360360208110156107a257600080fd5b81019080803573ffffffffffffffffffffffffffffffffffffffff169060200190929190505050611753565b604051808215151515815260200191505060405180910390f35b3480156107f457600080fd5b506108376004803603602081101561080b57600080fd5b81019080803573ffffffffffffffffffffffffffffffffffffffff169060200190929190505050611778565b005b34801561084557600080fd5b5061084e611798565b005b34801561085c57600080fd5b5061089f6004803603602081101561087357600080fd5b81019080803573ffffffffffffffffffffffffffffffffffffffff169060200190929190505050611847565b604051808215151515815260200191505060405180910390f35b3480156108c557600080fd5b506108ce61186c565b604051808215151515815260200191505060405180910390f35b3480156108f457600080fd5b506108fd611883565b604051808215151515815260200191505060405180910390f35b34801561092357600080fd5b506109666004803603602081101561093a57600080fd5b81019080803573ffffffffffffffffffffffffffffffffffffffff16906020019092919050505061197f565b6040518082815260200191505060405180910390f35b34801561098857600080fd5b506109d56004803603604081101561099f57600080fd5b81019080803573ffffffffffffffffffffffffffffffffffffffff16906020019092919080359060200190929190505050611b08565b005b3480156109e357600080fd5b50610a26600480360360208110156109fa57600080fd5b81019080803573ffffffffffffffffffffffffffffffffffffffff169060200190929190505050611d16565b6040518080602001828103825283818151815260200191508051906020019080838360005b83811015610a66578082015181840152602081019050610a4b565b50505050905090810190601f168015610a935780820380516001836020036101000a031916815260200191505b509250505060405180910390f35b348015610aad57600080fd5b50610af060048036036020811015610ac457600080fd5b81019080803573ffffffffffffffffffffffffffffffffffffffff169060200190929190505050611ef6565b604051808215151515815260200191505060405180910390f35b348015610b1657600080fd5b50610b5960048036036020811015610b2d57600080fd5b81019080803573ffffffffffffffffffffffffffffffffffffffff169060200190929190505050611f1b565b604051808215151515815260200191505060405180910390f35b60008060039050806004811115610b8657fe5b610b8f8461210d565b14915050919050565b6001809054906101000a900473ffffffffffffffffffffffffffffffffffffffff1673ffffffffffffffffffffffffffffffffffffffff16637e96549f336040518263ffffffff167c0100000000000000000000000000000000000000000000000000000000028152600401808273ffffffffffffffffffffffffffffffffffffffff1673ffffffffffffffffffffffffffffffffffffffff16815260200191505060206040518083038186803b158015610c5257600080fd5b505afa158015610c66573d6000803e3d6000fd5b505050506040513d6020811015610c7c57600080fd5b81019080805190602001909291905050501515610d27576040517f08c379a000000000000000000000000000000000000000000000000000000000815260040180806020018281038252602f8152602001807f546869732066756e6374696f6e2063616e206f6e6c792062652065786563757481526020017f656420627920557067726164657273000000000000000000000000000000000081525060400191505060405180910390fd5b80600160156101000a81548160ff02191690831515021790555050565b60008060029050806004811115610d5757fe5b610d608461210d565b14915050919050565b60006001809054906101000a900473ffffffffffffffffffffffffffffffffffffffff1673ffffffffffffffffffffffffffffffffffffffff16637e96549f336040518263ffffffff167c0100000000000000000000000000000000000000000000000000000000028152600401808273ffffffffffffffffffffffffffffffffffffffff1673ffffffffffffffffffffffffffffffffffffffff16815260200191505060206040518083038186803b158015610e2557600080fd5b505afa158015610e39573d6000803e3d6000fd5b505050506040513d6020811015610e4f57600080fd5b81019080805190602001909291905050501515610efa576040517f08c379a000000000000000000000000000000000000000000000000000000000815260040180806020018281038252602f8152602001807f546869732066756e6374696f6e2063616e206f6e6c792062652065786563757481526020017f656420627920557067726164657273000000000000000000000000000000000081525060400191505060405180910390fd5b6000600260008473ffffffffffffffffffffffffffffffffffffffff1673ffffffffffffffffffffffffffffffffffffffff16815260200190815260200160002060006101000a81548160ff02191690831515021790555060019050919050565b600080610f678361210d565b149050919050565b60008060009050806003811115610f8257fe5b610f8b84612296565b14915050919050565b60008060019050806004811115610fa757fe5b610fb08461210d565b14915050919050565b610fc161156b565b151561105b576040517f08c379a000000000000000000000000000000000000000000000000000000000815260040180806020018281038252602c8152602001807f446f206e6f742068617665207468652068616e646c6572207065726d6973736981526020017f6f6e20746f20777269746521000000000000000000000000000000000000000081525060400191505060405180910390fd5b60008260405160200180807f4c6567616c456e74697479496e666f0000000000000000000000000000000000815250600f018273ffffffffffffffffffffffffffffffffffffffff1673ffffffffffffffffffffffffffffffffffffffff166c01000000000000000000000000028152601401807f696446696e616e6369616c537570706f727441677265656d656e740000000000815250601b01915050604051602081830303815290604052805190602001209050600360029054906101000a900473ffffffffffffffffffffffffffffffffffffffff1673ffffffffffffffffffffffffffffffffffffffff1663e2a4853a82846040518363ffffffff167c01000000000000000000000000000000000000000000000000000000000281526004018083815260200182815260200192505050600060405180830381600087803b1580156111aa57600080fd5b505af11580156111be573d6000803e3d6000fd5b50505050505050565b6111d03361150e565b15156111db57600080fd5b600160009054906101000a900460ff1615156111f657600080fd5b6000600160006101000a81548160ff0219169083151502179055507f5db9ee0a495bf2e6ff9c91a7834c1ba4fdd244a5e8aa4e537bd38aeae4b073aa33604051808273ffffffffffffffffffffffffffffffffffffffff1673ffffffffffffffffffffffffffffffffffffffff16815260200191505060405180910390a1565b61127e61156b565b1515611318576040517f08c379a000000000000000000000000000000000000000000000000000000000815260040180806020018281038252602c8152602001807f446f206e6f742068617665207468652068616e646c6572207065726d6973736981526020017f6f6e20746f20777269746521000000000000000000000000000000000000000081525060400191505060405180910390fd5b60008260405160200180807f4c6567616c456e74697479496e666f0000000000000000000000000000000000815250600f018273ffffffffffffffffffffffffffffffffffffffff1673ffffffffffffffffffffffffffffffffffffffff166c01000000000000000000000000028152601401807f696450726f6f6648617368000000000000000000000000000000000000000000815250600b01915050604051602081830303815290604052805190602001209050600360029054906101000a900473ffffffffffffffffffffffffffffffffffffffff1673ffffffffffffffffffffffffffffffffffffffff16636e89955082846040518363ffffffff167c01000000000000000000000000000000000000000000000000000000000281526004018083815260200180602001828103825283818151815260200191508051906020019080838360005b8381101561147f578082015181840152602081019050611464565b50505050905090810190601f1680156114ac5780820380516001836020036101000a031916815260200191505b509350505050600060405180830381600087803b1580156114cc57600080fd5b505af11580156114e0573d6000803e3d6000fd5b50505050505050565b600080600290508060038111156114fc57fe5b61150584612296565b14915050919050565b600061152482600061241f90919063ffffffff16565b9050919050565b60006001809054906101000a900473ffffffffffffffffffffffffffffffffffffffff16905090565b6000600160009054906101000a900460ff16905090565b6000600260003373ffffffffffffffffffffffffffffffffffffffff1673ffffffffffffffffffffffffffffffffffffffff16815260200190815260200160002060009054906101000a900460ff16905090565b6000808260405160200180807f4c6567616c456e74697479496e666f0000000000000000000000000000000000815250600f018273ffffffffffffffffffffffffffffffffffffffff1673ffffffffffffffffffffffffffffffffffffffff166c01000000000000000000000000028152601401807f6964000000000000000000000000000000000000000000000000000000000000815250600201915050604051602081830303815290604052805190602001209050600360029054906101000a900473ffffffffffffffffffffffffffffffffffffffff1673ffffffffffffffffffffffffffffffffffffffff1663bd02d0f5826040518263ffffffff167c01000000000000000000000000000000000000000000000000000000000281526004018082815260200191505060206040518083038186803b15801561170557600080fd5b505afa158015611719573d6000803e3d6000fd5b505050506040513d602081101561172f57600080fd5b8101908080519060200190929190505050915050919050565b611751336124b3565b565b6000806004905080600481111561176657fe5b61176f8461210d565b14915050919050565b6117813361150e565b151561178c57600080fd5b6117958161250d565b50565b6117a13361150e565b15156117ac57600080fd5b600160009054906101000a900460ff161515156117c857600080fd5b60018060006101000a81548160ff0219169083151502179055507f62e78cea01bee320cd4e420270b5ea74000d11b0c9f74754ebdbfc544b05a25833604051808273ffffffffffffffffffffffffffffffffffffffff1673ffffffffffffffffffffffffffffffffffffffff16815260200191505060405180910390a1565b6000806001905080600381111561185a57fe5b61186384612296565b14915050919050565b6000600160159054906101000a900460ff16905090565b60006001809054906101000a900473ffffffffffffffffffffffffffffffffffffffff1673ffffffffffffffffffffffffffffffffffffffff16637e96549f336040518263ffffffff167c0100000000000000000000000000000000000000000000000000000000028152600401808273ffffffffffffffffffffffffffffffffffffffff1673ffffffffffffffffffffffffffffffffffffffff16815260200191505060206040518083038186803b15801561193f57600080fd5b505afa158015611953573d6000803e3d6000fd5b505050506040513d602081101561196957600080fd5b8101908080519060200190929190505050905090565b6000808260405160200180807f4c6567616c456e74697479496e666f0000000000000000000000000000000000815250600f018273ffffffffffffffffffffffffffffffffffffffff1673ffffffffffffffffffffffffffffffffffffffff166c01000000000000000000000000028152601401807f696446696e616e6369616c537570706f727441677265656d656e740000000000815250601b01915050604051602081830303815290604052805190602001209050600360029054906101000a900473ffffffffffffffffffffffffffffffffffffffff1673ffffffffffffffffffffffffffffffffffffffff1663bd02d0f5826040518263ffffffff167c01000000000000000000000000000000000000000000000000000000000281526004018082815260200191505060206040518083038186803b158015611ac557600080fd5b505afa158015611ad9573d6000803e3d6000fd5b505050506040513d6020811015611aef57600080fd5b8101908080519060200190929190505050915050919050565b611b1061156b565b1515611baa576040517f08c379a000000000000000000000000000000000000000000000000000000000815260040180806020018281038252602c8152602001807f446f206e6f742068617665207468652068616e646c6572207065726d6973736981526020017f6f6e20746f20777269746521000000000000000000000000000000000000000081525060400191505060405180910390fd5b60008260405160200180807f4c6567616c456e74697479496e666f0000000000000000000000000000000000815250600f018273ffffffffffffffffffffffffffffffffffffffff1673ffffffffffffffffffffffffffffffffffffffff166c01000000000000000000000000028152601401807f6964000000000000000000000000000000000000000000000000000000000000815250600201915050604051602081830303815290604052805190602001209050600360029054906101000a900473ffffffffffffffffffffffffffffffffffffffff1673ffffffffffffffffffffffffffffffffffffffff1663e2a4853a82846040518363ffffffff167c01000000000000000000000000000000000000000000000000000000000281526004018083815260200182815260200192505050600060405180830381600087803b158015611cf957600080fd5b505af1158015611d0d573d6000803e3d6000fd5b50505050505050565b606060008260405160200180807f4c6567616c456e74697479496e666f0000000000000000000000000000000000815250600f018273ffffffffffffffffffffffffffffffffffffffff1673ffffffffffffffffffffffffffffffffffffffff166c01000000000000000000000000028152601401807f696450726f6f6648617368000000000000000000000000000000000000000000815250600b01915050604051602081830303815290604052805190602001209050600360029054906101000a900473ffffffffffffffffffffffffffffffffffffffff1673ffffffffffffffffffffffffffffffffffffffff1663986e791a826040518263ffffffff167c01000000000000000000000000000000000000000000000000000000000281526004018082815260200191505060006040518083038186803b158015611e5d57600080fd5b505afa158015611e71573d6000803e3d6000fd5b505050506040513d6000823e3d601f19601f820116820180604052506020811015611e9b57600080fd5b810190808051640100000000811115611eb357600080fd5b82810190506020810184811115611ec957600080fd5b8151856001820283011164010000000082111715611ee657600080fd5b5050929190505050915050919050565b60008060039050806003811115611f0957fe5b611f1284612296565b14915050919050565b60006001809054906101000a900473ffffffffffffffffffffffffffffffffffffffff1673ffffffffffffffffffffffffffffffffffffffff16637e96549f336040518263ffffffff167c0100000000000000000000000000000000000000000000000000000000028152600401808273ffffffffffffffffffffffffffffffffffffffff1673ffffffffffffffffffffffffffffffffffffffff16815260200191505060206040518083038186803b158015611fd757600080fd5b505afa158015611feb573d6000803e3d6000fd5b505050506040513d602081101561200157600080fd5b810190808051906020019092919050505015156120ac576040517f08c379a000000000000000000000000000000000000000000000000000000000815260040180806020018281038252602f8152602001807f546869732066756e6374696f6e2063616e206f6e6c792062652065786563757481526020017f656420627920557067726164657273000000000000000000000000000000000081525060400191505060405180910390fd5b6001600260008473ffffffffffffffffffffffffffffffffffffffff1673ffffffffffffffffffffffffffffffffffffffff16815260200190815260200160002060006101000a81548160ff02191690831515021790555060019050919050565b6000808260405160200180807f4c6567616c456e74697479496e666f0000000000000000000000000000000000815250600f018273ffffffffffffffffffffffffffffffffffffffff1673ffffffffffffffffffffffffffffffffffffffff166c01000000000000000000000000028152601401807f7374617465000000000000000000000000000000000000000000000000000000815250600501915050604051602081830303815290604052805190602001209050600360029054906101000a900473ffffffffffffffffffffffffffffffffffffffff1673ffffffffffffffffffffffffffffffffffffffff1663bd02d0f5826040518263ffffffff167c01000000000000000000000000000000000000000000000000000000000281526004018082815260200191505060206040518083038186803b15801561225357600080fd5b505afa158015612267573d6000803e3d6000fd5b505050506040513d602081101561227d57600080fd5b8101908080519060200190929190505050915050919050565b6000808260405160200180807f4c6567616c456e74697479496e666f0000000000000000000000000000000000815250600f018273ffffffffffffffffffffffffffffffffffffffff1673ffffffffffffffffffffffffffffffffffffffff166c01000000000000000000000000028152601401807f726f6c6500000000000000000000000000000000000000000000000000000000815250600401915050604051602081830303815290604052805190602001209050600360029054906101000a900473ffffffffffffffffffffffffffffffffffffffff1673ffffffffffffffffffffffffffffffffffffffff1663bd02d0f5826040518263ffffffff167c01000000000000000000000000000000000000000000000000000000000281526004018082815260200191505060206040518083038186803b1580156123dc57600080fd5b505afa1580156123f0573d6000803e3d6000fd5b505050506040513d602081101561240657600080fd5b8101908080519060200190929190505050915050919050565b60008073ffffffffffffffffffffffffffffffffffffffff168273ffffffffffffffffffffffffffffffffffffffff161415151561245c57600080fd5b8260000160008373ffffffffffffffffffffffffffffffffffffffff1673ffffffffffffffffffffffffffffffffffffffff16815260200190815260200160002060009054906101000a900460ff16905092915050565b6124c781600061256790919063ffffffff16565b8073ffffffffffffffffffffffffffffffffffffffff167fcd265ebaf09df2871cc7bd4133404a235ba12eff2041bb89d9c714a2621c7c7e60405160405180910390a250565b61252181600061261690919063ffffffff16565b8073ffffffffffffffffffffffffffffffffffffffff167f6719d08c1888103bea251a4ed56406bd0c3e69723c8a1686e017e7bbe159b6f860405160405180910390a250565b600073ffffffffffffffffffffffffffffffffffffffff168173ffffffffffffffffffffffffffffffffffffffff16141515156125a357600080fd5b6125ad828261241f565b15156125b857600080fd5b60008260000160008373ffffffffffffffffffffffffffffffffffffffff1673ffffffffffffffffffffffffffffffffffffffff16815260200190815260200160002060006101000a81548160ff0219169083151502179055505050565b600073ffffffffffffffffffffffffffffffffffffffff168173ffffffffffffffffffffffffffffffffffffffff161415151561265257600080fd5b61265c828261241f565b15151561266857600080fd5b60018260000160008373ffffffffffffffffffffffffffffffffffffffff1673ffffffffffffffffffffffffffffffffffffffff16815260200190815260200160002060006101000a81548160ff021916908315150217905550505056fea165627a7a72305820f368dae8b452c9e3dbf5f4e0da54c68f2e117b413670e4234ac604fa51f84c1d0029",
  "source": "pragma solidity ^0.5.0;\r\n\r\nimport \"./appGovernanceUpgrade/Storage.sol\";\r\nimport \"./appGovernanceUpgrade/UpdatableHandleable.sol\";\r\n\r\n/*\r\n    struct LegalEntityInfo {\r\n        uint64 id; //Brazilian identification of legal entity (cnpj)\r\n        string idProofHash; //hash of declaration\r\n        BlockchainAccountState state;\r\n        Role role;\r\n        uint64 idFinancialSupportAgreement; //SCC contract (only to clients)\r\n    }\r\n    \r\n    //Links Ethereum addresses to LegalEntityInfo\r\n    mapping(address => LegalEntityInfo) public legalEntitiesInfo;\r\n\r\n    The user should registry once for each role.\r\n    The client should registry once for EACH contract in order to segregate the money to each project --- TODO: improve this\r\n\r\n*/\r\ncontract LegalEntityMapping is UpdatableHandleable {\r\n\r\n    /**\r\n        The account of clients and suppliers are assigned to states.\r\n        AVAILABLE - The account is not yet assigned any role (any of them - client, supplier or any reserved addresses).\r\n        WAITING_VALIDATION - The account was linked to a legal entity but it still needs to be validated\r\n        VALIDATED - The account was validated\r\n        INVALIDATED_BY_VALIDATOR - The account was invalidated\r\n        INVALIDATED_BY_CHANGE - The client or supplier changed the ethereum account so the original one must be invalidated.\r\n     */\r\n    enum BlockchainAccountState {AVAILABLE,WAITING_VALIDATION,VALIDATED,INVALIDATED_BY_VALIDATOR,INVALIDATED_BY_CHANGE}\r\n    BlockchainAccountState blockchainStateEnum; //Not used. Defined to create the enum type.\r\n\r\n    enum Role {DONOR, CLIENT, SUPPLIER, OTHER}\r\n    Role roleEnum; //Not used. Defined to create the enum type\r\n\r\n\r\n    Storage storageContract;\r\n\r\n    constructor (address upgraderInfo, address storageContractAddr) UpdatableHandleable (upgraderInfo) public {\r\n        storageContract = Storage(storageContractAddr);\r\n    }\r\n\r\n//Id\r\n    function getId(address addrLegalEntity) view public returns (uint) {\r\n        bytes32 key = keccak256(abi.encodePacked(\"LegalEntityInfo\",addrLegalEntity,\"id\"));\r\n        return storageContract.getUint(key);\r\n    }\r\n\r\n    function setId(address addrLegalEntity, uint id) public onlyHandler {\r\n        bytes32 key = keccak256(abi.encodePacked(\"LegalEntityInfo\",addrLegalEntity,\"id\"));\r\n        storageContract.setUint(key, id);\r\n    }\r\n\r\n//IdProofHash\r\n    function getIdProofHash(address addrLegalEntity) view public returns (string memory) {\r\n        bytes32 key = keccak256(abi.encodePacked(\"LegalEntityInfo\",addrLegalEntity,\"idProofHash\"));\r\n        return storageContract.getString(key);\r\n    }\r\n\r\n    function setIdProofHash(address addrLegalEntity, string memory idProofHash) public onlyHandler {\r\n        bytes32 key = keccak256(abi.encodePacked(\"LegalEntityInfo\",addrLegalEntity,\"idProofHash\"));\r\n        storageContract.setString(key, idProofHash);\r\n    }\r\n\r\n//State\r\n    function isAvailable(address addrLegalEntity) view public returns (bool) {\r\n        return _getStateAsUint(addrLegalEntity) == 0;\r\n    }\r\n\r\n    function isWaitingValidation(address addrLegalEntity) view public returns (bool) {\r\n        BlockchainAccountState state = BlockchainAccountState.WAITING_VALIDATION;\r\n        return _getStateAsUint(addrLegalEntity) == (uint) (state);\r\n    }\r\n\r\n    function isValidated(address addrLegalEntity) view public returns (bool) {\r\n        BlockchainAccountState state = BlockchainAccountState.VALIDATED;\r\n        return _getStateAsUint(addrLegalEntity) == (uint) (state);\r\n    }\r\n\r\n    function isInvalidatedByValidator(address addrLegalEntity) view public returns (bool) {\r\n        BlockchainAccountState state = BlockchainAccountState.INVALIDATED_BY_VALIDATOR;\r\n        return _getStateAsUint(addrLegalEntity) == (uint) (state);\r\n    }\r\n\r\n    function isValidatedByChange(address addrLegalEntity) view public returns (bool) {\r\n        BlockchainAccountState state = BlockchainAccountState.INVALIDATED_BY_CHANGE;\r\n        return _getStateAsUint(addrLegalEntity) == (uint) (state);\r\n    }\r\n\r\n    function _getStateAsUint(address addrLegalEntity) view private returns (uint) {\r\n        bytes32 key = keccak256(abi.encodePacked(\"LegalEntityInfo\",addrLegalEntity,\"state\"));\r\n        return storageContract.getUint(key);\r\n    }\r\n\r\n    function _setStateAsUint(address addrLegalEntity, uint id) private onlyHandler {\r\n        bytes32 key = keccak256(abi.encodePacked(\"LegalEntityInfo\",addrLegalEntity,\"state\"));\r\n        storageContract.setUint(key, id);\r\n    }\r\n\r\n//IdFinancialSupportAgreement\r\n    function getIdFinancialSupportAgreement(address addrLegalEntity) view public returns (uint) {\r\n        bytes32 key = keccak256(abi.encodePacked(\"LegalEntityInfo\",addrLegalEntity,\"idFinancialSupportAgreement\"));\r\n        return storageContract.getUint(key);\r\n    }\r\n\r\n    function setIdFinancialSupportAgreement(address addrLegalEntity, uint id) public onlyHandler {\r\n        bytes32 key = keccak256(abi.encodePacked(\"LegalEntityInfo\",addrLegalEntity,\"idFinancialSupportAgreement\"));\r\n        storageContract.setUint(key, id);\r\n    }\r\n\r\n//Role\r\n    function _getRoleAsUint(address addrLegalEntity) view private returns (uint) {\r\n        bytes32 key = keccak256(abi.encodePacked(\"LegalEntityInfo\",addrLegalEntity,\"role\"));\r\n        return storageContract.getUint(key);\r\n    }\r\n\r\n    function _setRoleAsUint(address addrLegalEntity, uint id) private onlyHandler {\r\n        bytes32 key = keccak256(abi.encodePacked(\"LegalEntityInfo\",addrLegalEntity,\"role\"));\r\n        storageContract.setUint(key, id);\r\n    }\r\n\r\n    function isDonor(address addrLegalEntity) view public returns (bool) {\r\n        Role role = Role.DONOR;\r\n        return _getRoleAsUint(addrLegalEntity) == (uint) (role);\r\n    }\r\n\r\n    function isClient(address addrLegalEntity) view public returns (bool) {\r\n        Role role = Role.CLIENT;\r\n        return _getRoleAsUint(addrLegalEntity) == (uint) (role);\r\n    }\r\n\r\n    function isSupplier(address addrLegalEntity) view public returns (bool) {\r\n        Role role = Role.SUPPLIER;\r\n        return _getRoleAsUint(addrLegalEntity) == (uint) (role);\r\n    }\r\n\r\n    function isOtherRole(address addrLegalEntity) view public returns (bool) {\r\n        Role role = Role.OTHER;\r\n        return _getRoleAsUint(addrLegalEntity) == (uint) (role);\r\n    }\r\n\r\n}",
  "sourcePath": "D:\\Workspace\\bndestoken\\Back-Blockchain-Upgrade\\contracts\\LegalEntityMapping.sol",
  "compiler": {
    "name": "solc",
    "version": "0.5.0+commit.1d4f565a.Emscripten.clang"
  },
  "schemaVersion": "3.0.5",
  "updatedAt": "2020-01-27T18:43:06.992Z",
  "devdoc": {
    "methods": {
      "pause()": {
        "details": "called by the owner to pause, triggers stopped state"
      },
      "paused()": {
        "return": "true if the contract is paused, false otherwise."
      },
      "unpause()": {
        "details": "called by the owner to unpause, returns to normal state"
      }
    }
  },
  "userdoc": {
    "methods": {}
  }
}