{
  "contractName": "LegalEntityMapping",
  "abi": [
    {
      "constant": false,
      "inputs": [
        {
          "name": "b",
          "type": "bool"
        }
      ],
      "name": "setDataAvailable",
      "outputs": [],
      "payable": false,
      "stateMutability": "nonpayable",
      "type": "function",
      "signature": "0x09ea2709"
    },
    {
      "constant": true,
      "inputs": [],
      "name": "storageContract",
      "outputs": [
        {
          "name": "",
          "type": "address"
        }
      ],
      "payable": false,
      "stateMutability": "view",
      "type": "function",
      "signature": "0x11ce0267"
    },
    {
      "constant": false,
      "inputs": [],
      "name": "setHANDTESTE",
      "outputs": [],
      "payable": false,
      "stateMutability": "nonpayable",
      "type": "function",
      "signature": "0x134bb038"
    },
    {
      "constant": false,
      "inputs": [
        {
          "name": "_handlerAddr",
          "type": "address"
        }
      ],
      "name": "removeHandler",
      "outputs": [
        {
          "name": "",
          "type": "bool"
        }
      ],
      "payable": false,
      "stateMutability": "nonpayable",
      "type": "function",
      "signature": "0x16d3ffc3"
    },
    {
      "constant": true,
      "inputs": [],
      "name": "_dataAvailable",
      "outputs": [
        {
          "name": "",
          "type": "bool"
        }
      ],
      "payable": false,
      "stateMutability": "view",
      "type": "function",
      "signature": "0x1b49f03a"
    },
    {
      "constant": false,
      "inputs": [],
      "name": "unpause",
      "outputs": [],
      "payable": false,
      "stateMutability": "nonpayable",
      "type": "function",
      "signature": "0x3f4ba83a"
    },
    {
      "constant": true,
      "inputs": [
        {
          "name": "account",
          "type": "address"
        }
      ],
      "name": "isPauser",
      "outputs": [
        {
          "name": "",
          "type": "bool"
        }
      ],
      "payable": false,
      "stateMutability": "view",
      "type": "function",
      "signature": "0x46fbf68e"
    },
    {
      "constant": true,
      "inputs": [],
      "name": "upgraderInfoAddr",
      "outputs": [
        {
          "name": "",
          "type": "address"
        }
      ],
      "payable": false,
      "stateMutability": "view",
      "type": "function",
      "signature": "0x52bf2c3c"
    },
    {
      "constant": true,
      "inputs": [],
      "name": "paused",
      "outputs": [
        {
          "name": "",
          "type": "bool"
        }
      ],
      "payable": false,
      "stateMutability": "view",
      "type": "function",
      "signature": "0x5c975abb"
    },
    {
      "constant": true,
      "inputs": [],
      "name": "isHandler",
      "outputs": [
        {
          "name": "",
          "type": "bool"
        }
      ],
      "payable": false,
      "stateMutability": "view",
      "type": "function",
      "signature": "0x5fa037ca"
    },
    {
      "constant": false,
      "inputs": [],
      "name": "renouncePauser",
      "outputs": [],
      "payable": false,
      "stateMutability": "nonpayable",
      "type": "function",
      "signature": "0x6ef8d66d"
    },
    {
      "constant": false,
      "inputs": [
        {
          "name": "account",
          "type": "address"
        }
      ],
      "name": "addPauser",
      "outputs": [],
      "payable": false,
      "stateMutability": "nonpayable",
      "type": "function",
      "signature": "0x82dc1ec4"
    },
    {
      "constant": false,
      "inputs": [],
      "name": "pause",
      "outputs": [],
      "payable": false,
      "stateMutability": "nonpayable",
      "type": "function",
      "signature": "0x8456cb59"
    },
    {
      "constant": true,
      "inputs": [],
      "name": "upgraderInfo",
      "outputs": [
        {
          "name": "",
          "type": "address"
        }
      ],
      "payable": false,
      "stateMutability": "view",
      "type": "function",
      "signature": "0x900126f4"
    },
    {
      "constant": true,
      "inputs": [],
      "name": "dataAvailable",
      "outputs": [
        {
          "name": "",
          "type": "bool"
        }
      ],
      "payable": false,
      "stateMutability": "view",
      "type": "function",
      "signature": "0x901fe047"
    },
    {
      "constant": true,
      "inputs": [],
      "name": "isAllowedUpgrader",
      "outputs": [
        {
          "name": "",
          "type": "bool"
        }
      ],
      "payable": false,
      "stateMutability": "view",
      "type": "function",
      "signature": "0x96a0604a"
    },
    {
      "constant": true,
      "inputs": [
        {
          "name": "",
          "type": "address"
        }
      ],
      "name": "handlerAddrPermission",
      "outputs": [
        {
          "name": "",
          "type": "bool"
        }
      ],
      "payable": false,
      "stateMutability": "view",
      "type": "function",
      "signature": "0xe857738a"
    },
    {
      "constant": false,
      "inputs": [
        {
          "name": "_handlerAddr",
          "type": "address"
        }
      ],
      "name": "addHandler",
      "outputs": [
        {
          "name": "",
          "type": "bool"
        }
      ],
      "payable": false,
      "stateMutability": "nonpayable",
      "type": "function",
      "signature": "0xfb7d8a1e"
    },
    {
      "inputs": [
        {
          "name": "upgraderInfo",
          "type": "address"
        },
        {
          "name": "storageContractAddr",
          "type": "address"
        }
      ],
      "payable": false,
      "stateMutability": "nonpayable",
      "type": "constructor",
      "signature": "constructor"
    },
    {
      "anonymous": false,
      "inputs": [
        {
          "indexed": false,
          "name": "account",
          "type": "address"
        }
      ],
      "name": "Paused",
      "type": "event",
      "signature": "0x62e78cea01bee320cd4e420270b5ea74000d11b0c9f74754ebdbfc544b05a258"
    },
    {
      "anonymous": false,
      "inputs": [
        {
          "indexed": false,
          "name": "account",
          "type": "address"
        }
      ],
      "name": "Unpaused",
      "type": "event",
      "signature": "0x5db9ee0a495bf2e6ff9c91a7834c1ba4fdd244a5e8aa4e537bd38aeae4b073aa"
    },
    {
      "anonymous": false,
      "inputs": [
        {
          "indexed": true,
          "name": "account",
          "type": "address"
        }
      ],
      "name": "PauserAdded",
      "type": "event",
      "signature": "0x6719d08c1888103bea251a4ed56406bd0c3e69723c8a1686e017e7bbe159b6f8"
    },
    {
      "anonymous": false,
      "inputs": [
        {
          "indexed": true,
          "name": "account",
          "type": "address"
        }
      ],
      "name": "PauserRemoved",
      "type": "event",
      "signature": "0xcd265ebaf09df2871cc7bd4133404a235ba12eff2041bb89d9c714a2621c7c7e"
    },
    {
      "constant": false,
      "inputs": [],
      "name": "setTESTE",
      "outputs": [],
      "payable": false,
      "stateMutability": "nonpayable",
      "type": "function",
      "signature": "0x841e0084"
    },
    {
      "constant": true,
      "inputs": [
        {
          "name": "addrLegalEntity",
          "type": "address"
        }
      ],
      "name": "getId",
      "outputs": [
        {
          "name": "",
          "type": "uint256"
        }
      ],
      "payable": false,
      "stateMutability": "view",
      "type": "function",
      "signature": "0x65f68c89"
    },
    {
      "constant": false,
      "inputs": [
        {
          "name": "addrLegalEntity",
          "type": "address"
        },
        {
          "name": "id",
          "type": "uint256"
        }
      ],
      "name": "setId",
      "outputs": [],
      "payable": false,
      "stateMutability": "nonpayable",
      "type": "function",
      "signature": "0xb43f06ad"
    },
    {
      "constant": true,
      "inputs": [
        {
          "name": "addrLegalEntity",
          "type": "address"
        }
      ],
      "name": "getIdProofHash",
      "outputs": [
        {
          "name": "",
          "type": "string"
        }
      ],
      "payable": false,
      "stateMutability": "view",
      "type": "function",
      "signature": "0xdda85121"
    },
    {
      "constant": false,
      "inputs": [
        {
          "name": "addrLegalEntity",
          "type": "address"
        },
        {
          "name": "idProofHash",
          "type": "string"
        }
      ],
      "name": "setIdProofHash",
      "outputs": [],
      "payable": false,
      "stateMutability": "nonpayable",
      "type": "function",
      "signature": "0x44df585d"
    },
    {
      "constant": true,
      "inputs": [
        {
          "name": "addrLegalEntity",
          "type": "address"
        }
      ],
      "name": "isAvailable",
      "outputs": [
        {
          "name": "",
          "type": "bool"
        }
      ],
      "payable": false,
      "stateMutability": "view",
      "type": "function",
      "signature": "0x2896f60b"
    },
    {
      "constant": true,
      "inputs": [
        {
          "name": "addrLegalEntity",
          "type": "address"
        }
      ],
      "name": "isWaitingValidation",
      "outputs": [
        {
          "name": "",
          "type": "bool"
        }
      ],
      "payable": false,
      "stateMutability": "view",
      "type": "function",
      "signature": "0x306c1f0c"
    },
    {
      "constant": true,
      "inputs": [
        {
          "name": "addrLegalEntity",
          "type": "address"
        }
      ],
      "name": "isValidated",
      "outputs": [
        {
          "name": "",
          "type": "bool"
        }
      ],
      "payable": false,
      "stateMutability": "view",
      "type": "function",
      "signature": "0x0b91eaf9"
    },
    {
      "constant": true,
      "inputs": [
        {
          "name": "addrLegalEntity",
          "type": "address"
        }
      ],
      "name": "isInvalidatedByValidator",
      "outputs": [
        {
          "name": "",
          "type": "bool"
        }
      ],
      "payable": false,
      "stateMutability": "view",
      "type": "function",
      "signature": "0x08194ea8"
    },
    {
      "constant": true,
      "inputs": [
        {
          "name": "addrLegalEntity",
          "type": "address"
        }
      ],
      "name": "isValidatedByChange",
      "outputs": [
        {
          "name": "",
          "type": "bool"
        }
      ],
      "payable": false,
      "stateMutability": "view",
      "type": "function",
      "signature": "0x823d005b"
    },
    {
      "constant": true,
      "inputs": [
        {
          "name": "addrLegalEntity",
          "type": "address"
        }
      ],
      "name": "getIdFinancialSupportAgreement",
      "outputs": [
        {
          "name": "",
          "type": "uint256"
        }
      ],
      "payable": false,
      "stateMutability": "view",
      "type": "function",
      "signature": "0xb0626741"
    },
    {
      "constant": false,
      "inputs": [
        {
          "name": "addrLegalEntity",
          "type": "address"
        },
        {
          "name": "id",
          "type": "uint256"
        }
      ],
      "name": "setIdFinancialSupportAgreement",
      "outputs": [],
      "payable": false,
      "stateMutability": "nonpayable",
      "type": "function",
      "signature": "0x3d4a02e0"
    },
    {
      "constant": true,
      "inputs": [
        {
          "name": "addrLegalEntity",
          "type": "address"
        }
      ],
      "name": "isDonor",
      "outputs": [
        {
          "name": "",
          "type": "bool"
        }
      ],
      "payable": false,
      "stateMutability": "view",
      "type": "function",
      "signature": "0x2bc3d7aa"
    },
    {
      "constant": true,
      "inputs": [
        {
          "name": "addrLegalEntity",
          "type": "address"
        }
      ],
      "name": "isClient",
      "outputs": [
        {
          "name": "",
          "type": "bool"
        }
      ],
      "payable": false,
      "stateMutability": "view",
      "type": "function",
      "signature": "0x84b7964f"
    },
    {
      "constant": true,
      "inputs": [
        {
          "name": "addrLegalEntity",
          "type": "address"
        }
      ],
      "name": "isSupplier",
      "outputs": [
        {
          "name": "",
          "type": "bool"
        }
      ],
      "payable": false,
      "stateMutability": "view",
      "type": "function",
      "signature": "0x46336542"
    },
    {
      "constant": true,
      "inputs": [
        {
          "name": "addrLegalEntity",
          "type": "address"
        }
      ],
      "name": "isOtherRole",
      "outputs": [
        {
          "name": "",
          "type": "bool"
        }
      ],
      "payable": false,
      "stateMutability": "view",
      "type": "function",
      "signature": "0xf085865a"
    }
  ],
  "bytecode": "0x60806040523480156200001157600080fd5b5060405160408062002d6a833981018060405260408110156200003357600080fd5b81019080805190602001909291908051906020019092919050505081806200006a336200012a640100000000026401000000009004565b6000600160006101000a81548160ff021916908315150217905550806001806101000a81548173ffffffffffffffffffffffffffffffffffffffff021916908373ffffffffffffffffffffffffffffffffffffffff16021790555060018060156101000a81548160ff021916908315150217905550505080600360026101000a81548173ffffffffffffffffffffffffffffffffffffffff021916908373ffffffffffffffffffffffffffffffffffffffff1602179055505050620002ec565b6200014e816000620001946401000000000262002992179091906401000000009004565b8073ffffffffffffffffffffffffffffffffffffffff167f6719d08c1888103bea251a4ed56406bd0c3e69723c8a1686e017e7bbe159b6f860405160405180910390a250565b600073ffffffffffffffffffffffffffffffffffffffff168173ffffffffffffffffffffffffffffffffffffffff1614151515620001d157600080fd5b620001ec828262000257640100000000026401000000009004565b151515620001f957600080fd5b60018260000160008373ffffffffffffffffffffffffffffffffffffffff1673ffffffffffffffffffffffffffffffffffffffff16815260200190815260200160002060006101000a81548160ff0219169083151502179055505050565b60008073ffffffffffffffffffffffffffffffffffffffff168273ffffffffffffffffffffffffffffffffffffffff16141515156200029557600080fd5b8260000160008373ffffffffffffffffffffffffffffffffffffffff1673ffffffffffffffffffffffffffffffffffffffff16815260200190815260200160002060009054906101000a900460ff16905092915050565b612a6e80620002fc6000396000f3fe6080604052600436106101ac576000357c0100000000000000000000000000000000000000000000000000000000900463ffffffff16806308194ea8146101b157806309ea27091461021a5780630b91eaf91461025757806311ce0267146102c0578063134bb0381461031757806316d3ffc31461032e5780631b49f03a146103975780632896f60b146103c65780632bc3d7aa1461042f578063306c1f0c146104985780633d4a02e0146105015780633f4ba83a1461055c57806344df585d14610573578063463365421461065b57806346fbf68e146106c457806352bf2c3c1461072d5780635c975abb146107845780635fa037ca146107b357806365f68c89146107e25780636ef8d66d14610847578063823d005b1461085e57806382dc1ec4146108c7578063841e0084146109185780638456cb591461092f57806384b7964f14610946578063900126f4146109af578063901fe04714610a0657806396a0604a14610a35578063b062674114610a64578063b43f06ad14610ac9578063dda8512114610b24578063e857738a14610bee578063f085865a14610c57578063fb7d8a1e14610cc0575b600080fd5b3480156101bd57600080fd5b50610200600480360360208110156101d457600080fd5b81019080803573ffffffffffffffffffffffffffffffffffffffff169060200190929190505050610d29565b604051808215151515815260200191505060405180910390f35b34801561022657600080fd5b506102556004803603602081101561023d57600080fd5b81019080803515159060200190929190505050610d4e565b005b34801561026357600080fd5b506102a66004803603602081101561027a57600080fd5b81019080803573ffffffffffffffffffffffffffffffffffffffff169060200190929190505050610efa565b604051808215151515815260200191505060405180910390f35b3480156102cc57600080fd5b506102d5610f1f565b604051808273ffffffffffffffffffffffffffffffffffffffff1673ffffffffffffffffffffffffffffffffffffffff16815260200191505060405180910390f35b34801561032357600080fd5b5061032c610f45565b005b34801561033a57600080fd5b5061037d6004803603602081101561035157600080fd5b81019080803573ffffffffffffffffffffffffffffffffffffffff169060200190929190505050610fe9565b604051808215151515815260200191505060405180910390f35b3480156103a357600080fd5b506103ac6111db565b604051808215151515815260200191505060405180910390f35b3480156103d257600080fd5b50610415600480360360208110156103e957600080fd5b81019080803573ffffffffffffffffffffffffffffffffffffffff1690602001909291905050506111ee565b604051808215151515815260200191505060405180910390f35b34801561043b57600080fd5b5061047e6004803603602081101561045257600080fd5b81019080803573ffffffffffffffffffffffffffffffffffffffff169060200190929190505050611202565b604051808215151515815260200191505060405180910390f35b3480156104a457600080fd5b506104e7600480360360208110156104bb57600080fd5b81019080803573ffffffffffffffffffffffffffffffffffffffff169060200190929190505050611227565b604051808215151515815260200191505060405180910390f35b34801561050d57600080fd5b5061055a6004803603604081101561052457600080fd5b81019080803573ffffffffffffffffffffffffffffffffffffffff1690602001909291908035906020019092919050505061124c565b005b34801561056857600080fd5b5061057161145a565b005b34801561057f57600080fd5b506106596004803603604081101561059657600080fd5b81019080803573ffffffffffffffffffffffffffffffffffffffff169060200190929190803590602001906401000000008111156105d357600080fd5b8201836020820111156105e557600080fd5b8035906020019184600183028401116401000000008311171561060757600080fd5b91908080601f016020809104026020016040519081016040528093929190818152602001838380828437600081840152601f19601f820116905080830192505050505050509192919290505050611509565b005b34801561066757600080fd5b506106aa6004803603602081101561067e57600080fd5b81019080803573ffffffffffffffffffffffffffffffffffffffff16906020019092919050505061177c565b604051808215151515815260200191505060405180910390f35b3480156106d057600080fd5b50610713600480360360208110156106e757600080fd5b81019080803573ffffffffffffffffffffffffffffffffffffffff1690602001909291905050506117a1565b604051808215151515815260200191505060405180910390f35b34801561073957600080fd5b506107426117be565b604051808273ffffffffffffffffffffffffffffffffffffffff1673ffffffffffffffffffffffffffffffffffffffff16815260200191505060405180910390f35b34801561079057600080fd5b506107996117e7565b604051808215151515815260200191505060405180910390f35b3480156107bf57600080fd5b506107c86117fe565b604051808215151515815260200191505060405180910390f35b3480156107ee57600080fd5b506108316004803603602081101561080557600080fd5b81019080803573ffffffffffffffffffffffffffffffffffffffff169060200190929190505050611852565b6040518082815260200191505060405180910390f35b34801561085357600080fd5b5061085c6119db565b005b34801561086a57600080fd5b506108ad6004803603602081101561088157600080fd5b81019080803573ffffffffffffffffffffffffffffffffffffffff1690602001909291905050506119e6565b604051808215151515815260200191505060405180910390f35b3480156108d357600080fd5b50610916600480360360208110156108ea57600080fd5b81019080803573ffffffffffffffffffffffffffffffffffffffff169060200190929190505050611a0b565b005b34801561092457600080fd5b5061092d611a2b565b005b34801561093b57600080fd5b50610944611acf565b005b34801561095257600080fd5b506109956004803603602081101561096957600080fd5b81019080803573ffffffffffffffffffffffffffffffffffffffff169060200190929190505050611b7e565b604051808215151515815260200191505060405180910390f35b3480156109bb57600080fd5b506109c4611ba3565b604051808273ffffffffffffffffffffffffffffffffffffffff1673ffffffffffffffffffffffffffffffffffffffff16815260200191505060405180910390f35b348015610a1257600080fd5b50610a1b611bc8565b604051808215151515815260200191505060405180910390f35b348015610a4157600080fd5b50610a4a611bdf565b604051808215151515815260200191505060405180910390f35b348015610a7057600080fd5b50610ab360048036036020811015610a8757600080fd5b81019080803573ffffffffffffffffffffffffffffffffffffffff169060200190929190505050611cdb565b6040518082815260200191505060405180910390f35b348015610ad557600080fd5b50610b2260048036036040811015610aec57600080fd5b81019080803573ffffffffffffffffffffffffffffffffffffffff16906020019092919080359060200190929190505050611e64565b005b348015610b3057600080fd5b50610b7360048036036020811015610b4757600080fd5b81019080803573ffffffffffffffffffffffffffffffffffffffff169060200190929190505050612072565b6040518080602001828103825283818151815260200191508051906020019080838360005b83811015610bb3578082015181840152602081019050610b98565b50505050905090810190601f168015610be05780820380516001836020036101000a031916815260200191505b509250505060405180910390f35b348015610bfa57600080fd5b50610c3d60048036036020811015610c1157600080fd5b81019080803573ffffffffffffffffffffffffffffffffffffffff169060200190929190505050612252565b604051808215151515815260200191505060405180910390f35b348015610c6357600080fd5b50610ca660048036036020811015610c7a57600080fd5b81019080803573ffffffffffffffffffffffffffffffffffffffff169060200190929190505050612272565b604051808215151515815260200191505060405180910390f35b348015610ccc57600080fd5b50610d0f60048036036020811015610ce357600080fd5b81019080803573ffffffffffffffffffffffffffffffffffffffff169060200190929190505050612297565b604051808215151515815260200191505060405180910390f35b60008060039050806004811115610d3c57fe5b610d4584612489565b14915050919050565b6001809054906101000a900473ffffffffffffffffffffffffffffffffffffffff1673ffffffffffffffffffffffffffffffffffffffff16637e96549f336040518263ffffffff167c0100000000000000000000000000000000000000000000000000000000028152600401808273ffffffffffffffffffffffffffffffffffffffff1673ffffffffffffffffffffffffffffffffffffffff16815260200191505060206040518083038186803b158015610e0857600080fd5b505afa158015610e1c573d6000803e3d6000fd5b505050506040513d6020811015610e3257600080fd5b81019080805190602001909291905050501515610edd576040517f08c379a000000000000000000000000000000000000000000000000000000000815260040180806020018281038252602f8152602001807f546869732066756e6374696f6e2063616e206f6e6c792062652065786563757481526020017f656420627920557067726164657273000000000000000000000000000000000081525060400191505060405180910390fd5b80600160156101000a81548160ff02191690831515021790555050565b60008060029050806004811115610f0d57fe5b610f1684612489565b14915050919050565b600360029054906101000a900473ffffffffffffffffffffffffffffffffffffffff1681565b610f4d6117fe565b1515610fe7576040517f08c379a000000000000000000000000000000000000000000000000000000000815260040180806020018281038252602c8152602001807f446f206e6f742068617665207468652068616e646c6572207065726d6973736981526020017f6f6e20746f20777269746521000000000000000000000000000000000000000081525060400191505060405180910390fd5b565b60006001809054906101000a900473ffffffffffffffffffffffffffffffffffffffff1673ffffffffffffffffffffffffffffffffffffffff16637e96549f336040518263ffffffff167c0100000000000000000000000000000000000000000000000000000000028152600401808273ffffffffffffffffffffffffffffffffffffffff1673ffffffffffffffffffffffffffffffffffffffff16815260200191505060206040518083038186803b1580156110a557600080fd5b505afa1580156110b9573d6000803e3d6000fd5b505050506040513d60208110156110cf57600080fd5b8101908080519060200190929190505050151561117a576040517f08c379a000000000000000000000000000000000000000000000000000000000815260040180806020018281038252602f8152602001807f546869732066756e6374696f6e2063616e206f6e6c792062652065786563757481526020017f656420627920557067726164657273000000000000000000000000000000000081525060400191505060405180910390fd5b6000600260008473ffffffffffffffffffffffffffffffffffffffff1673ffffffffffffffffffffffffffffffffffffffff16815260200190815260200160002060006101000a81548160ff02191690831515021790555060019050919050565b600160159054906101000a900460ff1681565b6000806111fa83612489565b149050919050565b6000806000905080600381111561121557fe5b61121e84612612565b14915050919050565b6000806001905080600481111561123a57fe5b61124384612489565b14915050919050565b6112546117fe565b15156112ee576040517f08c379a000000000000000000000000000000000000000000000000000000000815260040180806020018281038252602c8152602001807f446f206e6f742068617665207468652068616e646c6572207065726d6973736981526020017f6f6e20746f20777269746521000000000000000000000000000000000000000081525060400191505060405180910390fd5b60008260405160200180807f4c6567616c456e74697479496e666f0000000000000000000000000000000000815250600f018273ffffffffffffffffffffffffffffffffffffffff1673ffffffffffffffffffffffffffffffffffffffff166c01000000000000000000000000028152601401807f696446696e616e6369616c537570706f727441677265656d656e740000000000815250601b01915050604051602081830303815290604052805190602001209050600360029054906101000a900473ffffffffffffffffffffffffffffffffffffffff1673ffffffffffffffffffffffffffffffffffffffff1663e2a4853a82846040518363ffffffff167c01000000000000000000000000000000000000000000000000000000000281526004018083815260200182815260200192505050600060405180830381600087803b15801561143d57600080fd5b505af1158015611451573d6000803e3d6000fd5b50505050505050565b611463336117a1565b151561146e57600080fd5b600160009054906101000a900460ff16151561148957600080fd5b6000600160006101000a81548160ff0219169083151502179055507f5db9ee0a495bf2e6ff9c91a7834c1ba4fdd244a5e8aa4e537bd38aeae4b073aa33604051808273ffffffffffffffffffffffffffffffffffffffff1673ffffffffffffffffffffffffffffffffffffffff16815260200191505060405180910390a1565b6115116117fe565b15156115ab576040517f08c379a000000000000000000000000000000000000000000000000000000000815260040180806020018281038252602c8152602001807f446f206e6f742068617665207468652068616e646c6572207065726d6973736981526020017f6f6e20746f20777269746521000000000000000000000000000000000000000081525060400191505060405180910390fd5b60008260405160200180807f4c6567616c456e74697479496e666f0000000000000000000000000000000000815250600f018273ffffffffffffffffffffffffffffffffffffffff1673ffffffffffffffffffffffffffffffffffffffff166c01000000000000000000000000028152601401807f696450726f6f6648617368000000000000000000000000000000000000000000815250600b01915050604051602081830303815290604052805190602001209050600360029054906101000a900473ffffffffffffffffffffffffffffffffffffffff1673ffffffffffffffffffffffffffffffffffffffff16636e89955082846040518363ffffffff167c01000000000000000000000000000000000000000000000000000000000281526004018083815260200180602001828103825283818151815260200191508051906020019080838360005b838110156117125780820151818401526020810190506116f7565b50505050905090810190601f16801561173f5780820380516001836020036101000a031916815260200191505b509350505050600060405180830381600087803b15801561175f57600080fd5b505af1158015611773573d6000803e3d6000fd5b50505050505050565b6000806002905080600381111561178f57fe5b61179884612612565b14915050919050565b60006117b782600061279b90919063ffffffff16565b9050919050565b60006001809054906101000a900473ffffffffffffffffffffffffffffffffffffffff16905090565b6000600160009054906101000a900460ff16905090565b6000600260003373ffffffffffffffffffffffffffffffffffffffff1673ffffffffffffffffffffffffffffffffffffffff16815260200190815260200160002060009054906101000a900460ff16905090565b6000808260405160200180807f4c6567616c456e74697479496e666f0000000000000000000000000000000000815250600f018273ffffffffffffffffffffffffffffffffffffffff1673ffffffffffffffffffffffffffffffffffffffff166c01000000000000000000000000028152601401807f6964000000000000000000000000000000000000000000000000000000000000815250600201915050604051602081830303815290604052805190602001209050600360029054906101000a900473ffffffffffffffffffffffffffffffffffffffff1673ffffffffffffffffffffffffffffffffffffffff1663bd02d0f5826040518263ffffffff167c01000000000000000000000000000000000000000000000000000000000281526004018082815260200191505060206040518083038186803b15801561199857600080fd5b505afa1580156119ac573d6000803e3d6000fd5b505050506040513d60208110156119c257600080fd5b8101908080519060200190929190505050915050919050565b6119e43361282f565b565b600080600490508060048111156119f957fe5b611a0284612489565b14915050919050565b611a14336117a1565b1515611a1f57600080fd5b611a2881612889565b50565b611a336117fe565b1515611acd576040517f08c379a000000000000000000000000000000000000000000000000000000000815260040180806020018281038252602c8152602001807f446f206e6f742068617665207468652068616e646c6572207065726d6973736981526020017f6f6e20746f20777269746521000000000000000000000000000000000000000081525060400191505060405180910390fd5b565b611ad8336117a1565b1515611ae357600080fd5b600160009054906101000a900460ff16151515611aff57600080fd5b60018060006101000a81548160ff0219169083151502179055507f62e78cea01bee320cd4e420270b5ea74000d11b0c9f74754ebdbfc544b05a25833604051808273ffffffffffffffffffffffffffffffffffffffff1673ffffffffffffffffffffffffffffffffffffffff16815260200191505060405180910390a1565b60008060019050806003811115611b9157fe5b611b9a84612612565b14915050919050565b6001809054906101000a900473ffffffffffffffffffffffffffffffffffffffff1681565b6000600160159054906101000a900460ff16905090565b60006001809054906101000a900473ffffffffffffffffffffffffffffffffffffffff1673ffffffffffffffffffffffffffffffffffffffff16637e96549f336040518263ffffffff167c0100000000000000000000000000000000000000000000000000000000028152600401808273ffffffffffffffffffffffffffffffffffffffff1673ffffffffffffffffffffffffffffffffffffffff16815260200191505060206040518083038186803b158015611c9b57600080fd5b505afa158015611caf573d6000803e3d6000fd5b505050506040513d6020811015611cc557600080fd5b8101908080519060200190929190505050905090565b6000808260405160200180807f4c6567616c456e74697479496e666f0000000000000000000000000000000000815250600f018273ffffffffffffffffffffffffffffffffffffffff1673ffffffffffffffffffffffffffffffffffffffff166c01000000000000000000000000028152601401807f696446696e616e6369616c537570706f727441677265656d656e740000000000815250601b01915050604051602081830303815290604052805190602001209050600360029054906101000a900473ffffffffffffffffffffffffffffffffffffffff1673ffffffffffffffffffffffffffffffffffffffff1663bd02d0f5826040518263ffffffff167c01000000000000000000000000000000000000000000000000000000000281526004018082815260200191505060206040518083038186803b158015611e2157600080fd5b505afa158015611e35573d6000803e3d6000fd5b505050506040513d6020811015611e4b57600080fd5b8101908080519060200190929190505050915050919050565b611e6c6117fe565b1515611f06576040517f08c379a000000000000000000000000000000000000000000000000000000000815260040180806020018281038252602c8152602001807f446f206e6f742068617665207468652068616e646c6572207065726d6973736981526020017f6f6e20746f20777269746521000000000000000000000000000000000000000081525060400191505060405180910390fd5b60008260405160200180807f4c6567616c456e74697479496e666f0000000000000000000000000000000000815250600f018273ffffffffffffffffffffffffffffffffffffffff1673ffffffffffffffffffffffffffffffffffffffff166c01000000000000000000000000028152601401807f6964000000000000000000000000000000000000000000000000000000000000815250600201915050604051602081830303815290604052805190602001209050600360029054906101000a900473ffffffffffffffffffffffffffffffffffffffff1673ffffffffffffffffffffffffffffffffffffffff1663e2a4853a82846040518363ffffffff167c01000000000000000000000000000000000000000000000000000000000281526004018083815260200182815260200192505050600060405180830381600087803b15801561205557600080fd5b505af1158015612069573d6000803e3d6000fd5b50505050505050565b606060008260405160200180807f4c6567616c456e74697479496e666f0000000000000000000000000000000000815250600f018273ffffffffffffffffffffffffffffffffffffffff1673ffffffffffffffffffffffffffffffffffffffff166c01000000000000000000000000028152601401807f696450726f6f6648617368000000000000000000000000000000000000000000815250600b01915050604051602081830303815290604052805190602001209050600360029054906101000a900473ffffffffffffffffffffffffffffffffffffffff1673ffffffffffffffffffffffffffffffffffffffff1663986e791a826040518263ffffffff167c01000000000000000000000000000000000000000000000000000000000281526004018082815260200191505060006040518083038186803b1580156121b957600080fd5b505afa1580156121cd573d6000803e3d6000fd5b505050506040513d6000823e3d601f19601f8201168201806040525060208110156121f757600080fd5b81019080805164010000000081111561220f57600080fd5b8281019050602081018481111561222557600080fd5b815185600182028301116401000000008211171561224257600080fd5b5050929190505050915050919050565b60026020528060005260406000206000915054906101000a900460ff1681565b6000806003905080600381111561228557fe5b61228e84612612565b14915050919050565b60006001809054906101000a900473ffffffffffffffffffffffffffffffffffffffff1673ffffffffffffffffffffffffffffffffffffffff16637e96549f336040518263ffffffff167c0100000000000000000000000000000000000000000000000000000000028152600401808273ffffffffffffffffffffffffffffffffffffffff1673ffffffffffffffffffffffffffffffffffffffff16815260200191505060206040518083038186803b15801561235357600080fd5b505afa158015612367573d6000803e3d6000fd5b505050506040513d602081101561237d57600080fd5b81019080805190602001909291905050501515612428576040517f08c379a000000000000000000000000000000000000000000000000000000000815260040180806020018281038252602f8152602001807f546869732066756e6374696f6e2063616e206f6e6c792062652065786563757481526020017f656420627920557067726164657273000000000000000000000000000000000081525060400191505060405180910390fd5b6001600260008473ffffffffffffffffffffffffffffffffffffffff1673ffffffffffffffffffffffffffffffffffffffff16815260200190815260200160002060006101000a81548160ff02191690831515021790555060019050919050565b6000808260405160200180807f4c6567616c456e74697479496e666f0000000000000000000000000000000000815250600f018273ffffffffffffffffffffffffffffffffffffffff1673ffffffffffffffffffffffffffffffffffffffff166c01000000000000000000000000028152601401807f7374617465000000000000000000000000000000000000000000000000000000815250600501915050604051602081830303815290604052805190602001209050600360029054906101000a900473ffffffffffffffffffffffffffffffffffffffff1673ffffffffffffffffffffffffffffffffffffffff1663bd02d0f5826040518263ffffffff167c01000000000000000000000000000000000000000000000000000000000281526004018082815260200191505060206040518083038186803b1580156125cf57600080fd5b505afa1580156125e3573d6000803e3d6000fd5b505050506040513d60208110156125f957600080fd5b8101908080519060200190929190505050915050919050565b6000808260405160200180807f4c6567616c456e74697479496e666f0000000000000000000000000000000000815250600f018273ffffffffffffffffffffffffffffffffffffffff1673ffffffffffffffffffffffffffffffffffffffff166c01000000000000000000000000028152601401807f726f6c6500000000000000000000000000000000000000000000000000000000815250600401915050604051602081830303815290604052805190602001209050600360029054906101000a900473ffffffffffffffffffffffffffffffffffffffff1673ffffffffffffffffffffffffffffffffffffffff1663bd02d0f5826040518263ffffffff167c01000000000000000000000000000000000000000000000000000000000281526004018082815260200191505060206040518083038186803b15801561275857600080fd5b505afa15801561276c573d6000803e3d6000fd5b505050506040513d602081101561278257600080fd5b8101908080519060200190929190505050915050919050565b60008073ffffffffffffffffffffffffffffffffffffffff168273ffffffffffffffffffffffffffffffffffffffff16141515156127d857600080fd5b8260000160008373ffffffffffffffffffffffffffffffffffffffff1673ffffffffffffffffffffffffffffffffffffffff16815260200190815260200160002060009054906101000a900460ff16905092915050565b6128438160006128e390919063ffffffff16565b8073ffffffffffffffffffffffffffffffffffffffff167fcd265ebaf09df2871cc7bd4133404a235ba12eff2041bb89d9c714a2621c7c7e60405160405180910390a250565b61289d81600061299290919063ffffffff16565b8073ffffffffffffffffffffffffffffffffffffffff167f6719d08c1888103bea251a4ed56406bd0c3e69723c8a1686e017e7bbe159b6f860405160405180910390a250565b600073ffffffffffffffffffffffffffffffffffffffff168173ffffffffffffffffffffffffffffffffffffffff161415151561291f57600080fd5b612929828261279b565b151561293457600080fd5b60008260000160008373ffffffffffffffffffffffffffffffffffffffff1673ffffffffffffffffffffffffffffffffffffffff16815260200190815260200160002060006101000a81548160ff0219169083151502179055505050565b600073ffffffffffffffffffffffffffffffffffffffff168173ffffffffffffffffffffffffffffffffffffffff16141515156129ce57600080fd5b6129d8828261279b565b1515156129e457600080fd5b60018260000160008373ffffffffffffffffffffffffffffffffffffffff1673ffffffffffffffffffffffffffffffffffffffff16815260200190815260200160002060006101000a81548160ff021916908315150217905550505056fea165627a7a7230582063bb3bef8f5e920082f92a7d6af5fe2bcdb09c3ec7128cfd0a41033707e8191f0029",
  "source": "pragma solidity ^0.5.0;\r\n\r\nimport \"../appChangeManagementUpgrade/Storage.sol\";\r\nimport \"../appChangeManagementUpgrade/UpdatableHandleable.sol\";\r\n\r\n/*\r\n    struct LegalEntityInfo {\r\n        uint64 id; //Brazilian identification of legal entity (cnpj)\r\n        string idProofHash; //hash of declaration\r\n        BlockchainAccountState state;\r\n        Role role;\r\n        uint64 idFinancialSupportAgreement; //SCC contract (only to clients)\r\n    }\r\n    \r\n    //Links Ethereum addresses to LegalEntityInfo\r\n    mapping(address => LegalEntityInfo) public legalEntitiesInfo;\r\n\r\n    The user should registry once for each role.\r\n    The client should registry once for EACH contract in order to segregate the money to each project --- TODO: improve this\r\n\r\n*/\r\ncontract LegalEntityMapping is UpdatableHandleable {\r\n\r\n    /**\r\n        The account of clients and suppliers are assigned to states.\r\n        AVAILABLE - The account is not yet assigned any role (any of them - client, supplier or any reserved addresses).\r\n        WAITING_VALIDATION - The account was linked to a legal entity but it still needs to be validated\r\n        VALIDATED - The account was validated\r\n        INVALIDATED_BY_VALIDATOR - The account was invalidated\r\n        INVALIDATED_BY_CHANGE - The client or supplier changed the ethereum account so the original one must be invalidated.\r\n     */\r\n    enum BlockchainAccountState {AVAILABLE,WAITING_VALIDATION,VALIDATED,INVALIDATED_BY_VALIDATOR,INVALIDATED_BY_CHANGE}\r\n    BlockchainAccountState blockchainStateEnum; //Not used. Defined to create the enum type.\r\n\r\n    enum Role {DONOR, CLIENT, SUPPLIER, OTHER}\r\n    Role roleEnum; //Not used. Defined to create the enum type\r\n\r\n\r\n    Storage public storageContract;\r\n\r\n    constructor (address upgraderInfo, address storageContractAddr) UpdatableHandleable (upgraderInfo) public {\r\n        storageContract = Storage(storageContractAddr);\r\n    }\r\n\r\n\r\n    //TESTE**************************\r\n    function setTESTE() public onlyHandler {\r\n\r\n    }\r\n   \r\n\r\n\r\n//Id\r\n    function getId(address addrLegalEntity) view public returns (uint) {\r\n        bytes32 key = keccak256(abi.encodePacked(\"LegalEntityInfo\",addrLegalEntity,\"id\"));\r\n        return storageContract.getUint(key);\r\n    }\r\n\r\n    function setId(address addrLegalEntity, uint id) public onlyHandler {\r\n        bytes32 key = keccak256(abi.encodePacked(\"LegalEntityInfo\",addrLegalEntity,\"id\"));\r\n        storageContract.setUint(key, id);\r\n    }\r\n\r\n//IdProofHash\r\n    function getIdProofHash(address addrLegalEntity) view public returns (string memory) {\r\n        bytes32 key = keccak256(abi.encodePacked(\"LegalEntityInfo\",addrLegalEntity,\"idProofHash\"));\r\n        return storageContract.getString(key);\r\n    }\r\n\r\n    function setIdProofHash(address addrLegalEntity, string memory idProofHash) public onlyHandler {\r\n        bytes32 key = keccak256(abi.encodePacked(\"LegalEntityInfo\",addrLegalEntity,\"idProofHash\"));\r\n        storageContract.setString(key, idProofHash);\r\n    }\r\n\r\n//State\r\n    function isAvailable(address addrLegalEntity) view public returns (bool) {\r\n        return _getStateAsUint(addrLegalEntity) == 0;\r\n    }\r\n\r\n    function isWaitingValidation(address addrLegalEntity) view public returns (bool) {\r\n        BlockchainAccountState state = BlockchainAccountState.WAITING_VALIDATION;\r\n        return _getStateAsUint(addrLegalEntity) == (uint) (state);\r\n    }\r\n\r\n    function isValidated(address addrLegalEntity) view public returns (bool) {\r\n        BlockchainAccountState state = BlockchainAccountState.VALIDATED;\r\n        return _getStateAsUint(addrLegalEntity) == (uint) (state);\r\n    }\r\n\r\n    function isInvalidatedByValidator(address addrLegalEntity) view public returns (bool) {\r\n        BlockchainAccountState state = BlockchainAccountState.INVALIDATED_BY_VALIDATOR;\r\n        return _getStateAsUint(addrLegalEntity) == (uint) (state);\r\n    }\r\n\r\n    function isValidatedByChange(address addrLegalEntity) view public returns (bool) {\r\n        BlockchainAccountState state = BlockchainAccountState.INVALIDATED_BY_CHANGE;\r\n        return _getStateAsUint(addrLegalEntity) == (uint) (state);\r\n    }\r\n\r\n    function _getStateAsUint(address addrLegalEntity) view private returns (uint) {\r\n        bytes32 key = keccak256(abi.encodePacked(\"LegalEntityInfo\",addrLegalEntity,\"state\"));\r\n        return storageContract.getUint(key);\r\n    }\r\n\r\n    function _setStateAsUint(address addrLegalEntity, uint id) private onlyHandler {\r\n        bytes32 key = keccak256(abi.encodePacked(\"LegalEntityInfo\",addrLegalEntity,\"state\"));\r\n        storageContract.setUint(key, id);\r\n    }\r\n\r\n//IdFinancialSupportAgreement\r\n    function getIdFinancialSupportAgreement(address addrLegalEntity) view public returns (uint) {\r\n        bytes32 key = keccak256(abi.encodePacked(\"LegalEntityInfo\",addrLegalEntity,\"idFinancialSupportAgreement\"));\r\n        return storageContract.getUint(key);\r\n    }\r\n\r\n    function setIdFinancialSupportAgreement(address addrLegalEntity, uint id) public onlyHandler {\r\n        bytes32 key = keccak256(abi.encodePacked(\"LegalEntityInfo\",addrLegalEntity,\"idFinancialSupportAgreement\"));\r\n        storageContract.setUint(key, id);\r\n    }\r\n\r\n//Role\r\n    function _getRoleAsUint(address addrLegalEntity) view private returns (uint) {\r\n        bytes32 key = keccak256(abi.encodePacked(\"LegalEntityInfo\",addrLegalEntity,\"role\"));\r\n        return storageContract.getUint(key);\r\n    }\r\n\r\n    function _setRoleAsUint(address addrLegalEntity, uint id) private onlyHandler {\r\n        bytes32 key = keccak256(abi.encodePacked(\"LegalEntityInfo\",addrLegalEntity,\"role\"));\r\n        storageContract.setUint(key, id);\r\n    }\r\n\r\n    function isDonor(address addrLegalEntity) view public returns (bool) {\r\n        Role role = Role.DONOR;\r\n        return _getRoleAsUint(addrLegalEntity) == (uint) (role);\r\n    }\r\n\r\n    function isClient(address addrLegalEntity) view public returns (bool) {\r\n        Role role = Role.CLIENT;\r\n        return _getRoleAsUint(addrLegalEntity) == (uint) (role);\r\n    }\r\n\r\n    function isSupplier(address addrLegalEntity) view public returns (bool) {\r\n        Role role = Role.SUPPLIER;\r\n        return _getRoleAsUint(addrLegalEntity) == (uint) (role);\r\n    }\r\n\r\n    function isOtherRole(address addrLegalEntity) view public returns (bool) {\r\n        Role role = Role.OTHER;\r\n        return _getRoleAsUint(addrLegalEntity) == (uint) (role);\r\n    }\r\n\r\n}",
  "sourcePath": "D:\\Workspace\\bndestoken-captacao\\Back-Blockchain\\contracts\\appTestUpgrade\\LegalEntityMapping.sol",
  "compiler": {
    "name": "solc",
    "version": "0.5.0+commit.1d4f565a.Emscripten.clang"
  },
  "schemaVersion": "3.0.5",
  "updatedAt": "2020-02-05T13:56:31.296Z",
  "devdoc": {
    "methods": {
      "pause()": {
        "details": "called by the owner to pause, triggers stopped state"
      },
      "paused()": {
        "return": "true if the contract is paused, false otherwise."
      },
      "unpause()": {
        "details": "called by the owner to unpause, returns to normal state"
      }
    }
  },
  "userdoc": {
    "methods": {
      "setHANDTESTE()": {
        "notice": "TESTE******************"
      }
    }
  }
}