{
  "contractName": "PreUpgrader2",
  "abi": [
    {
      "constant": false,
      "inputs": [],
      "name": "upgrade",
      "outputs": [],
      "payable": false,
      "stateMutability": "nonpayable",
      "type": "function"
    },
    {
      "constant": true,
      "inputs": [],
      "name": "governanceAddr",
      "outputs": [
        {
          "name": "",
          "type": "address"
        }
      ],
      "payable": false,
      "stateMutability": "view",
      "type": "function"
    },
    {
      "constant": true,
      "inputs": [],
      "name": "resolverAddr",
      "outputs": [
        {
          "name": "",
          "type": "address"
        }
      ],
      "payable": false,
      "stateMutability": "view",
      "type": "function"
    },
    {
      "constant": true,
      "inputs": [],
      "name": "storageContractAddr",
      "outputs": [
        {
          "name": "",
          "type": "address"
        }
      ],
      "payable": false,
      "stateMutability": "view",
      "type": "function"
    }
  ],
  "bytecode": "0x608060405234801561001057600080fd5b5061033e806100206000396000f3fe608060405260043610610062576000357c0100000000000000000000000000000000000000000000000000000000900463ffffffff168063133349bc1461006757806352daf712146100be578063a0d7c78514610115578063d55ec6971461016c575b600080fd5b34801561007357600080fd5b5061007c610183565b604051808273ffffffffffffffffffffffffffffffffffffffff1673ffffffffffffffffffffffffffffffffffffffff16815260200191505060405180910390f35b3480156100ca57600080fd5b506100d36101ac565b604051808273ffffffffffffffffffffffffffffffffffffffff1673ffffffffffffffffffffffffffffffffffffffff16815260200191505060405180910390f35b34801561012157600080fd5b5061012a6101d6565b604051808273ffffffffffffffffffffffffffffffffffffffff1673ffffffffffffffffffffffffffffffffffffffff16815260200191505060405180910390f35b34801561017857600080fd5b50610181610200565b005b60008060009054906101000a900473ffffffffffffffffffffffffffffffffffffffff16905090565b6000600160009054906101000a900473ffffffffffffffffffffffffffffffffffffffff16905090565b6000600260009054906101000a900473ffffffffffffffffffffffffffffffffffffffff16905090565b3373ffffffffffffffffffffffffffffffffffffffff166000809054906101000a900473ffffffffffffffffffffffffffffffffffffffff1673ffffffffffffffffffffffffffffffffffffffff16141515610310576040517f08c379a00000000000000000000000000000000000000000000000000000000081526004018080602001828103825260438152602001807f507265557067726164657232202d20546869732066756e6374696f6e2063616e81526020017f206f6e6c792062652065786563757465642062792074686520476f7665726e6181526020017f6e6365000000000000000000000000000000000000000000000000000000000081525060600191505060405180910390fd5b56fea165627a7a723058203e5cf34f5b4e53e60484a3067fc549339d8346179bda0b93c0669b83a7b782500029",
  "source": "pragma solidity ^0.5.0;\r\n\r\nimport \"../appGovernanceUpgrade/Upgrader.sol\";\r\nimport \"../appGovernanceUpgrade/Governance.sol\";\r\nimport \"../appGovernanceUpgrade/Resolver.sol\";\r\nimport \"../appGovernanceUpgrade/UpgraderInfo.sol\";\r\nimport \"../appGovernanceUpgrade/Storage.sol\";\r\nimport \"./PreUpgrader1.sol\";\r\n\r\n\r\ncontract PreUpgrader2 is Upgrader {\r\n\r\n    //Variables from previous Migration\r\n    address private _governanceAddr;\r\n\r\n    //New variables\r\n    address private _resolverAddr;\r\n\r\n    //New variables\r\n    address private _storageContractAddr;\r\n\r\n/*\r\n    constructor(address preUpgraderAddr1) public {\r\n        \r\n        PreUpgrader1 preUpgrader1 = PreUpgrader1(preUpgraderAddr1);\r\n        _governanceAddr = preUpgrader1.governanceAddr();\r\n\r\n    }\r\n*/\r\n    modifier onlyGovernance() {\r\n        require(_governanceAddr==msg.sender, \"PreUpgrader2 - This function can only be executed by the Governance\");\r\n        _;\r\n    }\r\n\r\n    function upgrade () external onlyGovernance {\r\n/*\r\n        Governance governance = Governance(_governanceAddr);\r\n        UpgraderInfo ui = UpgraderInfo(governance.upgraderInfoAddr());\r\n\r\n        Resolver resolver = new Resolver(governance.upgraderInfoAddr());\r\n\r\n        resolver.addPauser(governance.owner());\r\n        if (governance.owner()!=ui.adminAddr()) {\r\n            resolver.addPauser(ui.adminAddr());\r\n        }\r\n        resolver.renouncePauser();\r\n        \r\n        _resolverAddr = address(resolver);\r\n\r\n        Storage storageContract = new Storage(governance.upgraderInfoAddr());\r\n        _storageContractAddr = address(storageContract);\r\n        \r\n        //Owner is a pausable because it enables him to remove other pausers\r\n        storageContract.addPauser(governance.owner());\r\n        if (governance.owner()!=ui.adminAddr()) {\r\n            storageContract.addPauser(ui.adminAddr());\r\n        }\r\n        storageContract.renouncePauser();\r\n*/\r\n    }\r\n\r\n    function governanceAddr() public view returns (address) {\r\n        return _governanceAddr;\r\n    }\r\n\r\n    function resolverAddr() public view returns (address) {\r\n        return _resolverAddr;\r\n    }\r\n\r\n    function storageContractAddr() public view returns (address) {\r\n        return _storageContractAddr;\r\n    }\r\n}\r\n",
  "sourcePath": "D:\\Workspace\\bndestoken-captacao\\Back-Blockchain\\contracts\\appUpgraders\\PreUpgrader2.sol",
  "compiler": {
    "name": "solc",
    "version": "0.5.0+commit.1d4f565a.Emscripten.clang"
  },
  "schemaVersion": "3.0.5",
  "updatedAt": "2020-02-03T19:53:57.463Z",
  "devdoc": {
    "methods": {}
  },
  "userdoc": {
    "methods": {}
  }
}