{
  "contractName": "PreUpgrader3A",
  "abi": [
    {
      "inputs": [
        {
          "name": "preUpgraderAddr2",
          "type": "address"
        }
      ],
      "payable": false,
      "stateMutability": "nonpayable",
      "type": "constructor",
      "signature": "constructor"
    },
    {
      "constant": false,
      "inputs": [],
      "name": "upgrade",
      "outputs": [],
      "payable": false,
      "stateMutability": "nonpayable",
      "type": "function",
      "signature": "0xd55ec697"
    },
    {
      "constant": true,
      "inputs": [],
      "name": "governanceAddr",
      "outputs": [
        {
          "name": "",
          "type": "address"
        }
      ],
      "payable": false,
      "stateMutability": "view",
      "type": "function",
      "signature": "0x133349bc"
    },
    {
      "constant": true,
      "inputs": [],
      "name": "resolverAddr",
      "outputs": [
        {
          "name": "",
          "type": "address"
        }
      ],
      "payable": false,
      "stateMutability": "view",
      "type": "function",
      "signature": "0x52daf712"
    },
    {
      "constant": true,
      "inputs": [],
      "name": "storageContractAddr",
      "outputs": [
        {
          "name": "",
          "type": "address"
        }
      ],
      "payable": false,
      "stateMutability": "view",
      "type": "function",
      "signature": "0xa0d7c785"
    },
    {
      "constant": true,
      "inputs": [],
      "name": "legalEntityMappingAddr",
      "outputs": [
        {
          "name": "",
          "type": "address"
        }
      ],
      "payable": false,
      "stateMutability": "view",
      "type": "function",
      "signature": "0x5f9a1820"
    },
    {
      "constant": true,
      "inputs": [],
      "name": "bndesRegistryAddr",
      "outputs": [
        {
          "name": "",
          "type": "address"
        }
      ],
      "payable": false,
      "stateMutability": "view",
      "type": "function",
      "signature": "0x16d0b57c"
    }
  ],
  "bytecode": "0x608060405234801561001057600080fd5b50604051602080620052388339810180604052602081101561003157600080fd5b810190808051906020019092919050505060008190508073ffffffffffffffffffffffffffffffffffffffff1663133349bc6040518163ffffffff167c010000000000000000000000000000000000000000000000000000000002815260040160206040518083038186803b1580156100a957600080fd5b505afa1580156100bd573d6000803e3d6000fd5b505050506040513d60208110156100d357600080fd5b81019080805190602001909291905050506000806101000a81548173ffffffffffffffffffffffffffffffffffffffff021916908373ffffffffffffffffffffffffffffffffffffffff1602179055508073ffffffffffffffffffffffffffffffffffffffff166352daf7126040518163ffffffff167c010000000000000000000000000000000000000000000000000000000002815260040160206040518083038186803b15801561018557600080fd5b505afa158015610199573d6000803e3d6000fd5b505050506040513d60208110156101af57600080fd5b8101908080519060200190929190505050600160006101000a81548173ffffffffffffffffffffffffffffffffffffffff021916908373ffffffffffffffffffffffffffffffffffffffff1602179055508073ffffffffffffffffffffffffffffffffffffffff1663a0d7c7856040518163ffffffff167c010000000000000000000000000000000000000000000000000000000002815260040160206040518083038186803b15801561026257600080fd5b505afa158015610276573d6000803e3d6000fd5b505050506040513d602081101561028c57600080fd5b8101908080519060200190929190505050600260006101000a81548173ffffffffffffffffffffffffffffffffffffffff021916908373ffffffffffffffffffffffffffffffffffffffff1602179055505050614f4980620002ef6000396000f3fe608060405260043610610078576000357c0100000000000000000000000000000000000000000000000000000000900463ffffffff168063133349bc1461007d57806316d0b57c146100d457806352daf7121461012b5780635f9a182014610182578063a0d7c785146101d9578063d55ec69714610230575b600080fd5b34801561008957600080fd5b50610092610247565b604051808273ffffffffffffffffffffffffffffffffffffffff1673ffffffffffffffffffffffffffffffffffffffff16815260200191505060405180910390f35b3480156100e057600080fd5b506100e9610270565b604051808273ffffffffffffffffffffffffffffffffffffffff1673ffffffffffffffffffffffffffffffffffffffff16815260200191505060405180910390f35b34801561013757600080fd5b5061014061029a565b604051808273ffffffffffffffffffffffffffffffffffffffff1673ffffffffffffffffffffffffffffffffffffffff16815260200191505060405180910390f35b34801561018e57600080fd5b506101976102c4565b604051808273ffffffffffffffffffffffffffffffffffffffff1673ffffffffffffffffffffffffffffffffffffffff16815260200191505060405180910390f35b3480156101e557600080fd5b506101ee6102ee565b604051808273ffffffffffffffffffffffffffffffffffffffff1673ffffffffffffffffffffffffffffffffffffffff16815260200191505060405180910390f35b34801561023c57600080fd5b50610245610318565b005b60008060009054906101000a900473ffffffffffffffffffffffffffffffffffffffff16905090565b6000600460009054906101000a900473ffffffffffffffffffffffffffffffffffffffff16905090565b6000600160009054906101000a900473ffffffffffffffffffffffffffffffffffffffff16905090565b6000600360009054906101000a900473ffffffffffffffffffffffffffffffffffffffff16905090565b6000600260009054906101000a900473ffffffffffffffffffffffffffffffffffffffff16905090565b3373ffffffffffffffffffffffffffffffffffffffff166000809054906101000a900473ffffffffffffffffffffffffffffffffffffffff1673ffffffffffffffffffffffffffffffffffffffff16141515610402576040517f08c379a00000000000000000000000000000000000000000000000000000000081526004018080602001828103825260348152602001807f546869732066756e6374696f6e2063616e206f6e6c792062652065786563757481526020017f65642062792074686520476f7665726e616e636500000000000000000000000081525060400191505060405180910390fd5b60008060009054906101000a900473ffffffffffffffffffffffffffffffffffffffff16905060008173ffffffffffffffffffffffffffffffffffffffff166352bf2c3c6040518163ffffffff167c010000000000000000000000000000000000000000000000000000000002815260040160206040518083038186803b15801561048c57600080fd5b505afa1580156104a0573d6000803e3d6000fd5b505050506040513d60208110156104b657600080fd5b810190808051906020019092919050505090506000819050600082600260009054906101000a900473ffffffffffffffffffffffffffffffffffffffff166104fc6110a8565b808373ffffffffffffffffffffffffffffffffffffffff1673ffffffffffffffffffffffffffffffffffffffff1681526020018273ffffffffffffffffffffffffffffffffffffffff1673ffffffffffffffffffffffffffffffffffffffff16815260200192505050604051809103906000f080158015610581573d6000803e3d6000fd5b50905080600360006101000a81548173ffffffffffffffffffffffffffffffffffffffff021916908373ffffffffffffffffffffffffffffffffffffffff1602179055508073ffffffffffffffffffffffffffffffffffffffff166382dc1ec48573ffffffffffffffffffffffffffffffffffffffff16638da5cb5b6040518163ffffffff167c010000000000000000000000000000000000000000000000000000000002815260040160206040518083038186803b15801561064357600080fd5b505afa158015610657573d6000803e3d6000fd5b505050506040513d602081101561066d57600080fd5b81019080805190602001909291905050506040518263ffffffff167c0100000000000000000000000000000000000000000000000000000000028152600401808273ffffffffffffffffffffffffffffffffffffffff1673ffffffffffffffffffffffffffffffffffffffff168152602001915050600060405180830381600087803b1580156106fc57600080fd5b505af1158015610710573d6000803e3d6000fd5b505050508173ffffffffffffffffffffffffffffffffffffffff1663818305936040518163ffffffff167c010000000000000000000000000000000000000000000000000000000002815260040160206040518083038186803b15801561077657600080fd5b505afa15801561078a573d6000803e3d6000fd5b505050506040513d60208110156107a057600080fd5b810190808051906020019092919050505073ffffffffffffffffffffffffffffffffffffffff168473ffffffffffffffffffffffffffffffffffffffff16638da5cb5b6040518163ffffffff167c010000000000000000000000000000000000000000000000000000000002815260040160206040518083038186803b15801561082957600080fd5b505afa15801561083d573d6000803e3d6000fd5b505050506040513d602081101561085357600080fd5b810190808051906020019092919050505073ffffffffffffffffffffffffffffffffffffffff161415156109d1578073ffffffffffffffffffffffffffffffffffffffff166382dc1ec48373ffffffffffffffffffffffffffffffffffffffff1663818305936040518163ffffffff167c010000000000000000000000000000000000000000000000000000000002815260040160206040518083038186803b1580156108ff57600080fd5b505afa158015610913573d6000803e3d6000fd5b505050506040513d602081101561092957600080fd5b81019080805190602001909291905050506040518263ffffffff167c0100000000000000000000000000000000000000000000000000000000028152600401808273ffffffffffffffffffffffffffffffffffffffff1673ffffffffffffffffffffffffffffffffffffffff168152602001915050600060405180830381600087803b1580156109b857600080fd5b505af11580156109cc573d6000803e3d6000fd5b505050505b8073ffffffffffffffffffffffffffffffffffffffff16636ef8d66d6040518163ffffffff167c0100000000000000000000000000000000000000000000000000000000028152600401600060405180830381600087803b158015610a3557600080fd5b505af1158015610a49573d6000803e3d6000fd5b50505050600083600360009054906101000a900473ffffffffffffffffffffffffffffffffffffffff16610a7b6110b9565b808373ffffffffffffffffffffffffffffffffffffffff1673ffffffffffffffffffffffffffffffffffffffff1681526020018273ffffffffffffffffffffffffffffffffffffffff1673ffffffffffffffffffffffffffffffffffffffff16815260200192505050604051809103906000f080158015610b00573d6000803e3d6000fd5b50905080600460006101000a81548173ffffffffffffffffffffffffffffffffffffffff021916908373ffffffffffffffffffffffffffffffffffffffff1602179055508073ffffffffffffffffffffffffffffffffffffffff166382dc1ec4600160009054906101000a900473ffffffffffffffffffffffffffffffffffffffff166040518263ffffffff167c0100000000000000000000000000000000000000000000000000000000028152600401808273ffffffffffffffffffffffffffffffffffffffff1673ffffffffffffffffffffffffffffffffffffffff168152602001915050600060405180830381600087803b158015610c0157600080fd5b505af1158015610c15573d6000803e3d6000fd5b505050508073ffffffffffffffffffffffffffffffffffffffff166382dc1ec48673ffffffffffffffffffffffffffffffffffffffff16638da5cb5b6040518163ffffffff167c010000000000000000000000000000000000000000000000000000000002815260040160206040518083038186803b158015610c9757600080fd5b505afa158015610cab573d6000803e3d6000fd5b505050506040513d6020811015610cc157600080fd5b81019080805190602001909291905050506040518263ffffffff167c0100000000000000000000000000000000000000000000000000000000028152600401808273ffffffffffffffffffffffffffffffffffffffff1673ffffffffffffffffffffffffffffffffffffffff168152602001915050600060405180830381600087803b158015610d5057600080fd5b505af1158015610d64573d6000803e3d6000fd5b505050508273ffffffffffffffffffffffffffffffffffffffff1663818305936040518163ffffffff167c010000000000000000000000000000000000000000000000000000000002815260040160206040518083038186803b158015610dca57600080fd5b505afa158015610dde573d6000803e3d6000fd5b505050506040513d6020811015610df457600080fd5b810190808051906020019092919050505073ffffffffffffffffffffffffffffffffffffffff168573ffffffffffffffffffffffffffffffffffffffff16638da5cb5b6040518163ffffffff167c010000000000000000000000000000000000000000000000000000000002815260040160206040518083038186803b158015610e7d57600080fd5b505afa158015610e91573d6000803e3d6000fd5b505050506040513d6020811015610ea757600080fd5b810190808051906020019092919050505073ffffffffffffffffffffffffffffffffffffffff16141515611025578073ffffffffffffffffffffffffffffffffffffffff166382dc1ec48473ffffffffffffffffffffffffffffffffffffffff1663818305936040518163ffffffff167c010000000000000000000000000000000000000000000000000000000002815260040160206040518083038186803b158015610f5357600080fd5b505afa158015610f67573d6000803e3d6000fd5b505050506040513d6020811015610f7d57600080fd5b81019080805190602001909291905050506040518263ffffffff167c0100000000000000000000000000000000000000000000000000000000028152600401808273ffffffffffffffffffffffffffffffffffffffff1673ffffffffffffffffffffffffffffffffffffffff168152602001915050600060405180830381600087803b15801561100c57600080fd5b505af1158015611020573d6000803e3d6000fd5b505050505b8073ffffffffffffffffffffffffffffffffffffffff16636ef8d66d6040518163ffffffff167c0100000000000000000000000000000000000000000000000000000000028152600401600060405180830381600087803b15801561108957600080fd5b505af115801561109d573d6000803e3d6000fd5b505050505050505050565b6040516129ee80620010cb83390190565b6040516114658062003ab98339019056fe60806040523480156200001157600080fd5b50604051604080620029ee833981018060405260408110156200003357600080fd5b81019080805190602001909291908051906020019092919050505081806200006a336200012a640100000000026401000000009004565b6000600160006101000a81548160ff021916908315150217905550806001806101000a81548173ffffffffffffffffffffffffffffffffffffffff021916908373ffffffffffffffffffffffffffffffffffffffff16021790555060018060156101000a81548160ff021916908315150217905550505080600360026101000a81548173ffffffffffffffffffffffffffffffffffffffff021916908373ffffffffffffffffffffffffffffffffffffffff1602179055505050620002ec565b6200014e816000620001946401000000000262002616179091906401000000009004565b8073ffffffffffffffffffffffffffffffffffffffff167f6719d08c1888103bea251a4ed56406bd0c3e69723c8a1686e017e7bbe159b6f860405160405180910390a250565b600073ffffffffffffffffffffffffffffffffffffffff168173ffffffffffffffffffffffffffffffffffffffff1614151515620001d157600080fd5b620001ec828262000257640100000000026401000000009004565b151515620001f957600080fd5b60018260000160008373ffffffffffffffffffffffffffffffffffffffff1673ffffffffffffffffffffffffffffffffffffffff16815260200190815260200160002060006101000a81548160ff0219169083151502179055505050565b60008073ffffffffffffffffffffffffffffffffffffffff168273ffffffffffffffffffffffffffffffffffffffff16141515156200029557600080fd5b8260000160008373ffffffffffffffffffffffffffffffffffffffff1673ffffffffffffffffffffffffffffffffffffffff16815260200190815260200160002060009054906101000a900460ff16905092915050565b6126f280620002fc6000396000f3fe60806040526004361061016a576000357c0100000000000000000000000000000000000000000000000000000000900463ffffffff16806308194ea81461016f57806309ea2709146101d85780630b91eaf91461021557806316d3ffc31461027e5780632896f60b146102e75780632bc3d7aa14610350578063306c1f0c146103b95780633d4a02e0146104225780633f4ba83a1461047d57806344df585d14610494578063463365421461057c57806346fbf68e146105e557806352bf2c3c1461064e5780635c975abb146106a55780635fa037ca146106d457806365f68c89146107035780636ef8d66d14610768578063823d005b1461077f57806382dc1ec4146107e85780638456cb591461083957806384b7964f14610850578063901fe047146108b957806396a0604a146108e8578063b062674114610917578063b43f06ad1461097c578063dda85121146109d7578063f085865a14610aa1578063fb7d8a1e14610b0a575b600080fd5b34801561017b57600080fd5b506101be6004803603602081101561019257600080fd5b81019080803573ffffffffffffffffffffffffffffffffffffffff169060200190929190505050610b73565b604051808215151515815260200191505060405180910390f35b3480156101e457600080fd5b50610213600480360360208110156101fb57600080fd5b81019080803515159060200190929190505050610b98565b005b34801561022157600080fd5b506102646004803603602081101561023857600080fd5b81019080803573ffffffffffffffffffffffffffffffffffffffff169060200190929190505050610d44565b604051808215151515815260200191505060405180910390f35b34801561028a57600080fd5b506102cd600480360360208110156102a157600080fd5b81019080803573ffffffffffffffffffffffffffffffffffffffff169060200190929190505050610d69565b604051808215151515815260200191505060405180910390f35b3480156102f357600080fd5b506103366004803603602081101561030a57600080fd5b81019080803573ffffffffffffffffffffffffffffffffffffffff169060200190929190505050610f5b565b604051808215151515815260200191505060405180910390f35b34801561035c57600080fd5b5061039f6004803603602081101561037357600080fd5b81019080803573ffffffffffffffffffffffffffffffffffffffff169060200190929190505050610f6f565b604051808215151515815260200191505060405180910390f35b3480156103c557600080fd5b50610408600480360360208110156103dc57600080fd5b81019080803573ffffffffffffffffffffffffffffffffffffffff169060200190929190505050610f94565b604051808215151515815260200191505060405180910390f35b34801561042e57600080fd5b5061047b6004803603604081101561044557600080fd5b81019080803573ffffffffffffffffffffffffffffffffffffffff16906020019092919080359060200190929190505050610fb9565b005b34801561048957600080fd5b506104926111c7565b005b3480156104a057600080fd5b5061057a600480360360408110156104b757600080fd5b81019080803573ffffffffffffffffffffffffffffffffffffffff169060200190929190803590602001906401000000008111156104f457600080fd5b82018360208201111561050657600080fd5b8035906020019184600183028401116401000000008311171561052857600080fd5b91908080601f016020809104026020016040519081016040528093929190818152602001838380828437600081840152601f19601f820116905080830192505050505050509192919290505050611276565b005b34801561058857600080fd5b506105cb6004803603602081101561059f57600080fd5b81019080803573ffffffffffffffffffffffffffffffffffffffff1690602001909291905050506114e9565b604051808215151515815260200191505060405180910390f35b3480156105f157600080fd5b506106346004803603602081101561060857600080fd5b81019080803573ffffffffffffffffffffffffffffffffffffffff16906020019092919050505061150e565b604051808215151515815260200191505060405180910390f35b34801561065a57600080fd5b5061066361152b565b604051808273ffffffffffffffffffffffffffffffffffffffff1673ffffffffffffffffffffffffffffffffffffffff16815260200191505060405180910390f35b3480156106b157600080fd5b506106ba611554565b604051808215151515815260200191505060405180910390f35b3480156106e057600080fd5b506106e961156b565b604051808215151515815260200191505060405180910390f35b34801561070f57600080fd5b506107526004803603602081101561072657600080fd5b81019080803573ffffffffffffffffffffffffffffffffffffffff1690602001909291905050506115bf565b6040518082815260200191505060405180910390f35b34801561077457600080fd5b5061077d611748565b005b34801561078b57600080fd5b506107ce600480360360208110156107a257600080fd5b81019080803573ffffffffffffffffffffffffffffffffffffffff169060200190929190505050611753565b604051808215151515815260200191505060405180910390f35b3480156107f457600080fd5b506108376004803603602081101561080b57600080fd5b81019080803573ffffffffffffffffffffffffffffffffffffffff169060200190929190505050611778565b005b34801561084557600080fd5b5061084e611798565b005b34801561085c57600080fd5b5061089f6004803603602081101561087357600080fd5b81019080803573ffffffffffffffffffffffffffffffffffffffff169060200190929190505050611847565b604051808215151515815260200191505060405180910390f35b3480156108c557600080fd5b506108ce61186c565b604051808215151515815260200191505060405180910390f35b3480156108f457600080fd5b506108fd611883565b604051808215151515815260200191505060405180910390f35b34801561092357600080fd5b506109666004803603602081101561093a57600080fd5b81019080803573ffffffffffffffffffffffffffffffffffffffff16906020019092919050505061197f565b6040518082815260200191505060405180910390f35b34801561098857600080fd5b506109d56004803603604081101561099f57600080fd5b81019080803573ffffffffffffffffffffffffffffffffffffffff16906020019092919080359060200190929190505050611b08565b005b3480156109e357600080fd5b50610a26600480360360208110156109fa57600080fd5b81019080803573ffffffffffffffffffffffffffffffffffffffff169060200190929190505050611d16565b6040518080602001828103825283818151815260200191508051906020019080838360005b83811015610a66578082015181840152602081019050610a4b565b50505050905090810190601f168015610a935780820380516001836020036101000a031916815260200191505b509250505060405180910390f35b348015610aad57600080fd5b50610af060048036036020811015610ac457600080fd5b81019080803573ffffffffffffffffffffffffffffffffffffffff169060200190929190505050611ef6565b604051808215151515815260200191505060405180910390f35b348015610b1657600080fd5b50610b5960048036036020811015610b2d57600080fd5b81019080803573ffffffffffffffffffffffffffffffffffffffff169060200190929190505050611f1b565b604051808215151515815260200191505060405180910390f35b60008060039050806004811115610b8657fe5b610b8f8461210d565b14915050919050565b6001809054906101000a900473ffffffffffffffffffffffffffffffffffffffff1673ffffffffffffffffffffffffffffffffffffffff16637e96549f336040518263ffffffff167c0100000000000000000000000000000000000000000000000000000000028152600401808273ffffffffffffffffffffffffffffffffffffffff1673ffffffffffffffffffffffffffffffffffffffff16815260200191505060206040518083038186803b158015610c5257600080fd5b505afa158015610c66573d6000803e3d6000fd5b505050506040513d6020811015610c7c57600080fd5b81019080805190602001909291905050501515610d27576040517f08c379a000000000000000000000000000000000000000000000000000000000815260040180806020018281038252602f8152602001807f546869732066756e6374696f6e2063616e206f6e6c792062652065786563757481526020017f656420627920557067726164657273000000000000000000000000000000000081525060400191505060405180910390fd5b80600160156101000a81548160ff02191690831515021790555050565b60008060029050806004811115610d5757fe5b610d608461210d565b14915050919050565b60006001809054906101000a900473ffffffffffffffffffffffffffffffffffffffff1673ffffffffffffffffffffffffffffffffffffffff16637e96549f336040518263ffffffff167c0100000000000000000000000000000000000000000000000000000000028152600401808273ffffffffffffffffffffffffffffffffffffffff1673ffffffffffffffffffffffffffffffffffffffff16815260200191505060206040518083038186803b158015610e2557600080fd5b505afa158015610e39573d6000803e3d6000fd5b505050506040513d6020811015610e4f57600080fd5b81019080805190602001909291905050501515610efa576040517f08c379a000000000000000000000000000000000000000000000000000000000815260040180806020018281038252602f8152602001807f546869732066756e6374696f6e2063616e206f6e6c792062652065786563757481526020017f656420627920557067726164657273000000000000000000000000000000000081525060400191505060405180910390fd5b6000600260008473ffffffffffffffffffffffffffffffffffffffff1673ffffffffffffffffffffffffffffffffffffffff16815260200190815260200160002060006101000a81548160ff02191690831515021790555060019050919050565b600080610f678361210d565b149050919050565b60008060009050806003811115610f8257fe5b610f8b84612296565b14915050919050565b60008060019050806004811115610fa757fe5b610fb08461210d565b14915050919050565b610fc161156b565b151561105b576040517f08c379a000000000000000000000000000000000000000000000000000000000815260040180806020018281038252602c8152602001807f446f206e6f742068617665207468652068616e646c6572207065726d6973736981526020017f6f6e20746f20777269746521000000000000000000000000000000000000000081525060400191505060405180910390fd5b60008260405160200180807f4c6567616c456e74697479496e666f0000000000000000000000000000000000815250600f018273ffffffffffffffffffffffffffffffffffffffff1673ffffffffffffffffffffffffffffffffffffffff166c01000000000000000000000000028152601401807f696446696e616e6369616c537570706f727441677265656d656e740000000000815250601b01915050604051602081830303815290604052805190602001209050600360029054906101000a900473ffffffffffffffffffffffffffffffffffffffff1673ffffffffffffffffffffffffffffffffffffffff1663e2a4853a82846040518363ffffffff167c01000000000000000000000000000000000000000000000000000000000281526004018083815260200182815260200192505050600060405180830381600087803b1580156111aa57600080fd5b505af11580156111be573d6000803e3d6000fd5b50505050505050565b6111d03361150e565b15156111db57600080fd5b600160009054906101000a900460ff1615156111f657600080fd5b6000600160006101000a81548160ff0219169083151502179055507f5db9ee0a495bf2e6ff9c91a7834c1ba4fdd244a5e8aa4e537bd38aeae4b073aa33604051808273ffffffffffffffffffffffffffffffffffffffff1673ffffffffffffffffffffffffffffffffffffffff16815260200191505060405180910390a1565b61127e61156b565b1515611318576040517f08c379a000000000000000000000000000000000000000000000000000000000815260040180806020018281038252602c8152602001807f446f206e6f742068617665207468652068616e646c6572207065726d6973736981526020017f6f6e20746f20777269746521000000000000000000000000000000000000000081525060400191505060405180910390fd5b60008260405160200180807f4c6567616c456e74697479496e666f0000000000000000000000000000000000815250600f018273ffffffffffffffffffffffffffffffffffffffff1673ffffffffffffffffffffffffffffffffffffffff166c01000000000000000000000000028152601401807f696450726f6f6648617368000000000000000000000000000000000000000000815250600b01915050604051602081830303815290604052805190602001209050600360029054906101000a900473ffffffffffffffffffffffffffffffffffffffff1673ffffffffffffffffffffffffffffffffffffffff16636e89955082846040518363ffffffff167c01000000000000000000000000000000000000000000000000000000000281526004018083815260200180602001828103825283818151815260200191508051906020019080838360005b8381101561147f578082015181840152602081019050611464565b50505050905090810190601f1680156114ac5780820380516001836020036101000a031916815260200191505b509350505050600060405180830381600087803b1580156114cc57600080fd5b505af11580156114e0573d6000803e3d6000fd5b50505050505050565b600080600290508060038111156114fc57fe5b61150584612296565b14915050919050565b600061152482600061241f90919063ffffffff16565b9050919050565b60006001809054906101000a900473ffffffffffffffffffffffffffffffffffffffff16905090565b6000600160009054906101000a900460ff16905090565b6000600260003373ffffffffffffffffffffffffffffffffffffffff1673ffffffffffffffffffffffffffffffffffffffff16815260200190815260200160002060009054906101000a900460ff16905090565b6000808260405160200180807f4c6567616c456e74697479496e666f0000000000000000000000000000000000815250600f018273ffffffffffffffffffffffffffffffffffffffff1673ffffffffffffffffffffffffffffffffffffffff166c01000000000000000000000000028152601401807f6964000000000000000000000000000000000000000000000000000000000000815250600201915050604051602081830303815290604052805190602001209050600360029054906101000a900473ffffffffffffffffffffffffffffffffffffffff1673ffffffffffffffffffffffffffffffffffffffff1663bd02d0f5826040518263ffffffff167c01000000000000000000000000000000000000000000000000000000000281526004018082815260200191505060206040518083038186803b15801561170557600080fd5b505afa158015611719573d6000803e3d6000fd5b505050506040513d602081101561172f57600080fd5b8101908080519060200190929190505050915050919050565b611751336124b3565b565b6000806004905080600481111561176657fe5b61176f8461210d565b14915050919050565b6117813361150e565b151561178c57600080fd5b6117958161250d565b50565b6117a13361150e565b15156117ac57600080fd5b600160009054906101000a900460ff161515156117c857600080fd5b60018060006101000a81548160ff0219169083151502179055507f62e78cea01bee320cd4e420270b5ea74000d11b0c9f74754ebdbfc544b05a25833604051808273ffffffffffffffffffffffffffffffffffffffff1673ffffffffffffffffffffffffffffffffffffffff16815260200191505060405180910390a1565b6000806001905080600381111561185a57fe5b61186384612296565b14915050919050565b6000600160159054906101000a900460ff16905090565b60006001809054906101000a900473ffffffffffffffffffffffffffffffffffffffff1673ffffffffffffffffffffffffffffffffffffffff16637e96549f336040518263ffffffff167c0100000000000000000000000000000000000000000000000000000000028152600401808273ffffffffffffffffffffffffffffffffffffffff1673ffffffffffffffffffffffffffffffffffffffff16815260200191505060206040518083038186803b15801561193f57600080fd5b505afa158015611953573d6000803e3d6000fd5b505050506040513d602081101561196957600080fd5b8101908080519060200190929190505050905090565b6000808260405160200180807f4c6567616c456e74697479496e666f0000000000000000000000000000000000815250600f018273ffffffffffffffffffffffffffffffffffffffff1673ffffffffffffffffffffffffffffffffffffffff166c01000000000000000000000000028152601401807f696446696e616e6369616c537570706f727441677265656d656e740000000000815250601b01915050604051602081830303815290604052805190602001209050600360029054906101000a900473ffffffffffffffffffffffffffffffffffffffff1673ffffffffffffffffffffffffffffffffffffffff1663bd02d0f5826040518263ffffffff167c01000000000000000000000000000000000000000000000000000000000281526004018082815260200191505060206040518083038186803b158015611ac557600080fd5b505afa158015611ad9573d6000803e3d6000fd5b505050506040513d6020811015611aef57600080fd5b8101908080519060200190929190505050915050919050565b611b1061156b565b1515611baa576040517f08c379a000000000000000000000000000000000000000000000000000000000815260040180806020018281038252602c8152602001807f446f206e6f742068617665207468652068616e646c6572207065726d6973736981526020017f6f6e20746f20777269746521000000000000000000000000000000000000000081525060400191505060405180910390fd5b60008260405160200180807f4c6567616c456e74697479496e666f0000000000000000000000000000000000815250600f018273ffffffffffffffffffffffffffffffffffffffff1673ffffffffffffffffffffffffffffffffffffffff166c01000000000000000000000000028152601401807f6964000000000000000000000000000000000000000000000000000000000000815250600201915050604051602081830303815290604052805190602001209050600360029054906101000a900473ffffffffffffffffffffffffffffffffffffffff1673ffffffffffffffffffffffffffffffffffffffff1663e2a4853a82846040518363ffffffff167c01000000000000000000000000000000000000000000000000000000000281526004018083815260200182815260200192505050600060405180830381600087803b158015611cf957600080fd5b505af1158015611d0d573d6000803e3d6000fd5b50505050505050565b606060008260405160200180807f4c6567616c456e74697479496e666f0000000000000000000000000000000000815250600f018273ffffffffffffffffffffffffffffffffffffffff1673ffffffffffffffffffffffffffffffffffffffff166c01000000000000000000000000028152601401807f696450726f6f6648617368000000000000000000000000000000000000000000815250600b01915050604051602081830303815290604052805190602001209050600360029054906101000a900473ffffffffffffffffffffffffffffffffffffffff1673ffffffffffffffffffffffffffffffffffffffff1663986e791a826040518263ffffffff167c01000000000000000000000000000000000000000000000000000000000281526004018082815260200191505060006040518083038186803b158015611e5d57600080fd5b505afa158015611e71573d6000803e3d6000fd5b505050506040513d6000823e3d601f19601f820116820180604052506020811015611e9b57600080fd5b810190808051640100000000811115611eb357600080fd5b82810190506020810184811115611ec957600080fd5b8151856001820283011164010000000082111715611ee657600080fd5b5050929190505050915050919050565b60008060039050806003811115611f0957fe5b611f1284612296565b14915050919050565b60006001809054906101000a900473ffffffffffffffffffffffffffffffffffffffff1673ffffffffffffffffffffffffffffffffffffffff16637e96549f336040518263ffffffff167c0100000000000000000000000000000000000000000000000000000000028152600401808273ffffffffffffffffffffffffffffffffffffffff1673ffffffffffffffffffffffffffffffffffffffff16815260200191505060206040518083038186803b158015611fd757600080fd5b505afa158015611feb573d6000803e3d6000fd5b505050506040513d602081101561200157600080fd5b810190808051906020019092919050505015156120ac576040517f08c379a000000000000000000000000000000000000000000000000000000000815260040180806020018281038252602f8152602001807f546869732066756e6374696f6e2063616e206f6e6c792062652065786563757481526020017f656420627920557067726164657273000000000000000000000000000000000081525060400191505060405180910390fd5b6001600260008473ffffffffffffffffffffffffffffffffffffffff1673ffffffffffffffffffffffffffffffffffffffff16815260200190815260200160002060006101000a81548160ff02191690831515021790555060019050919050565b6000808260405160200180807f4c6567616c456e74697479496e666f0000000000000000000000000000000000815250600f018273ffffffffffffffffffffffffffffffffffffffff1673ffffffffffffffffffffffffffffffffffffffff166c01000000000000000000000000028152601401807f7374617465000000000000000000000000000000000000000000000000000000815250600501915050604051602081830303815290604052805190602001209050600360029054906101000a900473ffffffffffffffffffffffffffffffffffffffff1673ffffffffffffffffffffffffffffffffffffffff1663bd02d0f5826040518263ffffffff167c01000000000000000000000000000000000000000000000000000000000281526004018082815260200191505060206040518083038186803b15801561225357600080fd5b505afa158015612267573d6000803e3d6000fd5b505050506040513d602081101561227d57600080fd5b8101908080519060200190929190505050915050919050565b6000808260405160200180807f4c6567616c456e74697479496e666f0000000000000000000000000000000000815250600f018273ffffffffffffffffffffffffffffffffffffffff1673ffffffffffffffffffffffffffffffffffffffff166c01000000000000000000000000028152601401807f726f6c6500000000000000000000000000000000000000000000000000000000815250600401915050604051602081830303815290604052805190602001209050600360029054906101000a900473ffffffffffffffffffffffffffffffffffffffff1673ffffffffffffffffffffffffffffffffffffffff1663bd02d0f5826040518263ffffffff167c01000000000000000000000000000000000000000000000000000000000281526004018082815260200191505060206040518083038186803b1580156123dc57600080fd5b505afa1580156123f0573d6000803e3d6000fd5b505050506040513d602081101561240657600080fd5b8101908080519060200190929190505050915050919050565b60008073ffffffffffffffffffffffffffffffffffffffff168273ffffffffffffffffffffffffffffffffffffffff161415151561245c57600080fd5b8260000160008373ffffffffffffffffffffffffffffffffffffffff1673ffffffffffffffffffffffffffffffffffffffff16815260200190815260200160002060009054906101000a900460ff16905092915050565b6124c781600061256790919063ffffffff16565b8073ffffffffffffffffffffffffffffffffffffffff167fcd265ebaf09df2871cc7bd4133404a235ba12eff2041bb89d9c714a2621c7c7e60405160405180910390a250565b61252181600061261690919063ffffffff16565b8073ffffffffffffffffffffffffffffffffffffffff167f6719d08c1888103bea251a4ed56406bd0c3e69723c8a1686e017e7bbe159b6f860405160405180910390a250565b600073ffffffffffffffffffffffffffffffffffffffff168173ffffffffffffffffffffffffffffffffffffffff16141515156125a357600080fd5b6125ad828261241f565b15156125b857600080fd5b60008260000160008373ffffffffffffffffffffffffffffffffffffffff1673ffffffffffffffffffffffffffffffffffffffff16815260200190815260200160002060006101000a81548160ff0219169083151502179055505050565b600073ffffffffffffffffffffffffffffffffffffffff168173ffffffffffffffffffffffffffffffffffffffff161415151561265257600080fd5b61265c828261241f565b15151561266857600080fd5b60018260000160008373ffffffffffffffffffffffffffffffffffffffff1673ffffffffffffffffffffffffffffffffffffffff16815260200190815260200160002060006101000a81548160ff021916908315150217905550505056fea165627a7a72305820f368dae8b452c9e3dbf5f4e0da54c68f2e117b413670e4234ac604fa51f84c1d0029608060405234801561001057600080fd5b50604051604080620014658339810180604052604081101561003157600080fd5b8101908080519060200190929190805190602001909291905050508161006533610123640100000000026401000000009004565b6000600160006101000a81548160ff021916908315150217905550806001806101000a81548173ffffffffffffffffffffffffffffffffffffffff021916908373ffffffffffffffffffffffffffffffffffffffff16021790555060018060156101000a81548160ff0219169083151502179055505080600260006101000a81548173ffffffffffffffffffffffffffffffffffffffff021916908373ffffffffffffffffffffffffffffffffffffffff16021790555050506102dd565b61014481600061018a6401000000000261109c179091906401000000009004565b8073ffffffffffffffffffffffffffffffffffffffff167f6719d08c1888103bea251a4ed56406bd0c3e69723c8a1686e017e7bbe159b6f860405160405180910390a250565b600073ffffffffffffffffffffffffffffffffffffffff168173ffffffffffffffffffffffffffffffffffffffff16141515156101c657600080fd5b6101df8282610249640100000000026401000000009004565b1515156101eb57600080fd5b60018260000160008373ffffffffffffffffffffffffffffffffffffffff1673ffffffffffffffffffffffffffffffffffffffff16815260200190815260200160002060006101000a81548160ff0219169083151502179055505050565b60008073ffffffffffffffffffffffffffffffffffffffff168273ffffffffffffffffffffffffffffffffffffffff161415151561028657600080fd5b8260000160008373ffffffffffffffffffffffffffffffffffffffff1673ffffffffffffffffffffffffffffffffffffffff16815260200190815260200160002060009054906101000a900460ff16905092915050565b61117880620002ed6000396000f3fe6080604052600436106100db576000357c0100000000000000000000000000000000000000000000000000000000900463ffffffff16806309ea2709146100e0578063224957801461011d5780633f4ba83a1461016257806341c0e1b51461017957806346fbf68e1461019057806352bf2c3c146101f9578063576590cb146102505780635c975abb146102b957806365f68c89146102e85780636ef8d66d1461034d57806379aa330c1461036457806382dc1ec4146103b55780638456cb5914610406578063901fe0471461041d57806396a0604a1461044c575b600080fd5b3480156100ec57600080fd5b5061011b6004803603602081101561010357600080fd5b8101908080351515906020019092919050505061047b565b005b34801561012957600080fd5b506101606004803603602081101561014057600080fd5b81019080803567ffffffffffffffff169060200190929190505050610627565b005b34801561016e57600080fd5b50610177610711565b005b34801561018557600080fd5b5061018e6107c0565b005b34801561019c57600080fd5b506101df600480360360208110156101b357600080fd5b81019080803573ffffffffffffffffffffffffffffffffffffffff169060200190929190505050610969565b604051808215151515815260200191505060405180910390f35b34801561020557600080fd5b5061020e610986565b604051808273ffffffffffffffffffffffffffffffffffffffff1673ffffffffffffffffffffffffffffffffffffffff16815260200191505060405180910390f35b34801561025c57600080fd5b5061029f6004803603602081101561027357600080fd5b81019080803573ffffffffffffffffffffffffffffffffffffffff1690602001909291905050506109af565b604051808215151515815260200191505060405180910390f35b3480156102c557600080fd5b506102ce6109cf565b604051808215151515815260200191505060405180910390f35b3480156102f457600080fd5b506103376004803603602081101561030b57600080fd5b81019080803573ffffffffffffffffffffffffffffffffffffffff1690602001909291905050506109e6565b6040518082815260200191505060405180910390f35b34801561035957600080fd5b50610362610ae5565b005b34801561037057600080fd5b506103b36004803603602081101561038757600080fd5b81019080803573ffffffffffffffffffffffffffffffffffffffff169060200190929190505050610af0565b005b3480156103c157600080fd5b50610404600480360360208110156103d857600080fd5b81019080803573ffffffffffffffffffffffffffffffffffffffff169060200190929190505050610cc3565b005b34801561041257600080fd5b5061041b610ce3565b005b34801561042957600080fd5b50610432610d92565b604051808215151515815260200191505060405180910390f35b34801561045857600080fd5b50610461610da9565b604051808215151515815260200191505060405180910390f35b6001809054906101000a900473ffffffffffffffffffffffffffffffffffffffff1673ffffffffffffffffffffffffffffffffffffffff16637e96549f336040518263ffffffff167c0100000000000000000000000000000000000000000000000000000000028152600401808273ffffffffffffffffffffffffffffffffffffffff1673ffffffffffffffffffffffffffffffffffffffff16815260200191505060206040518083038186803b15801561053557600080fd5b505afa158015610549573d6000803e3d6000fd5b505050506040513d602081101561055f57600080fd5b8101908080519060200190929190505050151561060a576040517f08c379a000000000000000000000000000000000000000000000000000000000815260040180806020018281038252602f8152602001807f546869732066756e6374696f6e2063616e206f6e6c792062652065786563757481526020017f656420627920557067726164657273000000000000000000000000000000000081525060400191505060405180910390fd5b80600160156101000a81548160ff02191690831515021790555050565b600260009054906101000a900473ffffffffffffffffffffffffffffffffffffffff1673ffffffffffffffffffffffffffffffffffffffff1663b43f06ad33836040518363ffffffff167c0100000000000000000000000000000000000000000000000000000000028152600401808373ffffffffffffffffffffffffffffffffffffffff1673ffffffffffffffffffffffffffffffffffffffff1681526020018267ffffffffffffffff16815260200192505050600060405180830381600087803b1580156106f657600080fd5b505af115801561070a573d6000803e3d6000fd5b5050505050565b61071a33610969565b151561072557600080fd5b600160009054906101000a900460ff16151561074057600080fd5b6000600160006101000a81548160ff0219169083151502179055507f5db9ee0a495bf2e6ff9c91a7834c1ba4fdd244a5e8aa4e537bd38aeae4b073aa33604051808273ffffffffffffffffffffffffffffffffffffffff1673ffffffffffffffffffffffffffffffffffffffff16815260200191505060405180910390a1565b6001809054906101000a900473ffffffffffffffffffffffffffffffffffffffff1673ffffffffffffffffffffffffffffffffffffffff16637e96549f336040518263ffffffff167c0100000000000000000000000000000000000000000000000000000000028152600401808273ffffffffffffffffffffffffffffffffffffffff1673ffffffffffffffffffffffffffffffffffffffff16815260200191505060206040518083038186803b15801561087a57600080fd5b505afa15801561088e573d6000803e3d6000fd5b505050506040513d60208110156108a457600080fd5b8101908080519060200190929190505050151561094f576040517f08c379a000000000000000000000000000000000000000000000000000000000815260040180806020018281038252602f8152602001807f546869732066756e6374696f6e2063616e206f6e6c792062652065786563757481526020017f656420627920557067726164657273000000000000000000000000000000000081525060400191505060405180910390fd5b600073ffffffffffffffffffffffffffffffffffffffff16ff5b600061097f826000610ea590919063ffffffff16565b9050919050565b60006001809054906101000a900473ffffffffffffffffffffffffffffffffffffffff16905090565b60096020528060005260406000206000915054906101000a900460ff1681565b6000600160009054906101000a900460ff16905090565b6000600260009054906101000a900473ffffffffffffffffffffffffffffffffffffffff1673ffffffffffffffffffffffffffffffffffffffff166365f68c89836040518263ffffffff167c0100000000000000000000000000000000000000000000000000000000028152600401808273ffffffffffffffffffffffffffffffffffffffff1673ffffffffffffffffffffffffffffffffffffffff16815260200191505060206040518083038186803b158015610aa357600080fd5b505afa158015610ab7573d6000803e3d6000fd5b505050506040513d6020811015610acd57600080fd5b81019080805190602001909291905050509050919050565b610aee33610f39565b565b6001809054906101000a900473ffffffffffffffffffffffffffffffffffffffff1673ffffffffffffffffffffffffffffffffffffffff16637e96549f336040518263ffffffff167c0100000000000000000000000000000000000000000000000000000000028152600401808273ffffffffffffffffffffffffffffffffffffffff1673ffffffffffffffffffffffffffffffffffffffff16815260200191505060206040518083038186803b158015610baa57600080fd5b505afa158015610bbe573d6000803e3d6000fd5b505050506040513d6020811015610bd457600080fd5b81019080805190602001909291905050501515610c7f576040517f08c379a000000000000000000000000000000000000000000000000000000000815260040180806020018281038252602f8152602001807f546869732066756e6374696f6e2063616e206f6e6c792062652065786563757481526020017f656420627920557067726164657273000000000000000000000000000000000081525060400191505060405180910390fd5b80600260006101000a81548173ffffffffffffffffffffffffffffffffffffffff021916908373ffffffffffffffffffffffffffffffffffffffff16021790555050565b610ccc33610969565b1515610cd757600080fd5b610ce081610f93565b50565b610cec33610969565b1515610cf757600080fd5b600160009054906101000a900460ff16151515610d1357600080fd5b60018060006101000a81548160ff0219169083151502179055507f62e78cea01bee320cd4e420270b5ea74000d11b0c9f74754ebdbfc544b05a25833604051808273ffffffffffffffffffffffffffffffffffffffff1673ffffffffffffffffffffffffffffffffffffffff16815260200191505060405180910390a1565b6000600160159054906101000a900460ff16905090565b60006001809054906101000a900473ffffffffffffffffffffffffffffffffffffffff1673ffffffffffffffffffffffffffffffffffffffff16637e96549f336040518263ffffffff167c0100000000000000000000000000000000000000000000000000000000028152600401808273ffffffffffffffffffffffffffffffffffffffff1673ffffffffffffffffffffffffffffffffffffffff16815260200191505060206040518083038186803b158015610e6557600080fd5b505afa158015610e79573d6000803e3d6000fd5b505050506040513d6020811015610e8f57600080fd5b8101908080519060200190929190505050905090565b60008073ffffffffffffffffffffffffffffffffffffffff168273ffffffffffffffffffffffffffffffffffffffff1614151515610ee257600080fd5b8260000160008373ffffffffffffffffffffffffffffffffffffffff1673ffffffffffffffffffffffffffffffffffffffff16815260200190815260200160002060009054906101000a900460ff16905092915050565b610f4d816000610fed90919063ffffffff16565b8073ffffffffffffffffffffffffffffffffffffffff167fcd265ebaf09df2871cc7bd4133404a235ba12eff2041bb89d9c714a2621c7c7e60405160405180910390a250565b610fa781600061109c90919063ffffffff16565b8073ffffffffffffffffffffffffffffffffffffffff167f6719d08c1888103bea251a4ed56406bd0c3e69723c8a1686e017e7bbe159b6f860405160405180910390a250565b600073ffffffffffffffffffffffffffffffffffffffff168173ffffffffffffffffffffffffffffffffffffffff161415151561102957600080fd5b6110338282610ea5565b151561103e57600080fd5b60008260000160008373ffffffffffffffffffffffffffffffffffffffff1673ffffffffffffffffffffffffffffffffffffffff16815260200190815260200160002060006101000a81548160ff0219169083151502179055505050565b600073ffffffffffffffffffffffffffffffffffffffff168173ffffffffffffffffffffffffffffffffffffffff16141515156110d857600080fd5b6110e28282610ea5565b1515156110ee57600080fd5b60018260000160008373ffffffffffffffffffffffffffffffffffffffff1673ffffffffffffffffffffffffffffffffffffffff16815260200190815260200160002060006101000a81548160ff021916908315150217905550505056fea165627a7a723058207030a190f94b964b17b8eea83c66cca62f3e78f26361e505d9bd0f3680a83c6c0029a165627a7a723058206bceeb119a5b214169086e0257de2541e48c4c9e54c7db76e9a90c0d8f512cca0029",
  "source": "pragma solidity ^0.5.0;\r\n\r\nimport \"../appGovernanceUpgrade/Upgrader.sol\";\r\nimport \"../appGovernanceUpgrade/Governance.sol\";\r\nimport \"../appGovernanceUpgrade/Storage.sol\";\r\n\r\nimport \"./PreUpgrader2.sol\";\r\nimport \"../LegalEntityMapping.sol\";\r\nimport \"../BNDESRegistry.sol\";\r\n\r\n\r\ncontract PreUpgrader3A is Upgrader {\r\n\r\n    //Variables from previous Migration\r\n    address private _governanceAddr;\r\n    address private _resolverAddr;\r\n    address private _storageContractAddr;\r\n    \r\n    //New variables\r\n    address private _legalEntityMappingAddr;\r\n    address private _bndesRegistryAddr;\r\n\r\n    constructor (address preUpgraderAddr2) public {\r\n        PreUpgrader2 preUpgrader2 = PreUpgrader2(preUpgraderAddr2);\r\n        _governanceAddr = preUpgrader2.governanceAddr();\r\n        _resolverAddr = preUpgrader2.resolverAddr();\r\n        _storageContractAddr = preUpgrader2.storageContractAddr();\r\n    }\r\n\r\n    modifier onlyGovernance() {\r\n        require(_governanceAddr==msg.sender, \"This function can only be executed by the Governance\");\r\n        _;\r\n    }\r\n\r\n    function upgrade () external onlyGovernance {\r\n\r\n        Governance governance = Governance (_governanceAddr);\r\n        address upgraderInfoAddr = governance.upgraderInfoAddr();\r\n        UpgraderInfo ui = UpgraderInfo(upgraderInfoAddr);\r\n\r\n        LegalEntityMapping legalEntityMapping = new LegalEntityMapping(upgraderInfoAddr,_storageContractAddr);\r\n        _legalEntityMappingAddr = address(legalEntityMapping);\r\n        legalEntityMapping.addPauser(governance.owner());\r\n        if (governance.owner()!=ui.adminAddr()) {\r\n            legalEntityMapping.addPauser(ui.adminAddr());\r\n        }\r\n        legalEntityMapping.renouncePauser();\r\n\r\n\r\n        BNDESRegistry bndesRegistry = new BNDESRegistry(upgraderInfoAddr, _legalEntityMappingAddr);\r\n        _bndesRegistryAddr = address(bndesRegistry);\r\n        bndesRegistry.addPauser(_resolverAddr);\r\n        bndesRegistry.addPauser(governance.owner());\r\n        if (governance.owner()!=ui.adminAddr()) {\r\n            bndesRegistry.addPauser(ui.adminAddr());\r\n        }\r\n        bndesRegistry.renouncePauser();\r\n\r\n    }\r\n\r\n    function governanceAddr() public view returns (address) {\r\n        return _governanceAddr;\r\n    }\r\n\r\n    function resolverAddr() public view returns (address) {\r\n        return _resolverAddr;\r\n    }\r\n\r\n    function storageContractAddr() public view returns (address) {\r\n        return _storageContractAddr;\r\n    }\r\n\r\n    function legalEntityMappingAddr() public view returns (address) {\r\n        return _legalEntityMappingAddr;\r\n    }\r\n    \r\n    function bndesRegistryAddr() public view returns (address) {\r\n        return _bndesRegistryAddr;\r\n    }\r\n\r\n\r\n}\r\n",
  "sourcePath": "D:\\Workspace\\bndestoken\\Back-Blockchain-Upgrade\\contracts\\appUpgraders\\PreUpgrader3A.sol",
  "compiler": {
    "name": "solc",
    "version": "0.5.0+commit.1d4f565a.Emscripten.clang"
  },
  "schemaVersion": "3.0.5",
  "updatedAt": "2020-01-27T18:43:09.882Z",
  "devdoc": {
    "methods": {}
  },
  "userdoc": {
    "methods": {}
  }
}