{
  "contractName": "PreUpgrader3A",
  "abi": [
    {
      "inputs": [
        {
          "name": "preUpgraderAddr2",
          "type": "address"
        }
      ],
      "payable": false,
      "stateMutability": "nonpayable",
      "type": "constructor"
    },
    {
      "constant": false,
      "inputs": [],
      "name": "upgrade",
      "outputs": [],
      "payable": false,
      "stateMutability": "nonpayable",
      "type": "function"
    },
    {
      "constant": true,
      "inputs": [],
      "name": "governanceAddr",
      "outputs": [
        {
          "name": "",
          "type": "address"
        }
      ],
      "payable": false,
      "stateMutability": "view",
      "type": "function"
    },
    {
      "constant": true,
      "inputs": [],
      "name": "resolverAddr",
      "outputs": [
        {
          "name": "",
          "type": "address"
        }
      ],
      "payable": false,
      "stateMutability": "view",
      "type": "function"
    },
    {
      "constant": true,
      "inputs": [],
      "name": "storageContractAddr",
      "outputs": [
        {
          "name": "",
          "type": "address"
        }
      ],
      "payable": false,
      "stateMutability": "view",
      "type": "function"
    },
    {
      "constant": true,
      "inputs": [],
      "name": "legalEntityMappingAddr",
      "outputs": [
        {
          "name": "",
          "type": "address"
        }
      ],
      "payable": false,
      "stateMutability": "view",
      "type": "function"
    },
    {
      "constant": true,
      "inputs": [],
      "name": "bndesRegistryAddr",
      "outputs": [
        {
          "name": "",
          "type": "address"
        }
      ],
      "payable": false,
      "stateMutability": "view",
      "type": "function"
    }
  ],
  "bytecode": "0x608060405234801561001057600080fd5b5060405160208061071d8339810180604052602081101561003057600080fd5b810190808051906020019092919050505060008190508073ffffffffffffffffffffffffffffffffffffffff1663133349bc6040518163ffffffff167c010000000000000000000000000000000000000000000000000000000002815260040160206040518083038186803b1580156100a857600080fd5b505afa1580156100bc573d6000803e3d6000fd5b505050506040513d60208110156100d257600080fd5b81019080805190602001909291905050506000806101000a81548173ffffffffffffffffffffffffffffffffffffffff021916908373ffffffffffffffffffffffffffffffffffffffff1602179055508073ffffffffffffffffffffffffffffffffffffffff166352daf7126040518163ffffffff167c010000000000000000000000000000000000000000000000000000000002815260040160206040518083038186803b15801561018457600080fd5b505afa158015610198573d6000803e3d6000fd5b505050506040513d60208110156101ae57600080fd5b8101908080519060200190929190505050600160006101000a81548173ffffffffffffffffffffffffffffffffffffffff021916908373ffffffffffffffffffffffffffffffffffffffff1602179055508073ffffffffffffffffffffffffffffffffffffffff1663a0d7c7856040518163ffffffff167c010000000000000000000000000000000000000000000000000000000002815260040160206040518083038186803b15801561026157600080fd5b505afa158015610275573d6000803e3d6000fd5b505050506040513d602081101561028b57600080fd5b8101908080519060200190929190505050600260006101000a81548173ffffffffffffffffffffffffffffffffffffffff021916908373ffffffffffffffffffffffffffffffffffffffff1602179055505050610430806102ed6000396000f3fe608060405260043610610078576000357c0100000000000000000000000000000000000000000000000000000000900463ffffffff168063133349bc1461007d57806316d0b57c146100d457806352daf7121461012b5780635f9a182014610182578063a0d7c785146101d9578063d55ec69714610230575b600080fd5b34801561008957600080fd5b50610092610247565b604051808273ffffffffffffffffffffffffffffffffffffffff1673ffffffffffffffffffffffffffffffffffffffff16815260200191505060405180910390f35b3480156100e057600080fd5b506100e9610270565b604051808273ffffffffffffffffffffffffffffffffffffffff1673ffffffffffffffffffffffffffffffffffffffff16815260200191505060405180910390f35b34801561013757600080fd5b5061014061029a565b604051808273ffffffffffffffffffffffffffffffffffffffff1673ffffffffffffffffffffffffffffffffffffffff16815260200191505060405180910390f35b34801561018e57600080fd5b506101976102c4565b604051808273ffffffffffffffffffffffffffffffffffffffff1673ffffffffffffffffffffffffffffffffffffffff16815260200191505060405180910390f35b3480156101e557600080fd5b506101ee6102ee565b604051808273ffffffffffffffffffffffffffffffffffffffff1673ffffffffffffffffffffffffffffffffffffffff16815260200191505060405180910390f35b34801561023c57600080fd5b50610245610318565b005b60008060009054906101000a900473ffffffffffffffffffffffffffffffffffffffff16905090565b6000600460009054906101000a900473ffffffffffffffffffffffffffffffffffffffff16905090565b6000600160009054906101000a900473ffffffffffffffffffffffffffffffffffffffff16905090565b6000600360009054906101000a900473ffffffffffffffffffffffffffffffffffffffff16905090565b6000600260009054906101000a900473ffffffffffffffffffffffffffffffffffffffff16905090565b3373ffffffffffffffffffffffffffffffffffffffff166000809054906101000a900473ffffffffffffffffffffffffffffffffffffffff1673ffffffffffffffffffffffffffffffffffffffff16141515610402576040517f08c379a00000000000000000000000000000000000000000000000000000000081526004018080602001828103825260348152602001807f546869732066756e6374696f6e2063616e206f6e6c792062652065786563757481526020017f65642062792074686520476f7665726e616e636500000000000000000000000081525060400191505060405180910390fd5b56fea165627a7a72305820ed531662f0544be16a8802fce0e47bdf1b115c364c9d18c0138d2f13a3a084470029",
  "source": "pragma solidity ^0.5.0;\r\n\r\nimport \"../appGovernanceUpgrade/Upgrader.sol\";\r\nimport \"../appGovernanceUpgrade/Governance.sol\";\r\nimport \"../appGovernanceUpgrade/Storage.sol\";\r\n\r\nimport \"./PreUpgrader2.sol\";\r\nimport \"../LegalEntityMapping.sol\";\r\nimport \"../BNDESRegistry.sol\";\r\n\r\n\r\ncontract PreUpgrader3A is Upgrader {\r\n\r\n    //Variables from previous Migration\r\n    address private _governanceAddr;\r\n    address private _resolverAddr;\r\n    address private _storageContractAddr;\r\n    \r\n    //New variables\r\n    address private _legalEntityMappingAddr;\r\n    address private _bndesRegistryAddr;\r\n\r\n    constructor (address preUpgraderAddr2) public {\r\n        PreUpgrader2 preUpgrader2 = PreUpgrader2(preUpgraderAddr2);\r\n        _governanceAddr = preUpgrader2.governanceAddr();\r\n        _resolverAddr = preUpgrader2.resolverAddr();\r\n        _storageContractAddr = preUpgrader2.storageContractAddr();\r\n    }\r\n\r\n    modifier onlyGovernance() {\r\n        require(_governanceAddr==msg.sender, \"This function can only be executed by the Governance\");\r\n        _;\r\n    }\r\n\r\n    function upgrade () external onlyGovernance {\r\n/*\r\n        Governance governance = Governance (_governanceAddr);\r\n        address upgraderInfoAddr = governance.upgraderInfoAddr();\r\n        UpgraderInfo ui = UpgraderInfo(upgraderInfoAddr);\r\n\r\n        LegalEntityMapping legalEntityMapping = new LegalEntityMapping(upgraderInfoAddr,_storageContractAddr);\r\n        _legalEntityMappingAddr = address(legalEntityMapping);\r\n        legalEntityMapping.addPauser(governance.owner());\r\n        if (governance.owner()!=ui.adminAddr()) {\r\n            legalEntityMapping.addPauser(ui.adminAddr());\r\n        }\r\n        legalEntityMapping.renouncePauser();\r\n\r\n\r\n        BNDESRegistry bndesRegistry = new BNDESRegistry(upgraderInfoAddr, _legalEntityMappingAddr);\r\n        _bndesRegistryAddr = address(bndesRegistry);\r\n        bndesRegistry.addPauser(_resolverAddr);\r\n        bndesRegistry.addPauser(governance.owner());\r\n        if (governance.owner()!=ui.adminAddr()) {\r\n            bndesRegistry.addPauser(ui.adminAddr());\r\n        }\r\n        bndesRegistry.renouncePauser();\r\n*/\r\n    }\r\n\r\n    function governanceAddr() public view returns (address) {\r\n        return _governanceAddr;\r\n    }\r\n\r\n    function resolverAddr() public view returns (address) {\r\n        return _resolverAddr;\r\n    }\r\n\r\n    function storageContractAddr() public view returns (address) {\r\n        return _storageContractAddr;\r\n    }\r\n\r\n    function legalEntityMappingAddr() public view returns (address) {\r\n        return _legalEntityMappingAddr;\r\n    }\r\n    \r\n    function bndesRegistryAddr() public view returns (address) {\r\n        return _bndesRegistryAddr;\r\n    }\r\n\r\n\r\n}\r\n",
  "sourcePath": "D:\\Workspace\\bndestoken-captacao\\Back-Blockchain\\contracts\\appUpgraders\\PreUpgrader3A.sol",
  "compiler": {
    "name": "solc",
    "version": "0.5.0+commit.1d4f565a.Emscripten.clang"
  },
  "schemaVersion": "3.0.5",
  "updatedAt": "2020-02-03T19:53:57.466Z",
  "devdoc": {
    "methods": {}
  },
  "userdoc": {
    "methods": {}
  }
}