{
  "contractName": "PreUpgrader1",
  "abi": [
    {
      "inputs": [
        {
          "internalType": "address",
          "name": "ownerOfGovernanceAddr",
          "type": "address"
        },
        {
          "internalType": "address",
          "name": "adminOfNewContractsAddr",
          "type": "address"
        },
        {
          "internalType": "uint256[]",
          "name": "governanceMembersId",
          "type": "uint256[]"
        },
        {
          "internalType": "address",
          "name": "resposibleForAssigningGovernanceMembers",
          "type": "address"
        }
      ],
      "payable": false,
      "stateMutability": "nonpayable",
      "type": "constructor"
    },
    {
      "constant": true,
      "inputs": [],
      "name": "governanceAddr",
      "outputs": [
        {
          "internalType": "address",
          "name": "",
          "type": "address"
        }
      ],
      "payable": false,
      "stateMutability": "view",
      "type": "function"
    }
  ],
  "bytecode": "0x608060405234801561001057600080fd5b506040516101d03803806101d08339818101604052608081101561003357600080fd5b8101908080519060200190929190805190602001909291908051604051939291908464010000000082111561006757600080fd5b8382019150602082018581111561007d57600080fd5b825186602082028301116401000000008211171561009a57600080fd5b8083526020830192505050908051906020019060200280838360005b838110156100d15780820151818401526020810190506100b6565b50505050905001604052602001805190602001909291905050505050505060d3806100fd6000396000f3fe6080604052348015600f57600080fd5b506004361060285760003560e01c8063133349bc14602d575b600080fd5b60336075565b604051808273ffffffffffffffffffffffffffffffffffffffff1673ffffffffffffffffffffffffffffffffffffffff16815260200191505060405180910390f35b60008060009054906101000a900473ffffffffffffffffffffffffffffffffffffffff1690509056fea265627a7a72315820cb7fa716583059a020bbce26259674d194b43577d5ef6a0e57dfc8aa97ca045964736f6c634300050c0032",
  "source": "pragma solidity ^0.5.0;\r\n\r\nimport \"../appGovernanceUpgrade/Governance.sol\";\r\n\r\n\r\ncontract PreUpgrader1 {\r\n\r\n    address private _governanceAddr;\r\n\r\n    //owner and admin must be different\r\n    constructor(address ownerOfGovernanceAddr, address adminOfNewContractsAddr, uint[] memory governanceMembersId, address resposibleForAssigningGovernanceMembers) public {\r\n//TODO: ajustar\r\n/*\r\n        Governance governance = new Governance(adminOfNewContractsAddr, governanceMembersId, resposibleForAssigningGovernanceMembers);\r\n        governance.addPauser(ownerOfGovernanceAddr);\r\n        if (ownerOfGovernanceAddr!=adminOfNewContractsAddr) {\r\n            governance.addPauser(adminOfNewContractsAddr);\r\n        }\r\n        governance.renouncePauser();\r\n        governance.transferOwnership(ownerOfGovernanceAddr);\r\n        _governanceAddr = address(governance);\r\n*/\r\n    }\r\n\r\n    function governanceAddr() public view returns (address) {\r\n        return _governanceAddr;\r\n    }\r\n\r\n}",
  "sourcePath": "D:\\workspace\\bndestoken-captacao\\Back-Blockchain\\contracts\\appUpgraders\\PreUpgrader1.sol",
  "compiler": {
    "name": "solc",
    "version": "0.5.12+commit.7709ece9.Emscripten.clang"
  },
  "schemaVersion": "3.0.20",
  "updatedAt": "2020-01-31T18:10:32.396Z",
  "devdoc": {
    "methods": {}
  },
  "userdoc": {
    "methods": {}
  }
}