{
  "contractName": "PreUpgrader",
  "abi": [
    {
      "constant": true,
      "inputs": [],
      "name": "legalEntityMappingInstance",
      "outputs": [
        {
          "name": "",
          "type": "address"
        }
      ],
      "payable": false,
      "stateMutability": "view",
      "type": "function",
      "signature": "0x3daf3f68"
    },
    {
      "constant": true,
      "inputs": [],
      "name": "changeManagementInstance",
      "outputs": [
        {
          "name": "",
          "type": "address"
        }
      ],
      "payable": false,
      "stateMutability": "view",
      "type": "function",
      "signature": "0x44e0d573"
    },
    {
      "constant": true,
      "inputs": [],
      "name": "changeManagementAddr",
      "outputs": [
        {
          "name": "",
          "type": "address"
        }
      ],
      "payable": false,
      "stateMutability": "view",
      "type": "function",
      "signature": "0x5f59b8d6"
    },
    {
      "constant": true,
      "inputs": [],
      "name": "bndesRegistryInstance",
      "outputs": [
        {
          "name": "",
          "type": "address"
        }
      ],
      "payable": false,
      "stateMutability": "view",
      "type": "function",
      "signature": "0xaa3a7ce3"
    },
    {
      "constant": true,
      "inputs": [],
      "name": "resolverInstance",
      "outputs": [
        {
          "name": "",
          "type": "address"
        }
      ],
      "payable": false,
      "stateMutability": "view",
      "type": "function",
      "signature": "0xc3c3b459"
    },
    {
      "constant": true,
      "inputs": [],
      "name": "storageContractInstance",
      "outputs": [
        {
          "name": "",
          "type": "address"
        }
      ],
      "payable": false,
      "stateMutability": "view",
      "type": "function",
      "signature": "0xf9fb3ed4"
    },
    {
      "inputs": [
        {
          "name": "_changeManagementAddr",
          "type": "address"
        },
        {
          "name": "_resolverAddr",
          "type": "address"
        },
        {
          "name": "_storageContractAddr",
          "type": "address"
        },
        {
          "name": "_legalEntityMappingAddr",
          "type": "address"
        },
        {
          "name": "_bndesRegistryAddr",
          "type": "address"
        }
      ],
      "payable": false,
      "stateMutability": "nonpayable",
      "type": "constructor",
      "signature": "constructor"
    },
    {
      "constant": false,
      "inputs": [],
      "name": "upgrade",
      "outputs": [],
      "payable": false,
      "stateMutability": "nonpayable",
      "type": "function",
      "signature": "0xd55ec697"
    },
    {
      "constant": true,
      "inputs": [],
      "name": "getChangeManagementAddr",
      "outputs": [
        {
          "name": "",
          "type": "address"
        }
      ],
      "payable": false,
      "stateMutability": "view",
      "type": "function",
      "signature": "0xc7b755af"
    },
    {
      "constant": true,
      "inputs": [],
      "name": "getResolverAddr",
      "outputs": [
        {
          "name": "",
          "type": "address"
        }
      ],
      "payable": false,
      "stateMutability": "view",
      "type": "function",
      "signature": "0x09117d26"
    },
    {
      "constant": true,
      "inputs": [],
      "name": "getStorageContractAddr",
      "outputs": [
        {
          "name": "",
          "type": "address"
        }
      ],
      "payable": false,
      "stateMutability": "view",
      "type": "function",
      "signature": "0x9b7c2618"
    },
    {
      "constant": true,
      "inputs": [],
      "name": "getLegalEntityMappingAddr",
      "outputs": [
        {
          "name": "",
          "type": "address"
        }
      ],
      "payable": false,
      "stateMutability": "view",
      "type": "function",
      "signature": "0x33822ba4"
    },
    {
      "constant": true,
      "inputs": [],
      "name": "getBNDESRegistryAddr",
      "outputs": [
        {
          "name": "",
          "type": "address"
        }
      ],
      "payable": false,
      "stateMutability": "view",
      "type": "function",
      "signature": "0x522fe4b7"
    }
  ],
  "bytecode": "0x608060405234801561001057600080fd5b5060405160a080610d11833981018060405260a081101561003057600080fd5b810190808051906020019092919080519060200190929190805190602001909291908051906020019092919080519060200190929190505050846000806101000a81548173ffffffffffffffffffffffffffffffffffffffff021916908373ffffffffffffffffffffffffffffffffffffffff16021790555084600160006101000a81548173ffffffffffffffffffffffffffffffffffffffff021916908373ffffffffffffffffffffffffffffffffffffffff16021790555083600260006101000a81548173ffffffffffffffffffffffffffffffffffffffff021916908373ffffffffffffffffffffffffffffffffffffffff16021790555082600360006101000a81548173ffffffffffffffffffffffffffffffffffffffff021916908373ffffffffffffffffffffffffffffffffffffffff16021790555081600460006101000a81548173ffffffffffffffffffffffffffffffffffffffff021916908373ffffffffffffffffffffffffffffffffffffffff16021790555080600560006101000a81548173ffffffffffffffffffffffffffffffffffffffff021916908373ffffffffffffffffffffffffffffffffffffffff1602179055505050505050610b0f806102026000396000f3fe6080604052600436106100ba576000357c0100000000000000000000000000000000000000000000000000000000900463ffffffff16806309117d26146100bf57806333822ba4146101165780633daf3f681461016d57806344e0d573146101c4578063522fe4b71461021b5780635f59b8d6146102725780639b7c2618146102c9578063aa3a7ce314610320578063c3c3b45914610377578063c7b755af146103ce578063d55ec69714610425578063f9fb3ed41461043c575b600080fd5b3480156100cb57600080fd5b506100d4610493565b604051808273ffffffffffffffffffffffffffffffffffffffff1673ffffffffffffffffffffffffffffffffffffffff16815260200191505060405180910390f35b34801561012257600080fd5b5061012b6104bd565b604051808273ffffffffffffffffffffffffffffffffffffffff1673ffffffffffffffffffffffffffffffffffffffff16815260200191505060405180910390f35b34801561017957600080fd5b506101826104e7565b604051808273ffffffffffffffffffffffffffffffffffffffff1673ffffffffffffffffffffffffffffffffffffffff16815260200191505060405180910390f35b3480156101d057600080fd5b506101d961050d565b604051808273ffffffffffffffffffffffffffffffffffffffff1673ffffffffffffffffffffffffffffffffffffffff16815260200191505060405180910390f35b34801561022757600080fd5b50610230610533565b604051808273ffffffffffffffffffffffffffffffffffffffff1673ffffffffffffffffffffffffffffffffffffffff16815260200191505060405180910390f35b34801561027e57600080fd5b5061028761055d565b604051808273ffffffffffffffffffffffffffffffffffffffff1673ffffffffffffffffffffffffffffffffffffffff16815260200191505060405180910390f35b3480156102d557600080fd5b506102de610582565b604051808273ffffffffffffffffffffffffffffffffffffffff1673ffffffffffffffffffffffffffffffffffffffff16815260200191505060405180910390f35b34801561032c57600080fd5b506103356105ac565b604051808273ffffffffffffffffffffffffffffffffffffffff1673ffffffffffffffffffffffffffffffffffffffff16815260200191505060405180910390f35b34801561038357600080fd5b5061038c6105d2565b604051808273ffffffffffffffffffffffffffffffffffffffff1673ffffffffffffffffffffffffffffffffffffffff16815260200191505060405180910390f35b3480156103da57600080fd5b506103e36105f8565b604051808273ffffffffffffffffffffffffffffffffffffffff1673ffffffffffffffffffffffffffffffffffffffff16815260200191505060405180910390f35b34801561043157600080fd5b5061043a610621565b005b34801561044857600080fd5b50610451610abd565b604051808273ffffffffffffffffffffffffffffffffffffffff1673ffffffffffffffffffffffffffffffffffffffff16815260200191505060405180910390f35b6000600260009054906101000a900473ffffffffffffffffffffffffffffffffffffffff16905090565b6000600460009054906101000a900473ffffffffffffffffffffffffffffffffffffffff16905090565b600460009054906101000a900473ffffffffffffffffffffffffffffffffffffffff1681565b600160009054906101000a900473ffffffffffffffffffffffffffffffffffffffff1681565b6000600560009054906101000a900473ffffffffffffffffffffffffffffffffffffffff16905090565b6000809054906101000a900473ffffffffffffffffffffffffffffffffffffffff1681565b6000600360009054906101000a900473ffffffffffffffffffffffffffffffffffffffff16905090565b600560009054906101000a900473ffffffffffffffffffffffffffffffffffffffff1681565b600260009054906101000a900473ffffffffffffffffffffffffffffffffffffffff1681565b60008060009054906101000a900473ffffffffffffffffffffffffffffffffffffffff16905090565b6000809054906101000a900473ffffffffffffffffffffffffffffffffffffffff1673ffffffffffffffffffffffffffffffffffffffff163373ffffffffffffffffffffffffffffffffffffffff16141515610731576040517f08c379a00000000000000000000000000000000000000000000000000000000081526004018080602001828103825260488152602001807f5072655570677261646572202d20546869732066756e6374696f6e2063616e2081526020017f6f6e6c7920626520657865637574656420627920746865204368616e67654d6181526020017f6e6167656d656e7400000000000000000000000000000000000000000000000081525060600191505060405180910390fd5b600360009054906101000a900473ffffffffffffffffffffffffffffffffffffffff1673ffffffffffffffffffffffffffffffffffffffff1663fb7d8a1e600460009054906101000a900473ffffffffffffffffffffffffffffffffffffffff166040518263ffffffff167c0100000000000000000000000000000000000000000000000000000000028152600401808273ffffffffffffffffffffffffffffffffffffffff1673ffffffffffffffffffffffffffffffffffffffff168152602001915050602060405180830381600087803b15801561081057600080fd5b505af1158015610824573d6000803e3d6000fd5b505050506040513d602081101561083a57600080fd5b810190808051906020019092919050505050600460009054906101000a900473ffffffffffffffffffffffffffffffffffffffff1673ffffffffffffffffffffffffffffffffffffffff1663fb7d8a1e600560009054906101000a900473ffffffffffffffffffffffffffffffffffffffff166040518263ffffffff167c0100000000000000000000000000000000000000000000000000000000028152600401808273ffffffffffffffffffffffffffffffffffffffff1673ffffffffffffffffffffffffffffffffffffffff168152602001915050602060405180830381600087803b15801561092b57600080fd5b505af115801561093f573d6000803e3d6000fd5b505050506040513d602081101561095557600080fd5b810190808051906020019092919050505050600260009054906101000a900473ffffffffffffffffffffffffffffffffffffffff1673ffffffffffffffffffffffffffffffffffffffff1663cf1a652f600560009054906101000a900473ffffffffffffffffffffffffffffffffffffffff166040518263ffffffff167c010000000000000000000000000000000000000000000000000000000002815260040180806020018373ffffffffffffffffffffffffffffffffffffffff1673ffffffffffffffffffffffffffffffffffffffff1681526020018281038252600d8152602001807f424e44455352656769737472790000000000000000000000000000000000000081525060200192505050602060405180830381600087803b158015610a7f57600080fd5b505af1158015610a93573d6000803e3d6000fd5b505050506040513d6020811015610aa957600080fd5b810190808051906020019092919050505050565b600360009054906101000a900473ffffffffffffffffffffffffffffffffffffffff168156fea165627a7a72305820f123dffd323e99f8f464f849f2fc349aca8bc1ab7231a8350055dacb6c20afa90029",
  "source": "pragma solidity ^0.5.0;\r\n\r\nimport \"../appChangeManagementUpgrade/Upgrader.sol\";\r\nimport \"../appChangeManagementUpgrade/ChangeManagement.sol\";\r\nimport \"../appChangeManagementUpgrade/Resolver.sol\";\r\nimport \"../appChangeManagementUpgrade/Storage.sol\";\r\nimport \"../BNDESRegistry.sol\";\r\n\r\n\r\ncontract PreUpgrader is Upgrader {\r\n\r\n    address public changeManagementAddr;\r\n    ChangeManagement public changeManagementInstance;\r\n    Resolver public resolverInstance;\r\n    Storage public storageContractInstance;\r\n    LegalEntityMapping public legalEntityMappingInstance;\r\n    BNDESRegistry public bndesRegistryInstance;\r\n\r\n\r\n    constructor(address _changeManagementAddr, address _resolverAddr, address _storageContractAddr,\r\n            address _legalEntityMappingAddr, address _bndesRegistryAddr) public {\r\n        \r\n        changeManagementAddr = _changeManagementAddr;\r\n        changeManagementInstance = ChangeManagement(_changeManagementAddr);\r\n        resolverInstance = Resolver(_resolverAddr);\r\n        storageContractInstance = Storage(_storageContractAddr);\r\n        legalEntityMappingInstance = LegalEntityMapping(_legalEntityMappingAddr);\r\n        bndesRegistryInstance = BNDESRegistry(_bndesRegistryAddr);\r\n    }\r\n\r\n\r\n    modifier onlyChangeManagement() {\r\n        require(msg.sender==changeManagementAddr, \"PreUpgrader - This function can only be executed by the ChangeManagement\");\r\n        _;\r\n    }\r\n\r\n    function upgrade () external onlyChangeManagement {\r\n\r\n        storageContractInstance.addHandler(address(legalEntityMappingInstance));\r\n        legalEntityMappingInstance.addHandler(address(bndesRegistryInstance));\r\n        resolverInstance.changeContract(\"BNDESRegistry\", address(bndesRegistryInstance));\r\n\r\n    }\r\n\r\n    function getChangeManagementAddr() public view returns (address) {\r\n        return changeManagementAddr;\r\n    }\r\n\r\n    function getResolverAddr() public view returns (address) {\r\n        return address(resolverInstance);\r\n    }\r\n\r\n    function getStorageContractAddr() public view returns (address) {\r\n        return address(storageContractInstance);\r\n    }\r\n\r\n    function getLegalEntityMappingAddr() public view returns (address) {\r\n        return address(legalEntityMappingInstance);\r\n    }\r\n\r\n    function getBNDESRegistryAddr() public view returns (address) {\r\n        return address(bndesRegistryInstance);\r\n    }\r\n\r\n}",
  "sourcePath": "D:\\Workspace\\bndestoken-captacao\\Back-Blockchain\\contracts\\appUpgraders\\PreUpgrader.sol",
  "compiler": {
    "name": "solc",
    "version": "0.5.0+commit.1d4f565a.Emscripten.clang"
  },
  "schemaVersion": "3.0.5",
  "updatedAt": "2020-02-04T13:51:15.568Z",
  "devdoc": {
    "methods": {}
  },
  "userdoc": {
    "methods": {}
  }
}