{
  "contractName": "PreUpgrader2",
  "abi": [
    {
      "inputs": [
        {
          "internalType": "address",
          "name": "preUpgraderAddr1",
          "type": "address"
        }
      ],
      "payable": false,
      "stateMutability": "nonpayable",
      "type": "constructor"
    },
    {
      "constant": false,
      "inputs": [],
      "name": "upgrade",
      "outputs": [],
      "payable": false,
      "stateMutability": "nonpayable",
      "type": "function"
    },
    {
      "constant": true,
      "inputs": [],
      "name": "governanceAddr",
      "outputs": [
        {
          "internalType": "address",
          "name": "",
          "type": "address"
        }
      ],
      "payable": false,
      "stateMutability": "view",
      "type": "function"
    },
    {
      "constant": true,
      "inputs": [],
      "name": "resolverAddr",
      "outputs": [
        {
          "internalType": "address",
          "name": "",
          "type": "address"
        }
      ],
      "payable": false,
      "stateMutability": "view",
      "type": "function"
    },
    {
      "constant": true,
      "inputs": [],
      "name": "storageContractAddr",
      "outputs": [
        {
          "internalType": "address",
          "name": "",
          "type": "address"
        }
      ],
      "payable": false,
      "stateMutability": "view",
      "type": "function"
    }
  ],
  "bytecode": "0x608060405234801561001057600080fd5b506040516103ef3803806103ef8339818101604052602081101561003357600080fd5b810190808051906020019092919050505060008190508073ffffffffffffffffffffffffffffffffffffffff1663133349bc6040518163ffffffff1660e01b815260040160206040518083038186803b15801561008f57600080fd5b505afa1580156100a3573d6000803e3d6000fd5b505050506040513d60208110156100b957600080fd5b81019080805190602001909291905050506000806101000a81548173ffffffffffffffffffffffffffffffffffffffff021916908373ffffffffffffffffffffffffffffffffffffffff16021790555050506102d58061011a6000396000f3fe608060405234801561001057600080fd5b506004361061004c5760003560e01c8063133349bc1461005157806352daf7121461009b578063a0d7c785146100e5578063d55ec6971461012f575b600080fd5b610059610139565b604051808273ffffffffffffffffffffffffffffffffffffffff1673ffffffffffffffffffffffffffffffffffffffff16815260200191505060405180910390f35b6100a3610162565b604051808273ffffffffffffffffffffffffffffffffffffffff1673ffffffffffffffffffffffffffffffffffffffff16815260200191505060405180910390f35b6100ed61018c565b604051808273ffffffffffffffffffffffffffffffffffffffff1673ffffffffffffffffffffffffffffffffffffffff16815260200191505060405180910390f35b6101376101b6565b005b60008060009054906101000a900473ffffffffffffffffffffffffffffffffffffffff16905090565b6000600160009054906101000a900473ffffffffffffffffffffffffffffffffffffffff16905090565b6000600260009054906101000a900473ffffffffffffffffffffffffffffffffffffffff16905090565b3373ffffffffffffffffffffffffffffffffffffffff166000809054906101000a900473ffffffffffffffffffffffffffffffffffffffff1673ffffffffffffffffffffffffffffffffffffffff161461025b576040517f08c379a000000000000000000000000000000000000000000000000000000000815260040180806020018281038252604381526020018061025e6043913960600191505060405180910390fd5b56fe507265557067726164657232202d20546869732066756e6374696f6e2063616e206f6e6c792062652065786563757465642062792074686520476f7665726e616e6365a265627a7a72315820060d6bed518a08d2438cfb26ef7877068dd1c1d94ab57e62e5f50404d3ca016264736f6c634300050c0032",
  "source": "pragma solidity ^0.5.0;\r\n\r\nimport \"../appGovernanceUpgrade/Upgrader.sol\";\r\nimport \"../appGovernanceUpgrade/Governance.sol\";\r\nimport \"../appGovernanceUpgrade/Resolver.sol\";\r\nimport \"../appGovernanceUpgrade/UpgraderInfo.sol\";\r\nimport \"../appGovernanceUpgrade/Storage.sol\";\r\nimport \"./PreUpgrader1.sol\";\r\n\r\n\r\ncontract PreUpgrader2 is Upgrader {\r\n\r\n    //Variables from previous Migration\r\n    address private _governanceAddr;\r\n\r\n    //New variables\r\n    address private _resolverAddr;\r\n\r\n    //New variables\r\n    address private _storageContractAddr;\r\n\r\n    constructor(address preUpgraderAddr1) public {\r\n        \r\n        PreUpgrader1 preUpgrader1 = PreUpgrader1(preUpgraderAddr1);\r\n        _governanceAddr = preUpgrader1.governanceAddr();\r\n\r\n    }\r\n\r\n    modifier onlyGovernance() {\r\n        require(_governanceAddr==msg.sender, \"PreUpgrader2 - This function can only be executed by the Governance\");\r\n        _;\r\n    }\r\n\r\n    function upgrade () external onlyGovernance {\r\n/*\r\n        Governance governance = Governance(_governanceAddr);\r\n        UpgraderInfo ui = UpgraderInfo(governance.upgraderInfoAddr());\r\n\r\n        Resolver resolver = new Resolver(governance.upgraderInfoAddr());\r\n\r\n        resolver.addPauser(governance.owner());\r\n        if (governance.owner()!=ui.adminAddr()) {\r\n            resolver.addPauser(ui.adminAddr());\r\n        }\r\n        resolver.renouncePauser();\r\n        \r\n        _resolverAddr = address(resolver);\r\n\r\n        Storage storageContract = new Storage(governance.upgraderInfoAddr());\r\n        _storageContractAddr = address(storageContract);\r\n        \r\n        //Owner is a pausable because it enables him to remove other pausers\r\n        storageContract.addPauser(governance.owner());\r\n        if (governance.owner()!=ui.adminAddr()) {\r\n            storageContract.addPauser(ui.adminAddr());\r\n        }\r\n        storageContract.renouncePauser();\r\n*/\r\n    }\r\n\r\n    function governanceAddr() public view returns (address) {\r\n        return _governanceAddr;\r\n    }\r\n\r\n    function resolverAddr() public view returns (address) {\r\n        return _resolverAddr;\r\n    }\r\n\r\n    function storageContractAddr() public view returns (address) {\r\n        return _storageContractAddr;\r\n    }\r\n}\r\n",
  "sourcePath": "D:\\workspace\\bndestoken-captacao\\Back-Blockchain\\contracts\\appUpgraders\\PreUpgrader2.sol",
  "compiler": {
    "name": "solc",
    "version": "0.5.12+commit.7709ece9.Emscripten.clang"
  },
  "schemaVersion": "3.0.20",
  "updatedAt": "2020-01-31T18:10:32.398Z",
  "devdoc": {
    "methods": {}
  },
  "userdoc": {
    "methods": {}
  }
}