{
  "contractName": "UpgraderInfo",
  "abi": [
    {
      "constant": true,
      "inputs": [],
      "name": "_adminAddr",
      "outputs": [
        {
          "name": "",
          "type": "address"
        }
      ],
      "payable": false,
      "stateMutability": "view",
      "type": "function"
    },
    {
      "constant": true,
      "inputs": [],
      "name": "allowedUpgraderAddr",
      "outputs": [
        {
          "name": "",
          "type": "address"
        }
      ],
      "payable": false,
      "stateMutability": "view",
      "type": "function"
    },
    {
      "constant": false,
      "inputs": [],
      "name": "renounceOwnership",
      "outputs": [],
      "payable": false,
      "stateMutability": "nonpayable",
      "type": "function"
    },
    {
      "constant": true,
      "inputs": [],
      "name": "owner",
      "outputs": [
        {
          "name": "",
          "type": "address"
        }
      ],
      "payable": false,
      "stateMutability": "view",
      "type": "function"
    },
    {
      "constant": true,
      "inputs": [],
      "name": "isOwner",
      "outputs": [
        {
          "name": "",
          "type": "bool"
        }
      ],
      "payable": false,
      "stateMutability": "view",
      "type": "function"
    },
    {
      "constant": false,
      "inputs": [
        {
          "name": "newOwner",
          "type": "address"
        }
      ],
      "name": "transferOwnership",
      "outputs": [],
      "payable": false,
      "stateMutability": "nonpayable",
      "type": "function"
    },
    {
      "inputs": [
        {
          "name": "newAdmin",
          "type": "address"
        }
      ],
      "payable": false,
      "stateMutability": "nonpayable",
      "type": "constructor"
    },
    {
      "anonymous": false,
      "inputs": [
        {
          "indexed": true,
          "name": "previousAddr",
          "type": "address"
        },
        {
          "indexed": true,
          "name": "newAddr",
          "type": "address"
        }
      ],
      "name": "AllowedUpgraderChanged",
      "type": "event"
    },
    {
      "anonymous": false,
      "inputs": [
        {
          "indexed": true,
          "name": "previousAddr",
          "type": "address"
        },
        {
          "indexed": true,
          "name": "newAddr",
          "type": "address"
        }
      ],
      "name": "AdminChanged",
      "type": "event"
    },
    {
      "anonymous": false,
      "inputs": [
        {
          "indexed": true,
          "name": "previousOwner",
          "type": "address"
        },
        {
          "indexed": true,
          "name": "newOwner",
          "type": "address"
        }
      ],
      "name": "OwnershipTransferred",
      "type": "event"
    },
    {
      "constant": true,
      "inputs": [],
      "name": "getAllowedUpgraderAddr",
      "outputs": [
        {
          "name": "",
          "type": "address"
        }
      ],
      "payable": false,
      "stateMutability": "view",
      "type": "function"
    },
    {
      "constant": true,
      "inputs": [
        {
          "name": "sender",
          "type": "address"
        }
      ],
      "name": "isAllowedUpgrader",
      "outputs": [
        {
          "name": "",
          "type": "bool"
        }
      ],
      "payable": false,
      "stateMutability": "view",
      "type": "function"
    },
    {
      "constant": false,
      "inputs": [
        {
          "name": "newAddr",
          "type": "address"
        }
      ],
      "name": "setAllowedUpgrader",
      "outputs": [],
      "payable": false,
      "stateMutability": "nonpayable",
      "type": "function"
    },
    {
      "constant": true,
      "inputs": [
        {
          "name": "possibleAdmin",
          "type": "address"
        }
      ],
      "name": "isAdmin",
      "outputs": [
        {
          "name": "",
          "type": "bool"
        }
      ],
      "payable": false,
      "stateMutability": "view",
      "type": "function"
    },
    {
      "constant": true,
      "inputs": [],
      "name": "adminAddr",
      "outputs": [
        {
          "name": "",
          "type": "address"
        }
      ],
      "payable": false,
      "stateMutability": "view",
      "type": "function"
    },
    {
      "constant": false,
      "inputs": [
        {
          "name": "newAddr",
          "type": "address"
        }
      ],
      "name": "setAdminAddr",
      "outputs": [],
      "payable": false,
      "stateMutability": "nonpayable",
      "type": "function"
    }
  ],
  "bytecode": "0x608060405234801561001057600080fd5b50604051602080610c7d8339810180604052602081101561003057600080fd5b8101908080519060200190929190505050336000806101000a81548173ffffffffffffffffffffffffffffffffffffffff021916908373ffffffffffffffffffffffffffffffffffffffff1602179055506000809054906101000a900473ffffffffffffffffffffffffffffffffffffffff1673ffffffffffffffffffffffffffffffffffffffff16600073ffffffffffffffffffffffffffffffffffffffff167f8be0079c531659141344cd1fd0a4f28419497f9722a3daafe3b4186f6b6457e060405160405180910390a38073ffffffffffffffffffffffffffffffffffffffff16600260009054906101000a900473ffffffffffffffffffffffffffffffffffffffff1673ffffffffffffffffffffffffffffffffffffffff167f7e644d79422f17c01e4894b5f4f588d331ebfa28653d42ae832dc59e38c9798f60405160405180910390a380600260006101000a81548173ffffffffffffffffffffffffffffffffffffffff021916908373ffffffffffffffffffffffffffffffffffffffff16021790555050610ab3806101ca6000396000f3fe6080604052600436106100ba576000357c0100000000000000000000000000000000000000000000000000000000900463ffffffff168063030aa320146100bf57806311a1c4231461011657806324d7806c146101675780632ea6895e146101d057806341a28df614610227578063715018a6146102785780637e96549f1461028f57806381830593146102f85780638da5cb5b1461034f5780638f32d59b146103a6578063eff2dcc6146103d5578063f2fde38b1461042c575b600080fd5b3480156100cb57600080fd5b506100d461047d565b604051808273ffffffffffffffffffffffffffffffffffffffff1673ffffffffffffffffffffffffffffffffffffffff16815260200191505060405180910390f35b34801561012257600080fd5b506101656004803603602081101561013957600080fd5b81019080803573ffffffffffffffffffffffffffffffffffffffff1690602001909291905050506104a3565b005b34801561017357600080fd5b506101b66004803603602081101561018a57600080fd5b81019080803573ffffffffffffffffffffffffffffffffffffffff169060200190929190505050610576565b604051808215151515815260200191505060405180910390f35b3480156101dc57600080fd5b506101e56105d0565b604051808273ffffffffffffffffffffffffffffffffffffffff1673ffffffffffffffffffffffffffffffffffffffff16815260200191505060405180910390f35b34801561023357600080fd5b506102766004803603602081101561024a57600080fd5b81019080803573ffffffffffffffffffffffffffffffffffffffff1690602001909291905050506105f6565b005b34801561028457600080fd5b5061028d61076e565b005b34801561029b57600080fd5b506102de600480360360208110156102b257600080fd5b81019080803573ffffffffffffffffffffffffffffffffffffffff169060200190929190505050610840565b604051808215151515815260200191505060405180910390f35b34801561030457600080fd5b5061030d61089a565b604051808273ffffffffffffffffffffffffffffffffffffffff1673ffffffffffffffffffffffffffffffffffffffff16815260200191505060405180910390f35b34801561035b57600080fd5b506103646108c4565b604051808273ffffffffffffffffffffffffffffffffffffffff1673ffffffffffffffffffffffffffffffffffffffff16815260200191505060405180910390f35b3480156103b257600080fd5b506103bb6108ed565b604051808215151515815260200191505060405180910390f35b3480156103e157600080fd5b506103ea610944565b604051808273ffffffffffffffffffffffffffffffffffffffff1673ffffffffffffffffffffffffffffffffffffffff16815260200191505060405180910390f35b34801561043857600080fd5b5061047b6004803603602081101561044f57600080fd5b81019080803573ffffffffffffffffffffffffffffffffffffffff16906020019092919050505061096e565b005b600260009054906101000a900473ffffffffffffffffffffffffffffffffffffffff1681565b6104ab6108ed565b15156104b657600080fd5b8073ffffffffffffffffffffffffffffffffffffffff16600160009054906101000a900473ffffffffffffffffffffffffffffffffffffffff1673ffffffffffffffffffffffffffffffffffffffff167f9cc0fca95bdc66b57e27ff56ce70619d6c76e891759b10768345411032913ecf60405160405180910390a380600160006101000a81548173ffffffffffffffffffffffffffffffffffffffff021916908373ffffffffffffffffffffffffffffffffffffffff16021790555050565b60008173ffffffffffffffffffffffffffffffffffffffff16600260009054906101000a900473ffffffffffffffffffffffffffffffffffffffff1673ffffffffffffffffffffffffffffffffffffffff16149050919050565b600160009054906101000a900473ffffffffffffffffffffffffffffffffffffffff1681565b6105fe6108ed565b151561060957600080fd5b600073ffffffffffffffffffffffffffffffffffffffff168173ffffffffffffffffffffffffffffffffffffffff16141515156106ae576040517f08c379a000000000000000000000000000000000000000000000000000000000815260040180806020018281038252601e8152602001807f4e657741646472206973206e6f7420612076616c69642061646472657373000081525060200191505060405180910390fd5b8073ffffffffffffffffffffffffffffffffffffffff16600260009054906101000a900473ffffffffffffffffffffffffffffffffffffffff1673ffffffffffffffffffffffffffffffffffffffff167f7e644d79422f17c01e4894b5f4f588d331ebfa28653d42ae832dc59e38c9798f60405160405180910390a380600260006101000a81548173ffffffffffffffffffffffffffffffffffffffff021916908373ffffffffffffffffffffffffffffffffffffffff16021790555050565b6107766108ed565b151561078157600080fd5b600073ffffffffffffffffffffffffffffffffffffffff166000809054906101000a900473ffffffffffffffffffffffffffffffffffffffff1673ffffffffffffffffffffffffffffffffffffffff167f8be0079c531659141344cd1fd0a4f28419497f9722a3daafe3b4186f6b6457e060405160405180910390a360008060006101000a81548173ffffffffffffffffffffffffffffffffffffffff021916908373ffffffffffffffffffffffffffffffffffffffff160217905550565b6000600160009054906101000a900473ffffffffffffffffffffffffffffffffffffffff1673ffffffffffffffffffffffffffffffffffffffff168273ffffffffffffffffffffffffffffffffffffffff16149050919050565b6000600260009054906101000a900473ffffffffffffffffffffffffffffffffffffffff16905090565b60008060009054906101000a900473ffffffffffffffffffffffffffffffffffffffff16905090565b60008060009054906101000a900473ffffffffffffffffffffffffffffffffffffffff1673ffffffffffffffffffffffffffffffffffffffff163373ffffffffffffffffffffffffffffffffffffffff1614905090565b6000600160009054906101000a900473ffffffffffffffffffffffffffffffffffffffff16905090565b6109766108ed565b151561098157600080fd5b61098a8161098d565b50565b600073ffffffffffffffffffffffffffffffffffffffff168173ffffffffffffffffffffffffffffffffffffffff16141515156109c957600080fd5b8073ffffffffffffffffffffffffffffffffffffffff166000809054906101000a900473ffffffffffffffffffffffffffffffffffffffff1673ffffffffffffffffffffffffffffffffffffffff167f8be0079c531659141344cd1fd0a4f28419497f9722a3daafe3b4186f6b6457e060405160405180910390a3806000806101000a81548173ffffffffffffffffffffffffffffffffffffffff021916908373ffffffffffffffffffffffffffffffffffffffff1602179055505056fea165627a7a723058203cc728af0217fb85b9812d738fe7dabfebc1214494bcf4f98bc412c46690b9270029",
  "source": "pragma solidity ^0.5.0;\r\n\r\nimport \"openzeppelin-solidity/contracts/ownership/Ownable.sol\";\r\n\r\n//O owner desse contrato é o contrato de Governanca\r\ncontract UpgraderInfo is Ownable() {\r\n\r\n    address public allowedUpgraderAddr;\r\n\r\n    address public _adminAddr;\r\n\r\n    event AllowedUpgraderChanged(address indexed previousAddr, address indexed newAddr);\r\n    event AdminChanged(address indexed previousAddr, address indexed newAddr);\r\n\r\n    constructor (address newAdmin) public {\r\n       emit AdminChanged(_adminAddr, newAdmin);\r\n       _adminAddr = newAdmin;\r\n    }\r\n\r\n    function getAllowedUpgraderAddr() public view returns (address) {\r\n        return allowedUpgraderAddr;\r\n    }\r\n\r\n    function isAllowedUpgrader(address sender) public view returns (bool) {\r\n        return sender == allowedUpgraderAddr;\r\n    }\r\n\r\n    function setAllowedUpgrader(address newAddr) public onlyOwner {\r\n//        require(newAddr!=address(0), \"NewAddr is not a valid address\");\r\n        emit AllowedUpgraderChanged(allowedUpgraderAddr, newAddr);\r\n        allowedUpgraderAddr = newAddr;\r\n    }\r\n\r\n    function isAdmin(address possibleAdmin) public view returns (bool) {\r\n        return _adminAddr==possibleAdmin;\r\n    }\r\n\r\n    function adminAddr() public view returns (address) {\r\n        return _adminAddr;\r\n    }\r\n\r\n//se mudar admin precisa setar em cada contrato o novo pauser!!!!!!!!!\r\n//avaliar se esse metodo deve existir\r\n    function setAdminAddr (address newAddr) public onlyOwner {\r\n        require(newAddr!=address(0), \"NewAddr is not a valid address\");\r\n        emit AdminChanged(_adminAddr, newAddr);\r\n        _adminAddr = newAddr;\r\n    }\r\n\r\n\r\n}\r\n",
  "sourcePath": "D:\\Workspace\\bndestoken-captacao\\Back-Blockchain\\contracts\\appGovernanceUpgrade\\UpgraderInfo.sol",
  "compiler": {
    "name": "solc",
    "version": "0.5.0+commit.1d4f565a.Emscripten.clang"
  },
  "schemaVersion": "3.0.5",
  "updatedAt": "2020-01-28T21:25:38.200Z",
  "devdoc": {
    "methods": {
      "isOwner()": {
        "return": "true if `msg.sender` is the owner of the contract."
      },
      "owner()": {
        "return": "the address of the owner."
      },
      "renounceOwnership()": {
        "details": "Allows the current owner to relinquish control of the contract."
      },
      "transferOwnership(address)": {
        "details": "Allows the current owner to transfer control of the contract to a newOwner.",
        "params": {
          "newOwner": "The address to transfer ownership to."
        }
      }
    }
  },
  "userdoc": {
    "methods": {
      "renounceOwnership()": {
        "notice": "Renouncing to ownership will leave the contract without an owner. It will not be possible to call the functions with the `onlyOwner` modifier anymore."
      }
    }
  }
}